:020000040800F2
:1000000000080020D14D00087D430008814300080E
:1000100085430008894300088D4300080000000064
:1000200000000000000000000000000095430008F0
:100030009143000800000000994300089D43000818
:10004000A1430008A5430008A9430008AD430008E8
:10005000B1430008B5430008B9430008BD43000898
:10006000C1430008C5430008C9430008CD43000848
:10007000D1430008D5430008D9430008DD430008F8
:10008000E1430008E5430008E9430008ED430008A8
:10009000F5430008FD43000801440008054400083A
:1000A000094400080D4400081144000815440008E4
:1000B000194400081D440008214400082544000894
:1000C000294400082D440008314400083544000844
:1000D000394400083D440008454400084D440008E8
:0C00E00055440008594400085D44000825
:1000EC0001B481B011F00F010198006810F4E060C8
:1000FC00014348F2800001430198016002B070474F
:10010C0011B581B00C00019804F0BAFEE4B2A04223
:10011C001FD0E4B22000000101990968484048F260
:10012C00800108430B49084001990860019804F0CC
:10013C00A7FEE4B2A0420CD0E4B220000001019969
:10014C000968484048F28001084302490840019977
:10015C00086013BDBF8FFFFF01B481B0002904D02C
:10016C000198006890F0400101E0019801680C488A
:10017C00014048F2800001430198016002B07047D1
:10018C0001B481B00198006850F040000449084067
:10019C0048F2800108430199086002B070470000E2
:1001AC00CF8FFFFF01B481B001980068034908406C
:1001BC0050F400400199086002B070470F8FFFFFA8
:1001CC0001B481B0002902D04FF4807100E000210D
:1001DC0001980068044A1040014348F28000014332
:1001EC000198016002B070478F8EFFFF01B481B09F
:1001FC00C9B2490201980068044A1040014348F210
:10020C00800001430198016002B070478F89FFFFA5
:10021C0011B581B00C00019804F03CFEE4B2A04290
:10022C001FD0E4B22000000301990968484048F24D
:10023C00800108430B49084001990860019804F0BB
:10024C0029FEE4B2A0420CD0E4B2200000030199D4
:10025C000968484048F28001084302490840019966
:10026C00086013BD8FBFFFFF01B481B0002904D01B
:10027C000198006890F4804101E0019801680C48F5
:10028C00014048F2800001430198016002B07047C0
:10029C0001B481B00198006850F4804004490840D2
:1002AC0048F2800108430199086002B070470000D1
:1002BC008FCFFFFF01B481B001980068034908405B
:1002CC0050F080000199086002B070478F0FFFFF5B
:1002DC0000B583B001215FF4000003F071FC012133
:1002EC005FF4000003F048FC00215FF4000003F011
:1002FC0067FC002003F0A4FBDFF87C0901210180DE
:10030C0000210D2003F04AFC01210D2003F022FCFA
:10031C0001222021DFF86C0803F076FF2020ADF8D5
:10032C00040010208DF8070003208DF8060001A9A9
:10033C00DFF8500803F0DCFE01215FF4EA1003F053
:10034C006DFF4FF4C050ADF8040018208DF8070075
:10035C0003208DF8060001A9144803F0C9FE002003
:10036C0000F004FC00F026F8114800210180132055
:10037C008DF8000001208DF8010000208DF802009E
:10038C0001208DF8030000A803F088FF14208DF8DD
:10039C00000002208DF8010000208DF802000120E1
:1003AC008DF8030000A803F079FF07BD0008014099
:1003BC00445C004080B5002007E02821DFF8982736
:1003CC0000FB012100220A60401C2028F5D30020EC
:1003DC0006E00C21274A00FB012100228A80401CE8
:1003EC001028F6D3DFF88C0800210160002004F0FF
:1003FC00FFFDDFF85407DFF85417401A4008403867
:10040C004FF6F87108400C490880584800210160EB
:10041C0001220A490A4800F0ABF8012209490A48AE
:10042C0000F0A6F8002000F099FBDFF84C084FF420
:10043C001C41018001BD00BF505C0040C44F00084E
:10044C00BC4F0008D44F0008CC4F0008002000E03F
:10045C00401C10280BD20C21064A00FB0121898874
:10046C000029F5D10C21034A00FB012000E00020FB
:10047C0070470000F81200200021818070470000B6
:10048C002DE9F04106000C00150038480768D4F837
:10049C000080B8F13F0F05D318F11F081F2038EA70
:1004AC00000804E018F10108012038EA00080020D7
:1004BC00308000E0BF68002F15D07888B988081804
:1004CC0030803088C01C308030884FF6FC7108407A
:1004DC003080B868B968002905D04088318818EB9D
:1004EC0001018842E6D3308818EB0000DFF858167B
:1004FC00DFF85826891A403907229143884201D3E4
:10050C0000201BE0FFF7A2FF002801D1002015E01E
:10051C0016490968002906D114490860134909686D
:10052C0000228A6002E0B9688160B8600570318889
:10053C004180A0F80480C4F800800120BDE8F0815F
:10054C0038B504000948006800280DD00178E4B2E1
:10055C00A14205D18168A960FFF78EFFA86801E070
:10056C00050080680028EFD131BD00009C140020EC
:10057C002DE9FF4104000D009046002C09D140F2FA
:10058C000232DFF8CC15DFF8B00504F043FA04F0C2
:10059C003FFAA07801F076FA0600F6B22820DFF8D0
:1005AC00B81506FB0017B8F1000F00F08E82002D75
:1005BC0009D140F20932DFF89815DFF8800504F014
:1005CC0029FA04F025FAA08802903200D2B202A9CE
:1005DC000DF10600FFF754FF002801D10420A6E21C
:1005EC00686800280FD0A08802903200D2B202A90D
:1005FC0001A8FFF745FF002805D13000C0B2FFF776
:10060C009FFF042093E200203877002087F8250014
:10061C00E07810F003003873A088B86097F82500D4
:10062C0010F0FE00696811F00101084387F82500FD
:10063C002878387116F0010F0DD0F6B22820DFF8AB
:10064C00181506FB001090F8250010F00100401C56
:10065C0087F8240002E0002087F82400DFF8F40477
:10066C0000902878009911EB80000090F6B2710888
:10067C00C9B20098FFF734FD0098386016F0010FEE
:10068C0000F00B8100210098FFF73AFD0021009843
:10069C00FFF762FD0098FFF785FDDFF8B004DFF887
:1006AC00A814DFF8A824891A490840390722914375
:1006BC003A7911EBC20149000322914308183979A8
:1006CC00C90011F00101BDF806200A52DFF87C04C4
:1006DC00DFF87414DFF87424891A490840390722AA
:1006EC0091433A7911EBC201891C490003229143D1
:1006FC0008183979C90011F0010100220A52387B1F
:10070C00002807D0012812D0022863D0032800F05B
:10071C00AB80B6E001210098FFF768FD002100983E
:10072C00FFF74EFD02210098FFF7EAFCB1E097F8C5
:10073C00250010F0010F09D14FF45572DFF8101499
:10074C00DFF8FC0304F066F904F062F9002100986C
:10075C00FFF75EFDDFF8F403DFF8EC13DFF8EC23B2
:10076C00891A49084039072291433A7911EBC201A1
:10077C00091D49000322914308183979C90011F069
:10078C000101BDF804200A52DFF8C003DFF8B813EA
:10079C00DFF8B823891A49084039072291433A797E
:1007AC0011EBC201891D49000322914308183979C4
:1007BC00C90011F0010100220A5202210098FFF732
:1007CC0015FD00210098FFF7FBFC03210098FFF7B3
:1007DC0097FC5EE000210098FFF708FD97F82500D4
:1007EC0010F001010098FFF7EBFC97F8250010F0D2
:1007FC00010F34D000210098FFF70AFDD348D249ED
:10080C00D24A891A49084039072291433A7911EBA7
:10081C00C201091D49000322914308183979C90006
:10082C0011F00101BDF804200A52C848C649C74A54
:10083C00891A49084039072291433A7911EBC201D0
:10084C00891D49000322914308183979C90011F018
:10085C00010100220A5200210098FFF705FD022138
:10086C000098FFF74DFC14E003210098FFF7BEFC45
:10087C0000210098FFF7A4FC02210098FFF740FC30
:10088C0007E040F27632B249AAA004F0C3F804F0B3
:10089C00BFF80098FFF786FC48E1AA48006803906F
:1008AC0000210098FFF7B4FC00210098FFF7DCFC56
:1008BC000098FFF7FFFCA088029002983F28804127
:1008CC00C043C00FBDF80C104904490CC0B280B233
:1008DC0051EAC030ADF80C0002983F2803D30298BF
:1008EC004009401E01E002984008BDF80C1048F287
:1008FC00FF32114080B2800210F4F8400843ADF88A
:10090C000C0092489049914A891A490840390722AB
:10091C0091433A7911EBC201091D4900032291431D
:10092C0008183979C90011F00101BDF806200A52E6
:10093C0086488549854A891A4908403907229143D6
:10094C003A7911EBC201891D490003229143081821
:10095C003979C90011F00101BDF80C200A52387B1D
:10096C00002807D0012812D002284ED0032800F00E
:10097C009680A1E001210098FFF738FC0021009837
:10098C00FFF71EFC02210098FFF742FCCEE06F48F7
:10099C006D496E4A891A49084039072291433A79C0
:1009AC0011EBC201891C49000322914308183979C3
:1009BC00C90011F00101BDF80C200A520021009869
:1009CC00FFF79EFB61486049604A891A4908403923
:1009DC00072291433A7911EBC2014900032291435A
:1009EC0008183979C90011F00101BDF804200A5228
:1009FC0002210098FFF7FAFB00210098FFF7E0FBBB
:100A0C0003210098FFF704FC90E000210098FFF709
:100A1C00EDFB97F8250010F001010098FFF7D0FBD3
:100A2C0097F8250010F0010F34D000210098FFF743
:100A3C0067FB46484449454A891A49084039072208
:100A4C0091433A7911EBC201891C4900032291436D
:100A5C0008183979C90011F00101BDF80C200A52AF
:100A6C003A483949394A891A490840390722914389
:100A7C003A7911EBC20149000322914308183979E4
:100A8C00C90011F00101BDF804200A5200210098A0
:100A9C00FFF762FB03210098FFF7BAFB46E0032146
:100AAC000098FFF7A3FB00210098FFF789FB0321B7
:100ABC000098FFF7ADFB39E040F2B53224491DA098
:100ACC0003F0A8FF03F0A4FF30E0F6B2282022497F
:100ADC0006FB00100068002828D01E480090F6B2D3
:100AEC0028201D4906FB00100079009911EB8000AD
:100AFC00009016F0010F07D000210098FFF700FBC3
:100B0C000098FFF74FFB06E000210098FFF780FBF1
:100B1C000098FFF7CFFB3000C0B2FFF711FDF6B223
:100B2C0028200D4906FB001000210160002004B0B4
:100B3C00BDE8F08130000000884F0008144F000819
:100B4C00704D0008F04F0008006400400060004049
:100B5C0038460008005C0040F80D002050F0800082
:100B6C0001490880704700BF4C5C004080B5020012
:100B7C00521E9241D20FD2B22021024803F044FB04
:100B8C0001BD0000000C01403B48008850F00800FB
:100B9C00394908803848008850F0040036490880EC
:100BAC007047000080B5C0B2002804D0012823D0C3
:100BBC0002283BD05BE02F480068002857D02D4816
:100BCC000068401E2B490860002850D12A48008834
:100BDC004FF6FF61084028490880274800884FF6E7
:100BEC00EF71084024490880234800884FF6F771BC
:100BFC000840214908803AE01F4800884FF6FB71F5
:100C0C0008401D4908801B48082101601A480088CB
:100C1C0050F01000184908801748008850F4807074
:100C2C0015490880002001F0EDF920E010480088FB
:100C3C0080B210F44040B0F5004F05D1B0F5405FE4
:100C4C0002D1FFF7A1FF12E0002810D00A4800885B
:100C5C004FF6FB71084008490880074800884FF69A
:100C6C00F771084004490880002001F0CBF901BD60
:100C7C00485C0040A0140020405C004010B504000B
:100C8C00E4B22820584A04FB00200068002801D157
:100C9C000620A7E0002936D0E4B22820524904FBF4
:100CAC0000100721017714F0010F1AD00121E4B2D2
:100CBC0028204D4A04FB00200068FFF721FAE4B21B
:100CCC002820494904FB001090F8250010F0010081
:100CDC00401CE4B22821444A04FB012181F8240081
:100CEC007FE00121E4B228203F4A04FB0020006889
:100CFC00FFF78EFAE4B228203B4904FB00100021D8
:100D0C0080F824106DE0E4B22820374904FB001071
:100D1C000021017714F0010F36D0E4B228203249BB
:100D2C0004FB001090F8250010F00100401CE4B208
:100D3C0028212D4A04FB012181F82400E4B228204B
:100D4C00294904FB001090F8250010F0010F08D081
:100D5C000021E4B22820244A04FB00200068FFF79D
:100D6C0083FA0021E4B228201F4A04FB002000680B
:100D7C00FFF7F2F90221E4B228201B4A04FB002001
:100D8C000068FFF7BDF92CE0E4B22820164904FBFB
:100D9C000010002180F82410E4B22820124904FB32
:100DAC00001090F8250010F0010F08D00021E4B2DB
:100DBC0028200D4A04FB00200068FFF7CDF9002124
:100DCC00E4B22820084A04FB00200068FFF74CFA24
:100DDC000321E4B22820044A04FB00200068FFF73A
:100DEC0017FA002010BD00BFF80D002080B50E488A
:100DFC0090F84D0010F00100401C0B4981F84C009C
:100E0C000948072180F844100748002180F8241075
:100E1C0005480721017701210120FFF72FFF012150
:100E2C000020FFF72BFF01BDF80D002010B50C00C2
:100E3C00C0B22821154A00FB01210968002901D103
:100E4C00062021E010F0010F0ED0C0B228210F4A6D
:100E5C0000FB0120006804F013F8012801D10120E7
:100E6C0000E00020C0B20DE0C0B22821074A00FB10
:100E7C000120006804F00EF8012801D1012000E0E7
:100E8C000020C0B22060002010BD00BFF80D002073
:100E9C00F8B50400E4B22820DFF8D41B04FB0015DD
:100EAC002868002809D140F2D942DFF8C81BDFF8C6
:100EBC00C80B03F0AFFD03F0ABFD287F022803D075
:100ECC00287F012840F0D08514F0010F00F0F1824A
:100EDC00A8696969401A2FE0DFF8A00BDFF8A01BA6
:100EEC00DFF8982B891A49084039072291432A794F
:100EFC0011EBC201891D490003229143081829797D
:100F0C00C90011F001010E5203212868FFF7F8F80F
:100F1C00E4B22820DFF8581B04FB001090F82400E2
:100F2C00401EE4B22821DFF8482B04FB012181F894
:100F3C002400A8696969401A95F82410002900F06A
:100F4C00A482002805D195F8251011F0020F00F0AD
:100F5C009C820221297795F8251011F0040F0ED0F0
:100F6C00A96888420BD195F8251011F0FB0185F882
:100F7C00251095F8251051F0020185F82510A96867
:100F8C00884200D908000600002805D195F82510E4
:100F9C0011F0FD0185F8251069696A6982186A618A
:100FAC0001272A7B002A07D0012A00F07081022A2F
:100FBC0058D0032A40F02682DFF8C02ADFF8BC3A6A
:100FCC00DFF8BCCADFF8B4EABCEB0E0C5FEA5C0CD1
:100FDC00BCF1400C5FF0070E3CEA0E0C95F804E0F7
:100FEC001CEBCE0C5FEA4C0C5FF0030E3CEA0E0CD3
:100FFC001CEB030395F804C05FEACC0C1CF0010C4D
:10100C003CF803309BB25B005FF0030C33EA0C033B
:10101C009A18DFF8683ADFF868CADFF860EABCEBC8
:10102C000E0C5FEA5C0CBCF1400C5FF0070E3CEA66
:10103C000E0C95F804E01CEBCE0C5FEA4C0C5FF048
:10104C00030E3CEA0E0C1CEB030395F804C05FEA9C
:10105C00CC0C1CF0010C3CF803309BB213F00103D8
:10106C009B18E9E195F8252012F0010F55D1DFF816
:10107C000C2ADFF8083ADFF808CADFF800EABCEB04
:10108C000E0C5FEA5C0CBCF1400C5FF0070E3CEA06
:10109C000E0C95F804E01CEBCE0C5FEA4C0C5FF0E8
:1010AC00030E3CEA0E0C1CEB030395F804C05FEA3C
:1010BC00CC0C1CF0010C3CF803309BB25B005FF0D5
:1010CC00030C33EA0C039A18DFF8B039DFF8B0C917
:1010DC00DFF8A8E9BCEB0E0C5FEA5C0CBCF1400C31
:1010EC005FF0070E3CEA0E0C95F804E01CEBCE0CFE
:1010FC005FEA4C0C5FF0030E3CEA0E0C1CEB030396
:10110C0095F804C05FEACC0C1CF0010C3CF80330E1
:10111C009BB213F001039B188EE12A68126812F43B
:10112C008042571EBF41FF0FFFB2002F55D0DFF892
:10113C004C29DFF84839DFF848C9DFF840E9BCEB47
:10114C000E0C5FEA5C0CBCF1400C5FF0070E3CEA45
:10115C000E0C95F804E01CEBCE0C5FEA4C0C5FF027
:10116C00030E3CEA0E0C1CEB030395F804C05FEA7B
:10117C00CC0C1CF0010C3CF803309BB25B005FF014
:10118C00030C33EA0C039A18DFF8F038DFF8F0C8D8
:10119C00DFF8E8E8BCEB0E0C5FEA5C0CBCF1400C31
:1011AC005FF0070E3CEA0E0C95F804E01CEBCE0C3D
:1011BC005FEA4C0C5FF0030E3CEA0E0C1CEB0303D5
:1011CC0095F804C05FEACC0C1CF0010C3CF8033021
:1011DC009BB213F001039B182EE1DFF8A028DFF877
:1011EC009C38DFF89CC8DFF894E8BCEB0E0C5FEA87
:1011FC005C0CBCF1400C5FF0070E3CEA0E0C95F851
:10120C0004E01CEBCE0C1CF1040C5FEA4C0C5FF000
:10121C00030E3CEA0E0C1CEB030395F804C05FEACA
:10122C00CC0C1CF0010C3CF803309BB25B005FF063
:10123C00030C33EA0C039A18DFF84038DFF840C887
:10124C00DFF838E8BCEB0E0C5FEA5C0CBCF1400C30
:10125C005FF0070E3CEA0E0C95F804E01CEBCE0C8C
:10126C001CF1040C5FEA4C0C5FF0030E3CEA0E0C14
:10127C001CEB030395F804C05FEACC0C1CF0010CCA
:10128C003CF803309BB213F001039B18D4E02A689E
:10129C00126812F04002571EBF41FF43FF0FFFB20E
:1012AC00002F55D0DFF8D427DFF8D037DFF8D0C7C0
:1012BC00DFF8C8E7BCEB0E0C5FEA5C0CBCF1400C31
:1012CC005FF0070E3CEA0E0C95F804E01CEBCE0C1C
:1012DC005FEA4C0C5FF0030E3CEA0E0C1CEB0303B4
:1012EC0095F804C05FEACC0C1CF0010C3CF8033000
:1012FC009BB25B005FF0030C33EA0C039A18DFF827
:10130C007C37DFF87CC7DFF874E7BCEB0E0C5FEAC8
:10131C005C0CBCF1400C5FF0070E3CEA0E0C95F82F
:10132C0004E01CEBCE0C5FEA4C0C5FF0030E3CEAC5
:10133C000E0C1CEB030395F804C05FEACC0C1CF0FC
:10134C00010C3CF803309BB213F001039B1873E0C3
:10135C00DFF82827DFF82437DFF824C7DFF81CE78D
:10136C00BCEB0E0C5FEA5C0CBCF1400C5FF0070EA2
:10137C003CEA0E0C95F804E01CEBCE0C1CF1040CB2
:10138C005FEA4C0C5FF0030E3CEA0E0C1CEB030303
:10139C0095F804C05FEACC0C1CF0010C3CF803304F
:1013AC009BB25B005FF0030C33EA0C039A18DFF876
:1013BC00CC36DFF8CCC6DFF8C4E6BCEB0E0C5FEA2B
:1013CC005C0CBCF1400C5FF0070E3CEA0E0C95F87F
:1013DC0004E01CEBCE0C1CF1040C5FEA4C0C5FF02F
:1013EC00030E3CEA0E0C1CEB030395F804C05FEAF9
:1013FC00CC0C1CF0010C3CF803309BB213F0010335
:10140C009B1819E040F22452DFF86816D0A003F0C4
:10141C0001FB03F0FDFA27E32A6A8A5C491C401E93
:10142C00002807D0D5F820C011F80CC052EA0C22C5
:10143C00491C401E1A601B1D0028EDD1287B022878
:10144C0007D195F8250010F0010F02D02868FEF79F
:10145C001FFF002F3FF440ADDFF82006DFF8201609
:10146C00DFF81826891A49084039072291432A794E
:10147C0011EBC201891C49000322914308182979F8
:10148C00C90011F001010E523EE595F8251011F03E
:10149C00020F40F0E982002840F0E6820320287712
:1014AC002869002800F0E0822000C0B22969884732
:1014BC00DAE295F82400002800F0C982287B002885
:1014CC0007D0012800F0A181022875D0032840F034
:1014DC005582DFF8A805DFF8A815DFF8A025891AD2
:1014EC0049084039072291432A7911EBC201891D21
:1014FC0049000322914308182979C90011F0010110
:10150C00085A80B28005800DDFF87015DFF86C2565
:10151C00DFF86C35DFF864C5B3EB0C035B08403BBC
:10152C005FF0070C33EA0C0395F804C013EBCC0303
:10153C001B1D5B005FF0030C33EA0C039A182B792C
:10154C00DB0013F001039A5A92B2520003239A4320
:10155C005118DFF82825DFF82835DFF820C5B3EB64
:10156C000C035B08403B5FF0070C33EA0C0395F867
:10157C0004C013EBCC031B1D5B005FF0030C33EAC0
:10158C000C039A182B79DB0013F001039A5A92B2D0
:10159C0012F001025118AA696B69D21A824280F0CA
:1015AC00F68105202877E4B22820DFF8C41404FB68
:1015BC0000104069A8614AE295F8250010F0010F6F
:1015CC0062D1DFF8B804DFF8B814DFF8B024891A58
:1015DC0049084039072291432A7911EBC201891D30
:1015EC0049000322914308182979C90011F001011F
:1015FC00085A80B28005800DDFF88014DFF87C2457
:10160C00DFF87C34DFF874C4B3EB0C035B08403BAD
:10161C005FF0070C33EA0C0395F804C013EBCC0312
:10162C001B1D5B005FF0030C33EA0C039A182B793B
:10163C00DB0013F001039A5A92B2520003239A432F
:10164C005118DFF83824DFF83834DFF830C4B3EB46
:10165C000C035B08403B5FF0070C33EA0C0395F876
:10166C0004C013EBCC031B1D5B005FF0030C33EACF
:10167C000C039A182B79DB0013F001039A5A92B2DF
:10168C0012F00102511886E72868006810F0400F2C
:10169C0060D1DFF8E803DFF8E813DFF8E023891AFC
:1016AC0049084039072291432A7911EBC201891C60
:1016BC0049000322914308182979C90011F001014E
:1016CC00085A80B28005800DDFF8B013DFF8AC2328
:1016DC00DFF8AC33DFF8A4C3B3EB0C035B08403B7F
:1016EC005FF0070C33EA0C0395F804C013EBCC0342
:1016FC005B005FF0030C33EA0C039A182B79DB00C8
:10170C0013F001039A5A92B2520003239A435118D0
:10171C00DA4ADB4BDFF864C3B3EB0C035B08403BEA
:10172C005FF0070C33EA0C0395F804C013EBCC0301
:10173C005B005FF0030C33EA0C039A182B79DB0087
:10174C0013F001039A5A92B212F00102511822E7D7
:10175C0030000000C948CA49C84A891A49084039AA
:10176C00072291432A7911EBC201891D49000322FA
:10177C00914308182979C90011F00101085A80B267
:10178C008005800DBD49BD4ABD4BDFF8F0C2B3EBFF
:10179C000C035B08403B5FF0070C33EA0C0395F835
:1017AC0004C013EBCC031B1D5B005FF0030C33EA8E
:1017BC000C039A182B79DB0013F001039A5A92B29E
:1017CC00520003239A435118AC4AAD4BDFF8ACC21C
:1017DC00B3EB0C035B08403B5FF0070C33EA0C03E4
:1017EC0095F804C013EBCC031B1D5B005FF0030CDE
:1017FC0033EA0C039A182B79DB0013F001039A5A85
:10180C0092B212F001025118C5E62868006810F473
:10181C00804F58D099489A49984A891A49084039B2
:10182C00072291432A7911EBC201891C490003223A
:10183C00914308182979C90011F00101085A80B2A6
:10184C008005800D8D498D4A8D4BDFF830C2B3EB8E
:10185C000C035B08403B5FF0070C33EA0C0395F874
:10186C0004C013EBCC035B005FF0030C33EA0C03F6
:10187C009A182B79DB0013F001039A5A92B252009A
:10188C0003239A4351187D4A7D4BDFF8F0C1B3EB2B
:10189C000C035B08403B5FF0070C33EA0C0395F834
:1018AC0004C013EBCC035B005FF0030C33EA0C03B6
:1018BC009A182B79DB0013F001039A5A92B212F0AA
:1018CC000102511867E66D486D496C4A891A49083E
:1018DC004039072291432A7911EBC201891D490035
:1018EC000322914308182979C90011F00101085A03
:1018FC0080B28005800D6149604A614BDFF87CC184
:10190C00B3EB0C035B08403B5FF0070C33EA0C03B2
:10191C0095F804C013EBCC031B1D5B005FF0030CAC
:10192C0033EA0C039A182B79DB0013F001039A5A53
:10193C0092B2520003239A435118504A504BDFF88D
:10194C003CC1B3EB0C035B08403B5FF0070C33EA84
:10195C000C0395F804C013EBCC031B1D5B005FF06C
:10196C00030C33EA0C039A182B79DB0013F00103F8
:10197C009A5A92B212F0010251180CE640F28952B6
:10198C003C493AA003F046F803F042F86CE0E4B2AC
:10199C002822374B04FB0232926890420AD204226E
:1019AC002A77E4B22822324B04FB023252698218A5
:1019BC00AA6101E002222A776B696A6982186A615E
:1019CC0010E00A68091DD5F820C003F80C205B1C38
:1019DC00401E002806D0120AD5F820C003F80C20AF
:1019EC005B1C401E0028ECD1287B022807D195F8FF
:1019FC00250010F0010F02D02868FEF7C1FB03216F
:101A0C002868FEF705FCE4B22820194904FB0010F5
:101A1C0090F82400401EE4B22821154A04FB012151
:101A2C0081F824002868006810F4006F07D0E4B235
:101A3C0028200F4904FB00100621017714E0A86947
:101A4C006969401A00287FF434AD03202877287F79
:101A5C00022809D0287F012806D02869002803D045
:101A6C002000C0B229698847F1BD00BF30000000DA
:101A7C00F80D0020384600083C4E0008006000407D
:101A8C0000640040010011F00F00C0B2400011F0E2
:101A9C00800F00D0401CC0B27047000080B50028F9
:101AAC0005D0002300220021012002F031FD01BDF0
:101ABC0038B503F049F86548008880B26449098854
:101ACC0089B251F01F01084010F4004F00F0BB80A8
:101ADC00604910F00F0211EB820110F01000401E53
:101AEC008041C00F096811F00F01C0B210EB410426
:101AFC00E4B22820584904FB001090F8250010F09F
:101B0C00010F00F0A08014F0010F4ED0E4B2282099
:101B1C00514904FB00100068002807D140F22362F1
:101B2C004E494F4802F076FF02F072FFE4B22820D3
:101B3C00494904FB00100068FEF734FBE4B228208E
:101B4C00454904FB0010006803F0E4F80500E4B21A
:101B5C002820414904FB0010012180F82410E4B234
:101B6C0028203D4904FB0010007B012818D0E4B26A
:101B7C002820394904FB0010006803F0BDF88542A9
:101B8C000ED1E4B22820344904FB001090F8240054
:101B9C00401CE4B22821304A04FB012181F82400C6
:101BAC002000C0B2FFF774F94DE0E4B228202A49B6
:101BBC0004FB00100068002807D140F2326227496C
:101BCC00274802F027FF02F023FFE4B22820224925
:101BDC0004FB00100068FEF76DFBE4B228201E49E0
:101BEC0004FB0010006803F087F80500E4B228201D
:101BFC00194904FB0010012180F82410E4B22820BC
:101C0C00154904FB0010007B012818D0E4B22820F1
:101C1C00114904FB0010006803F07CF885420ED1DA
:101C2C00E4B228200C4904FB001090F82400401C5E
:101C3C00E4B22821084A04FB012181F82400200089
:101C4C00C0B2FFF725F902F081FF31BD445C0040C2
:101C5C00405C0040005C0040F80D00203846000855
:101C6C00B04C000810B502F06BFF76480488A4B2A3
:101C7C007548008880B250F01F00044014F4806F47
:101C8C000AD070484FF6FF310180FEF793FB00201D
:101C9C0000F0B8F900F0CAF914F4805F06D0694876
:101CAC004EF2FF7101800220FEF77CFF14F4006FEE
:101CBC0008D0FEF769FF63484EF2FF7101800120E6
:101CCC0000F0A0F914F4807F06D05E484FF6FF6157
:101CDC0001800020FEF766FF14F4004F00F0AF8087
:101CEC005A4814F00F0110EB810014F01001491E3A
:101CFC008941C90F006810F00F00C9B211EB400404
:101D0C00E4B22820524904FB001090F8250010F092
:101D1C00010F40F09480E4B228204D4904FB0010E0
:101D2C00012180F8241014F0010F18D0E4B22820FF
:101D3C00474904FB00100068002807D140F2A36259
:101D4C004449454802F066FE02F062FEE4B22820E7
:101D5C003F4904FB00100068FEF724FA17E0E4B2D8
:101D6C0028203B4904FB00100068002807D14FF4E1
:101D7C00D5623849384802F04DFE02F049FEE4B213
:101D8C002820334904FB00100068FEF793FAE4B2F4
:101D9C00002C3AD12E48006803F008F8002821D016
:101DAC002B48012180F84C1000235FF0FF320021FA
:101DBC00012002F0ADFB002308222849002002F08C
:101DCC00A7FB2648007810F0800F02D0002000F00E
:101DDC00C7F900F043F91E48007F07282FD1FFF701
:101DEC0005F82CE01D48007810F0800F08D018483A
:101DFC000069002804D000201549096988471EE0B5
:101E0C002000C0B2FFF744F819E0E4B2012C12D163
:101E1C001248007810F0800F08D10D48806B002814
:101E2C0004D001200A49896B884708E02000C0B221
:101E3C00FFF72EF803E02000C0B2FFF729F802F0FC
:101E4C0081FE10BD445C0040405C0040005C0040E2
:101E5C00F80D002038460008B04C0008381400205B
:101E6C0080B5DFF8A40A007810F0F800DFF8981AB3
:101E7C000870DFF8940A007810F07F00DFF8881AF9
:101E8C000870DFF8840A007E10F0FD00DFF8781A85
:101E9C000876DFF8740A007E10F0FE00DFF8681A8E
:101EAC000876FEF715FA01BD80B5C0B200280CD03B
:101EBC00012810D0022815D0032817D0042819D0D7
:101ECC0005281BD0062822D023E0DFF83C0A007836
:101EDC0010F007001FE0DFF8300A0078C0B2C0092C
:101EEC00C0B218E0DFF8200A406814E0DFF8180AE6
:101EFC00C06810E0DFF8100A40690CE0DFF8080A4F
:101F0C00007E10F00200C0B24008C0B203E0002016
:101F1C0001E05FF0FF3002BD38B50400DFF8E809DE
:101F2C00007810F00700052815D100250EE0DFF829
:101F3C00D80910EB850002692900DFF8CC0980680C
:101F4C0000F068F9002100F0DBFD6D1CDFF8B8092A
:101F5C00C0688542EBD3E4B22000401E022804D9AD
:101F6C00C01E13D0401E19D032E0002003F040F800
:101F7C000020FEF7F3FD002002F0EEFD0020DFF85C
:101F8C0088194860DFF8801948612EE0002003F0C2
:101F9C002FF8DFF874090021416026E000250EE0DF
:101FAC00DFF8640910EB850002692900DFF8580995
:101FBC00806800F02FF9012100F0A2FD6D1CDFF804
:101FCC004809C0688542EBD3012003F011F80CE0FE
:101FDC00002003F00DF8002002F0BEFD0020DFF819
:101FEC0028194860DFF820194861DFF81C090078CF
:101FFC0010F0F80014F007010843DFF80C19087012
:10200C0031BD000080B50100491E8941C943C90F8B
:10201C00DFF8F428127812F07F02C9B252EAC1112B
:10202C00DFF8E428117002F093FD01BD80B50320A8
:10203C00FFF772FF02F08EFD01BD000002000800E8
:10204C0082420AD21000DFF8C41891F84D1051F0FA
:10205C000401DFF8B82882F84D10704780B5DFF81E
:10206C008808007810F06000C0B24009C0B20028A7
:10207C0004D0012859D0022862D06CE0DFF868083F
:10208C004078002814D0012815D0032816D0052834
:10209C0017D0062818D0072830D0082831D00928A6
:1020AC0032D00A2833D00B2834D00C2835D037E066
:1020BC0000F0B6F953E000F037FA50E000F0D6FA31
:1020CC004DE000F033FB4AE0DFF81C08007810F01C
:1020DC001F0F02D100F0CCFB41E0DFF80C080078B8
:1020EC0010F0800F05D0DFF8000802F03DFD00284D
:1020FC0035D0DFF818080721017730E000F0F6FB47
:10210C002DE000F005FC2AE000F030FC27E000F0A8
:10211C0051FC24E000F07CFC21E000F021FD1EE0ED
:10212C00DFF8E8070721017719E0DFF8BC0702F0B8
:10213C001DFD002813D0DFF8D407072101770EE02E
:10214C00DFF8A40702F016FD002808D0DFF8BC0762
:10215C000721017703E0DFF8B4070721017701BD00
:10216C0080B5DFF88407007810F0800F07D00020CE
:10217C00FFF794FCDFF89407084901610DE001209A
:10218C00FFF78CFCDFF860074078052801D1044884
:10219C0000E00248DFF87417886301BDB121000824
:1021AC00D121000880B500235FF0FF32002101200F
:1021BC0002F0AEF900235FF0FF320021002002F0A4
:1021CC00A7F901BD80B5DFF84007DFF81C17897847
:1021DC004161DFF834074069FEF7C0FCDFF82807DF
:1021EC004069002803D00420FFF796FE02E003208C
:1021FC00FFF792FE00235FF0FF320021012002F076
:10220C0087F900235FF0FF320021002002F080F9F3
:10221C0001BD000070B504000D001600002C07D1A4
:10222C004FF4CE7233490C4802F0F4FB02F0F0FB91
:10223C00200001E00178081861880919884209D248
:10224C0041780429F6D18178A942F3D1C178B14201
:10225C00F0D100E0002070BD884D00080100DFF8CF
:10226C0008060268106802E01068401C10601068D4
:10227C00002806D04378022BF6D143798B42F3D158
:10228C0000E000207047000038B504000D00002C61
:10229C0007D140F2DD121749144802F0BBFB02F0E3
:1022AC00B7FB002D05D12079114908602078001961
:1022BC0004E02878401901E0017808180C490968F5
:1022CC00002911D0017800290ED04178052905D1BB
:1022DC0007490968491E064A116006E0417804293D
:1022EC0002D041780229E7D1002032BD504E0008BF
:1022FC00A8140020C446000838B50500002D47D0AE
:10230C002800FFF7ABFF0400002C01D1012046E0B0
:10231C000420FFF701FE002002F01EFCDFF8E805A8
:10232C008460DFF8E4054560DFF8DC05007E10F022
:10233C00FD00DFF8D4150876E07910F04001481E56
:10234C008041C043C00FDFF8C015097E11F0FE01BB
:10235C0010F001000843DFF8B01508762079DFF89B
:10236C00A815C860002006E0DFF89C1511EB800171
:10237C0000220A61401CDFF89015C9688842F3D32B
:10238C000520FFF7C9FDDFF8800502F0E5FB05E04D
:10239C00002002F0E1FB0420FFF7BEFD002032BD5F
:1023AC0080B580B200280DD1DFF85C05007E1B499A
:1023BC000860DFF8B83402221849012002F0A8F8AE
:1023CC00002000E0012002BD80B51448002101600E
:1023DC00DFF8983402221149012002F099F800200C
:1023EC0002BD000080B580B210F07F01112901DB25
:1023FC00012011E0094900220A60C0B2FFF742FB3C
:10240C000649C0B2FEF712FDDFF860340222034920
:10241C00012002F07DF8002002BD0000A414002071
:10242C0080B5DFF8E404007810F00700042845D3E9
:10243C00DFF8B404C088022840D1DFF8AC0400787F
:10244C0010F0800F3AD0DFF8A0044088002835D176
:10245C00DFF89404007810F01F00C0B2002804D0FC
:10246C0001280ED0022818D023E0DFF87C048088E5
:10247C00FFF796FF002825D0DFF89004072101779D
:10248C0020E0DFF864048088FFF79EFF002819D055
:10249C00DFF878040721017714E0DFF84C0480881A
:1024AC00FFF7A0FF00280DD0DFF8600407210177AB
:1024BC0008E0DFF858040721017703E0DFF84C044B
:1024CC000721017701BD000089B2002902D180B239
:1024DC00012801D0012008E0DFF82C04007E10F068
:1024EC00FD00DFF8241408760020704701207047A7
:1024FC0010B589B211F07F02112A02DA80B20028DD
:10250C0001D001200EE00800C0B2FFF7BBFA0400B6
:10251C0000212000C0B2FEF7B1FB2000C0B202F0D7
:10252C0021FB002010BD000080B5DFF8DC03007833
:10253C0010F00700042866D3DFF8AC03C08800282D
:10254C0061D1DFF8A403007810F01F00C0B200289E
:10255C0004D0012815D0022830D04FE0DFF88803D2
:10256C008188DFF884034088FFF7AEFF002803D191
:10257C000020FFF7F5FD4AE0DFF890030721017713
:10258C0045E0DFF88403007810F00700052810D32D
:10259C00DFF854038188DFF850034088FFF7A6FF6B
:1025AC00002806D1B14B00220021012001F0B0FF20
:1025BC002DE0DFF858030721017728E0DFF8480306
:1025CC00007810F00700052805D2DFF81C0380887E
:1025DC0010F07F0F0DD1DFF810038188DFF80803AE
:1025EC004088FFF785FF002803D10020FFF7B8FDD6
:1025FC000DE0DFF818030721017708E0DFF80C0382
:10260C000721017703E0DFF804030721017701BDFF
:10261C0089B2002902D180B2012801D0012006E044
:10262C00B948007E50F00200B74908760020704788
:10263C000120704710B589B211F07F02112A02DA1D
:10264C0080B2002801D001200EE00800C0B2FFF7D4
:10265C0019FA040001212000C0B2FEF70FFB200084
:10266C00C0B202F07DFA002010BD000080B5A64873
:10267C00007810F00700042854D39B48C088002829
:10268C0050D19948007810F01F00C0B2002804D037
:10269C00012812D0022826D040E093488188924825
:1026AC004088FFF7B5FF002803D10020FFF758FD45
:1026BC003BE096480721017737E09348007810F00B
:1026CC00070005280BD38848818887484088FFF786
:1026DC00AFFF002803D10020FFF742FD25E08B4817
:1026EC000721017721E08848007810F007000528C1
:1026FC0004D27D48808810F07F0F0BD17A488188F6
:10270C0079484088FFF796FF002803D10020FFF797
:10271C0027FD0AE07D480721017706E07B48072169
:10272C00017702E079480721017701BD80B5764831
:10273C00007810F00700032814D36B48007810F0D1
:10274C001F0F0FD16848808800280BD16648C088BD
:10275C00002807D164484088802803D20120FFF765
:10276C00FFFC02E069480721017701BD80B5C0B2CA
:10277C0000280DD15C48C18813480078FFF75EFC37
:10278C003A4B02001049012001F0C2FE002000E08B
:10279C00012002BD10B50C49497CC0B2884201D35E
:1027AC00012010E0C0B230490968096844184E484D
:1027BC00C1886088FFF742FC02002C4B21000120ED
:1027CC0001F0A6FE002010BD004E000810B52649F1
:1027DC008C68C0B200280BD14348C1882078FFF721
:1027EC002DFC224B02002100012001F091FE38E06B
:1027FC000021022201E0491C921C23789A420ED23D
:10280C00135DDFF8E4C09CF804C06345F3D11319E1
:10281C005B78DFF8D4C09CF805C06345EBD1237816
:10282C009A4201D301201DE00F4AD26852F8214090
:10283C0000E0241D002C04D0401E0100C9B2002968
:10284C00F7D1002C01D101200CE02748C188206869
:10285C000078FFF7F3FB0200044B2168012001F024
:10286C0057FE002010BD0000284E00086D21000806
:10287C0080B52548007810F0070003282FD31A489C
:10288C00C078012804D002280CD0032814D01DE0F5
:10289C0015488078FFF76AFF002823D01B480721D2
:1028AC0001771FE010488078FFF774FF002819D0DB
:1028BC0016480721017715E00B488078FFF786FF53
:1028CC0000280FD01148072101770BE0064802F0D1
:1028DC004BF9002806D00D480721017702E00B4880
:1028EC000721017701BD000038140020064800784C
:1028FC0010F00700042803D304480721017702E0F5
:10290C000248072101777047F8130020F80D0020CA
:10291C0080B51148007810F00700042817D30F4831
:10292C004088002813D10D48808800280FD10B480F
:10293C00C08801280BD10220FFF7B6FA08490860BD
:10294C00084B01220649012001F0E2FD02E0064895
:10295C000721017701BD00BFF813002038140020B7
:10296C00A41400206D210008F80D002080B50E483D
:10297C00007810F00700042811D30C488088002838
:10298C000DD10A48C088002809D108488078FFF783
:10299C00B3FC002803D10020FFF7E2FB02E004485F
:1029AC000721017701BD00BFF81300203814002067
:1029BC00F80D002080B51248007810F007000528AB
:1029CC001AD10F48C0680F498988884214D30D4822
:1029DC00C088012810D10B48408800280CD10A4B24
:1029EC00012208488088064911EB800010F1100183
:1029FC00012001F08DFD02E004480721017701BDA3
:102A0C00F8130020381400206D210008F80D002068
:102A1C0038B52748007810F00700052843D1254821
:102A2C00C08800283FD1234842882248818820480A
:102A3C008068FFF7EFFB0400002C03D11E48072130
:102A4C00017733E01B488088194911EB800002693B
:102A5C001848818816488068FFF7DCFB0500002DBC
:102A6C0007D140F21C521549154801F0D3FF01F073
:102A7C00CFFF0021280000F043F80E4880880C4955
:102A8C0011EB80000B49498801610121200000F005
:102A9C0037F8074802F060F80A4B002200210120A9
:102AAC0001F036FD02E004480721017731BD00BF7B
:102ABC00F813002038140020F80D0020C44600083C
:102ACC00644E00086D2100080B49496800E0091D9F
:102ADC000A68002A0DD00A681278084B5B689A4283
:102AEC00F5D10A685278C0B28242F0D10868001D54
:102AFC0000E00020704700BF284E0008F8130020AB
:102B0C00F8B504000D000026002C1BD140F25A52DF
:102B1C001049114801F07EFF01F07AFF12E0B07805
:102B2C00FFF7D2FF0700002F07D140F25E52094990
:102B3C000A4801F06FFF01F06BFF2A0039003000EA
:102B4C00FDF716FD31002000FFF79EFB0600002E5E
:102B5C00E5D1F1BDC4460008944F0008244F00088D
:102B6C000148072101777047F80D00200268521CBC
:102B7C003223B2FBF3FC0CFB132243689A4201D1C3
:102B8C00002004E003681B181972026001207047D2
:102B9C00026843689A4201D100200CE04268521C42
:102BAC003223B2FBF3FC0CFB132243681B181B7A79
:102BBC000B7042600120704780B50821DFF838099E
:102BCC0001F02EF900280CD00821DFF82C0901F0B7
:102BDC0035F9DFF8F008006850F00200DFF8E4186F
:102BEC0008600221DFF8100901F01AF900280CD056
:102BFC000221DFF8040901F021F9DFF8C8080068A8
:102C0C0050F00800DFF8BC1808600421DFF8E80871
:102C1C0001F006F900280CD00421DFF8DC0801F0E3
:102C2C000DF9DFF8A008006850F00800DFF89418E0
:102C3C0008600121DFF8C00801F0F2F800280CD080
:102C4C000121DFF8B40801F0F9F8DFF87808006822
:102C5C0050F00400DFF86C1808602021DFF89808A9
:102C6C0001F0DEF8002814D0DFF88C0801F0CEF863
:102C7C000100C9B2DFF880070068FFF777FF002872
:102C8C0007D1DFF84008006850F00200DFF8341874
:102C9C0008608021DFF8600801F0C2F800281ED01F
:102CAC0040F22771DFF8500801F0CEF8012816D158
:102CBC0000A9DFF8D4070068FFF76AFF002807D0E7
:102CCC009DF8001089B2DFF8300801F09BF806E09F
:102CDC00002240F22771DFF8200801F067F801BDEF
:102CEC0080B50821DFF8140801F09AF800280CD000
:102CFC000821DFF8080801F0A1F8DFF8CC0700681C
:102D0C0050F00200DFF8C01708600221DFF8EC0772
:102D1C0001F086F800280CD00221DFF8E00701F062
:102D2C008DF8DFF8A407006850F00800DFF898175A
:102D3C0008600421DFF8C40701F072F800280CD0F9
:102D4C000421DFF8B80701F079F8DFF87C07006898
:102D5C0050F00800DFF8701708600121DFF89C07BD
:102D6C0001F05EF800280CD00121DFF8900701F08B
:102D7C0065F8DFF85407006850F00400DFF84817D6
:102D8C0008602021DFF8740701F04AF8002814D0FD
:102D9C00DFF8680701F03AF80100C9B2DFF85C0609
:102DAC000068FFF7E3FE002807D1DFF81C07006876
:102DBC0050F00200DFF8101708608021DFF83C07A4
:102DCC0001F02EF800281ED040F22771DFF82C07F6
:102DDC0001F03AF8012816D100A9DFF8B006006816
:102DEC00FFF7D6FE002807D09DF8001089B2DFF857
:102DFC000C0701F007F806E0002240F22771DFF81B
:102E0C00FC0600F0D3FF01BD80B50821DFF8F00609
:102E1C0001F006F800280CD00821DFF8E40601F0D8
:102E2C000DF8DFF8A806006850F00200DFF89C16D9
:102E3C0008600221DFF8C80600F0F2FF00280CD071
:102E4C000221DFF8BC0600F0F9FFDFF8800600680D
:102E5C0050F00800DFF8741608600421DFF8A006B3
:102E6C0000F0DEFF00280CD00421DFF8940600F0FF
:102E7C00E5FFDFF85806006850F00800DFF84C1644
:102E8C0008600121DFF8780600F0CAFF00280CD09A
:102E9C000121DFF86C0600F0D1FFDFF83006006886
:102EAC0050F00400DFF8241608602021DFF85006EB
:102EBC0000F0B6FF002814D0DFF8440600F0A6FF9F
:102ECC000100C9B2DFF838050068FFF74FFE002893
:102EDC0007D1DFF8F805006850F00200DFF8EC15B8
:102EEC0008608021DFF8180600F09AFF00281ED039
:102EFC0040F22771DFF8080600F0A6FF012816D172
:102F0C0000A9DFF88C050068FFF742FE002807D007
:102F1C009DF8001089B2DFF8E80500F073FF06E0B9
:102F2C00002240F22771DFF8D80500F03FFF01BD09
:102F3C0010B588B0040002A800F014FF0020ADF812
:102F4C001000E4B2002C06D0012C00F0B380022C4F
:102F5C0000F05881F5E13C2001F07CFADFF8981480
:102F6C000860DFF894040068002801D100209FE07D
:102F7C003C2001F06FFADFF810150860DFF8080547
:102F8C000068002806D1DFF87004006801F020FC0E
:102F9C0000208DE00020DFF8F01409680860DFF8ED
:102FAC00E81409684860DFF8501409680860DFF815
:102FBC00481409684860DFF8400500F03BFE012129
:102FCC004FF4804000F0C6FD0121042000F0C2FD4A
:102FDC000021042000F0E2FD0021042001F01EF984
:102FEC0003208DF8020018208DF803004FF40070B8
:102FFC00ADF8000000A9D44801F07AF804208DF84F
:10300C0003004FF48060ADF8000000A9CE4801F039
:10301C006FF802A9DFF8E00400F03CFE25208DF8E3
:10302C00040005208DF8050000208DF80600012015
:10303C008DF8070001A801F031F940F2FF31DFF8FB
:10304C00B80400F0FBFE01222821DFF8AC0400F0EC
:10305C00ADFE002240F22661DFF89C0400F0A6FED3
:10306C00012240F22551DFF8900400F09FFE00226F
:10307C0040F22441DFF8800400F098FE002240F674
:10308C004601DFF8740400F091FE002240F66A114C
:10309C00DFF8640400F08AFE00226021DFF8580497
:1030AC0000F084FE0121DFF8500400F071FE0120D5
:1030BC0008B010BD3C2001F0CDF9D0490860CF48D4
:1030CC000068002801D10020F2E73C2001F0C2F991
:1030DC00DFF8B8130860DFF8B4030068002805D1E6
:1030EC00C648006801F074FB0020E1E70020DFF81F
:1030FC009C1309680860DFF8941309684860BF499D
:10310C0009680860BD4909684860DFF8F00300F001
:10311C0091FD01215FF4003000F02EFD012104200F
:10312C0000F018FD0021042000F038FD00210820DB
:10313C0001F074F803208DF8020018208DF80300BC
:10314C000420ADF8000000A97F4800F0D1FF042056
:10315C008DF803000820ADF8000000A97A4800F0B3
:10316C00C7FF02A9DFF8940300F094FD26208DF828
:10317C00040006208DF8050000208DF806000120C3
:10318C008DF8070001A801F089F840F2FF31DFF853
:10319C006C0300F053FE01222821DFF8600300F0DD
:1031AC0005FE012240F22771DFF8500300F0FEFD0E
:1031BC00002240F22661DFF8440300F0F7FD012203
:1031CC0040F22551DFF8340300F0F0FD002240F20C
:1031DC002441CA4800F0EAFD002240F64601C748E7
:1031EC0000F0E4FD002240F66A11C44800F0DEFD58
:1031FC0000226021C14800F0D9FD0121BF4800F038
:10320C00C7FD54E73C2001F025F97D4908607C4856
:10321C000068002801D100204AE73C2001F01AF98F
:10322C009B4908609A480068002805D174480068DA
:10323C0001F0CEFA00203BE70020954909680860B0
:10324C009349096848606E49096808606C490968C7
:10325C004860AB4800F0EEFC01215FF4802000F0E8
:10326C008BFC0121112000F075FC0021112000F0D5
:10327C0095FC0121354800F0D1FF03208DF80200A8
:10328C0018208DF803004FF48060ADF8000000A901
:10329C002F4800F02DFF04208DF803004FF4006040
:1032AC00ADF8000000A92A4800F022FF02A99448BA
:1032BC0000F0F0FC27208DF8040007208DF80500A5
:1032CC0000208DF8060001208DF8070001A800F001
:1032DC00E5FF40F2FF318A4800F0B0FD01222821C1
:1032EC00874800F063FD002240F22771844800F00B
:1032FC005DFD002240F22661814800F057FD01225D
:10330C0040F225517E4800F051FD002240F224414C
:10331C007B4800F04BFD002240F64601784800F057
:10332C0045FD002240F66A11754800F03FFD002271
:10333C006021734800F03AFD0121714800F028FD2E
:10334C00B5E60020B4E600BF0008014010001400F0
:10335C00001001400EB410B587B0040000A800F0B6
:10336C0001FDE4B2002C04D0012C04D0022C04D0BA
:10337C0015E0614802E0614800E06148BDF82810A2
:10338C00ADF80410BDF82A10ADF80610BDF82C10DD
:10339C00ADF808100999009100A900F07BFC07B06A
:1033AC0010BC5DF810FB0000F8B50D001400C0B2A5
:1033BC00002804D0012806D0022807D009E00E48C6
:1033CC00076800260AE00D480768FAE70C4807680A
:1033DC00F7E700200FE001F0DDFC761CA64209D2D5
:1033EC0001F06EFC71193800FFF7D2FB0028F2D106
:1033FC0001F0D0FC3000F2BD7814002080140020C5
:10340C00881400202DE9F0410C0015000026C0B2F4
:10341C00002804D001281DD0022820D024E0364FEB
:10342C001948D0F80080002D2BD001F049FCD8F8B9
:10343C000400D8F80010884219D1217889B23800DC
:10344C0000F0E0FC012240F22771380000F0AEFCE5
:10345C00761C0CE0294F0D48D0F80080E3E7284F8C
:10346C000B48D0F80080DEE700200BE0761CAE4263
:10347C0005D2315D4046FFF779FB0028F6D101F00B
:10348C0089FC3000BDE8F0817C14002084140020FD
:10349C008C14002080B501000020C9B2002904D092
:1034AC00012906D0022908D00AE0064901F096FC51
:1034BC0006E0054901F092FC02E0044901F08EFCA3
:1034CC0002BD0000901400209414002098140020D9
:1034DC0080B500290ED0C0B2002804D0012804D039
:1034EC00022804D006E0044802E0044800E0044846
:1034FC0000F090FC01BD0000003801400044004089
:10350C000048004080B5DFF8040400210160DFF8BA
:10351C001C0400210160DFF840044FF416510160D7
:10352C00DFF8340408218171DFF82C04002141718B
:10353C00DFF8240400210171DFF80C040121016083
:10354C00DFF83003007850F00100DFF82813087022
:10355C00DFF82003007850F00200DFF81813087031
:10356C00DFF80C0301210160DFF8A40300210160E6
:10357C00002000F003F8FEF773FC01BD80B50028B5
:10358C001BD04068002818D0DFF8A0030021016090
:10359C00DFF878030121016000209B490860B249E3
:1035AC00086000209749086098490860984B4022B1
:1035BC009849042000F0ACFF0FE00120924908600C
:1035CC00A94908600020A94908608E4908608F4904
:1035DC000860DFF838030021016001BDDFF82C031F
:1035EC000068704780B501004A48082201F0AEF926
:1035FC004848007810F01F00012870D145484078E9
:10360C00202806D021281AD022282DD023285BD0A0
:10361C0065E040484088002861D13E4880880028F9
:10362C005DD13C48C1880720FEF708FD2D4B0200F8
:10363C00DFF82413002000F06BFF002050E0354829
:10364C00408800284BD133488088002847D1314826
:10365C00C1880720FEF7F2FC234B0200BE49012073
:10366C0000F056FF00203BE02A48C088002836D1E5
:10367C0028488088002832D17E48007810F0FE005F
:10368C002449897811F0010111F0010108437949AD
:10369C0008702048807810F00201481E8041C04319
:1036AC00C00F7449097811F0FD01C0B2400010F050
:1036BC00020008436F4908700120FEF751FD6C4869
:1036CC000121016000200BE098480121016068484D
:1036DC00012101600120FEF743FD002000E00120E4
:1036EC0002BD00BFF93600086D21000880B50948FD
:1036FC004078202809D10748C088002805D0924876
:10370C00012101600120FEF72BFD1D4807210177E7
:10371C0001BD00003014002010B50400E4B2042CEC
:10372C0006D0EB225D49084801F074F901F070F9FC
:10373C00354801210160E4B22820114904FB001036
:10374C0080693049086010BDB44E000810B5040003
:10375C00E4B2072C06D0FC225049084801F05AF973
:10376C0001F056F9404801210160E4B228200449D7
:10377C0004FB001080693D49086010BDC44E000870
:10378C00F80D002010B50C0060490968002901D122
:10379C00002036E0002C33D01B49096800292ED0BC
:1037AC0018490968194A1268891A8C4204D31549B8
:1037BC000968164A12688C1A220014490968154BBC
:1037CC00C91801F0B9FB1148006820180F490860AE
:1037DC000E4800680B490968884211D301F070FA51
:1037EC00094800210160094800210160084B402272
:1037FC000849042000F08CFE01F0CCFA00E0002413
:10380C00200010BD601400207014002064140020EF
:10381C0025370008B813002038B505000C003B48CC
:10382C000068002801D100201AE0002C02D116E01B
:10383C0001F0B0FA01F044FA0B4800210160094B89
:10384C0022002900072000F063FE0028F0D001F0D0
:10385C00A1FA054800680028FBD004480468200041
:10386C0032BD00BF593700086C14002068140020CA
:10387C00541400204C14002080B5C0B2032807D08B
:10388C0040F297120549044801F0C4F801F0C0F861
:10389C001F480021016001BDD44E0008AC45000852
:1038AC0001B584B01948006800282AD0A1208DF8F1
:1038BC00000020208DF801000020ADF8020001204E
:1038CC00ADF804000220ADF8060002A804A90A789D
:1038DC0002704A78427001E001F05CFA01F0F0F9F4
:1038EC000B4801210160084B022200A9032000F0C3
:1038FC000FFE0028F0D001F04DFA054800680028B2
:10390C00FBD105B000BD00BF853800085C14002059
:10391C005014002005480068044900220A60401E2B
:10392C008041C043C00FC0B2704700005814002043
:10393C0080B50549002001F051FA401E8041C0437A
:10394C00C00FC0B202BD00004814002080B502496F
:10395C00072200F0FBFF02BD2814002080B5DFF821
:10396C00C81209687FF480321140DFF8BC22116064
:10397C00DFF8B41209687FF480221140DFF8A82226
:10398C0011605FF48031401A04D05FF44031401A6A
:10399C0009D010E0DFF89002006850F48030DFF8B6
:1039AC008812086007E0DFF88002006850F4A0205D
:1039BC00DFF87412086001BD0149C0B2086070479D
:1039CC00000042420022624B1B681A007FF47C13F9
:1039DC001A40084302435E48026070470149C0B276
:1039EC0008607047600042420021594A1268110079
:1039FC000322914301435648016070470021544A09
:103A0C0012681100F0229143014351480160704744
:103A1C0000214F4A126811007FF4E062114001430B
:103A2C004B480160704700000021494A12681100A0
:103A3C007FF46052114051EAC00145480160704763
:103A4C0001490860704700BFD80042420021404A3B
:103A5C00126811007FF44042114001433C48016060
:103A6C007047000010B50022002100235FF0000C0D
:103A7C00DFF8DCE0DEF800E01EF00C0E7246002AE7
:103A8C0004D0042A05D0082A06D025E02C49016070
:103A9C0024E02B49016021E02D49096811F47011D3
:103AAC00890C891C2A4A126812F48033002B04D129
:103ABC00244A01FB02F1016010E0254A126812F45D
:103ACC00003F04D01F4A01FB02F1016006E01C4AD2
:103ADC0001FB02F1016001E0194901601C49096810
:103AEC0011F0F0021209184912F801C0016831FAFC
:103AFC000CF141601649096811F4E062120A12498E
:103B0C0012F801C0416831FA0CF181601049096862
:103B1C0011F46052D20A0C4912F801C0416831FA12
:103B2C000CF1C1600A49096811F44042920B074933
:103B3C0012F801C0C168B1FBFCF1016110BD00BFFE
:103B4C0000127A0000093D00E44E0008E84F00081E
:103B5C0004100240C9B2002905D00649096808437F
:103B6C000449086005E003490968C043084001495D
:103B7C000860704718100240C9B2002905D00649E8
:103B8C00096808430449086005E003490968C04313
:103B9C0008400149086070471C100240C9B2002956
:103BAC0005D00649096808430449086005E0034943
:103BBC000968C04308400149086070470C10024076
:103BCC00C9B2002905D006490968084304490860B0
:103BDC0005E003490968C043084001490860704783
:103BEC00101002400100002200230020C9B25FEA3D
:103BFC00511C5FFA8CFC6246012A02D10A48036808
:103C0C0006E0022A02D10948036801E0084803686B
:103C1C00C9B211F01F02012090401840401E804193
:103C2C00C043C00FC0B270470010024020100240C9
:103C3C002410024080B51649401A12D04FF480610E
:103C4C00401A19D04FF47041401A1FD101214FF482
:103C5C008040FFF7A3FF00214FF48040FFF79EFF49
:103C6C0014E001215FF40030FFF7AAFF00215FF49C
:103C7C000030FFF7A5FF09E001215FF48020FFF77A
:103C8C009FFF00215FF48020FFF79AFF01BD00BF6A
:103C9C00004400402DE9F04385B005000C005FF0B6
:103CAC000009002600275FF00008288A81464CF2A4
:103CBC00FF0010EA0909E088E1890843218A0843DA
:103CCC00618A0843A18A084350EA0909A5F81090B3
:103CDC005FF00009A88981464EF6F31010EA090935
:103CEC00A08821890843A189084350EA0909A5F84D
:103CFC000C905FF00009A88A81464FF6FF4010EA4D
:103D0C000909608950EA0909A5F814905FF00009C7
:103D1C0000A8FFF7A7FE1248854201D1039E00E0E0
:103D2C00029E1920704321688900B0FBF1F76420D2
:103D3C00B7FBF0F05FEA00195FEA1910642100FB91
:103D4C0011785FEA081032306421B0FBF1F010F00A
:103D5C000F0050EA0909A5F8089005B0BDE8F083FA
:103D6C00003801404FF41651016000218180002180
:103D7C00C18000210181002141810C218181002120
:103D8C00C181002101820021418200218182704782
:103D9C00C9B2002904D0818951F40051818104E019
:103DAC0081894DF6FF7211408181704738B55FF003
:103DBC00000C5FF0000E002400230D00EDB26D0925
:103DCC00EDB2AC4689B211F01F018E46012111FAF9
:103DDC000EF10C000300BCF1010F01D10C3305E016
:103DEC00BCF1020F01D1103300E01433D2B2002A1F
:103DFC0003D018682043186003E01868E1430840BA
:103E0C00186031BDC905C90D818070478088C00517
:103E1C00C00D7047818951F001018181704700000C
:103E2C0002000020128811400A0092B2521E9241E8
:103E3C00D243D20F1000C0B2704700000288C943B1
:103E4C00114001807047000010B502005FF0000CBB
:103E5C0000235FF0000E00200C00E4B26409E4B211
:103E6C00A64689B211F01F042300012414FA03F3AF
:103E7C00BEF1010F02D19089034007E0BEF1020FA1
:103E8C0002D1108A034001E0908A034089B25FEAB4
:103E9C00112C1FFA8CFC012010FA0CFC108810EA73
:103EAC000C0C002B05D06046401E8041C043C00F57
:103EBC0000E00020C0B210BD80B50120FFF77CFDF2
:103ECC002020FFF78FFE0028FAD00020FFF78CFD92
:103EDC005FF48030FFF742FD3120FFF783FE0028AE
:103EEC00FAD05FF4E0115FF48030FFF76BFD012036
:103EFC00FFF774FD3920FFF775FE0028FAD000207B
:103F0C00FFF79EFD4FF44040FFF7A0FD0020FFF7A8
:103F1C008BFD4FF48060FFF77BFD0020FFF76EFDFB
:103F2C00022000F0C5FD002000F0CEFD102000F0B6
:103F3C00D7FD0220FFF758FD01BD000070B5A2B0FF
:103F4C0001256A480068009000F0BAFEFFF7B4FF44
:103F5C0000215FF0006000F0FFF94FF4407000F0BA
:103F6C0095F9012001F016F801210020FEF7E0FF81
:103F7C00FFF7C8FA0120FCF7F9FD00F00BFFBDF8C4
:103F8C00000050F00100ADF80000BDF8000050F04A
:103F9C000200ADF8000016E00020ADF8140000207F
:103FAC00ADF8100003A988B001A8182200F0DAFCC3
:103FBC000FBC0020FFF7CEF904B0FFF7ABFC0100FB
:103FCC000020FFF785FAFFF709FB0028FBD06321DF
:103FDC0009A8FFF7D7FB0400002C0AD0002009AE7B
:103FEC00241A8619220031000020FFF70BFA8442B4
:103FFC00F6D1632209A90020FFF7D6F90400002CA2
:10400C0005D0210009A8FFF707FC0028F9D00020F3
:10401C00FFF740FA55EA0001002937D00025BDF81A
:10402C0000104FF6FB721140020992B2920012F08E
:10403C0004021143ADF80010BDF800104FF6EF72FA
:10404C001140C20892B2120112F010021143ADF8E5
:10405C000010BDF800104FF6BF721140420892B22A
:10406C00920112F040021143ADF80010BDF800109F
:10407C004FF6DF721140800880B2400110F0200032
:10408C000843ADF800000098FFF70AFCFFF750FC5E
:10409C00002892D001A8FFF759FC019803909DF8D5
:1040AC000800002804D0012806D0022809D00CE012
:1040BC000020ADF8120008E04FF44050ADF81200AB
:1040CC0003E04FF40050ADF812009DF809000128F0
:1040DC0002D0022805D05FE74FF4C060ADF81400A1
:1040EC005DE74FF48060ADF8140058E7E44F00082A
:1040FC0070B50022002400235FF0000E5FF0000C6E
:10410C000025CE7816F00F063200CE7816F0100F80
:10411C0001D08B781A430B881B0635D0D0F800C021
:10412C0000232BE05FF0010E1EFA03FE0C881EEA42
:10413C000404744521D15FEA830E0F2515FA0EF5A0
:10414C00EC4314EA0C0C12FA0EFE5EEA0C0C91F81D
:10415C0003E0BEF1280F05D15FF0010E1EFA03FE3D
:10416C00C0F814E091F803E0BEF1480F05D15FF000
:10417C00010E1EFA03FEC0F810E05B1C082BD1D315
:10418C00C0F800C05FF0000C0B884FF4807C6345D6
:10419C0039D3D0F804C0002331E05FF0010E1C00CD
:1041AC0008341EFA04FE0C881EEA0404744525D15A
:1041BC005FEA830E0F2515FA0EF5EC4314EA0C0C8E
:1041CC0012FA0EFE5EEA0C0C91F803E0BEF1280F19
:1041DC0007D15FF0010E1C0008341EFA04FEC0F873
:1041EC0014E091F803E0BEF1480F07D15FF0010E27
:1041FC001C0008341EFA04FEC0F810E05B1C082BEF
:10420C00CBD3C0F804C070BDD2B2002A02D089B2A0
:10421C00016101E089B241617047000010B50022D4
:10422C005FF0000C00235FF0000E174C2468230095
:10423C0010F47024240CA64684B2220010F4001F43
:10424C0004D07FF0E06C1CEA03030FE010F4801F35
:10425C0008D05FF0030C1CFA0EFC7FEA0C0C1CEA75
:10426C00030303E07FEA020C1CEA0303C9B2002932
:10427C0006D010F4001F02D053EA024300E01343AF
:10428C000148036010BD00BF04000140024908430F
:10429C0036490860704700000000FA0510B500218F
:1042AC00002200235FF0000C5FF00F0EC478002C8E
:1042BC003FD02E49096811F4E061D1F5E061090A9B
:1042CC00D1F1040C3EFA01FE417811FA0CF182781E
:1042DC001EEA020211430901027812F00302D2B263
:1042EC00D200914002789210194B53F82220FF23F0
:1042FC0090F800C01CF0030C5FFA8CFC5FEACC0C4D
:10430C0013FA0CF37FEA030C1CEA020219400A436D
:10431C00017889100E4B43F82120017849110B4A82
:10432C000123007810F01F0013FA00F042F821006E
:10433C000AE001784911074A0123007810F01F00A8
:10434C0013FA00F042F8210010BD00BF00E100E0BC
:10435C0000E400E080E100E0024A11400843024919
:10436C000860704780FFFF1F08ED00E00CED00E0D7
:10437C0070470000FEE70000FEE70000FEE70000CB
:10438C00FEE7000070470000704700007047000017
:10439C007047000070470000704700007047000035
:1043AC007047000070470000704700007047000025
:1043BC007047000070470000704700007047000015
:1043CC007047000070470000704700007047000005
:1043DC0070470000704700007047000070470000F5
:1043EC0080B5FDF765FB01BD80B5FDF73BFC01BD5C
:1043FC0070470000704700007047000070470000D5
:10440C0070470000704700007047000070470000C4
:10441C0070470000704700007047000070470000B4
:10442C0070470000704700007047000070470000A4
:10443C0080B5FEF7C1FB01BD80B5FEF751FC01BD97
:10444C0080B5FEF7E1FC01BD70470000704700002D
:10445C007047000070B5050005F10F040720844378
:10446C00012000F083F9A54204D3012000F0A4F947
:10447C00002070BD082C04D2082402E0083000F0A3
:10448C00A7F9224D286801000CD1291D00E0011D5F
:10449C000868A0B10268A242F9D315E01368A342E0
:1044AC0012D2111D0A68002AF8D10068291D03E0F8
:1044BC001368A34208D2111D0A688242F8D100F099
:1044CC0089FB0028DAD100210029CED00E68306893
:1044DC000838A04202D27068086008E0A019086091
:1044EC00726842603068001B0A68106034600868AB
:1044FC0018B1416809B1001D00E0002028600120BE
:10450C0000F05AF906F1080070BD00BF40140020FD
:10451C002DE9F04107000C0015001E00FFB2282009
:10452C001E4907FB00185FF0FF30854206D10020C2
:10453C0088F81C000020C8F810002BE000F0C0FB2D
:10454C00D8F80000002803D100F024FC082023E058
:10455C0098F81C00022803D100F01CFC00201BE082
:10456C000020C8F81400C8F82040C8F81060C8F83B
:10457C001850002D05D198F8250050F0020088F84D
:10458C002500012088F81C003800C0B2FCF780FC24
:10459C0000F000FC98F81C00BDE8F081F80D00203C
:1045AC00433A5C446F63756D656E747320616E6421
:1045BC002053657474696E67735C49676F72476FDB
:1045CC0072617A696F5CD0E0E1EEF7E8E920F1F214
:1045DC00EEEB5C576F726B5F50726F6A6563745C65
:1045EC00576F726B20746573742070726F67726191
:1045FC006D5C54452D49523532302053544D333275
:10460C00463130335245545669727475616C436F40
:10461C006D2D4344435F503130305C6170705C638E
:10462C00645F636C6173732E63000000433A5C44F7
:10463C006F63756D656E747320616E642053657461
:10464C0074696E67735C49676F72476F72617A69E0
:10465C006F5CD0E0E1EEF7E8E920F1F2EEEB5C57AD
:10466C006F726B5F50726F6A6563745C576F726BBD
:10467C0020746573742070726F6772616D5C544541
:10468C002D49523532302053544D3332463130336C
:10469C005245545669727475616C436F6D2D434469
:1046AC00435F503130305C6D6F64756C65735C7555
:1046BC0073625F68772E6300433A5C446F63756D79
:1046CC00656E747320616E642053657474696E67D3
:1046DC00735C49676F72476F72617A696F5CD0E087
:1046EC00E1EEF7E8E920F1F2EEEB5C576F726B5FED
:1046FC0050726F6A6563745C576F726B207465736C
:10470C00742070726F6772616D5C54452D4952351F
:10471C0032302053544D3332463130335245545697
:10472C0069727475616C436F6D2D4344435F5031F6
:10473C0030305C6D6F64756C65735C7573625F743F
:10474C00392E630010B5214C201D00F091F904F1B5
:10475C00080000F08DF904F10C0000F089F904F167
:10476C001000BDE8104000F083B9000038B504001B
:10477C00164D286898B9281D00F072F905F108004B
:10478C0000F06EF905F10C0000F06AF905F110006B
:10479C0000F066F900220021064800F05DF80120C7
:1047AC002860042C04D205EB8400001D00F068F98D
:1047BC0031BD00BF5147000880B5042805D203491C
:1047CC0001EB8000001D00F063F901BD1414002002
:1047DC0010B5F0B1A0F108042068082819D310F026
:1047EC00070F16D10120FFF7C1FF1A48416809B124
:1047FC008C4203D2616044601BE019004B680BB122
:10480C00A342FAD30A6853189C4203D20120FFF743
:10481C00D3FF10BDA34204D123689A180A600C0080
:10482C0007E04A681AB123681B199A42EED36260FA
:10483C004C6061680029E9D0226812198A42E5D1DE
:10484C00002101606068216802685118216040688D
:10485C006060DBE74014002080B51D4BD3F800C02E
:10486C00DFF828E0F44506D20CF10C0EC3F800E09A
:10487C00BCF1000F01D1012002BDCCF80010CCF826
:10488C000400CCF80820002002BD00BFF80D002069
:10489C00002000BFF8B50E4C27683E0014D00B4D1D
:1048AC0000E08847AE420FD02068874201D0060056
:1048BC0007000C3E71680800F4D00020706030686E
:1048CC000028EED18847EDE7F1BD00BF000C0020B9
:1048DC00C414002010B5040003E014F8010B00F020
:1048EC0063F920780028F8D110BD00002DE9F041C3
:1048FC0007000C0015001E00DFF84C804DB140463F
:10490C00FFF7E8FF2800FFF7E5FF08F11000FFF7BD
:10491C00E1FF3800FFF7DEFF09A0FFF7DBFF200007
:10492C00FFF7D8FF07A0FFF7D5FF3000FFF7D2FF46
:10493C0008F11800FFF7CEFF0020BDE8F08100BFA2
:10494C003A00000020000000844B00088B0707D0C1
:10495C00521E24BF11F8013B00F8013BF6D87047FA
:10496C0083071ED1103A07D330B4B1E83810103A8F
:10497C00A0E83810F9D230BC530724BFB1E80810B6
:10498C00A0E8081044BF51F8043B40F8043BD207A0
:10499C0024BF31F8022B20F8022B44BF0B78037094
:1049AC007047083A07D3B1E80810083A40F8043BBE
:1049BC0040F804CBF7D25307E4E7000080B5134965
:1049CC000868002803D00220ABBE0020086001BD9F
:1049DC0010B584B00B000D4C2068002809D10AA03A
:1049EC000090042001900320029069460120ABBE88
:1049FC002060206800900193029269460520ABBEAE
:104A0C00101A04B010BDC0463A747400C0140020D3
:104A1C0070470000B0B584B0030008000A210DF106
:104A2C00000C4FF0000E8CF80AE08E460A27491E47
:104A3C00C9B20C0092FBFEF505FB1722303204F8CC
:104A4C000C202A00012A01DB0D00F0D1002200A964
:104A5C006118FFF74BFF08B900F0BAFA04B0B0BD0B
:104A6C0080B50F4909680A0018BF884701BD0000CE
:104A7C0080B50C4909680A0018BF884701BD0000C1
:104A8C0080B5094909680A0018BF884701BD0000B4
:104A9C0080B5064909680A0018BF884701BD0000A7
:104AAC00B0140020B4140020B8140020BC14002052
:104ABC001149096811F038010F4A11600E49096853
:104ACC0008430D49086070470B4909680822914357
:104ADC00094A11600849096808430749086070478A
:104AEC000549096810229143034A1160024909687B
:104AFC000843014908607047002002400902430046
:104B0C0002010080320904000001020200000524A9
:104B1C0000100105240600010524010001042402F3
:104B2C00060705810308000109040100020A0000C0
:104B3C000007050202400000070583024000000048
:104B4C00704700007047000070470000704700007D
:104B5C00704700007047000080B5FEF70FFD01BDE7
:104B6C0070470000704700000120704780B5FEF7C9
:104B7C0039FD02BD01207047496E2066756E637465
:104B8C00696F6E2000000000202D2D200000000019
:104B9C00202D2D20617373657274696F6E206661B0
:104BAC00696C65640A00000010B582B004004FF017
:104BBC00FF3084420AD000A80470012200A9012011
:104BCC0000F0B2F9012801D1200016BD4FF0FF30E2
:104BDC0016BD00000649086808B10020704705485A
:104BEC000860054907229143091A0160704700BF0C
:104BFC00AC14002000080020000C0020220343000D
:104C0C004400200043006C0061007300730020001E
:104C1C006500780061006D0070006C00650000009C
:104C2C003D4D0008CC060000F80D002000000000EF
:104C3C00714C00080400000000500008C41400204F
:104C4C000000000000B583B00300009301910292B4
:104C5C0069460520ABBE101A01221900C046C04699
:104C6C0003B000BD09E050F8041B50F8042B51F8B8
:104C7C0004CB42F804CB1B1FF9D150F8043B002B9A
:104C8C00F1D1704780B5002901D1002002BD012867
:104C9C0001D0022802D1FFF79BFE02BDFFF7D2FF25
:104CAC0002BD00005553425F45505F56414C49448C
:104CBC0028264570436E66675B45505D29000000F1
:104CCC0005480068002800D172B603480068401CF3
:104CDC0001490860704700BF7414002010B50448E7
:104CEC00044C02E050F8041B8847A042FAD110BDD6
:104CFC002C4C0008504C000801B481B0019800689D
:104D0C0010F04001481E8041C043C00FC0B202B039
:104D1C007047000001B481B00198006810F4804124
:104D2C00481E8041C043C00FC0B202B070470000A3
:104D3C00002305E050F8041B41F8043B121FFBD183
:104D4C0050F8042B002AF5D17047000018034900D5
:104D5C00410052002000530079007300740065007C
:104D6C006D0073007045502D3E62446F75626C652A
:104D7C0042756666657265640000000070436F6E74
:104D8C0066696775726174696F6E20213D204E559E
:104D9C004C4C000004480068401E03490860002881
:104DAC0000D162B6704700BF7414002001B481B00A
:104DBC000198006810F40060401E8041C043C00F91
:104DCC0002B0704700F010F9002801D0FFF786FF01
:104DDC000020FFF7B3F800F009F9000070B50500EA
:104DEC000C00FFF76DFF26682560FFF7D3FF30003E
:104DFC0070BD00001201100102000008FFFF150039
:104E0C0000000102030100001203300030003000EA
:104E1C00300030003000300031000000AC4F000892
:104E2C00F44E0008EC4F0008B44F000800000000DE
:104E3C005553425F45505F56414C4944287045508C
:104E4C002900000070496E746572666163652021EB
:104E5C003D204E554C4C000070496E746572666175
:104E6C00636543757272656E7400000080B5FFF760
:104E7C00A5FD02491820ABBEFCE7C0462600020087
:104E8C0001B481B00198006810F03000000902B044
:104E9C007047000001B481B00198006810F44050D4
:104EAC00000B02B0704700004550203D3D20436F81
:104EBC006D6D4F75744570004550203D3D20436F1E
:104ECC006D6D496E457000004550203D3D2052658A
:104EDC00706F727445700000000000000102030442
:104EEC000102030406070809644F0008704F00080C
:104EFC007C4F000800000000584D0008084C0008CA
:104F0C00144E0008000000007055736245505F4558
:104F1C0078744461746100007055736245505F454C
:104F2C00787444617461000080B5002802D4FFF7E6
:104F3C00A9FE02BD002002BD10B504002000FFF741
:104F4C0005FD200010BD00000746FFF7A1FC384608
:104F5C00FFF78CFFFBE7000001810000010000005F
:104F6C000000000001020000020000000000000030
:104F7C000183000003000000000000007045505F3A
:104F8C00446573630000000070496E74657266615D
:104F9C00636500000149C0B208607047008025427B
:104FAC00084B000800000000044F0008000000003F
:104FBC0007050000080000000000000000000000D1
:104FCC000705800008000000000000000000000041
:104FDC000120FFF74BBF0000000000000204060890
:104FEC00040309040000000001207047FFF7ACBF68
:084FFC0070470000000C0020CA
:0400000508004DD1D1
:00000001FF
