:020000040800F2
:10000000FFFF0020C90D00082D1000082F10000868
:1000100045100008491000084D10000800000000BD
:100020000000000000000000000000005553000820
:100030005110000800000000055400084154000859
:100040005110000853100008551000085710000800
:10005000591000085B1000085D1000085F100008D0
:1000600061100008631000086510000867100008A0
:10007000691000086B1000086D1000086F10000870
:100080007110000873100008751000087710000840
:1000900079100008BD100008BF100008C11000084A
:1000A000C3100008C5100008C7100008C9100008D8
:1000B00001140008CB100008CD100008CF10000874
:1000C000D1100008D3100008D5100008D710000880
:1000D000D9100008DB100008DD100008DF10000850
:1000E000E1100008E3100008E5100008000000001F
:1000F0000000000000000000000000000000000000
:100100000000000000000000E7100008E9100008EF
:10011000EB100008ED100008EF100008F1100008C7
:10012000F3100008F5100008F7100008F910000897
:10013000FB100008FD1000081D1100081F11000829
:1001400021110008651100086711000869110008F5
:10015000000000000000000000000000000000009F
:10016000000000000000000000000000000000008F
:10017000000000000000000000000000000000007F
:10018000000000000000000000000000000000006F
:10019000000000000000000000000000000000005F
:1001A000000000000000000000000000000000004F
:1001B000000000000000000000000000000000003F
:1001C000000000000000000000000000000000002F
:1001D000000000000000000000000000000000001F
:1001E0006B11000881F0004102E000BF83F0004382
:1001F00030B54FEA41044FEA430594EA050F08BFC2
:1002000090EA020F1FBF54EA000C55EA020C7FEA85
:10021000645C7FEA655C00F0E2804FEA5454D4EB02
:100220005555B8BF6D420CDD2C4480EA020281EACC
:10023000030382EA000083EA010180EA020281EA04
:100240000303362D88BF30BD11F0004F4FEA013156
:100250004FF4801C4CEA113102D0404261EB410165
:1002600013F0004F4FEA03334CEA133302D05242EB
:1002700063EB430394EA050F00F0A780A4F10104A7
:10028000D5F1200E0DDB02FA0EFC22FA05F28018E1
:1002900041F1000103FA0EF2801843FA05F35941C7
:1002A0000EE0A5F120050EF1200E012A03FA0EFC46
:1002B00028BF4CF0020C43FA05F3C01851EBE37170
:1002C00001F0004507D54FF0000EDCF1000C7EEB8D
:1002D00000006EEB0101B1F5801F1BD3B1F5001FCB
:1002E0000CD349085FEA30004FEA3C0C04F10104EA
:1002F0004FEA445212F5800F80F09A80BCF1004F13
:1003000008BF5FEA500C50F1000041EB045141EA94
:10031000050130BD5FEA4C0C404141EB010111F495
:10032000801FA4F10104E9D191F0000F04BF014640
:100330000020B1FA81F308BF2033A3F10B03B3F11E
:1003400020020CDA0C3208DD02F1140CC2F10C02AE
:1003500001FA0CF021FA02F10CE002F11402D8BF0C
:10036000C2F1200C01FA02F120FA0CFCDCBF41EAD8
:100370000C019040E41AA2BF01EB0451294330BDA7
:100380006FEA04041F3C1CDA0C340EDC04F1140484
:10039000C4F1200220FA04F001FA02F340EA03005B
:1003A00021FA04F345EA030130BDC4F10C04C4F1A1
:1003B000200220FA02F001FA04F340EA0300294681
:1003C00030BD21FA04F0294630BD94F0000F83F4CB
:1003D000801306BF81F480110134013D4EE77FEAAE
:1003E000645C18BF7FEA655C29D094EA050F08BFFA
:1003F00090EA020F05D054EA000C04BF19461046DB
:1004000030BD91EA030F1EBF0021002030BD5FEA1E
:10041000545C05D14000494128BF41F0004130BD46
:1004200014F580043CBF01F5801130BD01F000459A
:1004300045F0FE4141F470014FF0000030BD7FEA0D
:10044000645C1ABF194610467FEA655C1CBF0B4608
:10045000024650EA013406BF52EA033591EA030F1F
:1004600041F4002130BD00BF90F0000F04BF002117
:10047000704730B54FF4806404F132044FF000054A
:100480004FF0000150E700BF90F0000F04BF0021C3
:10049000704730B54FF4806404F1320410F0004529
:1004A00048BF40424FF000013EE700BF42004FEA24
:1004B000E2014FEA31014FEA02701FBF12F07F43A1
:1004C00093F07F4F81F06051704792F0000F14BF9E
:1004D00093F07F4F704730B54FF4607401F00045E2
:1004E00021F0004120E700BF50EA010208BF704739
:1004F00030B54FF000050AE050EA010208BF70472E
:1005000030B511F0004502D5404261EB41014FF496
:10051000806404F132045FEA915C3FF4DCAE4FF09A
:1005200003025FEADC0C18BF03325FEADC0C18BF81
:10053000033202EBDC02C2F1200300FA03FC20FAD2
:1005400002F001FA03FE40EA0E0021FA02F114441F
:10055000C1E600BF70B54FF0FF0C4CF4E06C1CEA34
:1005600011541DBF1CEA135594EA0C0F95EA0C0FA9
:1005700000F0DEF82C4481EA030621EA4C5123EA1C
:100580004C5350EA013518BF52EA033541F480114B
:1005900043F4801338D0A0FB02CE4FF00005E1FBFE
:1005A00002E506F00042E0FB03E54FF00006E1FB48
:1005B00003569CF0000F18BF4EF0010EA4F1FF048B
:1005C000B6F5007F64F5407404D25FEA4E0E6D41CB
:1005D00046EB060642EAC62141EA55514FEAC520DC
:1005E00040EA5E504FEACE2EB4F1FD0C88BFBCF558
:1005F000E06F1ED8BEF1004F08BF5FEA500E50F109
:10060000000041EB045170BD06F0004646EA0101CE
:1006100040EA020081EA0301B4EB5C04C2BFD4EB00
:100620000C0541EA045170BD41F480114FF0000EF9
:10063000013C00F3AB8014F1360FDEBF002001F067
:10064000004170BDC4F10004203C35DA0C341BDCE1
:1006500004F11404C4F1200500FA05F320FA04F0B3
:1006600001FA05F240EA020001F0004221F00041E7
:1006700010EBD37021FA04F642EB06015EEA430E5A
:1006800008BF20EAD37070BDC4F10C04C4F120058A
:1006900000FA04F320FA05F001FA04F240EA02003D
:1006A00001F0004110EBD37041F100015EEA430E0E
:1006B00008BF20EAD37070BDC4F1200500FA05F22E
:1006C0004EEA020E20FA04F301FA05F243EA0203AD
:1006D00021FA04F001F0004121FA04F220EA0200BC
:1006E00000EBD3705EEA430E08BF20EAD37070BD02
:1006F00094F0000F0FD101F00046400041EB0101E2
:1007000011F4801F08BF013CF7D041EA060195F0C3
:10071000000F18BF704703F00046520043EB03037D
:1007200013F4801F08BF013DF7D043EA060370476A
:1007300094EA0C0F0CEA135518BF95EA0C0F0CD075
:1007400050EA410618BF52EA4306D1D181EA0301BB
:1007500001F000414FF0000070BD50EA410606BFB5
:100760001046194652EA430619D094EA0C0F02D1FA
:1007700050EA013613D195EA0C0F05D152EA03363F
:100780001CBF104619460AD181EA030101F000415D
:1007900041F0FE4141F470014FF0000070BD41F0A6
:1007A000FE4141F4780170BD70B54FF0FF0C4CF480
:1007B000E06C1CEA11541DBF1CEA135594EA0C0F9F
:1007C00095EA0C0F00F0A7F8A4EB050481EA030EEC
:1007D00052EA03354FEA013100F088804FEA0333D3
:1007E0004FF0805545EA131343EA12634FEA0222A1
:1007F00045EA111545EA10654FEA00260EF0004162
:100800009D4208BF964244F1FD0404F5407402D2B3
:100810005B084FEA3202B61A65EB03055B084FEA44
:1008200032024FF480104FF4002CB6EB020E75EB41
:10083000030E22BFB61A754640EA0C005B084FEA69
:100840003202B6EB020E75EB030E22BFB61A7546E6
:1008500040EA5C005B084FEA3202B6EB020E75EB31
:10086000030E22BFB61A754640EA9C005B084FEAA9
:100870003202B6EB020E75EB030E22BFB61A7546B6
:1008800040EADC0055EA060E18D04FEA051545EAA5
:1008900016754FEA06164FEAC30343EA52734FEA4E
:1008A000C2025FEA1C1CC0D111F4801F0BD141EAC7
:1008B00000014FF000004FF0004CB6E711F4801F2C
:1008C00004BF01430020B4F1FD0C88BFBCF5E06F0C
:1008D0003FF6AFAEB5EB030C04BFB6EB020C5FEA1C
:1008E000500C50F1000041EB045170BD0EF0004E71
:1008F0004EEA113114EB5C04C2BFD4EB0C0541EAA3
:10090000045170BD41F480114FF0000E013C90E69F
:1009100045EA060E8DE60CEA135594EA0C0F08BF63
:1009200095EA0C0F3FF43BAF94EA0C0F0AD150EA62
:1009300001347FF434AF95EA0C0F7FF425AF1046F5
:1009400019462CE795EA0C0F06D152EA03353FF41D
:10095000FDAE1046194622E750EA410618BF52EA9A
:1009600043067FF4C5AE50EA41047FF40DAF52EA6E
:1009700043057FF4EBAE12E74FF0FF3C06E000BF0B
:100980004FF0010C02E000BF4FF0010C4DF804CD18
:100990004FEA410C7FEA6C5C4FEA430C18BF7FEAD8
:1009A0006C5C1BD001B050EA410C0CBF52EA430C06
:1009B00091EA030F02BF90EA020F0020704710F186
:1009C000000F91EA030F58BF994208BF90422CBF15
:1009D000D8176FEAE37040F0010070474FEA410C0E
:1009E0007FEA6C5C02D150EA013C07D14FEA430C2C
:1009F0007FEA6C5CD6D152EA033CD3D05DF8040B9D
:100A0000704700BF8446104662468C4619466346CE
:100A100000E000BF01B5FFF7B7FF002848BF10F1A5
:100A2000000F01BD4DF808EDFFF7F4FF0CBF0120EA
:100A300000205DF808FB00BF4DF808EDFFF7EAFF66
:100A400034BF012000205DF808FB00BF4DF808ED21
:100A5000FFF7E0FF94BF012000205DF808FB00BF16
:100A60004DF808EDFFF7CEFF94BF012000205DF8A0
:100A700008FB00BF4DF808EDFFF7C4FF34BF0120AD
:100A800000205DF808FB00BF4FEA410212F500129A
:100A900015D211D56FF47873B3EB625212D94FEAC5
:100AA000C12343F0004343EA505311F0004F23FAAF
:100AB00002F018BF404270474FF00000704750EA04
:100AC000013005D111F0004008BF6FF000407047C1
:100AD0004FF00000704700BF37B5054605F096FBA4
:100AE000174B9D4206D12120002105F0D1FF4FF088
:100AF000007005E00920002105F0CAFF4FF080607A
:100B0000002105F0D3FF4FF4E06005F039FB0C4BFA
:100B10009D4201D1142300E04023002401A88DF858
:100B200004308DF805408DF806408DF8074005F03B
:100B300031FB28460221224605F08EFC3EBD00BF57
:100B40000064004070B5514B8AB09842054601D10F
:100B5000212000E00920012105F09AFF48238DF8AB
:100B600027304A4B09A99D4204D10123ADF8243016
:100B7000474803E020234748ADF8243005F0C4FD82
:100B800018238DF8273003238DF826303F4B09A911
:100B90009D420DD102233E48ADF8243005F0B4FD4E
:100BA0004FF4EB10012105F009FE4FF000700BE04F
:100BB00040233848ADF8243005F0A6FD3648012121
:100BC00005F0FCFD4FF08060012105F06FFF4FF450
:100BD000E06005F0D5FA2D4B9D4201D1142300E0D1
:100BE000402300248DF8203008A801238DF82330FD
:100BF00005AE8DF821408DF8224005F0CBFA28464D
:100C000005F004FB304605F017FC02238DF8183080
:100C10002846DB1831468DF81930ADF814308DF8C0
:100C20001A408DF81B408DF81C408DF81D408DF842
:100C30001E408DF81F408DF816408DF8174005F0C6
:100C4000FFFA124B9D4208BF8DF80E4002D00E23D2
:100C50008DF80E300023012401A88DF80F308DF897
:100C60001040ADF80430ADF80630ADF80830ADF8FE
:100C70000A30ADF80C308DF8114005F05DFB2846C8
:100C80000221224605F0E8FB0AB070BD0064004076
:100C900000140140000C014040002000F0B540F27B
:100CA000213387B00193A3F5487302938DF80E307A
:100CB00015465433002201A904468DF80D208DF805
:100CC0000C208DF80F3005F0D0FB4FF6FF7607466D
:100CD00000E0013E2046394605F02AFC012804D0F8
:100CE000002EF6D14FF0FF3503E0002E08BF4FF085
:100CF000FF35284607B0F0BD73B51648FFF722FF51
:100D000000251548154EFFF71DFF02AC5523694617
:100D10002A46104804F8083D3560FFF7BFFF6946D2
:100D20002A460D48FFF7BAFF0A48FFF7D5FE0A48E2
:100D3000FFF7D2FE4FF6FF733268022A02D00BB1E2
:100D4000013BF9E7054B1868022814BF0020012079
:100D50007CBD00BF00640040006800401C6D0020A6
:100D600008B5104A104B114903E052F8040B43F840
:100D7000040B8B42F9D30E4A0E4B0F4903E052F895
:100D8000040B43F8040B8B42F9D30C4B0C490022A3
:100D900001E043F8042B8B42FBD30A4B0BB1AFF3BA
:100DA000008008BD3469020800000020C40800204B
:100DB000F8710208C4080020C4080020C4080020FC
:100DC0001C6D002000000000684620F007018D46E1
:100DD00001B5064B00E000BF013BFCD2FFF7C0FFAE
:100DE00000F06CF8BDE8014085467047F0B31A008A
:100DF0000F4B10B51868B0F1FF3F17D008B904F0D9
:100E000097FD0B4C002120680A460B4604F02FFC8E
:100E1000012807D100F082FB002120680A460B461A
:100E200004F0B1FB052004F023FFEBE7FEE700BF71
:100E30000000002010B50120002104F072FB114BCE
:100E4000186020B100210A460B4604F09CFB0D4BB4
:100E5000186808B904F06CFD0A4C002120680A46A5
:100E60000B4604F004FC0128F7D100F023FB00211D
:100E700020680A460B4604F086FB002004F058FD6B
:100E8000EBE700BF0000002008B5064B186805F02E
:100E900051F8054B1860054B186805F04BF8044BEA
:100EA000186008BD206D0020C4080020246D0020BB
:100EB000C8080020704700BF00BFFCE730B585B010
:100EC00000F056F900F0E8FB104B002401250193D7
:100ED0000F4923464FF4D0720E48009502940394B4
:100EE00004F05AFC0C4B0D494FF4D07201930C489E
:100EF000234600950294039404F04EFC00F02AFA75
:100F000004F086FD204605B030BD00BF246D0020F2
:100F10007CA40008F10D0008206D002089A40008C1
:100F2000350E0008F0B5044634484FF6FF710180D5
:100F30003348DFF8D0C001803348344A0180344858
:100F4000344B01803448354F0180354E354D36489D
:100F500085B0ACF800101180198001803980318093
:100F6000298020460021CDF804C00292039303F0AB
:100F70007FFF01213880204603F07AFF0221308074
:100F8000204603F075FF03212880204603F070FF00
:100F9000039B04211880204603F06AFF029A052172
:100FA0001080204603F064FFDDF804C00621ACF891
:100FB0000000204603F05CFF104B102118802046F3
:100FC00003F056FF0E4B11211880204603F050FF0E
:100FD0000D4B12211880204603F04AFF0C4B1321C1
:100FE0001880204603F044FF0B4B1921188020463F
:100FF00003F03EFF0C4B188005B0F0BD2C6D0020B7
:10100000286D0020486D0020346D00203C6D0020CC
:10101000466D00203E6D0020386D0020306D0020B0
:10102000406D0020366D0020446D002070471EF09A
:10103000040F0CBFEFF30880EFF30980D0F818A07D
:1010400000BFFDE700BFFDE700BFFDE700BFFDE714
:1010500070477047704770477047704770477047D8
:1010600070477047704770477047704770477047C8
:1010700070477047704770477FB5002101AA0C4840
:1010800005F08AFA019A40F221339A4209D1039A73
:10109000084B22F47F429A4203D1074B1A6801326F
:1010A0001A600348042105F0D0FA07B000BD00BF64
:1010B00000640040000001551C6D0020704770471F
:1010C0007047704770477047704770477047704768
:1010D0007047704770477047704770477047704758
:1010E0007047704770477047704770477047704748
:1010F00070477047704770477047704708B5402089
:1011000004F0C0F84FF4803004F0BCF8024B1868CB
:1011100004F048FC08BD00BF206D002070477047F8
:101120007FB5002101AA0C4805F036FA019A40F279
:1011300021339A4209D1039A084B22F47F429A4202
:1011400003D1074B1A6801321A600348042105F0E5
:101150007CFA07B000BD00BF0068004000000155E8
:101160001C6D002070477047704770470020704723
:1011700070B5BCB005F0B6FD05F058FB4FF48030FB
:1011800005F07CFB05F0E0FC00283CD0102005F0C9
:10119000AFFA022005F0A2FA002005F0D5FB0020EE
:1011A00005F0E6FB4FF4806005F0D8FB4FF40040FB
:1011B00005F0E8FB402005F09BFB4FF4C06005F014
:1011C000A1FB012005F0A8FB3B2005F0A7FC0028AF
:1011D000FAD04FF48030042105F07CFB4FF48030CE
:1011E0004FF4E01105F066FB012005F06DFB39209E
:1011F00005F094FC0028FAD0022005F093FB05F0DE
:101200009BFB0828FBD130A805F0C6FB4FF4E0306B
:10121000012105F02FFC7D20012105F039FC002182
:101220004FF0006004F0E6FF4FF4A06004F0A8FF68
:101230003D238DF8EC3002238DF8ED300025013B85
:101240003BA83AAC8DF8EF308DF8EE5004F0A2FFD9
:10125000032304268DF8EA303548153321468DF8EE
:10126000EB30ADF8E86005F04FFA4FF464533148C5
:101270002146ADF8E83005F047FA06232E4821460E
:10128000ADF8E83005F040FA8B2329482146ADF847
:10129000E8308DF8EB6005F037FA40F2034325485B
:1012A0002146ADF8E83005F02FFA382321462248D0
:1012B000ADF8E83005F028FA284605F0B1FA03F059
:1012C000DBFC03F0CFFF03F0D5FF0128FBD001AD1D
:1012D000284603F0DDFC4FF400720B924FF0004201
:1012E000002301240F921F212022284608930C93EB
:1012F0001493159316931292019403F015FE0F4860
:101300000F49042203F05EFF08220E480E4903F045
:101310007FFF0E48214603F0FBFF03F0E9FF35A8ED
:1013200005F03AFB0A4B102283F823203CB070BD35
:1013300000080140000C014000100140086E002030
:10134000489E0020C89D0020486E002040000100FB
:1013500000ED00E07FB50120014605F0A7FB274D19
:101360000121022005F0A2FB4FF0804005F002FCB5
:10137000284605F0FFFB684605F082FC4FF46163E8
:10138000ADF80430694600234FF080401E46ADF8AA
:101390000030ADF80630ADF8023005F04DFC01210B
:1013A0004FF0804005F08DFC4FF0FF332846694632
:1013B000ADF8043005F040FC0121284605F081FC21
:1013C00001241C2303A88DF80C308DF80E608DF8D5
:1013D0000D608DF80F4004F0DDFE214622464FF0EF
:1013E000804005F063FC21464FF0804005F051FC41
:1013F0002846214605F04DFC7FBD00BF000400409B
:1014000008B5124B9A8C124B92B2198804290ED946
:10141000104B11491B880888D31A9BB2984208D2F6
:101420000B80A3F561630D499BB20B8001E0013194
:101430001980084B4FF080401A80094B01211A682F
:1014400001321A6005F04AFC08BD00BF00040040EC
:10145000D6080020D8080020CC080020D40800209E
:10146000D00800207047000000B5ADF5BC6D81B01C
:101470000D4A002301A9D05CC8540133362BFAD1A0
:101480000A4A01A811880A4A126804E012F801CB3E
:1014900000F803C001338B42F8DB03F049FC79B05C
:1014A0000DF5806D00BD00BFBCC6002008B6002051
:1014B0001CB6002070B5174C174D23E0237B667BCC
:1014C0004FF4006043EA062602F058FC864209D138
:1014D00001F0CCFB012001F0E9FD2B8893B101F074
:1014E0006BFC0DE0237B667B40F6060043EA062694
:1014F00002F044FC864205D101F0E4FB2B880BB1DD
:10150000FFF7B2FF034803F05FFC80B22880002899
:10151000D4D170BDBCC6002008B60020F8B5194E65
:10152000194D00244FF4D07707FB0463174A0220BB
:10153000136001F0BBFD2B881BB101F03DFCFFF7F0
:1015400093FF01340A2CEFD1114E0F4D0024482790
:1015500007FB04630F4A0520136001F0A7FD2B88E9
:101560001BB101F029FCFFF77FFF0134042CEFD100
:10157000094800F0B7F820B1074800F0AEF801F0D4
:101580003FFBF8BD24B6002008B6002020B600209E
:10159000A4CC002018B600200400002008B5084B99
:1015A0001B689B881A0A42EA03239BB2172B04D0BC
:1015B000502B04D100F016FD01E001F06DF908BDDB
:1015C00020B6002008B5094B1B68DB881A0A42EADE
:1015D00003239BB2432B02D07B2B05D102E000F00A
:1015E00081F901E001F00EF808BD00BF18B6002037
:1015F00013B5446A2249234B234A84B94AF6C000F2
:10160000088018804FF4006C4FF48070A1F802C07D
:1016100058804FF0FF31FF23118053801BE0B0F85A
:1016200024C0A1F800C0B0F826C0A1F802C0018D06
:10163000B0F82AC01180A2F802C0018E428E198033
:101640005A80B0F834C0114BC18EA3F800C0598045
:10165000826B0F4B1A6000F003FD01F00FF90B4B8A
:1016600001AC1A885B882046ADF80420ADF806303E
:1016700002F095FB18B92046064900F0A7FF1CBDF3
:10168000B8C600207CC60020B4C6002064C6002076
:10169000642B00206514000808B501F055FC01F02A
:1016A00097FA0948072212234270A332037082700E
:1016B000037199224333C2704371062100F0F0F8A0
:1016C00000F014FA08BD00BF702B002010B5416077
:1016D000044604F0CBF9206010BD02684368D318BB
:1016E0000360704710B5044604F0C0F92368C01ABF
:1016F0006368984234BF0020012010BD0123F7B574
:1017000003704370264B00251E680427B369044606
:101710008370C5703A460430224905F090FB6FF0A3
:101720007F03A3723A4625726572E57204F10C00DC
:101730001D4905F084FB29463A4604F1100005F0E6
:1017400088FB29463A4604F1140005F082FB29463D
:101750003A4604F1180005F07CFB04F11C037169A2
:10176000B2691846019305F06AFB019BB0692946EE
:10177000C0F11002181805F06CFB2946402204F154
:101780002C0005F066FB2946802204F16C0005F070
:1017900060FB04F1EC0005493A4605F050FBFEBD44
:1017A000DC08002094A40008B8C6002098A4000813
:1017B000F7B5374B1C682378022B65D1201D3549BE
:1017C000042205F02BFB064600285DD1324B04F1C4
:1017D0001C001D686969AA6905F020FB07460028FE
:1017E00053D105F1240004F11001042205F027FB78
:1017F0002A4BF0341B883E46E3180193264D3FE008
:1018000023782A2B2BD00AD8022B16D002D8012BF2
:1018100033D10FE0032B1CD0062B2ED11CE0352B2F
:1018200020D002D8332B28D121E0362B1CD0FF2B1F
:1018300023D12AE0286828301BE02F68A11C04224D
:1018400007F1380005F0FBFAB86B02F09CFAB863B8
:1018500013E0286830300CE028682C3009E0286854
:10186000343006E0A67808E028681C3001E02868DB
:101870002030A11C042205F0E2FA63780233E41858
:10188000019B9C42BCD300E000263046FEBD00BF59
:101890001CB6002094A40008DC08002008B6002034
:1018A00037B54FF0FF3205460C4601A84FF486418C
:1018B000ADF80420ADF8062001F088FB58B1084BC4
:1018C00000F10C021A60002383734FF48843006117
:1018D000056244628380024B00221B681A803EBD71
:1018E000DC0800207E4BF7B51B681A88B2F5A37F91
:1018F00046D001D84AB1F0E0B2F5B17F00F0B68031
:10190000B2F5BF7F40F0E980E2E001229A706422E4
:101910001A82744D2C682046FFF7F0FE352384F8B8
:10192000F030012384F8F13084F8F23084F8F53097
:10193000023384F8F630033384F8F7303722243347
:1019400084F8F32084F8F8300222234603F8F92FB4
:1019500004F1F4029B1A84F8F430FF2384F8FA307F
:101960002868FB34211A5E4C02F024FA236803F144
:101970000800198AFFF7AAFE23684FF4A3721A80A1
:10198000594B1B7813F0020F07D1554B18680830DC
:10199000FFF7A8FE002800F0A280534C237813F034
:1019A000020F0BD0FFF704FF022807D1237823F0A2
:1019B000020323704A4B1B68987015E04A4B41F2B2
:1019C0006F711A7822F002021A70454B1B681A8A4E
:1019D0008A4205D852001A829B78022B99D103E0E3
:1019E0000022DA849A846FE03D4B64221B681A82DD
:1019F0003C4B04251C6801932046FFF77FFE3522EF
:101A000084F8F020012284F8F120023284F8F220D8
:101A1000334E333284F8F32084F8F450376804F1FD
:101A2000F50007F11C012A4605F009FA322284F874
:101A3000F92084F8FA5004F1FB0007F124012A464A
:101A400005F0FDF9FF2284F8FF20019B04F5807466
:101A50001868211A02F0AEF9336803F10800198AF8
:101A6000FFF734FE33684FF4B1721A801E4B1B78B7
:101A700013F0020F06D11A4B18680830FFF732FE38
:101A800000282CD0184C237813F0020F0CD0FFF74D
:101A90008FFE052808D12378032223F00203237048
:101AA0000F4B1B689A700FE00F4B1A7822F002025E
:101AB0001A700B4B1B681A8AB2F57A7F0DD8643204
:101AC0001A829B78032B93D1054B1868FFF790FD82
:101AD000034B4FF4BF721B6800E000221A80FEBD6A
:101AE000DC0800201CB6002014B60020034B1B6845
:101AF0009B7813B9024A138053807047DC0800209A
:101B0000B8C6002038B5038D0446C92B0D4654D005
:101B10000AD8C22B17D001D89BB192E0C52B26D092
:101B2000C72B40F08E8038E0CD2B66D003D8CB2B6E
:101B300040F0878051E0CF2B6FD0D12B40F08180D7
:101B400075E0C2230385284605F0FCF929460246C4
:101B500004F1280000F022FC002875D004F1820076
:101B60002E2105F022FA054648B9C52323853748BA
:101B700005F0E8F93549024604F128005EE03448F2
:101B80002946052205F0E6F928B132482946062201
:101B900005F0E0F948B9C72323852F4805F0D2F9AD
:101BA0002D49024604F1280048E02C482946042229
:101BB00005F0D0F948B9C9232385294805F0C2F9B1
:101BC0002749024604F1280038E026482946042225
:101BD00005F0C0F948B9CB232385234805F0B2F9B5
:101BE0002149024604F1280028E020482946042221
:101BF00005F0B0F948B9CD2323851D4805F0A2F9B9
:101C00001B49024604F1280018E01A48294604221C
:101C100005F0A0F948B9CF232385174805F092F9BC
:101C20001549024604F1280008E0D1232385134812
:101C300005F088F91149024604F1280000F0AEFBD6
:101C400010B100232385022038BD00BF685B020865
:101C5000585B0208045B0208B05B02089C5B020848
:101C6000E85B0208605B0208CC5B0208945B020838
:101C7000045C0208D05C0208385B02080C5B0208B6
:101C8000038D10B5044613B16A2B17D101E06A2306
:101C9000238504F128000B49224600F0C1FB80B1E6
:101CA000D4F8A020D4F89C30D4F898109B1A8A1845
:101CB000002BC4F89C30C4F89820E8DC002323856E
:101CC000022010BDB11F0008838870B5F82B0446B0
:101CD0000AD001D833B15EE0FD2B14D0B3F5907F6C
:101CE00059D142E0F8238380201D202100F002FC1E
:101CF000002852D004F15000A449042205F02AF92A
:101D000060B9FD23A380251D2846202100F0F2FBA9
:101D1000002842D094F850302F2B03D09C4B102237
:101D20001A7038E094F85130202B04BF04F182007F
:101D3000984911D0284600F0C3FB0026201804F172
:101D4000500580F84F603F21284605F0E5F800B1C6
:101D5000067004F182002946142205F012F90123CD
:101D600084F896304FF49073A380251D28460A21ED
:101D700000F0C0FB88B104F150008749082205F04B
:101D8000E9F806460028EDD1284600F099FB201816
:101D900080F84E60E6E70023A38094F89630012B8C
:101DA00040F0F280B4F84C30E12B00F0E38004D82E
:101DB00063B1E02B40F0E5801CE0EA2B41D0ED2B35
:101DC00000F0D880E52B40F0DC801FE004F18205B4
:101DD00004F198062846314600F084FA98B9314655
:101DE0006E4800F07FFA28466C4905F0A2F8E0231F
:101DF000A4F84C3020466A49FFF784FE002800F022
:101E0000C380E123B4E0E523A4F84C3020466549C3
:101E1000FFF778FE002800F0B78004F182002E2141
:101E200005F07AF8002800F0A2805F49062205F04C
:101E300091F8002840F09B80EA23A4F84E00A4F813
:101E40004C30B4F84E30942B24D003D8002B00F043
:101E5000858088E0972B24D0B32B40F084805FE00E
:101E6000D4F898502A78252A3BD16A78212A38D18B
:101E7000EA1C033BC4F8A420C4F8A83012F8013CC3
:101E80003A2B0BD1281D04F1980100F02BFA942372
:101E9000A4F84E302046FFF7F3FE0BE09723A4F89A
:101EA0004E30D4F8A40000F0EDF9D4F8A4100346A5
:101EB00020469847002867D0D4F8A4500A21284625
:101EC00005F02AF80130D4F8A830451BADB25D1BEF
:101ED000C4F8A850C4F8A400C4F89800C4F89C50F2
:101EE0003CE0324A1268568A9E42D4BFC4F8A060D1
:101EF000C4F8A0302978252901D1681C01E02846C2
:101F0000252105F009F840B1A84206D0451BAE4294
:101F1000D4BFC4F8A060C4F8A050B323A4F84E30D6
:101F2000238D13B1772B0BD101E07723238504F1A7
:101F30002800D4F89810D4F8A02000F02FFA18B395
:101F40000023D4F898202385D4F8A030D218C4F800
:101F50009820D4F89C20D31AC4F89C30D4F89C3034
:101F6000002B3FF77DAF0023A4F84E3006E0ED23B1
:101F7000A4F84C302046FFF783FE28B1044B102212
:101F80001A700023A4F84C3070BD00BFD85C020862
:101F900014B60020E05C02082C5B0208A45B020877
:101FA000205C02087C5C0208045B020820B600206A
:101FB0000A4AD0F89C30126810B5528A04469A42F8
:101FC000A8BF1A46064BC0F8A020D4F8981018688D
:101FD00004F035FFB4F8A00010BD00BF20B600200B
:101FE0001CB60020F8B51C4A1C4B1C68137813F073
:101FF00030052FD113F0800F2CD113F0400F04F1D6
:102000001C0613D004F16C0704F12000394631227C
:1020100000F0D0FA04F144003946312200F0CAFA47
:10202000A4F8685084F8B25025770DE086B113F01B
:10203000080308BF237707D0237F0133DBB2132BBC
:10204000237701D9202313703046FFF73DFE01E0CE
:1020500020231370F8BD00BF14B6002020B6002066
:1020600008B54FF4A04001F007F808BD0023038530
:102070000220704701207047038D10B5044613B14C
:10208000CC2B09D101E0CC23038504F128000449BD
:10209000002200F0C5F910B100232385022010BDF5
:1020A00075200008038D10B5044673B1BA2B12D108
:1020B00001E0BA23238504F128000949224600F0F3
:1020C000AFF958B1B4F8AC300133A4F8AC30B4F87F
:1020D000AC30192BEDD900232385022010BD00BFA1
:1020E00039210008038D10B50446BBB1A72B1BD1C5
:1020F0000AE00F4A4FF4D07101FB03235B7E13F01B
:102100000F0F08D0A723238504F128000949224690
:1021100000F086F958B1B4F8AC300133A4F8AC3013
:10212000B4F8AC30092BE4D900232385022010BD7C
:1021300024B6002065210008B0F8AC2008B5064B95
:1021400040F2A65133F81230044A1068044A04F0F1
:1021500087FE80B208BD00BF80C600201CB60020EC
:10216000E4A40008B0F8AC30F0B54FF4D0755D438E
:10217000294E2A4A741912688FB0A0880C9201F077
:10218000FDFD0D90705B01F0F9FDC0F30F23705B56
:102190000B9301F0F3FD00F0FF07608801F0EEFD06
:1021A000C0F30F26608801F0E9FD00F0FF05E0882C
:1021B00001F0E4FD04F118025178DFF864C001F089
:1021C0000F0E5CF82EE00B9BCDF814E0B4F810E095
:1021D00092F803C0BEF1000F0CBF4FF0200E4FF07D
:1021E0002A0E927811F0100F0CBF202121210093AC
:1021F0000490079209910C9840F2A651094A0D9B50
:10220000019702960395CDF818C0CDF820E004F0B0
:1022100027FE80B20FB0F0BD24B600201CB600200F
:10222000B4A50008E9A40008038D10B5044613B155
:10223000662B0ED101E0662303850846202104F0B9
:102240006BFE04F12803421C0449184600F0E8F82C
:1022500010B100232385022010BD00BF61220008B9
:10226000064B10B51C6800F05FF840F2A65103461B
:10227000034A204604F0F4FD80B210BD1CB60020D5
:1022800046A50008F8B50646094D0BE02768384614
:1022900004F058FE31460246384604F05BFE08B9A9
:1022A000606804E055F8044F002CEFD10148F8BDF8
:1022B000080000206D2000080023CA5C62B110F8FD
:1022C00003C0BCF10D0F09D0BCF10A0F06D0944534
:1022D00006D10133DBB2F0E7104602E0002000E057
:1022E00001207047F8B507460E460D4C002513E057
:1022F00038466168FFF7E0FF58B9A36801303360E2
:10230000E3687360074B33F81520013223F815207A
:1023100005E001352468ADB2002CE9D12046F8BDB6
:1023200070490108E008002070B50646094C0025F8
:102330000BE030466168FFF7BFFF18B9064B33F872
:10234000150005E001352468ADB2002CF1D120461E
:1023500070BD00BF70490108E008002010B590F87A
:1023600020300446062B04D10A4B187810F00400E4
:102370000ED0094A238A1268518A8B428EBF606848
:102380006068194601F016FD062384F8203001200C
:1023900010BD00BF14B6002020B6002038B5438819
:1023A000044613B1DF2B33D10AE012B94280012079
:1023B00031E04160028280F8203024E0DF23638036
:1023C00094F82030062B18D1134B1D7815F0010519
:1023D00014D0124A238A12686168528A934204D93F
:1023E0009B1A8A182382626003E0CB186360002383
:1023F0002382012584F8205000E000252046FFF7C5
:10240000ADFF284007D0238A002BD7D184F8203095
:1024100000236380022038BD14B6002020B60020BF
:10242000F8B5468804460D46174616B1FE2E3DD136
:1024300014E011B9618001203BE0104688471D4B34
:1024400020821B6884F8206063601B4B1B7813F0AC
:10245000040F01D03846A847FE23638094F820304B
:10246000062B18D1144B1E7816F0010614D0134A0F
:10247000238A12686168528A934204D99B1A8A1887
:102480002382626003E0CB1863600023238201266D
:1024900084F8206000E000262046FFF75FFF304010
:1024A00007D0238A002BD0D184F82030002363800A
:1024B0000220F8BD1CB6002014B6002020B6002073
:1024C000C269038BD01A80B270470000438A6BB98F
:1024D00090F82020022A04D1013280F820201846EA
:1024E00005E0034B1878C0F3400000E0012070477E
:1024F00014B6002038B5438804460D4623B140F297
:102500002B1293424ED108E0838BC2680383426151
:10251000638A1BBB40F22B1363802046FFF7D6FF74
:10252000002842D0022384F82030204B1B68A3608F
:102530001F4B1B88638211E0A36862691B781370CC
:10254000A2680132A260626901326261628A013A64
:102550006282228B013AAB42228314D0238B13B1C7
:10256000638A002BE8D1638A83B107E0A368013A4C
:1025700013F8011B6282A942A36006D0628A002A76
:10258000F4D1012302E0022300E0032313F0020F41
:10259000BED0228BA38B9A4204D1002084F8200065
:1025A000608002E000236380022038BD1CB600205A
:1025B00008B60020002380F820304382C160C26149
:1025C0004161028303804380704700000C4B10B5CB
:1025D0001B680C461BB15B680BB100229A804FF45C
:1025E000F64100F0F3FC50B1054B00F10C021A600B
:1025F0000A23C3610023006104628381012010BDAE
:1026000010090020454B73B51B68002B00F0858036
:102610001A88A52A1ED0C42A79D0002A7BD1404C22
:10262000002125683022284604F013FC03226FF0B5
:102630001F0362F302032B702068384C302101F035
:10264000B9FB20684FF47A710830FFF73FF8236830
:10265000A5221A80334B1B7803F00A03022B06D005
:102660002E4B18680830FFF73DF8002855D02B4B4B
:102670002C4A186812780369013B12F0080F0361B5
:1026800001D0002BCBD10830FFF72CF830B1234B11
:102690001B685B69002B30D000202DE0204B1F4DC4
:1026A0001C68627B237BE07B43EA0223A27B43EA34
:1026B000024353EA006026D094F8283094F82900A9
:1026C00043EA002094F82A3040EA034094F82B3083
:1026D00040EA036001F057FB94F82C30064694F86A
:1026E0002D0043EA002001F049FB0F4BF318019342
:1026F0002B685B690BB101A89847084B00221B6847
:102700005B689A8003E02B685B6903B19847034BD1
:10271000C4221B6800E000221A807CBD1009002042
:102720001CB6002014B600208081557C014608B5F7
:10273000014801F076FB08BD2000002010B50B4ACF
:1027400000230AE052F8044F591C2CB9084A1360C0
:10275000084A42F8230004E00B463F2BF2D9044A12
:102760001360402B01D1FFF7E1FF10BD18290020B5
:10277000E42A00201C29002038B5044606480D46EE
:1027800001F03BFB38B1FF230370002344708570D8
:10279000C370FFF7D3FF38BD200000200D2810B50F
:1027A0001CD00F4A92F88031D1180A2881F8000114
:1027B00002D07F2B0FD100E023B1094AD3180022A9
:1027C00083F80021064C04F5807002F027F90023FD
:1027D00084F8803102E0013382F8803110BD00BFFF
:1027E0001C290020024B062283F88221704700BF7B
:1027F0001C29002038B50546064801F0FEFA0446BB
:1028000030B12946802204F0BCFB2046FFF796FF3A
:1028100038BD00BF20000020F8B5074615480E4619
:1028200001F0EBFA044618B3384604F08BFB124B68
:102830000546186080222046394604F0A2FB7F2D11
:1028400005D86019C5F18002314604F09AFB204694
:1028500004F078FB084B7D28186006D80D2323541C
:1028600020180A234370002383702046FFF766FF79
:10287000F8BD00BF20000020E02A002008B54FF47A
:10288000B85000F0F9FB034801F0A8FA02F0AEF8E6
:1028900008BD00BF20000020F0B57D4B85B01B783F
:1028A00013F0400F12D000237A4A194602E042F892
:1028B000041F01333F2BFAD9774A1360774B00226C
:1028C00083F8802183F8822102F092F8734A92F80B
:1028D0008231062B6E4B05D1002182F88211102225
:1028E0001A70D3E01B7813F0300F02D113F0800F71
:1028F0000FD06B4C00232360684D07E055F8230090
:1029000008B1FFF713FF23680133236023683F2BCF
:10291000F4D95F4B1B7813F0010F15D11CE0206830
:10292000FFF704FF5D4A334603E05168013342F884
:10293000041B3F2BF9D93B6094F88131C4F8FC505B
:10294000013B84F8813103E0544C564F01260025A9
:1029500094F88131002BE2D14D4B1B7813F0020F1C
:1029600042D0514B4D4C1E88504B00251F6836E01D
:1029700094F88231013E17F8011BB6B2052B2ED810
:10298000DFE803F024031C1C1E1EFF2903D10846A8
:10299000FFF704FF17E0FB39032914D8DFE801F043
:1029A0000204080A022300E0032384F8823116E0BF
:1029B0000423FAE7052084F8820110E0FE2000E0FD
:1029C000FC20FFF7D9FE84F8825108E0FF2903D1EB
:1029D000012284F8822102E00846FFF7DFFE1EB1E3
:1029E00094F98031002BC3DA294B1B7813F0470F81
:1029F00002D113F0080F49D02C4B284C1A682C4BED
:102A00002C4F1A602C4B00221A6084F881212FE091
:102A10002A48016008460291019304F093FA802845
:102A200038600299019B01DD80223A603E681A6895
:102A30002348B218039202680398528A90421FDA20
:102A4000DFF86CC03246DCF8005001932846CDF820
:102A500008C004F0F4F9019B039ADDF808C01A607D
:102A600094F88121AD190132CCF8005084F881210D
:102A700094F881213F2A03D854F822100029C7D1A5
:102A80000A4B18680C4B196801F094F905B0F0BDB9
:102A900014B6002018290020142900201C29002029
:102AA00018290020F82A002008B600201CB60020B3
:102AB000F42A0020F02A0020E82A0020EC2A002036
:102AC00020B6002070B50D463C49002203460A702E
:102AD00014463B490B2020E000FB02FC01EB0C04F8
:102AE00094F801E011F80CC05CEA0E2611D094F8BD
:102AF00002C094F803E05CEA0E2C0AD0B3F800E0C0
:102B0000B64506D1B3F802E0E64502D12B4B1A7068
:102B10004AE000FB02140132D2B2072ADCD927496D
:102B200000220A704FF00B0C254910E00CFB02F05C
:102B30000C1894F801E0085C50EA0E2E05D1A0783C
:102B400094F803E050EA0E2E03D00132D2B2072AE5
:102B5000ECD91A49082A0A7021D11A4A184C167859
:102B60000022104611464FF00B0E0CE00EFB014CFC
:102B70009CF80AC0CCEB060C9445C4BF5FFA8CF2FB
:102B800008460131C9B20729F0D90F490B240A7050
:102B90000E4A1070094A1070094A04FB00242046AE
:102BA0001946042204F04BF9201D2946062204F0A0
:102BB00046F9044B1B78A37270BD00BFFC2A0020AD
:102BC000002B0020592B0020FD2A0020582B00202C
:102BD000F8B5094D00232B70084E0B2707E007FBC3
:102BE000046000210422013404F033F92C702C78A5
:102BF000072CF4D9F8BD00BFFC2A0020002B0020D0
:102C0000F7B5DFF85CC0174D9CF80030164E013365
:102C10008CF8003000232B700B271CE007FB04F31B
:102C2000F018C1788278F35C42EA0122417843EAE5
:102C3000012313430DD09CF80020837AD31A772BFD
:102C400007DD00210422CDF804C004F002F9DDF80C
:102C500004C001342C702C78072CDFD9FEBD00BFD6
:102C6000592B0020FC2A0020002B002008B5114B16
:102C700011491A880E3A1A808B7E104A91F81BC0AF
:102C800043EA0C2C138883EA0C0C0D4B18881CEAC1
:102C9000000F0ED1087F91F81DC0528840EA0C2029
:102CA0005B8842401A4204D101F11A000631FFF755
:102CB00009FF08BD08B60020BCC60020B8C6002029
:102CC000B4C60020F7B5384F3B88292B01D8002324
:102CD00057E00026354C3E80237D627D43EA022387
:102CE000B3F5807F03D0B3F5007F5BD14BE0304D6F
:102CF000E28C2B889A4255D1228D6B889A4251D111
:102D000004F11C0004F11601FFF7DCFE0223267516
:102D10006375062604F12003184604F116013246B5
:102D2000019304F08CF82349324604F1160004F0B4
:102D300086F820493246A01904F081F8019B627F91
:102D400093E80300237F206043EA022384F82630BF
:102D50001B0AE27F84F82730A37FA18043EA022385
:102D600084F828301B0A84F829302B78667323777F
:102D70006B786377AB78A377EB78E37708232373DB
:102D80002A233B800EE00A4BE18C1A88914209D13C
:102D9000228D5B889A4205D104F11C0004F11601D2
:102DA000FFF790FEFEBD00BF08B60020BCC60020A5
:102DB000B8C60020702B0020F7B54C4E4FF6FF72BE
:102DC000F38B934205D1328C9A4204BF3046484976
:102DD0007AD04848484AB0F800C0118883EA0C0C01
:102DE0001CEA010F06D1318C4088528881EA00002C
:102DF000104206D0414A424B1188528819805A80AD
:102E000002E03F4A138051803E4B00251D703C4B31
:102E10002946B3F800E0B3F802C00B203A4B10E0AB
:102E200000FB05F299184C789A5C42EA0422964518
:102E300005D18A78CC7842EA0422944503D0013542
:102E4000EDB2072DECD92F4B082D1D703AD1274C30
:102E5000FF212046062203F0FCFF06270023236201
:102E6000A3849C46E01929493A460193CDF800C055
:102E700003F0E5FF04F1160024493A4603F0DFFFB2
:102E80001F4ADDF800C01188F18452883285194A42
:102E90001188B18352882A21F283012284F814C058
:102EA0006275019BE273A3730423E374184B2574CA
:102EB00084F811C025736773A77436341C60154BF2
:102EC000198012E009480431062203F0B8FF0622F7
:102ED00011480E4903F0B3FF044B08221A73002275
:102EE0005A730C4B1A880E321A80FEBDBCC60020E5
:102EF000EC5C0208B8C60020B4C600207CC60020E6
:102F00005C2B0020FC2A0020002B0020702B0020CE
:102F10001CB6002008B60020C2C6002010B5084C20
:102F200001462068083001F0B5FD064A2368117893
:102F300019725178597291789972D278DA7210BDFB
:102F400020B6002010B6002008B51A4A002304E07D
:102F5000002122F813100133DBB2092BF8D900232A
:102F600015484FF4D0711A4607E001FB030C0133FA
:102F70000CF1180C8CF80120DBB2092BF5D90F4BA2
:102F80004FF480621A800E490023482207E002FBBA
:102F900003104FF0000C0133A0F804C0DBB2032B88
:102FA000F5D9084A002113700748342203F051FF75
:102FB00008BD00BF68C6002024B600206C2B00208E
:102FC000A4CC00206E2B002080C60020274ADFF80A
:102FD000A0C01288F0B5034647F6FF4448270132E7
:102FE00092B2A24288BF4FF48052150A45EA0225E8
:102FF000ADB2002005E007FB06C6B6880130AE4240
:10300000EDD00428C6B2F6D11848194C02804FF012
:10301000480C002217E00CFB02408688551CEDB2DC
:1030200086B9DFF850C0C1808CF80020DFF83CC0C2
:10303000BCF800C04FEA1C2444EA0C2CA0F804C0E1
:103040004BB906E02A46032AE5D90A4B00201A703C
:103050000BE0036003E0198801805B884380044B28
:10306000482101FB0232FF231372F0BD6C2B0020BC
:10307000A4CC00206E2B002010B50023094A0BE0E1
:1030800032F81340591CC9B22CB9074A1370054ACB
:1030900022F8130004E00B46092BF1D9024A137001
:1030A00010BD00BF68C600206E2B0020DFF8481A54
:1030B0000428F8B50C6800F0C181DFF840CADFF8D9
:1030C000402ADFF8403A0328C2F800C0C3F800C025
:1030D0000AD1637E03F00F03032B40F03286238A6C
:1030E000002B40F02E867EE0022840F08280DFF840
:1030F000183ADA780132D2B2DA7062B99A780132CB
:10310000D2B29A703AB95A780132D2B25A7012B920
:103110001A7801321A70DFF8F43900221A80DFF8C9
:10312000F0391A80637E072B14BF00210121052B83
:1031300008BF41F0010141B1A37E0133DBB2782B1E
:10314000A37608BF627600F0FCBD002B00F0F98585
:10315000228A002A42D0A27E013AD2B2A276002A66
:1031600040F0EF85E27E082A05D0591EC9B2012938
:103170000BD8052A09D100236376DFF8983980221D
:103180001A70FEF70BFA00F096BC042A03D80A2145
:103190009140C9B200E0A0210132E276DFF878293F
:1031A000A176D18C03F00F030131013BD184072BB1
:1031B00000F2C785DFE813F0DE0208000A003404DD
:1031C000C5053404C50534040022D4E2DFF84439CF
:1031D00004221A70FEF7E2F900F0BEBC03F00F0300
:1031E000032B40F0AE85DFF82C3908221A7000F06E
:1031F00057BC052817D1DFF824090068808800280B
:1032000000F09F8500200860DFF814191960DFF8CE
:10321000003911601880DFF8F43808221880DFF8D0
:10322000F4381A7008E1DFF8F0381A8801321A8091
:10323000DFF8F02802F10E05927B452A07D09A8824
:1032400001329A80DA880132DA8000F07ABDEB78B8
:10325000AA7803EB0222DFF8B43819888A4200F317
:1032600070851A80AB7913F03F0F01D1EB794BB128
:10327000DFF8A4389A8801329A809A8901329A81BB
:1032800000F05FBDDFF8A0381A880AB95B888BB1FF
:10329000DFF89038D98B914205D11A8CDFF8883845
:1032A0005B889A4206D0DFF870389A8801329A809B
:1032B00000F047BD01F04AFC4FF6FF739842064606
:1032C00009D0DFF854389A8801329A80DA890132BD
:1032D000DA8100F036BD6B7A062B00F0FE80112BF0
:1032E00041D0012BDFF8303807D09A8801329A801C
:1032F0001A8A01321A8200F024BD5A8A01325A8297
:10330000DFF82828117D082907D0DA8A0132DA820D
:103310001A8B01321A8300F014BD0023D17D13757E
:10332000937D43EA01234FF6F6718B4201D90933AD
:1033300000E008339BB293751B0AD375DFF8E437BE
:103340009A8B598B1A84DFF8E027D983B2F800C032
:10335000A3F81AC052889A83DFF8BC379A8A0132E0
:103360009A8200F0E4BCDFF8A437DFF8C0471A887F
:103370001C3A1A80DFF8A827DFF884371A60A37E8A
:10338000E27E53EA02220DD001F04AFCB04209D09D
:10339000DFF884371A8E01321A865A8E01325A8625
:1033A00000F0CFBCDFF88837DFF8780703F5907CB2
:1033B0004FF6FF7121E09A88F2B1A57DE67D45EADE
:1033C0000625954218D1DA882AB1257D667D45EA21
:1033D0000625954210D11A8812B95D882DB910E0E2
:1033E0008A4202D15D888D420BD0458B954203D134
:1033F000858B5A88954204D048336345DBD300F06F
:103400009EBCDFF8182702211360DFF80C379A8D75
:1034100001329A85DFF8E02600231360DFF8F426F6
:103420001170DFF8FC26DFF8D8160A60DFF8D41632
:103430000A60DFF8DC261380FEF7C4F8DFF8D03628
:103440001B88002B00F07D8403F11C02DFF8BC1602
:1034500092B20A80DFF8CC16100A01F10E04E27075
:10346000DFF8B826A07012680833107A9BB2207279
:1034700011206072180A40EA03239BB223760020D1
:103480001B0A6376A076E07613792375537963750A
:103490009379A375D379E375DFF88C361888488360
:1034A0005B888B831388CB835288DFF854360A8479
:1034B0003631196001F0B4FBC04380B2030AA07634
:1034C000E37618B94FF0FF33A376E376DFF848369A
:1034D000DA8D0132DA8500F00CBCDFF83C46638BF4
:1034E0000133638301F03AFBB04207D0E38B013331
:1034F000E383238C0133238400F023BCDFF83426DC
:10350000DFF82036A2F58254617ED1B1A87DEE7D30
:10351000B4F804C040EA0620844512D1287D6E7DAF
:10352000B4F806C040EA062084450AD1B3F81AC0B0
:103530002088844505D1B3F81CC06088844500F01C
:10354000378104F5D0749442DED195F8213003F030
:103550003F03022B1AD1AB7DEA7DDFF8DC1543EA8D
:103560000222DFF8D8351A80002305E031F8130075
:1035700001338242DBB263D0092BF7D9DFF8C025D3
:103580001370DFF894355A8D01325A8595F8213041
:1035900013F0040F40F0D583DFF87C354FF0280C92
:1035A0009A8CE87E01329A84142385F82130DFF862
:1035B0005C35A97EA3F800C0502385F82030EB7F4E
:1035C0006A7EEB76AB7FDFF878C5AB766B7F013038
:1035D0006B762B7EC0B28CF8003095F81CC0A977B2
:1035E0006A7785F818C02B77E87748B90131C9B2F6
:1035F000A97729B90132D2B26A770AB901332B7798
:103600006A7D2B7D43EA0223DFF830251380E97DB4
:10361000AA7DAB7542EA01221B0A2A75EB75120AD4
:10362000DFF800356A75588B998BDFF8FC24D88356
:103630001984B2F800C0A3F81AC052889A833EE3F6
:10364000DFF8FC1400230B701C46DFF8F8044FF47D
:10365000D07118E001FB030707F1180C9CF801601A
:1036600026B9DFF8DC143C460B7011E0072E08D1B8
:103670002CB19CF8026094F81AC0664501D901FB90
:1036800003040133DBB2092BE4D9DFF8B4140B7067
:103690002CB9DFF884341A8D01321A8551E3DFF832
:1036A000583400271C600A23A37623760423A775C9
:1036B000E375E776A2806A7D2B7DDFF8686443EAD4
:1036C0000223E380718B01202180B28BDFF8383434
:1036D000607662801A78208222735A7862739A78B0
:1036E000A273DB78E373EB7EE372AB7EA3726B7E37
:1036F00063722B7E2372FFF711FC95F8203003F0E4
:10370000F002502A36DD1909DFF83C24053989001A
:10371000137829E0F21992F836303BB3012B01D12E
:10372000013720E0022B19D192F83700042815D177
:10373000DFF80C140F70DFF810140B7092F83810CB
:1037400092F83930FD4A43EA0123138040F2A65231
:10375000934228BF13466382A3820BE0F21992F8CA
:1037600037201AB1D719FFB28F42D3DBF44A177052
:10377000F54A13701022ED4B4FF02C0C83F82120EA
:10378000EA4B93F8212042F0020283F82120022222
:1037900083F82820921883F82920013283F82A2000
:1037A000A13283F82B20D94AA2F800C060224AE255
:1037B000D84AD14B002010701C6095F8213013F0CE
:1037C000040F03D020236076137031E295F820C0F7
:1037D000DB4ACE484FEA1C1C4FEA8C0C82F800C032
:1037E000028801F00F01143ACCEB020292B20229D6
:1037F000028003D103F03F01122917D012B913F050
:10380000030F13D0297E227A914240F01482697E00
:10381000627A914240F00F82A97EA27A914240F0F2
:103820000A82E97EE27A914240F0058213F0100F9D
:103830003ED0218A00293BD004F10C0001F02AF986
:10384000C24B2A7F1878904232D16A7F59789142D0
:103850002ED195F81EC09A78624529D195F81FC0DF
:10386000DB78634524D1E373E37E20736173A27335
:10387000BBB9217EA37EA27DC91AA1EBD201C9B238
:10388000E37D8A1849B2A3EB930381EAE170A0EBD0
:10389000E1701B18D2B2DBB2E37503EBD203A27561
:1038A00023769C4B01221A70237E0020A37620826F
:1038B000627E984B02F00F010139072900F2418224
:1038C000DFE811F008001F008A006E018E01A901D7
:1038D000B90166011B788F4A13F0010F00F03182A5
:1038E000032363763D331370884B002020821888B1
:1038F00018B142231370FFF711FB854B002119808B
:10390000CEE01B7813F0010F5CD095F8213003F066
:103910003F03122B56D195F8203003F0F002502AC5
:1039200039DD4FEA131C884AACF1050C4FEA8C0CC8
:10393000127800237B4828E0C11891F8362032B372
:10394000012A01D101331FE0022A18D191F837E092
:10395000BEF1040F13D17A4803707B4B1A7091F8B3
:10396000382091F8393043EA0223744A138040F238
:10397000A652934228BF13466382A3820BE0C1186C
:1039800091F8371019B1CB18DBB26345D4DB6C4921
:103990000B706D4B1A70032363762B7E012023720C
:1039A0006B7E6372AB7EA372EB7EE372FFF7B6FAB7
:1039B000584B42221A70554B00221A80544B2282D7
:1039C0001A806DE0534B20221A70FDF7E7FD4A4B39
:1039D00000221B685A76D9E595F8213013F0010FC3
:1039E00023D012F0100F20D1238A002B40F0A981A0
:1039F000464D2888013080B2FFF790FA454B298860
:103A00001A7842F010021A7011B142F002021A70D4
:103A1000FDF7C4FD01232382082363760023E376A8
:103A20001122424B83F8212008E113F0200F0DD022
:103A3000334B95F8260095F8271041EA00211868C5
:103A400040181860314B1888411A19802F4B18887C
:103A500048B112F0100F06D12E4B1A7842F0020234
:103A60001A70FFF75BFA95F8222095F8233003EBE4
:103A70000223324A9BB21380A28A934200D80BB928
:103A80002E4B1A802D4B1B886382224B1B7813F020
:103A9000030F00F056811E4B4FF0000CA3F800C03E
:103AA000FDF77CFD1B4B1B7813F0200105D0184A55
:103AB0000023138063761422B3E713F01000144A36
:103AC00006D001200423118020826376E176A7E7E7
:103AD0001288002A3ED013F0010F18BF2082238ADB
:103AE000002B35D1638A9A4284BF094A1380084B60
:103AF0001B8823822EE000BF20B60020F2C60020E3
:103B00001CB600200CB60020682B002008B6002050
:103B1000A0CC002014B6002080C6002018B60020DB
:103B2000E6C60020BCC60020B8C60020CAC60020D9
:103B3000A4CC002064C6002068C60020602B0020B2
:103B40006E2B002024B60020782B002010B6002019
:103B50007F4A13800023E3767E4B1A687E4B1A60FF
:103B60007B4B1B8833B1238A23B17C4A28331380D3
:103B7000182209E07A4B1B7813F0020F00F0E18065
:103B8000764B282119801022764B83F8212058E0AB
:103B90001B7813F0010F00F0D4800023637644E01B
:103BA0006E4B188808B1FFF7B9F995F8213013F07A
:103BB00001026B4B0CD01B7813F0010F05D00723CB
:103BC00063760023A376238218E00623637615E04C
:103BD0001B7813F0010F1AD0052363762282B0E020
:103BE0005E4B188808B1FFF799F995F8213013F06A
:103BF000010F0CD0072363760023A3760120FFF783
:103C00008DF9574B10221A70FDF7C8FC13E0534B87
:103C10001B8883B995E095F8213013F0100F00F060
:103C20009080072363760023A3764D4B10221A70F1
:103C3000FDF7B4FC85E0102385F82130474B28229E
:103C40001A80484B502283F82020474A217A02F1FB
:103C50000E031977617A5977A17A9977E17AD97742
:103C6000217B1976617B5976A17B9976E17BD976A8
:103C70000621597220790021187560795875A0794C
:103C80009875E079D8753948B0F800C0A2F81AC024
:103C9000408890832088D083B4F802C0A2F820C066
:103CA000627E12F0100F1CBF83F8231083F82210DD
:103CB00005D1052283F82220A13283F82320294C44
:103CC000FF232372254B1B881A0AE3700023A2707E
:103CD00084F8273084F8263084F8243084F825309E
:103CE00000F03CFFC04380B284F82400000A84F84E
:103CF00025001D4B452203F10E049A731C49002335
:103D00006370E371A3710A88013292B20A80110ACA
:103D10006271A372E372217100F018FFC04380B298
:103D2000A072144B000AE0729A8B01329A83114BF5
:103D30005A8801325A800A4B00221A7006E00E4A55
:103D40001360064A00231380054A1370F8BD00BFB4
:103D5000A0CC00200CB600201CB6002008B6002025
:103D600014B60020CAC60020BCC60020B8C6002079
:103D7000622B002080C6002018B60020030A43EA08
:103D8000002080B2704783B2000C020A42EA002091
:103D90001A0A42EA032380B240EA034070470388CC
:103DA0002BB94088D0F1010038BF002000E000208E
:103DB0007047000008B5034606488AB20029028011
:103DC00006DD05490868834202D0194603F037F83A
:103DD00008BD00BFA0CC00200CB6002010B5428862
:103DE00004460021406803F034F863882288A06804
:103DF0005A43002103F02DF810BDB0F802C0002393
:103E00000BE04268D118D25C32B901320A700188E5
:103E1000826801FB032003E001336345F1DB0020EE
:103E2000704710B58268B0F802C000230CE08A42E7
:103E300007D14268D15C09B10139D1544268D05CE4
:103E400005E00488013312196345F0DBFF2010BD43
:103E500008B50378014613B10148FEF7DDFC08BD43
:103E6000445D020810B50B4C0B482146FEF7D4FC0C
:103E700021460A48FEF7D0FC21460948FEF7CCFC53
:103E800021460848FEF7C8FC07482146FEF7C4FC57
:103E900010BD00BFF65E0208565D02086A5D0208AA
:103EA0008C5D0208AB5D0208BF5D020808B5FCF737
:103EB00023FF08B1034800E003480449FEF7ACFCC7
:103EC00008BD00BFD45D02080D5E0208F65E020860
:103ED00070B5314A94B01388304DADF84C305188EC
:103EE00003AC2F4EADF84E10C8B2C1F30721DAB2C1
:103EF0000090C3F3072301912046294602F0E6FF14
:103F000020463146FEF788FC264A1388ADF84C302F
:103F10005188DAB2ADF84E10C8B2C1F30721C3F32D
:103F20000723009001912046294602F0CFFF20464A
:103F30003146FEF771FC1C4A1388ADF84C305188AD
:103F4000DAB2ADF84E10C8B2C1F30721C3F30723AC
:103F5000009001912046294602F0B8FF20463146E4
:103F6000FEF75AFC114A1388ADF84C305188DAB28A
:103F7000ADF84E10C8B2C1F3072100900191C3F310
:103F800007232946204602F0A1FF20463146FEF7CE
:103F900043FC14B070BD00BFB8C60020225E02080A
:103FA000F65E0208B4C600207CC6002064C600206D
:103FB00010B52022044600210A4802F04AFF0A23D5
:103FC000DFF820C008481A46B4FBF2F102FB1144A6
:103FD000045D013B0CF803400C460029F4D1014874
:103FE000C01810BD7C2B00205C66020810B53A4C4E
:103FF0002378607843EA0020FFF7DAFF014637486C
:10400000FEF70AFCA378E07843EA0020FFF7D0FF30
:1040100001463348FEF700FC2379607943EA00202B
:10402000FFF7C6FF01462F48FEF7F6FBA37CE07CB6
:1040300043EA0020FFF7BCFF01462B48FEF7ECFBEC
:10404000237D607D43EA0020FFF7B2FF0146274849
:10405000FEF7E2FBA37DE07D43EA0020FFF7A8FF27
:1040600001462348FEF7D8FBA37EE07E43EA00200A
:10407000FFF79EFF01461F48FEF7CEFB237F607FC0
:1040800043EA0020FFF794FF01461B48FEF7C4FBFC
:10409000A37FE07F43EA0020FFF78AFF014617482D
:1040A000FEF7BAFB94F8263094F8270043EA002084
:1040B000FFF77EFF01461248FEF7AEFB94F82A3068
:1040C00094F82B0043EA0020FFF772FF01460D48E9
:1040D000FEF7A2FB10BD00BF80C600202E5E0208C6
:1040E000455E0208585E02086E5E0208875E02089E
:1040F0009C5E0208B45E0208CC5E0208E05E020824
:10410000F75E0208135F020810B500212022044662
:10411000074802F09EFE0649064A0A2304F00F00F3
:10412000105C013B2409C854F8D10148C01810BDE7
:104130009C2B0020345D020810B503780446002B48
:104140004AD1DFF8EC06DFF8EC16FEF765FBDFF886
:10415000E806DFF8E016FEF75FFBDFF8E006DFF8C1
:10416000D416FEF759FBDFF8D806DFF8C816FEF7BD
:1041700053FBDFF8D006DFF8BC16FEF74DFBDFF887
:10418000C806DFF8B016FEF747FBDFF8C006DFF819
:10419000A416FEF741FBDFF8B806DFF89816FEF725
:1041A0003BFBDFF8B006DFF88C16FEF735FBDFF8D7
:1041B000A806DFF88016FEF72FFBDFF8A006DFF871
:1041C0007416FEF729FBDFF89806DFF86816FEF78D
:1041D00023FBDFF89006E5E21F20FCF7A3FE204654
:1041E00002F016FE192800F21E83DFE810F01A0014
:1041F0007000EC00FB0009017301DA011C031C03D1
:104200001C031C031C031C031C031C031C030B02C8
:104210004F02D302DD021C031C031C031C031C03FE
:10422000F002DFF84446DFF80C16DFF84006FEF730
:10423000F3FA2088C0F30020FFF7BAFEDFF830164B
:10424000FEF7EAFA2088C0F38030FFF7B1FEDFF80E
:104250002416FEF7E1FA2088C0F3C020FFF7A8FE7D
:10426000DFF81416FEF7D8FA2078FFF7A1FEDFF882
:104270000C16FEF7D1FA2088C0F38020FFF798FED5
:10428000DFF8FC15FEF7C8FA2088C0F3C030FFF74E
:104290008FFEDFF8F015FEF7BFFA2088C0F300307C
:1042A000FFF786FEDFF8E015FEF7B6FA2088C0F3C8
:1042B0004020FFF77DFEDFF8D415FEF7ADFA208829
:1042C000C0F34030FFF774FEDFF8C415ADE2DFF84D
:1042D000C445DFF86015DFF8C005FEF79DFA2088B9
:1042E000C0F3C000FFF764FEDFF8B015FEF794FAE4
:1042F0002088C0F34010FFF75BFEDFF8A415FEF73F
:104300008BFA208800F00100FFF752FEDFF89415C9
:10431000FEF782FA2088C0F34000FFF749FEDFF87D
:104320008815FEF779FA2088C0F38000FFF740FE79
:10433000DFF87815FEF770FA2088C0F38010FFF7D9
:1043400037FEDFF86C15FEF767FA2088C0F300101F
:10435000FFF72EFEDFF85C15FEF75EFA2088C0F34B
:10436000C310FFF725FEDFF85015FEF755FA208839
:10437000C0F38030FFF71CFEDFF84015FEF74CFA63
:104380002088C0F34030FFF713FEDFF83415FEF746
:1043900043FA2088C0F3C030FFF70AFEDFF8241587
:1043A000FEF73AFA2088C0F30030FFF701FEDFF88D
:1043B0001815FEF731FA2088C0F3C020FFF7F8FD8A
:1043C000DFF8081531E2DFF86C14DFF80405FEF7BA
:1043D00023FADFF800351888FFF796FEDFF8F814A7
:1043E000FEF71AFADFF84C14DFF8F004FEF714FABF
:1043F000DFF8EC341888FFF787FEDFF8E81414E2E2
:10440000DFF8E444DFF82C14DFF8E004FEF704FAE8
:104410002088C0F38030FFF7CBFDDFF8D414FEF71F
:10442000FBF92088C0F3C030FFF7C2FDDFF8C414E9
:10443000FEF7F2F92088C0F34030FFF7B9FDDFF84E
:10444000B814FEF7E9F92088C0F38020FFF7B0FD2B
:10445000DFF8A814FEF7E0F92088C0F30030FFF77A
:10446000A7FDDFF85414FEF7D7F9208800F01F00ED
:10447000FFF79EFDDFF88814FEF7CEF92088C0F321
:104480004020FFF795FDDFF87C14FEF7C5F9208882
:10449000C0F3C010FFF78CFDDFF86C14FEF7BCF919
:1044A0002088C0F3C020FFF783FDDFF86014FEF71B
:1044B000B3F92088C0F30020FFF77AFDDFF850142D
:1044C000FEF7AAF92088C0F34010FFF771FDDFF86E
:1044D00044145DE0DFF84044D649DFF84004FEF7BD
:1044E0009BF92088C0F38030FFF762FDDFF80014ED
:1044F000FEF792F92088C0F3C030FFF759FDFD495F
:10450000FEF78AF92088C0F34030FFF751FDFA49E1
:10451000FEF782F92088C0F38020FFF749FDF749B4
:10452000FEF77AF92088C0F30030FFF741FDE24939
:10453000FEF772F9208800F01F00FFF739FDF049FF
:10454000FEF76AF92088C0F34020FFF731FDED49FE
:10455000FEF762F92088C0F3C020FFF729FDEB4980
:10456000FEF75AF92088C0F30020FFF721FDE84943
:10457000FEF752F92088C0F3C010FFF719FDE84993
:10458000FEF74AF92088C0F34010FFF711FDE54916
:10459000FEF742F92088C0F38010FFF709FDE249D9
:1045A00043E1E24CA349E248FEF736F92088C0F324
:1045B000C000FFF7FDFCDF49FEF72EF9208800F070
:1045C0000100FFF7F5FCDC49FEF726F92088C0F36F
:1045D0008000FFF7EDFCD949FEF71EF92088C0F3F3
:1045E0004000FFF7E5FCD649FEF716F92088C0F336
:1045F0000010FFF7DDFCD349FEF70EF92088C0F369
:104600004A10E0E0D04C8B49D048FEF705F92088ED
:10461000C0F3C020FFF7CCFCCD49FEF7FDF82088A1
:10462000C0F38000FFF7C4FCCA49FEF7F5F8208804
:1046300000F00100FFF7BCFCC749FEF7EDF8208849
:10464000C0F34000FFF7B4FCC449FEF7E5F820884A
:10465000C0F34020FFF7ACFCC149FEF7DDF820882D
:10466000C0F3C500FFF7A4FCBE49FEF7D5F82088CB
:10467000C0F30330FFF79CFCBB49FEF7CDF8208860
:10468000C0F38020FFF794FCB849CEE0B84C6949EC
:10469000B848FEF7C1F82088C0F3C020FFF788FCB7
:1046A000B549FEF7B9F82088C0F38030FFF780FCE9
:1046B000B249FEF7B1F82088C0F34030FFF778FC2C
:1046C000AF49FEF7A9F82088C0F34010FFF770FC4F
:1046D000AC49FEF7A1F82088C0F34000FFF768FC62
:1046E000A949FEF799F82088C0F30020FFF760FC85
:1046F000A649FEF791F82088C0F3C010FFF758FCD8
:10470000A349FEF789F82088C0F38010FFF750FC1A
:10471000A049FEF781F82088C0F34020FFF748FC4D
:104720009D49FEF779F82088C0F30030FFF740FC80
:104730009A49FEF771F82088C0F3C000FFF738FCF3
:104740009749FEF769F82088C0F38000FFF730FC36
:104750009449FEF761F82088C0F30010FFF728FCA9
:104760009149FEF759F8208800F00100FFF720FC7E
:104770008E49FEF751F82088C0F3C030FFF718FCCF
:104780008B49FEF749F82088C0F38020FFF710FC22
:1047900088494AE088482749FEF73EF8874B188841
:1047A000FFF706FC234940E0854C22498548FEF787
:1047B00033F8208800F00800FFF7FAFB8249FEF783
:1047C0002BF820880009FFF7F3FB3B492DE07F4CD5
:1047D00018497F48FEF720F82088C0F34000FFF713
:1047E000E7FB7C49FEF718F8208800F00100FFF78E
:1047F000DFFB7949FEF710F82088C0F3C410FFF7FB
:10480000D7FB7649FEF708F82088C0F38400FFF74D
:10481000CFFB7349FEF700F82088C0F30330FFF7A1
:10482000C7FB704901E070482146FDF7F5FF10BD58
:104830002D5F0208F65E0208585F0208855F0208D5
:10484000B15F0208DC5F0208076002083B600208F3
:1048500075600208A5600208C660020802610208CD
:104860002561020846610208306D0020616102087E
:1048700084610208906102089A610208A561020839
:10488000B2610208BF610208C8610208DD61020866
:10489000F7610208406D00200162020823620208ED
:1048A000346202084D620208616202086F62020807
:1048B0007B62020894620208A1620208AB620208ED
:1048C000BA620208C9620208D6620208E3620208FC
:1048D000F0620208366D0020116302081C630208B2
:1048E0003E6D00203D6302083C6D002048630208D5
:1048F00072630208776302087B6302087F63020821
:10490000856302088F6302089363020897630208B5
:104910009D630208A3630208486D0020AD6302088E
:10492000DE630208EA630208A76302082C6D002018
:10493000F46302081A64020826640208326402085A
:104940003B64020844640208286D002049640208A0
:104950006064020868640208716402087A640208EC
:10496000836402088B64020897640208A364020847
:10497000346D0020AC640208DE640208E9640208B9
:10498000F3640208FB640208066502080E6502086B
:1049900019650208256502082B6502082F650208C3
:1049A000356502083F65020848650208516502083E
:1049B0005B650208616502086A650208466D0020B1
:1049C000386D0020846502089C650208446D002053
:1049D000A1650208B2650208BA650208C36502084B
:1049E000CA650208D2650208DA650208704700004D
:1049F00010B5064C06482146FDF70EFF0548214636
:104A0000FDF70AFF0448FDF7F5FE10BDF65E02084B
:104A1000066602081866020835660208F8B50446FC
:104A20000C4D0CE0384602F08DFA06462146384619
:104A3000324602F08FFA08B9A41903E008352F684E
:104A4000002FEFD120466B6898470348FDF7D2FE50
:104A5000F8BD00BFF45C020835660208013A8A1806
:104A60000CE091F800C04B7803EB0C239BB2C0180C
:104A700080B2984201D2013080B202319142F0D32B
:104A800007D10B781B02181880B2984201D201306E
:104A900080B2704730B5C278144B8A18D2B2DA703F
:104AA00085784FEA112C6544EDB29D7044786545D8
:104AB0005C700078187005D20134E4B25C700CB9F7
:104AC0000130187001F0FF018A420DDA074B9A7825
:104AD0000132D2B29A703AB95A780132D2B25A70CF
:104AE00012B91A7801321A7030BD00BF10B600201A
:104AF00070B50A460446034600250EE093F801C04F
:104B0000187800EB0C2080B22D18ADB2854201D28E
:104B10000135ADB2023A023392B2012AEED84E0804
:104B200011F0010F0FD014F816000002FFF726F95C
:104B3000451914F81600ADB20002FFF71FF98542BF
:104B400001D20135ADB2284670BD000008B5142170
:104B50000148FFF7CDFF08BDCAC6002038B51421B3
:104B60002C48FFF7C5FF2C4C0546E178A37828397F
:104B700001EB0321294B89B21868FFF7B9FF4319EC
:104B80009BB2AB4201D201339BB2227B617B42EAF2
:104B900001229D18ADB2954201D20135ADB2A37B81
:104BA000E27B43EA0223ED18ADB29D4201D201350A
:104BB000ADB2237C627C43EA0223ED18ADB29D4284
:104BC00001D20135ADB2A37CE27C43EA0223ED18A9
:104BD000ADB29D4201D20135ADB20620FFF7CEF84D
:104BE00045190620FFF7CAF8ADB2854201D201355A
:104BF000ADB2E078A378143800EB032080B2FFF761
:104C0000BDF84519ADB2854201D20135ADB2284695
:104C100038BD00BFDEC60020CAC600201CB600207A
:104C200038B50D4C0822E578A378143D05EB032533
:104C3000ADB205F1110004F10C0180B2FFF70EFFD7
:104C400004F114012A46FFF709FF10B1FFF796F8A7
:104C500001E04FF6FF7038BDCAC6002084B00023C3
:104C600001900393019B01E0039B013B0393039B92
:104C7000002BF9D104B07047012108B54FF48040F2
:104C800001F022FF4FF48040002101F01DFF08BD1C
:104C90004022026420224264603242664FF0806209
:104CA0000023C0F8802002F17E424FF08071036043
:104CB00043608360C360036143618361C3610362D6
:104CC00043628362C362036343638363C363836436
:104CD000C364036543658365C36503668366C36612
:104CE000036743678367C367C0F88420C0F8A420C4
:104CF000A2F1FF72C0F88810C0F8AC20A1F56001E5
:104D00004FF48072C0F88C10C0F89030C0F8943026
:104D1000C0F89830C0F89C30C0F8A030C0F8A83077
:104D2000C0F8B020C0F8B430C0F8B8307047000008
:104D3000224A10B513681B68002B3DDB0023944604
:104D400005E0DCF80020C45C92689C5401338B427F
:104D50001A4AF6D31368C9041A68C90C596042F09C
:104D6000304217491A6041F2140051F800C01CF09B
:104D7000040F08D04FF0040C41F800C04FF0000CB5
:104D8000103841F800C012F4801F03D0DA680B4BD2
:104D90001A6008E012F4001F084A06D0084941F2E0
:104DA0001003CB581360012007E00649103309684F
:104DB000C1F384015B18F5E7002010BDCCCD0020C5
:104DC0000080024000900240264A014613681B689A
:104DD000002B45DB03F40340B0F5407F10D1C3F353
:104DE0000D43181F002308E0D2F800C0DCF808C00B
:104DF00013F80CC001F803C001338342F4D300E080
:104E00000020184B4FF000421B6841F214011A6059
:104E1000154A52F801C01CF0800F08D04FF0800CEA
:104E200042F801C04FF0000C0C3942F801C05A683A
:104E300012F4804F03D0DA680A4B1A6011E012F4C2
:104E4000004F084A04D0084941F20C03CB5805E052
:104E5000064910330968C1F384015B18136000E050
:104E600000207047C8CD0020008002400090024022
:104E7000002382B00193124BC0021A69000402F0B1
:104E80001C02000C8901104301F4F861084340F052
:104E900001000C4A1861019901310191196911F061
:104EA000010F02D001999142F5D9074B019A9A421C
:104EB0001DBF034B586980B2002002B0704700BF8D
:104EC00000800240FEFF0400FFFF0400002382B0C8
:104ED0000193124BC002D3F810C000040CF01C0C5C
:104EE0004CF0030C000C89014CEA000001F4F8615D
:104EF0005A6108430A4A18610199013101911969FF
:104F000011F0010F02D001999142F5D90198054B9A
:104F1000C01A18BF012002B0704700BF00800240D5
:104F2000FEFF0400FFFF040070B5002388B0079364
:104F300006938B4B044601A81E690D4601F02CFD1B
:104F4000029A884B8849D31826F01C068B4298BFDA
:104F500046F0080606D9854BD318854A934298BF78
:104F600046F00C067E4B28461E6100214FF400429D
:104F7000FFF7ACFF002800F0F0807E48FFF76EFEE0
:104F80002168002943D07C4E069B0121013328462D
:104F90000693FFF76DFF10F0040F02D1069BB3429A
:104FA000F2D9069A754B9A4200F0D6800021284625
:104FB0004FF480520691FFF789FF002800F0CD8062
:104FC0006D4E069B0121013328460693FFF750FFE3
:104FD00010F0200F02D1069BB342F2D9069A674B1C
:104FE0009A4200F0B9800023102128460693FFF76B
:104FF0003FFF10F0040318BF4FF4006310F0020FDE
:1050000023620CBF4FF48043002363610FE0226AE8
:105010006369D20842EA530292B22846FFF756FF6C
:10502000002800F09A806FF07F40FFF717FE4C4B8E
:10503000534A1968A06801EA0202616840EA010166
:10504000E06801432069014360690143A0690143AD
:10505000E0690143206A0143606A0143A06A014399
:10506000E06A0143206B0143606B014341EA0202A5
:105070001A60E16BA26B41EA0202216C0A43616C87
:105080000A43A16C0A43E16C0A43216D0A43616D36
:105090000A435A60A26D9A60E26DDA60626EA16E98
:1050A00098691143E26ED4F874C01143226F114322
:1050B0004FF6417241EA0C0100EA020241EA0202A3
:1050C000216E42EA01429A61E16FA26F41EA020257
:1050D000DA6141F2180158582A4AD4F884C000EA2B
:1050E0000202D4F880004CEA0000D4F888C040EAFC
:1050F0000C00D4F88CC040EA0C00D4F890C040EA10
:105100000C00D4F894C040EA0C00D4F898C040EAEF
:105110000C00D4F89CC040EA0C00D4F8A0C040EACF
:105120000C0040EA02025A50D4F8A830D4F8A42067
:1051300001201A43D4F8AC3042F400021A43D4F8E8
:10514000B0301A43D4F8B8301A43D4F8B43042EA35
:1051500083020D4B1A6000E0002008B070BD00BF54
:105160000080024000D3CEFEBFE1E40040F1E9FD43
:105170003F787D01FFFF0F00FEFF0400FFFF0400EA
:105180000F8120FF233FDEF80090024020B1054B45
:105190001A6842F0080203E0024B1A6822F0080283
:1051A0001A6070470080024020B1054B1A6842F037
:1051B000040203E0024B1A6822F004021A607047EE
:1051C00000800240104B70B54FF0000C18604FF497
:1051D000801500F11003541E0EE0A4452CBF0646B6
:1051E0001E4643F8081C43F8105C43F8046C0CF1AD
:1051F000010C103301F5BE619445EED3034A41F230
:105200001003D05070BD00BFCCCD00200080024004
:10521000124BF0B54FF0000C18604FF0004500F154
:10522000100344F2F054571E10E0BC452CBF064654
:105230001E4643F8081C43F8105C43F80C4C43F836
:10524000046C0CF1010C103301F5BE619445ECD3F4
:10525000034A41F20C03D050F0BD00BFC8CD00207E
:1052600000800240024B1A6842F001021A60704747
:1052700000900240024B186800F00100704700BF28
:1052800000900240024A41F21403D050704700BF20
:1052900000800240034A41F21803D15841F48011C2
:1052A000D15070470080024030B1074A41F21803E4
:1052B000D15841F4005105E0034A41F21803D15896
:1052C00021F40051D15070470080024030B1074AAC
:1052D00041F21803D15841F0020105E0034A41F2BE
:1052E0001803D15821F00201D150704700800240CC
:1052F00008B50120FFF74AFFFFF7CCFF0120FFF7B9
:1053000053FF0120FFF7D0FF0120FFF7DFFF08BDAB
:1053100029B1074A41F21C03D158084305E0044A69
:1053200041F21C03D15821EA0000D050704700BF61
:1053300000800240031F4FF0807C40F804CC181F0F
:1053400043F8041C002140F8041C40F8182CA3F179
:105350003C007047064B19680868B0E8F00F80F30E
:1053600009884FF0000080F311884EF00D0E704751
:10537000702C002002480068006880F3088800DF75
:1053800008ED00E00B4B10B51A68002442F47F02D0
:105390001A601A6842F07F421A60074A074B1A6087
:1053A0000722043B1A60064B1C60FFF7E3FF204610
:1053B00010BD00BF20ED00E03F19010014E000E047
:1053C0002C000020024B4FF080521A60704700BF43
:1053D00004ED00E04FF0BF0080F31188024B1A6823
:1053E00001321A60704700BF2C000020044A136885
:1053F000013B13601BB94FF0000080F31188704728
:105400002C000020EFF309800C4B1A6820E9F00F04
:1054100010602DE908404FF0BF0080F3118800F0C4
:105420004FFC4FF0000080F31188BDE80840196878
:105430000868B0E8F00F80F309887047702C0020EE
:1054400008B5074B4FF080521A604FF0BF0080F351
:10545000118800F017FB4FF0000080F3118808BDA1
:1054600004ED00E038B5044604F12405FFF7B2FF6F
:105470000AE0636A5BB1284600F0EAFC08B100F07C
:1054800053FDA36C013BA364A36C002BF1DC4FF034
:10549000FF33A364FFF7AAFF04F11005FFF79AFF9B
:1054A0000AE023695BB1284600F0D2FC08B100F0A5
:1054B0003BFD636C013B6364636C002BF1DC4FF0DC
:1054C000FF336364FFF792FF38BD38B51346026CB3
:1054D000044632B9056805BB406800F073FD65609D
:1054E0001BE063B9806801F0AAFCA268236CD318A2
:1054F0006268A360934224BF2368A3600DE0C06884
:1055000001F09DFC236CE2685B422168D2188A425C
:10551000E26002D26268D318E360A36B0133A36335
:1055200038BDF7B504460F46054650B34C2000F091
:10553000B1FD054628B304FB07F3581C019300F0A6
:10554000A9FD019B06462860B8B1C3186B60002313
:10555000AB63631E07FB03064FF0FF33A860EE60EA
:1055600005F11000EC632F646B64AB6400F04CFD3C
:1055700005F1240000F048FD03E0284600F0E8FDB6
:1055800035462846FEBDF0B589B00592039300F17B
:10559000100200230446029106AE1D4605AF049298
:1055A00000E001230093FFF715FFA16BE26B009B66
:1055B000914212D220460299039AFFF786FF636A4E
:1055C0003BB104F1240000F043FC012801D1FFF7B6
:1055D000F9FEFFF70BFF012047E0059820B9019085
:1055E000FFF704FF019840E013B9304600F062FC79
:1055F000FFF7FCFE00F032FAFFF7ECFE636CB3F14C
:10560000FF3FA36C08BF6564B3F1FF3F08BFA5640B
:10561000FFF7ECFE3046394600F058FCF8B9FFF7CA
:10562000D9FEA26BE36B01920093FFF7DFFE019AB4
:10563000009B9A420DD10498059900F0DBFB2046AF
:10564000FFF710FF00F07CFA0028AAD1FFF7BAFE9E
:10565000A7E72046FFF706FF00F072FAA1E7204611
:10566000FFF700FF00F06CFA002009B0F0BDF0B5C4
:1056700089B00592039300F12402002304460291AD
:1056800006AE1D4605AF049200E001230193FFF72B
:10569000A1FEA26B019B002A2ED02368E56853B1BE
:1056A000226C6068A9188142E16028BFE360E1686C
:1056B000029801F0C4FB039B83B9A36B013BA36376
:1056C000236813B900F046FC6060236983B104F1DC
:1056D000100000F0BDFB01280AD107E0636AE56015
:1056E00033B104F1240000F0B3FB08B1FFF76AFE08
:1056F000FFF77CFE01204CE0059820B90190FFF7F0
:1057000075FE019845E013B9304600F0D3FBFFF772
:105710006DFE00F0A3F9FFF75DFE636CB3F1FF3F90
:10572000A36C08BF6564B3F1FF3F08BFA564FFF732
:105730005DFE3046394600F0C9FB20BBFFF74AFE4C
:10574000A36B0193FFF752FE019BB3B9236833B9F2
:10575000FFF740FE606800F003FCFFF747FE049887
:10576000059900F047FB2046FFF77CFE00F0E8F9C2
:1057700000288AD1FFF726FE87E72046FFF772FE52
:1057800000F0DEF981E72046FFF76CFE00F0D8F963
:10579000002009B0F0BD0000F0B587B003905020A4
:1057A0000491144605930C9F00F074FC05460028F4
:1057B00000F09B80A600304600F06CFC286318B90E
:1057C000284600F0C5FC90E0A521324601F041FBDF
:1057D0002B6B013C03EB840323F007030499102295
:1057E00005F134000193002401F0CBFB2E1D042FA2
:1057F00034BF3A460422EA62AA6485F84340304640
:10580000029200F00CFC05F1180000F008FC029A6E
:10581000019BC2F105021846AA610399059A2D6100
:105820006D62EC64FFF786FD2860FFF7D3FD324B15
:105830001A6801321A601B68012B26D12F4B304A9F
:105840001D60142303FB042001340292019300F035
:10585000DBFB052C029A019BF4D12A4B2A4C1846FB
:10586000019300F0D1FB204600F0CEFB274800F06A
:10587000CBFB274800F0C8FB264800F0C5FB019B86
:10588000254A1360254B1C6008E0254B1B682BB98B
:105890001A4B1A68D26ABA4298BF1D60214AEB6A55
:1058A00011688B4288BF13601F4A11686964013117
:1058B00011601E4A11688B4288BF1360104A142081
:1058C00000FB0320314600F0ADFBFFF78FFD0D9B81
:1058D00003B11D60124B1B6853B1084B1B68DB6A98
:1058E000BB4205D2FFF76EFD02E04FF0FF3000E053
:1058F000012007B0F0BD00BF882C0020702C0020D4
:10590000DC2B00208C2C0020A02C0020BC2B0020A5
:10591000442C0020742C00205C2C0020402C002003
:10592000602C0020C82C0020B42C0020D02B00209C
:1059300070B50446FFF74EFD0E4B1B689C4201D02C
:10594000254614B90B4B00241D682E1D304600F06F
:1059500090FBAB6A1BB105F1180000F08AFB06480A
:10596000314600F05FFBFFF741FD0CB9FFF72AFD60
:1059700070BD00BF702C0020742C00204269074BC2
:105980009A4208D1806A064B984204D0D0F10100B7
:1059900038BF002000E00020704700BF742C0020BA
:1059A000BC2B002070B50546FFF7E8FF012821D188
:1059B000124B1B68CBB9124B2E1D1B68EC6ADB6ABD
:1059C00030469C4234BF0024012400F052FB0D4AB3
:1059D000EB6A11688B4288BF13600B4A142000FBEE
:1059E0000320314600F01EFB05E005F118010748D1
:1059F00000F018FB0024204670BD00BFB82C00202A
:105A0000702C0020D02B0020DC2B0020BC2B002091
:105A10001FB50024802223460B480C4900940194B2
:105A200002940394FFF7B8FE012803460BD14FF010
:105A3000BF0080F31188064A1360064B1C60064BBA
:105A40001C60FFF79FFC1FBD095C0008A5660208EB
:105A5000602C0020D82B0020D0080020024B1A68B0
:105A600001321A60704700BFB82C002010B5FFF754
:105A7000B1FC034B1C68FFF7B9FC204610BD00BF0A
:105A8000D82B0020264BF7B51B68002B3CD1254BAB
:105A90001A6801321A601B68002B28D1224A234B56
:105AA0001168186810601960214B1A6801321A6079
:105AB0001DE039685A6891422CD31A1D1046019294
:105AC000009300F0D6FA009B9A6A22B103F1180005
:105AD00000F0CFFA009BD86A23680199984288BFEA
