:020000040800F2
:10000000081000206904000875040008790400083D
:100010007D04000881040008850400080000000039
:10002000000000000000000000000000890400083B
:100030008D04000800000000910400081703000868
:10004000990400089D040008A1040008A504000804
:10005000A9040008AD040008B1040008B5040008B4
:10006000B9040008BD040008C1040008C504000864
:10007000C9040008CD040008D1040008D504000814
:10008000D9040008DD040008E1040008E5040008C4
:10009000E9040008ED040008F1040008F504000874
:1000A000F9040008FD040008010500080505000822
:1000B000090500080D0500081105000815050008D0
:1000C000190500081D050008210500082505000880
:1000D000290500082D050008310500083505000830
:1000E000390500083D050008410500080000000032
:1000F0000000000000000000000000000000000000
:100100000000000000000000450500084905000847
:100110004D0500085105000855050008590500085F
:100120005D0500086105000865050008690500080F
:100130006D050008710500087505000879050008BF
:100140007D0500088105000885050008890500086F
:1001500010B582B07948006850F480307749086063
:10016000764800688003FBD575487649016076487B
:10017000764901607148006850F080606F490860FE
:100180006E4800680001FBD56C48006850F0807034
:100190006A490860694800688001FBD56C480068BE
:1001A00050F002006A4908606548006850F002009B
:1001B0006349086067486849016068480021016038
:1001C00067480721016000246648006850F010006D
:1001D000644908606448006830F0F00050F0100096
:1001E0006149086061484FF400710160604800682F
:1001F00050F400305E4908605A48006850F0210011
:10020000584908605B48006850F008005949086088
:1002100048F6B8305849096860F31B315648016008
:10022000564848210160564840F2537101605548D4
:1002300042F20C0101604B4800684FF40071084322
:10024000484908605048102101605048072101606A
:100250004F485049016050484FF480710160414857
:10026000006850F014003F4908604148006850F0B1
:1002700000503F4908604948006830F47020474901
:1002800008603948006830F4700050F44010364976
:10029000086036484FF400510160414840F67D71D6
:1002A00001604048002101603F48002101603E4854
:1002B0000068B0F57A7F20D9E4B2002C04D03B4826
:1002C0004FF40071016003E028484FF400710160B1
:1002D00094F001043448002101603548006880072B
:1002E0000BD534480068ADF800009DF8010000F01F
:1002F0001DF89DF8000000F019F82A48006802284F
:10030000D5D32D48006850F001002B4908602548DE
:1003100000210160CBE724480068401C22490860A6
:1003200020480068401C1F4908607047234909683D
:100330000906FBD52249C0B2086070470010024090
:100340000410024000C41D002C100240490E0100A0
:100350000020024014E000E03F19010018E000E036
:1003600010E000E018100240041001401410014099
:100370001C10024004000140001401401014014010
:10038000084400400C440040342401401024014043
:10039000082401400300DE0004240140000801405D
:1003A00000740040040000200000002010100140F4
:1003B000002401404C2401400474004000440040EB
:1003C0000444004010B5084979441C31074C7C4472
:1003D0001A34A14206D0081D0A6851188847014600
:1003E000A142F8D110BD00BF2C0000003800000071
:1003F00050F8041B61B150F8042BD30744BFA9F196
:1004000001039A18002342F8043B091FFAD1EFE7D1
:1004100070470000DDFFFFFF080000000000002023
:100420000000000000F009F8002801D0FFF7CAFF23
:100430000020FFF78DFE00F002F80120704780B524
:1004400000F002F800BF00000746384600F002F84E
:10045000FBE7000080B5C046C046024A11001820E4
:10046000ABBEFBE726000200C046C046C046C04601
:10047000FFF7D8FFFFF7FEBFFFF7FEBFFFF7FEBF96
:10048000FFF7FEBFFFF7FEBFFFF7FEBFFFF7FEBFA0
:10049000FFF7FEBFFFF73FBFFFF7FEBFFFF7FEBF4F
:1004A000FFF7FEBFFFF7FEBFFFF7FEBFFFF7FEBF80
:1004B000FFF7FEBFFFF7FEBFFFF7FEBFFFF7FEBF70
:1004C000FFF7FEBFFFF7FEBFFFF7FEBFFFF7FEBF60
:1004D000FFF7FEBFFFF7FEBFFFF7FEBFFFF7FEBF50
:1004E000FFF7FEBFFFF7FEBFFFF7FEBFFFF7FEBF40
:1004F000FFF7FEBFFFF7FEBFFFF7FEBFFFF7FEBF30
:10050000FFF7FEBFFFF7FEBFFFF7FEBFFFF7FEBF1F
:10051000FFF7FEBFFFF7FEBFFFF7FEBFFFF7FEBF0F
:10052000FFF7FEBFFFF7FEBFFFF7FEBFFFF7FEBFFF
:10053000FFF7FEBFFFF7FEBFFFF7FEBFFFF7FEBFEF
:10054000FFF7FEBFFFF7FEBFFFF7FEBFFFF7FEBFDF
:10055000FFF7FEBFFFF7FEBFFFF7FEBFFFF7FEBFCF
:10056000FFF7FEBFFFF7FEBFFFF7FEBFFFF7FEBFBF
:10057000FFF7FEBFFFF7FEBFFFF7FEBFFFF7FEBFAF
:0C058000FFF7FEBFFFF7FEBFFFF7FEBF56
:040000050800046982
:00000001FF
