:020000040800F2
:10000000180A0020F50F00089D0F00089F0F000838
:10001000A10F0008A30F0008A50F000800000000B2
:10002000000000000000000000000000A70F000812
:10003000A90F000800000000AB0F0008AD0F00087A
:10004000391000083D100008411000084510000854
:10005000491000084D100008511000085510000804
:10006000591000085D1000086110000865100008B4
:10007000691000086D100008711000087510000864
:10008000791000087D100008811000088510000814
:10009000891000088D1000089110000895100008C4
:1000A000991000089D100008A1100008A510000874
:1000B000A9100008AD100008B1100008B510000824
:1000C000B9100008BD100008C1100008C5100008D4
:1000D000C9100008CD100008D1100008D510000884
:1000E000D9100008DD100008E1100008E510000834
:1000F000E9100008ED100008F1100008F5100008E4
:10010000F9100008FD100008011100080511000891
:10011000091100080D11000811110008151100083F
:10012000191100081D1100082111000825110008EF
:10013000291100082D11000831110008351100089F
:10014000391100083D11000841110008451100084F
:10015000491100084D1100085111000855110008FF
:10016000591100085D1100086111000865110008AF
:10017000691100086D11000871110008751100085F
:10018000791100087D1100081CB504000121E4B2BA
:10019000BE4850F8240000F067FAE4B2BC4830F8DA
:1001A0001400009001208DF8040000208DF8060056
:1001B00001208DF8070002208DF8050000A9E4B2A7
:1001C000B44850F8240000F07BFA13BDC0B2B14926
:1001D00051F82010C0B2AE4A32F810200A8370479E
:1001E000C0B2AC4951F820104969C0B2A84A32F8EF
:1001F00010205140C0B2A74A52F8202051617047E8
:1002000000B583B001217A2000F02EFA02208DF88B
:10021000040003208DF8050000208DF80600002062
:100220008DF807000C2207219B4800F0ABFA8020D4
:10023000009000A9984800F043FA0C22002197484A
:1002400000F0A0FA0C220121944800F09BFA0C2245
:100250000321924800F096FA0C2204218F4800F006
:1002600091FA0C2205218D4800F08CFA0C2206210F
:100270008A4800F087FA0C220721884800F082FAA9
:100280000C220821854800F07DFA0C2209218348C0
:1002900000F078FA0C220A21804800F073FA0C2250
:1002A0000B217E4800F06EFA0C220C217B4800F0F6
:1002B00069FA0C220D21794800F064FA0C220E2113
:1002C000764800F05FFA0C220F21744800F05AFAC9
:1002D0004FF6FB70009000A9704800F0F1F90C2275
:1002E00000216F4800F04EFA0C2201216C4800F00A
:1002F00049FA0C2203216A4800F044FA0C22042136
:10030000674800F03FFA0C220521654800F03AFAF0
:100310000C220621624800F035FA0C2207216048C1
:1003200000F030FA0C2208215D4800F02BFA0C2274
:1003300009215B4800F026FA0C220A21584800F0F7
:1003400021FA0C220B21564800F01CFA0C220C2139
:10035000534800F017FA0C220D21514800F012FA10
:100360000C220E214E4800F00DFA0C220F214C48B1
:1003700000F008FA4FF6FB70009000A9484800F022
:100380009FF90C220021474800F0FCF90C220121C2
:10039000444800F0F7F90C220221424800F0F2F93B
:1003A0000C2203213F4800F0EDF90C2204213D48C6
:1003B00000F0E8F90C2205213A4800F0E3F90C229C
:1003C0000C21384800F0DEF90C220D21354800F0F0
:1003D000D9F90C220E21334800F0D4F90C220F2158
:1003E000304800F0CFF94FF23F00009000A92D48AF
:1003F00000F066F90C2200212B4800F0C3F90C2212
:100400000121294800F0BEF90C220221264800F003
:10041000B9F90C220321244800F0B4F90C2204217C
:10042000214800F0AFF90C2205211F4800F0AAF97D
:100430000C2206211C4800F0A5F90C2207211A48BD
:1004400000F0A0F90C220921174800F09BF940F2B6
:100450003F20009000A9144800F032F900208DF8E8
:10046000040003208DF8050001208DF8060000200F
:100470008DF807004020009000A90B4800F020F9FB
:100480000121012000F0FFF807BD00001010000856
:10049000D20F00081000002000040240000C0240AF
:1004A00000100240001402400018024000B597B04E
:1004B0000620009004200190062002900220039064
:1004C0000020049000200590002006900020079056
:1004D000002008900420099010200A9000200B9022
:1004E00000200C9000200D9000200E9000200F9016
:1004F0004FF48050109000201190002012900020A6
:10050000139000A8149000A8159007A800F07EF999
:100510000121002000F0EAF917B000BD00B58DB050
:1005200004200090122001900820029004200390E3
:100530004FF48070049000200690002007905FF434
:10054000C02008900320099003200A9000A80B9077
:1005500000A80C9004A800F0E3F901214FF480708A
:1005600000F028FA0DB000BDF0B4002100220023F5
:10057000022400250226DFF82C713F6817F00C07D3
:1005800039000F00002F04D0042F06D0082F08D008
:100590003CE0DFF8187107603BE0DFF8147107609A
:1005A00037E0DFF804713F68C7F380573D00DFF89C
:1005B000F8703F6817F03F073E00002D0DD0DFF8C0
:1005C000F070B7FBF6F7DFF8E0C0DCF800C0CCF362
:1005D000881C0CFB07F73B000CE0DFF8D070B7FB82
:1005E000F6F7DFF8C4C0DCF800C0CCF3881C0CFBC5
:1005F00007F73B00DFF8B0703F68C7F301477F1C87
:100600007F003C00B3FBF4F7076002E0DFF89C706A
:100610000760DFF890703F6817F0F00739000909AC
:10062000DFF89070CF5D3A000768D7404760DFF889
:1006300074703F6817F4E0573900890ADFF8747066
:10064000CF5D3A004768D7408760164F3F6817F480
:1006500060473900490BDFF85C70CF5D3A004768AE
:10066000D740C760F0BC7047C9B2002905D0124A14
:1006700012680243104B1A6004E00F4A126882436A
:100680000D4B1A607047C9B2002905D00B4A126899
:1006900002430A4B1A6004E0084A12688243074B7F
:1006A0001A60704708380240043802400024F40001
:1006B00040787D0100000020303802403838024088
:1006C000F0B400220023002400252A00102A4AD278
:1006D000012595402B000D681D402C009C4240D107
:1006E000056803261700FFB27F00BE40B5430560D2
:1006F00005680E791700FFB27F00BE4035430560E4
:100700000D79012D02D00D79022D1AD185680326AD
:100710001700FFB27F00BE40B543856085684E7903
:100720001700FFB27F00BE40354385604568012653
:100730009640B543456045688E799640B6B23543DC
:100740004560C56803261700FFB27F00BE40B54371
:10075000C560C568CE791700FFB27F00BE40354343
:10076000C560521CB2E7F0BC70470200002013695C
:100770009BB20B4202D00123180001E000231800B5
:10078000C0B27047F0B400230024D2B211F00705C4
:10079000EDB2AD0012FA05F52B0089B2CD1010EBC9
:1007A000850589B2CE1010EB8606366A0F2711F048
:1007B000070C5FFA8CFC5FEA8C0C17FA0CF7BE434F
:1007C0002E6289B2CD1010EB85052D6A1D432C00D9
:1007D00089B2CD1010EB85052C62F0BC704710B4C7
:1007E00050F8041B81B102681218001D50F8043B38
:1007F000DC0744BFA9F10104E31852F8044B43F8A5
:10080000044B091FF9D1EBE710BC704741688268BF
:100810001143C2681143026911434269114382695D
:100820001143C2691143026A1143426A1143826A49
:100830001143C26A1143026B114302689200B2F184
:10084000C0421160816808290BD101688900B1F1AB
:10085000C041096851F0400102689200B2F1C04203
:100860001160416B0968426B526851EA0211426B98
:10087000926851EA0221426BD26851EA0241426B0E
:10088000126951EA0251426B526951EA0261426BAC
:100890009269114302689200B2F1C0425160C16A8C
:1008A000B1F5804F1AD1816B0968826B526851EAA9
:1008B0000211826B926851EA0221826B126951EA3D
:1008C0000251826B526951EA0261826B9269114353
:1008D0000268DFF8303143F8221006E00168DFF8E3
:1008E00024217FF0704342F821307047C9B20029BB
:1008F0000AD08200B2F1C042126852F001028300B5
:10090000B3F1C0431A600AE08200B2F1C04212683B
:10091000DFF8F4301A408300B3F1C0431A60704727
:1009200030B4002100220023446885682C43C56848
:100930002C4305692C43456954EA4524856954EAEA
:10094000453454F008042100C4692468C5696D6801
:1009500054EA0524C569AD6854EA0544C569ED68E3
:1009600054EA05642200046A2468056A6D6854EA42
:100970000524056AAD6854EA0544056AED6854EA41
:10098000056423000468102C09D1DFF88040216041
:10099000DFF87C402260DFF87C40236008E0DFF86D
:1009A00078402160DFF874402260DFF874402360F3
:1009B00030BC7047C9B2002913D0102808D1DFF825
:1009C0004C20126852F00402DFF840301A6018E040
:1009D000DFF84420126852F00402DFF83C301A605D
:1009E0000FE0102807D1094A1268DFF838301A40A2
:1009F000064B1A6005E0084A12680A4B1A40064B7B
:100A00001A607047040100A0FEFF0F00600000A004
:100A1000680000A06C0000A0800000A0880000A07A
:100A20008C0000A0FBFF0F0040B2002808D540B2A8
:100A300010F00F02784BD2180B0102F8043C03E0CF
:100A400040B2764A0B018354704710B50400B4F1EC
:100A5000807F01D3012010E02002000A401E70496F
:100A600008600F215FF0FF30FFF7DEFF6D480021C7
:100A700001606D4807210160002010BD5FF0C0419A
:100A8000642200200300934204D2112041F8230085
:100A90005B1CF8E700200300934208D251F82300C2
:100AA000112802D05FF0FF3002E05B1CF4E7002069
:100AB000704730B583B0002501A800F0BDF89DF85F
:100AC0000400EC280BD19DF80500DA2807D19DF829
:100AD0000600102803D19DF80700952802D07FF06A
:100AE000010040E000200400FF2C03D84F482454AC
:100AF000641CF9E7002000F0CEF88DF800009DF8A6
:100B00000000002802D07FF002002CE00020050049
:100B1000FF2D03D845482D546D1CF9E74FF4807222
:100B20004249002000F0D2F88DF800009DF8000046
:100B3000002802D07FF0030015E04FF480723C499A
:100B4000002000F0F1F84FF480723849384800F086
:100B500019F98DF800009DF80000002802D07FF000
:100B6000050000E000203EBD30B585B000A8FFF7CD
:100B7000FBFC01986421B0FBF1F0FFF766FF002059
:100B8000FFF702FB0020FFF721FBFFF739FBFFF720
:100B90008DFCFFF7C3FCFFF771FF0400002C02D1AE
:100BA000FFF787FF040020007FF00501401A13D0F3
:100BB000801E0ED0401E09D0401E04D0401E0DD114
:100BC0000A2005000CE00F20050009E014200500B4
:100BD00006E01920050003E01E2005006420050042
:100BE0000020FFF7FDFA280000F001F8F8E701B453
:100BF0001048009901600F4800680028FBD101B03F
:100C000070470C480068002804D00A480068401E5D
:100C1000084908607047000018ED00E000E400E0BB
:100C200014E000E018E000E010E000E01400002014
:100C3000140100201402002000214F4A9023137059
:100C40004E4A002313705FF00042126811000170D9
:100C50000A0A42700A0C82700A0EC2707047464837
:100C6000702101705FF000400078C0B2704700B59D
:100C700083B0FF2001900020009040214048FFF702
:100C800074FD0028F9D140213D48FFF76EFD002892
:100C9000F9D000200EBD38B504003748602101703E
:100CA000200B36490870200D34490870200F10F0D1
:100CB0000100324908703048D0210170FFF7D7FF9A
:100CC000FFF7CDFF050015F0010032BDF8B50400B7
:100CD0000D00160000272848802101702748047065
:100CE000200A10F00F0025490870200B23490870D6
:100CF000200D22490870200F10F001001F490870D4
:100D000000200700B74205D2785D5FF0004108700F
:100D10007F1CF7E7184810210170FFF7A8FFFFF7C5
:100D20009EFF10F00100F2BD70B504000D0016002A
:100D300011480021017011480470200A10F00F00C2
:100D40000E490870200B0D490870200D0B490870E2
:100D5000200F10F001000949087007483021017088
:100D6000FFF785FF002E06D05FF000400078287066
:100D70006D1C761EF6E770BD000001800000028049
:100D8000001802400300002013F0030F09D0521E88
:100D900022BF13F8010B11F801CBB0EB0C00F3D01C
:100DA0007047121F22BF53F8040B51F804CB604563
:100DB000F7D0121D0AD200BA9CFA8CFCB0EB0C00E2
:100DC00038BF6FF0000088BF01207047521E22BF5D
:100DD00013F8010B11F801CBB0EB0C00F6D0521C4C
:100DE00008BF1046704750F8041B61B150F8042B3F
:100DF000D30744BFA9F101039A18002342F8043B2A
:100E0000091FFAD1EFE7704780B54548006850F0F8
:100E100001004349086043480021016040480068E0
:100E2000414908403E4908604048414901603C480A
:100E3000006830F480203A4908603E480021016093
:100E400000F005F83C485FF00061016001BD82B030
:100E500000200190002000903148006850F480305C
:100E60002F4908602E48006810F400300090019867
:100E7000401C01900098002803D10198B0F5A06FA4
:100E8000F0D127480068800302D50120009001E0DE
:100E900000200090009801283ED12848006850F0BA
:100EA0008050264908602648006850F48040244954
:100EB00008601C481B49096801601A48006850F422
:100EC0000040184908601748006850F4A0501549C0
:100ED000086016481B4901601148006850F0807096
:100EE0000F4908600E4800688001FBD5164840F2A3
:100EF000056101600B4800688008800009490860AE
:100F00000848006850F0020006490860054800687B
:100F100010F00C000828F9D102B070470000000062
:100F20000038024008380240FFFFF6FE0438024055
:100F3000103000240C38024008ED00E04038024038
:100F40000070004019544007003C024010B50849A9
:100F500079441C31074C7C441A34A14206D0081D48
:100F60000A68511888470146A142F8D110BD00BF58
:100F700008000000280000006FFEFFFF04020000D0
:100F8000140000200000000057F8FFFF14000000CC
:100F9000F001000000000020000000007047FEE7A4
:100FA000FEE7FEE7FEE7FEE7FEE7FEE780B5FFF7B8
:100FB00028FE01BD00F009F8002801D0FFF7C6FFA8
:100FC0000020FFF7D1FD00F002F80120704700F08B
:100FD00001B800200746384600F002F8FBE70000A1
:100FE00080B5C046C046024A11001820ABBEFBE7E0
:100FF000260002000148804701480047090E00080A
:1010000005100008C046C046C046C046FFF7D2FFE4
:1010100004000000FFF7C2BFFFF7C1BFFFF7C0BF6A
:10102000FFF7BFBFFFF7BEBFFFF7BDBFFFF7BCBFF6
:10103000FFF7BBBFFFF7BABFFFF7FEBFFFF7FEBF6B
:10104000FFF7FEBFFFF7FEBFFFF7FEBFFFF7FEBFD4
:10105000FFF7FEBFFFF7FEBFFFF7FEBFFFF7FEBFC4
:10106000FFF7FEBFFFF7FEBFFFF7FEBFFFF7FEBFB4
:10107000FFF7FEBFFFF7FEBFFFF7FEBFFFF7FEBFA4
:10108000FFF7FEBFFFF7FEBFFFF7FEBFFFF7FEBF94
:10109000FFF7FEBFFFF7FEBFFFF7FEBFFFF7FEBF84
:1010A000FFF7FEBFFFF7FEBFFFF7FEBFFFF7FEBF74
:1010B000FFF7FEBFFFF7FEBFFFF7FEBFFFF7FEBF64
:1010C000FFF7FEBFFFF7FEBFFFF7FEBFFFF7FEBF54
:1010D000FFF7FEBFFFF7FEBFFFF7FEBFFFF7FEBF44
:1010E000FFF7FEBFFFF7FEBFFFF7FEBFFFF7FEBF34
:1010F000FFF7FEBFFFF7FEBFFFF7FEBFFFF7FEBF24
:10110000FFF7FEBFFFF7FEBFFFF7FEBFFFF7FEBF13
:10111000FFF7FEBFFFF7FEBFFFF7FEBFFFF7FEBF03
:10112000FFF7FEBFFFF7FEBFFFF7FEBFFFF7FEBFF3
:10113000FFF7FEBFFFF7FEBFFFF7FEBFFFF7FEBFE3
:10114000FFF7FEBFFFF7FEBFFFF7FEBFFFF7FEBFD3
:10115000FFF7FEBFFFF7FEBFFFF7FEBFFFF7FEBFC3
:10116000FFF7FEBFFFF7FEBFFFF7FEBFFFF7FEBFB3
:10117000FFF7FEBFFFF7FEBFFFF7FEBFFFF7FEBFA3
:10118000000000000102030401020304060708092D
:041190000008024011
:0400000508001005DA
:00000001FF
