:020000040800F2
:10000000B8D30220690200082509010881C300084D
:1000100023090108A110000829460108000000007A
:10002000000000000000000000000000C101000806
:100030003B2A00080000000005020008593E0108A4
:10004000830200088302000883020008830200087C
:1000500083020008830200081B35000883020008A1
:10006000830200088302000883020008830200085C
:10007000830200088302000883020008830200084C
:10008000830200088302000883020008830200083C
:10009000830200088302000883020008830200082C
:1000A000830200088302000883020008830200081C
:1000B000A7420108830200088302000883020008A7
:1000C00083020008830200088302000883020008FC
:1000D00083020008830200088302000883020008EC
:1000E00083020008910F01088302000883020008C0
:1000F00083020008830200088302000883020008CC
:100100008302000883020008A94201088302000854
:1001100083020008830200088302000883020008AB
:1001200083020008DD210008830200088302000822
:10013000830200088302000883020008830200088B
:10014000830200088302000883020008830200087B
:10015000830200088302000883020008830200086B
:10016000830200088302000883020008830200085B
:1001700083020008AD090108830200088302000819
:10018000830200088302000883020008830200083B
:10019000830200088302000883020008830200082B
:1001A0008506010883020008B5210008DFF80CD09D
:1001B00000F0FEF900480047D14B0208B8D30220F6
:1001C000234B19680868B0E8F04F80F309884FF0B6
:1001D000000080F3118870470000000003480068A9
:1001E000006880F3088862B600DF00BF08ED00E019
:1001F000DFF80C00016841F470010160704700BF36
:1002000088ED00E0EFF30980114B1A681EF0100F23
:1002100008BF20ED108A20E9F04F106008B54FF0BC
:10022000500080F3118825F099F94FF0000080F319
:100230001188BDE8084019680868B0E8F04F1EF062
:10024000100F08BFB0EC108A80F30988704700BF18
:10025000280200204FF0500080F3118870474FF0C3
:10026000000080F311887047064880470648004721
:10027000FEE7FEE7FEE7FEE7FEE7FEE7FEE7FEE756
:10028000FEE7FEE75D3E0108AD01000810B5431A28
:10029000934209D28318881803E010F8011D03F86F
:1002A000011D521EF9D210BD40EA01039B0703D085
:1002B00009E008C9121F08C0042AFAD203E011F8A5
:1002C000013B00F8013B521EF9D210BDD2B201E051
:1002D00000F8012B491EFBD270470022F6E710B54B
:1002E00013460A4604461946FFF7F0FF204610BDA4
:1002F00010B5044604E00B7800F8013B03B1491C3B
:10030000521EF8D2204610BD421C10F8011B0029D5
:10031000FBD1801A704730B504460020034600E048
:100320005B1C934203D2E05CCD5C401BF8D030BD37
:10033000034611F8012B00F8012B002AF9D11846C9
:10034000704700F0004230F000400AD0C10D01F5C6
:100350006071C0F3160042EA0151C2084007114320
:10036000704700200146704701F0004330B421F08F
:10037000004150EA010206D00A0DA2F56072C1F3F5
:100380001301002A02DC30BC00207047440F44EA0D
:10039000C104C100E01830BC00EBC25000F016B838
:1003A00030B50B46014600202022012409E021FA45
:1003B00002F59D4205D303FA02F5491B04FA02F542
:1003C0002844151EA2F10102F1DC30BD0029A8BFAE
:1003D0007047401C490008BF20F00100704710B46E
:1003E000B0FA80FC00FA0CF050EA010404BF10BC23
:1003F000704749B1CCF1200421FA04F411FA0CF150
:1004000018BF012121430843A3EB0C01CB1D0106BA
:10041000000A002BBEBF002010BC704700EBC35089
:1004200010440029A4BF10BC7047401C490008BFFD
:1004300020F0010010BC70472DE9FE4F804681EA94
:100440000300C00F0C46009021F0004123F000454E
:10045000B8EB0200A94105D24046214690461C4611
:100460000B46024623F00040104304D1404621468B
:1004700003B0BDE8F08F270DC7F30A00C3F30A519C
:100480000290401A0190402866DAC3F3130040F44A
:10049000801B0098924620B10023D2EB030A63EB45
:1004A0000B0B01985946C0F14002504600F092F8FB
:1004B00006460D4650465946019A00F0AAF810EB40
:1004C00008006141002487EA115284EAE7731A4365
:1004D0003BD0009A3AB3019A012A4FEA075210DC46
:1004E000001B61EB02014FF0004202EA0752CDE926
:1004F0000042001C41F5801132462B4600F0A8F85E
:10050000B6E7001B61EB0201001C41F580130018E7
:100510005B412018A2F5001747EB030140EAD570B4
:10052000B6196D4111E06D084FEA360645EAC0750F
:100530004FEA0752001B61EB0201001C41F58011DC
:1005400049084FEA30000019514132462B4603B0AA
:10055000BDE8F04F00F06FB8009801224000002382
:10056000D0EB020263EBE073009821464FEAE0749F
:10057000B8EB000061EB0401E9E783F000435BE7BF
:1005800081F0004158E7000030B5002904DB4FF04E
:100590000044404264EB0101002B04DB4FF00044B7
:1005A000524264EB0303994208BF904230BD000001
:1005B000064C074D06E0E06840F0010394E80700B0
:1005C00098471034AC42F6D3FFF7F4FD685609089B
:1005D00088560908202A04DB203A00FA02F100209C
:1005E00070479140C2F1200320FA03F31943904071
:1005F0007047202A04DB203A21FA02F000217047DC
:1006000021FA02F3D040C2F120029140084319467A
:100610007047202A06DBCB17203A41FA02F043EA62
:10062000E07306E041FA02F3D040C2F120029140AB
:1006300008431946704710B5002B08DA401C41F1F9
:10064000000192185B411A4301D120F0010010BD56
:100650002DE9F04D92469B4611B1B1FA81F202E0CC
:10066000B0FA80F220329046FFF7B4FF04460F46FE
:1006700040EA0A0041EA0B0153465A46084303D1B7
:1006800020463946BDE8F08D114653EA010015D0E9
:10069000C8F140025046FFF7ACFF05460E465046F3
:1006A00059464246FFF796FF084301D0012000E07B
:1006B0000020054346EAE0762C4337430A984FEA88
:1006C0004453A0EB08004FEAD4240A304FF0000254
:1006D00044EA47544FEAD72502D500200146D1E726
:1006E000010510196941DDE9084500196941BDE8B6
:1006F000F04DA0E770B58D1810F8014B14F003020F
:1007000001D110F8012B231106D110F8013B03E0B1
:1007100010F8016B01F8016B521EF9D1B3B110F85A
:10072000012B04F00C048A1A0C2C04D0A2EB8412C6
:1007300003F1020308E010F8014BA2EB0422F7E7F3
:1007400012F8014B01F8014B5B1EF9D5A942D3D336
:10075000002070BD10B50E4C82B0207800281CBF60
:1007600002B010BD012015F0C3F80021009103462E
:100770000191084A0521084806F014F807498861E4
:10078000012116F0D7FA0120207002B010BD000040
:10079000A1000020D12C0208E46302080000002020
:1007A00010B584B024F004FD0CF09EFF044624F044
:1007B00009FD11484168002961881EBF0191A18887
:1007C000C1F5A071009104BFA18801912188802901
:1007D0000CBF012100218DF808100378CAB29A429B
:1007E00004BF04B010BD017001208DF809006846F7
:1007F00009F0A4FB04B010BD8800002038B544689F
:1008000005460146204613F06BFF002808BF38BD9F
:10081000464A28680F281DD006DA0B2829D00C2854
:1008200011D00E287DD134E0112802D0282878D1AB
:1008300070E09268002A08BF38BD294601B0204602
:10084000BDE830401047526801B029462046BDE857
:10085000304010472546204605F09AFC0090406E37
:100860000468684605F022FD002C1CBF2846A047FE
:1008700038BD204605F08CFC0090683005F08AFBFE
:10088000009803216C3005F0B1FB684605F00EFDC1
:1008900047E0E968486809680D2902D0202939D164
:1008A00017E0002836DD4FF48071204613F0D9FFA1
:1008B000204605F06DFC009090F82850684605F041
:1008C000F5FC15F0020F1FD00121204615F03DFE6A
:1008D0001AE0002818DD25464FF48071204613F0F9
:1008E000C0FF284605F054FC009090F82840684668
:1008F00005F0DCFC14F0020F08BF38BD01212846CA
:1009000015F023FE38BD0CE02046BDE8384002213A
:100910001EF08ABFE86820B920464FF4807113F0BA
:1009200084FE2846BDE8384014F04CBDE0030020AA
:1009300070B584B00026DDE9084C0A9D8DE8701082
:1009400000F002F804B070BD2DE9F04786B006460D
:10095000DDE90E59884617469A46119C07F048FB78
:100960004C201949CDE90210CDE9005953463A46C9
:100970004146304614F06CFC05001FD005F008FC21
:1009800010222146049014F003FA104C049904F14B
:100990000C0201F1340A92E8CD13AAE8CD1304F158
:1009A0002C0292E80D108AE80D102068486604A811
:1009B00005F07CFC206841682846884709F06EFCF9
:1009C00006B02846BDE8F087FD070008E0030020D8
:1009D00070B5044686B08069B4F908C0658A0026FF
:1009E0000091CDE90165CDE903C0B4F90C00B4F97B
:1009F0001050C118B4F90A00B4F90EC010442B46C7
:100A0000624600F007F80546616800F005FA06B096
:100A1000284670BD2DE9F04F85B09846DDE9116498
:100A2000DDE90E5791468A46834607F0E1FA04F164
:100A30004C001949CDE90210CDE9005743464A461A
:100A40005146584614F004FC05001FD005F0A0FBE9
:100A500010223146049014F09BF9104C049904F1D3
:100A60000C0201F1340A92E8CD13AAE8CD1304F187
:100A70002C0292E80D108AE80D102068486604A840
:100A800005F014FC206841682846884709F006FCF8
:100A900005B02846BDE8F08FFD070008E003002000
:100AA000F0B5044680688C4989B051F820506068E0
:100AB000002800F00A81052806D006287DD01228DB
:100AC00040F0068100F0B2B8E869002808BF0026AF
:100AD00051D0D5E90012AB688DE80F0004F1100188
:100AE0000FC90AF017FA002655F8260008F09BFFF8
:100AF000A169E8690A1A216901446069304406F075
:100B00001FFEA169E8690A1A21690144E069801B96
:100B100006F016FEE169E8690A1A61690144206974
:100B2000304406F001FFE169E8690A1A616901448D
:100B3000A069801B06F0F8FE761C022ED4DBA868A4
:100B400008F071FFE069E969D4F814C0431A20691C
:100B50004218521E6144801C06F0E2FFE169E86918
:100B6000A2690B1A61690144101A401C921E06F01A
:100B7000D7FFEE6911E055F8260008F054FFE06950
:100B8000831BA069821B606981192069304406F0CB
:100B900059FE761C022EEEDB0226D5E90301CDE9D3
:100BA0000001E169606901444B10A1698A1B811C45
:100BB0002069304406F09EFB00E011E0D5E9050114
:100BC000CDE90001E0696169831E01440122A06949
:100BD00002EB6101821B2069304406F08BFB77E059
:100BE000206805F0D5FA0490206816F0B1FE50B1E7
:100BF000A068002818BF00200AD10498006F0028C0
:100C000018BF012004E00498406F002818BF02209C
:100C1000049901EB8000C56E04A805F047FB002392
:100C20001A462846216805F0C7FF51E0206805F004
:100C3000AFFA0490866E002E08BF04A842D0A168C7
:100C4000B0F95C70002908BF012103D003290CBF53
:100C50000221002100EB8101406D0C6C08F00CFFBB
:100C6000204608F0E0FE06A807F01EF8BDF81810B0
:100C7000A88B0144ADF81810BDF81C10081AADF887
:100C80001C00BDF81A00801CADF81A00BDF81E004B
:100C9000801EADF81E000498B0F96020B0F95E1017
:100CA00006A808F0DDFA04A805F000FB022008F011
:100CB00075FF304605F06CFA3A4606A9059006F035
:100CC0008FF805A805F0F2FA02E0206815F082FF1F
:100CD00009B00020F0BD0000241A0908002808BF50
:100CE0007047F0B583B016460D46044607F080F90C
:100CF000204605F04DFA0190806E0027002808BFBD
:100D00002F7012D005F044FA0090FFF7FDFA044668
:100D1000701E8442C8BF0446224628460099FFF749
:100D2000B5FA684605F0C2FA2F5501A805F0BEFADB
:100D300009F0B4FA03B0F0BD38B505F029FA04465D
:100D40000090684605F0B2FA204638BD70B594466A
:100D50000C46054619466046049A05F0EFFE024629
:100D600021462846BDE8704000F082B8044A034995
:100D7000116004494A6A4862104670471C0400200A
:100D8000E0030020EC03002000294FF0100101D007
:100D900013F067BD13F049BC002808BF704738B591
:100DA0000C46054607F024F9284605F0F1F90090B5
:100DB0004465684605F07AFA284615F0C4FA09F049
:100DC0006DFA38BD70B505460C46104600210A463E
:100DD00005F0D4FE024621462846BDE8704000F0EA
:100DE00047B8000038B50C46054607F001F928461B
:100DF00005F0CEF90090074984654166684605F024
:100E000055FA284615F0E6FE284615F09CFA09F03A
:100E100045FA38BD1C040020F0B583B00F4606002B
:100E20004FF0010421D007F0E3F8304605F0B0F9A7
:100E30000090856E6846019505F038FA394601A89C
:100E40000BF016F878B101980024A84208D030467B
:100E500005F09EF9009001998166684605F026FA32
:100E6000304615F070FA09F019FA03B02046F0BDCB
:100E7000002808BF7047F8B515460C46064607F02F
:100E8000B7F8304605F084F90090032C0BD800EB3E
:100E900084006C3005F07EF8009800EB8400C56695
:100EA000304615F050FA684605F000FA09F0F6F9F8
:100EB000F8BD000084B000250FF0FEFC4FF48074F4
:100EC00011F05AFD11F0AAFB6A4F4FF001090128F9
:100ED00008BF87F800904FF0000800BF12F0AEFF87
:100EE00010B1641EFAD203E0002C08BF87F800801E
:100EF00003F082FA06F0C8FF092100915E48CDE9AF
:100F00000108002340F6E8325CA15F48CDF80C8070
:100F100024F096FE5D48012300901A4632215CA021
:100F200025F03CF8F86048B124F054FF0023024655
:100F3000CDF800801946F86825F0A2F86D1C564CD3
:100F40000AE00025284612F05DFF11F067FB01283A
:100F500018BF87F8008009D0FFF7FCFB0A2024F0B7
:100F60008BF928466D1C0A28F6D9EAE7387801285B
:100F7000F2D04FF4807611F0FFFC11F04FFB012806
:100F800008BF87F8009012F059FF10B1761EFAD210
:100F900003E0002E08BF87F800804049002023F0BE
:100FA000DDFD002818BF87F800800B2023F04AFEE3
:100FB00020600B2023F046FE60600B2023F042FEF1
:100FC000A0600B2023F03EFEE0600B2023F03AFEF1
:100FD00020610B2023F036FE60610B2023F032FEEF
:100FE000A0610B2023F02EFEE0610B2023F02AFEEF
:100FF00020620B2023F026FE60620B2023F022FEED
:10100000A0620B2023F01EFEE0620B2023F01AFEEC
:1010100020630B2023F016FE60630B2023F012FEEA
:10102000A0630B2023F00EFEE0630B2023F00AFEEA
:1010300020640B2023F006FE60640B2023F002FEE8
:10104000A0640B2023F0FEFDE0640B2023F0FAFDEA
:1010500020650B2023F0F6FD60650B2023F0F2FDE8
:10106000A0650B2023F0EEFDE0650B2023F0EAFDE8
:10107000206671E790000020980000204755495FE6
:1010800044454D4F000000003D2A0008C5550208A8
:1010900054696D657200000070150020381300203F
:1010A000FEE700002DE9F04F466804460146DBB03C
:1010B000304613F015FB002804BF5BB0BDE8F08F8D
:1010C000DFF88C872068DFF88CB70C2800F06B8184
:1010D0000E280BD00F2800F02B82262800F0588312
:1010E000204614F06FF95BB0BDE8F08F304616F083
:1010F0002FFC002804BF5BB0BDE8F08F6C2269466E
:10110000304613F069FF069828B9DDE90001029A1C
:101110000892CDE90601039988421CBF5BB0BDE887
:10112000F08F0799049881421CBF5BB0BDE8F08F37
:10113000E06841680029DCBF5BB0BDE8F08FDDE905
:1011400007740068069D132808BFE01D17D00CDC4B
:10115000102808BF601E12D0112808BFE01F0ED053
:10116000122808BF601C0AD00AE0212808BF781E98
:1011700003D0222808BF781C02D1079000E0089015
:1011800007980C2803DD0C380790681C04E0012840
:1011900003DA0C300790681E069008F1080090E80A
:1011A0000F56CDE91C011EA8A0E80C5608F1280036
:1011B0000DF190090FC8A9E80F000798401E8BFB9E
:1011C00000214A10A2EBE171A1EB810100EB81004B
:1011D0001CA951F820000799022905D1069911F0A0
:1011E000030F08BF012100D000210844089988425C
:1011F0000DDA081A08900798401C07900C2840DD6B
:101200000698401C069007980C38079039E0012991
:1012100037DA0798401E0790012805DA0698401E25
:10122000069007980C30079008F1080008F128088C
:1012300090E80F56CDE91C011EA8A0E80C56B8E8AE
:101240000F000DF19009A9E80F000798401E8BFBD5
:1012500000214A10A2EBE171A1EB810100EB8101B9
:101260001CA850F821100798022805D1069810F004
:10127000030F08BF012000D000200844089908444B
:1012800008904FF4B071304614F03CFB8046079A4A
:101290006FF00300189900EB8200069B0A584DA8D6
:1012A000CDF870001C9912F8010B01F8010B1C918C
:1012B0000028F7D143B1481E202100F8011B1C90E3
:1012C0001CA9184605F0D0F84DA9404612F08FFF32
:1012D00007980490069803906C226946304613F0F4
:1012E00091FE0498874204BF0398854219D00021DB
:1012F000ADF87010DDE916211144159AADF87210A1
:10130000C2EBC202521EADF87420169A3046C2EBF0
:10131000C202521E1144ADF876101CA914F0AAFFA7
:1013200031E008996846CDE91C4125AA22A91CF0A4
:1013300069FC00250DF1700454F8253003B3DDE994
:101340002201CDE92601002125985B1E0A4644F8BA
:10135000253018BF159B0CD0401C072818BF194416
:1013600018D000BF54F825C0BCF1010C44F825C0CA
:10137000F2D126A807F074FF26A9304614F07AFFB0
:101380006D1C022DD8D30421304615F0DEF85BB079
:10139000BDE8F08FA3EB830C01EB4C01DDF858C0E6
:1013A00000206244DEE7E468002C04BF5BB0BDE8C7
:1013B000F08F207A00287DD06C226946304613F0E9
:1013C0000BFEDDE90601089A2192CDE91F01D4E95F
:1013D0000054684623AA1CA91CF014FC1598159902
:1013E00095FBF0F048431799169A611A891A91FBF8
:1013F000F2F1179B0DF1900A01FB02311144BDF986
:101400007020801A159A90FBF2F0BDF97220891AAB
:10141000169A91FBF2F1C1EBC101084408F10801F1
:1014200008F1280891E8BE12AAE8BE12B8E80E102A
:101430002CAD401CA5E80E100499491E8BFB01320F
:101440005310A3EBE272A2EB820201EB820124AA09
:1014500052F82110049A022A05D1039A12F0030FC0
:1014600008BF012200D0002211440128A8BF8142F8
:1014700047DBDDE903120691CDE907200C2206A91E
:101480001FA8FEF748FFC0B36C226946304613F030
:10149000B9FD089A2199CDE91C12684629AA24A908
:1014A0001CF0B0FB00241CAD55F8243013B3DDE96B
:1014B000240100E035E0CDE92601002129985B1EDA
:1014C0000A4645F8243018BF159B0CD0401C07284D
:1014D00018BF19441CD000BF55F824C0BCF1010C42
:1014E00045F824C0F2D126A807F0BAFE26A9304656
:1014F00014F0C0FE641C022CD6D30421304615F033
:1015000024F80121304615F020F85BB0BDE8F08FDB
:10151000A3EB830C01EB4C01DDF858C000206244C2
:10152000DAE70221304615F010F85BB0BDE8F08F25
:1015300000256C220AA93046039513F04DFD304674
:1015400014F0BAFB8246304614F0CEFB04461998DC
:101550006FF07049484509D008F065FA21980021DC
:10156000431EAAF10102084606F0DAFAADF820504F
:101570002198ADF822001F98B74E401EADF8240008
:10158000601EADF8260000240AAF24982A462044A5
:101590000146C6FB00218A10A2EBE171A1EBC1015B
:1015A000084400900228ACBF0120002007EB800017
:1015B000406A484504D008F036FA08A806F0DCFA7C
:1015C000002208A81F9907F04BFE641C072CDCDBE7
:1015D0001F99ADF82050491EADF82410219820998C
:1015E000ADF822000844401EADF826001D9808F012
:1015F00043FA022008F0D2FA1B9808F014FA0024EB
:1016000024982A4620440146C6FB00218A10A2EBFA
:10161000E171A1EBC1010844009023990E2251F819
:10162000200008A905F0DCFB002208A81F9907F09C
:1016300017FE641C072CE3DBBDF92600AAF10302A8
:10164000022106F07DF86A4608A90AA81CF0DAFA19
:1016500008F108000DF1980E90E85F14AEE85F14F1
:1016600008F128082EACB8E80F000FC40E98401EF1
:101670008BFB00214A10A2EBE171A1EB810100EB91
:10168000810026A951F820000E99022905D10D9953
:1016900011F0030F08BF012100D0002146180024DB
:1016A000002ECEBFDFF8B4A15BB0BDE8F08F00BF65
:1016B00004F131008DF80C0013E0092CF8DB601CFC
:1016C0008AFB00218A10A2EBE17101F1300249424C
:1016D00001EB810100EB41008DF80C2030308DF8DA
:1016E0000D000D99109888423BD111990E988142B6
:1016F00037D11298611C884233D11598484504D0DF
:1017000008F091F908A806F037FADDF860800D9925
:101710000A9888420DD10B990E98814209D10C98F4
:10172000611C884205D11C9808F07DF908A806F0D4
:10173000D1F8404608F077F90E2208A903A805F071
:101740004FFB0098401C0090072814D0002208A8E6
:101750001F9907F085FD641CB442AEDB5BB0BDE8A9
:10176000F08F00980228ACBF0120002007EB80001A
:10177000D0F83080CBE70095002108A8209A07F028
:101780006FFD1F98ADF82050401EADF82400E2E731
:10179000A06814F01EF9E168B0F5B87F1BBFA0F592
:1017A0008072B2F1710202295BB018BFBDE8F08F00
:1017B000B0F5B87F14BF01244FF0FF346C2232A97A
:1017C000304613F009FC36980019369002D00D28E7
:1017D00005D009E03598401E35900C2003E035987F
:1017E000401C3590012036904FF4B071304614F013
:1017F00089F80446369A6FF003004A9900EB82009C
:10180000359B095801A80090009A11F8010B02F8C5
:10181000010B00920028F7D13BB1202102F8011CF6
:1018200069461846009204F01FFE01A9204612F0F6
:10183000DEFC6C2232A9304613F0E4FB304614F093
:1018400082FD0A21304614F080FE5BB0BDE8F08FC7
:10185000341A0908ABAAAA2A9324499267666666D5
:101860002DE9FF4FC7B08846DDE95549DDE95776D8
:101870009A461546702102A8DDF850B1FEF72DFDFD
:101880006C211EA8FEF729FDABF101000C2880F0A9
:10189000E980AAF22E6042F2E201884280F0E28002
:1018A0004422724927A8FEF7F1FC714B0022194629
:1018B0001046E4FB0310C008A0EB40102044CDE923
:1018C000200ACDE91EAB0120CDE922B0209B69485A
:1018D000CDF890A0CDF8E0900290CDE925B33398F3
:1018E000359BC0EBC0013498DFF88CC1C0EBC00061
:1018F0001844ADF818006C200890ADF81A604FF449
:10190000B870ADF82C000320ADF82E003598ADF876
:1019100012800A38ADF81070CDF824C0CDF840C060
:10192000ADF8340040F2711CADF848C0DDF8D4C009
:101930000523A1EB0C0C0CF1070CADF84AC0DFF845
:101940003CC1ADF81450CDF85CC0ADF81610ADF840
:101950003030ADF84C30ADF86830359BADF8500004
:101960004FF4B07C5B42ADF864C001EB4301DDF89D
:10197000D4C00E31ADF86A10ACF1050CADF83200F0
:10198000ADF866C00192ADF84E00ADF86C00009263
:101990003B4A042102A8479B04F004FF050061D0E4
:1019A0006FF0704113F01BFB3649284614F075FFA9
:1019B0004FF4B871284613F0A5FF04460021FFF745
:1019C000E3F931492046FFF70DFA40F2711128463C
:1019D00013F098FF04460021FFF7D6F92A49204664
:1019E000FFF700FA4FF4B071284613F08BFF04465E
:1019F000264914F052FF0E21204612F024FC204606
:101A00002E9912F037FC2046329912F0D7FB22991A
:101A10006FF00302369802EB810139AA41582198F0
:101A2000CDF80020009B11F8012B03F8012B009347
:101A3000002AF7D130B1202203F8012C6946009327
:101A400004F012FD39A9204612F0D1FB284614F00B
:101A5000E9FF6C221EA9284613F0D4FA4BB02846A1
:101A6000BDE8F08F4BB00020BDE8F08F34050020BA
:101A700021841042514F0108D1090008D5400108C6
:101A8000A5100008D9440208FDC601081526020861
:101A900030B59BB00C46054606F0AAFA6C226946A2
:101AA000284613F099FAD4E90012A368CDE9001290
:101AB00002936C226946284613F0A4FA284614F0D3
:101AC00042FC08F0EBFB1BB030BD0000022828BF31
:101AD0007047024A02EB80008162704734050020A3
:101AE000064A002804BF91637047012804BF1163B0
:101AF0007047022808BF516370470000340500207A
:101B000030B5ABB00C46054606F072FA6C22694659
:101B1000284613F061FAD4E90001A2680892CDE9E1
:101B20000601D4E90001A2680592CDE903014FF452
:101B3000B071284613F0E6FE044604996FF00302E4
:101B4000189802EB81011CAA41580398CDF86C202B
:101B50001B9B11F8012B03F8012B1B93002AF7D1D3
:101B600030B1202203F8012C1BA91B9304F07CFC4C
:101B70001CA9204612F03BFB6C226946284613F054
:101B800041FA284614F0DFFB08F088FB2BB030BD8B
:101B90002DE9F84F446805460146204612F0A0FDA5
:101BA000002808BFBDE8F88F28680B2872D00C28E1
:101BB00034D00E2802D00F2820D075E0204604F043
:101BC000E7FA009090F8746090F87570684604F039
:101BD0006DFB204615F0BCFE002865D0E868416822
:101BE000002961DD006820285ED1781CB0FBF6F189
:101BF00006FB1101204600F0EBF855E02546204693
:101C000004F0C6FA0090006F0468684604F04EFBCA
:101C1000002C1CBF2846A047BDE8F88F26460027A9
:101C2000204604F0B5FA009090F8749090F8758012
:101C3000B0F930A0684604F039FBEC6824B33046B4
:101C400014F070FA20B13946304614F07EFC2BE0D7
:101C5000207A88B10121304614F038FE08F10100E5
:101C6000B0FBF9F109FB1101304600F0B1F8012198
:101C7000304614F06AFC17E00221304614F065FC8F
:101C8000504607F0A3FF0FE00321304614F05DFC3F
:101C90000AE0FFE7204604F07BFA0090783004F079
:101CA00079F9684604F002FB2846BDE8F84F13F0C6
:101CB00089BB70B584B00026DDE9084C0A9D8DE82B
:101CC000701000F002F804B070BDF0B585B00AAF36
:101CD000B7E87010002704978DE8701000F002F844
:101CE00005B0F0BD2DE9FF4F85B01D46DDE912A717
:101CF000DDE9158916468B4606F07AF9274C0EB1B8
:101D000035B10AE02068806800688047064625B93A
:101D10002068806800688047054621486FF0704160
:101D2000C068884208BF47F0010709F154011D4807
:101D3000CDE900A7CDE902012B4632465946059868
:101D400013F086FA050022D004F022FA1022414650
:101D5000049013F01DF8221D049992E8CD1301F1AF
:101D6000340AAAE8CD1304F1240292E8CD118AE8DE
:101D7000CD1120680867022081F874000F20C86721
:101D800004A804F093FA206841682846884708F0C0
:101D900085FA09B02846BDE8F08F000080090020D0
:101DA00084090020911B000838B505004FF000049D
:101DB0000CD006F01DF9284604F0EAF9009090F8DE
:101DC0007540684604F072FA08F068FA204638BD9B
:101DD000002808BF704738B50C46054606F008F9DC
:101DE000284604F0D5F9009090F87410A1420CD95F
:101DF00080F87540684604F059FA284614F0A3FAB2
:101E00000521284614F0A1FB02E0684604F04EFAD2
:101E100008F044FA38BD000000B589B000200090F9
:101E20000290039004900590069007900890192066
:101E3000019004480068806841686846884709B096
:101E400000BD00008009002070B546490546002409
:101E5000086810F0450F03D1086810F0450FFBD05B
:101E600010F0040F05D00324042010F0E1F92046FF
:101E700070BD10F0010F05D00124204610F0D8F9F4
:101E8000204670BD10F004FAA84234D140F2FF5051
:101E900010F0CEF9002010F013FA334908425ED05A
:101EA00010F0004F1CBF1C2070BD10F0804F1CBFF5
:101EB000092070BD10F0005F1CBF0A2070BD10F03B
:101EC000805F1CBF0B2070BD10F0006F1CBF0C208A
:101ED00070BD10F0806F1CBF0D2070BD10F0807FB2
:101EE0001CBF0E2070BD10F4000F1CBF0F2070BD72
:101EF00010F4800F01D0102070BD10F4001F1CBF23
:101F0000112070BD10F4801F1CBF122070BD10F492
:101F1000002F1CBF132070BD10F4802F1CBF142095
:101F200070BD10F4003F1CBF152070BD10F4803F41
:101F30001CBF162070BD10F4004F1CBF172070BDD1
:101F400010F4804F1CBF182070BD10F4005F1CBF40
:101F5000192070BD10F0080F1CBF1A2070BD20465C
:101F600070BD0000342C014008E0FFFD00B583B0D7
:101F70000021009103460191034A0521034804F022
:101F800011FC03B000BD00002930020844610208C2
:101F900000B583B00021009103460191034A03215B
:101FA000034804F0FFFB03B000BD000069320208E3
:101FB000B0000308F0B5244A87B0224904465160B6
:101FC0000CF00AF807460CF02BF800251F490822F0
:101FD000CDE90451CDE902250226CDE90046A0F164
:101FE00018033A462946284601F09EFD184C6FF02A
:101FF0007041A06001F01BFF1649A06801F030FF9E
:102000000221A06801F0A0FF00220121A06801F0D8
:10201000D3FB84211048FEF760F90F480121C176F7
:1020200080F82410067780F823600846E5601FF0EA
:1020300089FFA06813F044FC07B0BDE8F04014F03D
:1020400082B90000F917020860000020554002081C
:102050003C000020BCCE0808C80B0020002486B03D
:1020600022462146374804F07DFFA02007F038FCC7
:102070000BF0D6FFA0F182050BF0AEFFA0F18201BC
:102080002A46314804F06EFF002007F029FC0120A9
:1020900013F02EFC2D4914F000FC012013F028FC55
:1020A00007460BF099FF0246002529480326CDE993
:1020B0000205CDE9007619232946284613F0C8F811
:1020C000012013F015FC80460BF0AAFFA0F11A07BF
:1020D0000BF082FF024664203021CDE90310CDF8D9
:1020E00000800590CDE901653B46192100200AF0EA
:1020F0002DFF064617490AF0CDFF174A0121304649
:102100000AF0AAFF0322012130460BF012F8012247
:10211000114630460AF0D7FF104D00BF04EB4400D3
:1021200005EB80014A6855F8201030460AF000FCA3
:10213000641C052CF2D3012007F096FB642004F008
:1021400053FDFBE74CE5030810E50308B12D020839
:10215000ED42020870D708084050D48060E50308BB
:1021600000B583B00021009103460191034A0A2182
:10217000034804F017FB03B000BD00007D340208E3
:10218000F0C2080800B583B0002100910346019118
:10219000034A0621034804F005FB03B000BD00001C
:1021A000C135020808C408080148006870470000EB
:1021B00078050020AFF30080014902208860704755
:1021C00000B00240044A0029116814BF084321EA04
:1021D000000010607047000000B002407047002807
:1021E00008BF70472DE9F04389B00C46054605F05D
:1021F000FFFE112C6AD0132C56D0284603F0C8FFDE
:102200000290C06B04F0E9F8064602A804F04EF80C
:10221000A4F14100192898BF2034A0460024002EC4
:1022200071DD2846002703F0B3FF0590C06B2146FF
:1022300004F0DFF8814605A804F038F8B9F1000F82
:1022400003D0484603F0A4FF074603973878A0F16F
:102250004101192998BF2030C7B203A804F026F81D
:1022600047454DD1002D4ED005F0C2FE284603F063
:102270008FFF0190C06B04F0B0F8002818BF401E1B
:102280008442C8BF04460198B0F93410A14231D04D
:10229000848601A804F00AF8284614F054F80421B2
:1022A000284614F052F928E005F0A2FE284603F073
:1022B0006FFF0090B0F93440684603F0F7FF07F075
:1022C000EDFF611C284600F02AFB1CE005F090FEA3
:1022D000284603F05DFF0190B0F9344001A803F0F7
:1022E000E5FF07F0DBFF210018BF611E284600F064
:1022F00016FB08E001A803F0D9FF07F0CFFF02E0CA
:10230000641CA6428DDC09B0BDE8F04307F0C6BFEF
:10231000002814BF00297047F8B50C46054605F0A3
:1023200067FE284603F034FF0090C66B684603F052
:10233000BDFF2046FDF7E8FF421C2146304603F072
:10234000DBFF284613F0FFFF07F0A8FFF8BD2DE9DB
:10235000F0414468054684B0204603F019FF01901F
:10236000D0F8886001A803F0A1FF002E14BF4FF041
:1023700001084FF000082946204612F0B1F9002864
:1023800004BF04B0BDE8F081002728680F2870D092
:1023900006DA0B286ED00C2876D00E283FD1B4E098
:1023A00011286AD0212802D0262838D12BE0E868ED
:1023B0004168002933DD00680D2830D130460DF02A
:1023C00001FB002806DB30460DF0FCFA01462046F2
:1023D00000F0A5FA002C70D005F00AFE204603F0AC
:1023E000D7FE0290D0F8880038B113F025F8029893
:1023F000C0F88870204613F0A6FF02A803F056FF2D
:1024000007F04CFF9CE0E868012809D00A2802D0B8
:102410000B2804D114E00A21204614F096F892E02B
:1024200030460DF0CFFA002857DB30460DF0CAFADF
:102430000146204600F073FA204614F0F3FA82E0D9
:10244000002C4AD005F0D4FD204603F0A1FE0090F8
:10245000D0F8880038B112F0EFFF0098C0F888700B
:10246000204613F070FF684603F020FF07F016FFC8
:1024700069E023E032E007E0FFE7B8F1000F62D146
:10248000E868007AE8BB5EE0E86878B1007A30B1CD
:102490000121204614F059F804B0BDE8F081022172
:1024A000204614F052F804B0BDE8F0810321204624
:1024B00014F04BF804B0BDE8F08141E02646204618
:1024C00003F066FE0290D0F88400046802A803F0CE
:1024D000EDFE002C1CBF3046A04734E0204603F040
:1024E00057FE0090C06B03F049FF0098D0F88800B9
:1024F00012F0A2FF0098D0F8940003F017FD684690
:1025000000E015E003F0D2FE1DE0E8684168002914
:1025100019DD016809290FD00A2918BF1B2912D01B
:10252000202905D02046FFF75AFE04B0BDE8F0810F
:10253000204600F0AFF806E013F02AFAB04202D1CC
:10254000204614F06FFA284612F03CFF04B0BDE8B4
:10255000F081002808BF704738B5044605F048FDF3
:10256000204603F015FE0090D0F8880040B112F02C
:1025700063FF00990020C1F88800204613F0E3FEB5
:10258000684603F093FE07F089FE38BDF0B585B0CC
:102590000AAFB7E87010002704978DE8701000F0BC
:1025A00003F805B0F0BD00002DE9FF4F85B01E46D1
:1025B000DDE91447DDE9128992468B46169D05F048
:1025C00017FD05F16C003149CDE90210CDE9008914
:1025D0004FF0FF3352465946059812F039FE050078
:1025E0004ED003F0D5FD10223946009012F0D0FBFA
:1025F000009800F14C0B80F88C40254C211D91E88F
:102600008E17ABE88E1704F1240191E88E118BE848
:102610008E112168C0F88410002180F89010C686C1
:10262000284603F0B5FD0190B0F9381019B9C06C17
:1026300005F000FC01460198C26AB0F980301268CA
:1026400001EB4301561814F0B5FF074601A803F04B
:102650002DFE32463946284614F046FB684603F004
:1026600025FE03F088FE0646284603F091FD009003
:10267000C663684603F01AFE20684168284688470A
:1026800007F00CFE09B02846BDE8F08F4F23000884
:102690007C050020002808BF70472DE9F04F9DB051
:1026A000054605F0A5FC284603F072FD0D9028466E
:1026B00013F002FB82460D98B0F9366090F8901046
:1026C000049190F88C80D0F83C90B0F934000790D9
:1026D000484603F082FE04460D98B0F88E1006912D
:1026E000B0F982100591C16C0A91D0E90012CDE9D0
:1026F0000E12D0F89470016D1191416D1291816D9F
:102700001391C16D1491016E1591416E1691016F77
:102710001791416F1891806F19900DA803F0C6FDB5
:10272000284613F00BFA03F033FD1090D0F800B0F8
:1027300010A803F0BBFD4FEA2B4042420FFA8BF08A
:1027400041420EA806F08CFD18F0020F1ABFBDF82A
:102750003A00801BBDF83E00ADF83A00284613F061
:10276000EDF90221CDF800A0CDE901610146BDF9E6
:102770003A30BDF9382000200DF0A3F8064618F0D5
:10278000010F07D0304604990DF0CCFB01213046F3
:102790000DF0D8FA4FF00008002C0BD941464846FE
:1027A00003F027FE014630460CF0B6FD08F10108A3
:1027B0004445F3D800240DF1440800BF58F8242004
:1027C000214630460DF0EBFA641C032CF6D30024AE
:1027D0000DF15008214658F8242030460DF0C7FC72
:1027E000641C032CF6D300240DF15C08214658F834
:1027F000242030460DF074FB641C032CF6D30FB379
:10280000384603F0C5FC30F8027B00240890002F06
:10281000C8BF4FF0010812DD089804F0070100EB73
:10282000D40008FA01F10078084214BF0122002206
:10283000214630460DF0EAFA641CBC42ECDB08A8E5
:1028400003F034FD304606990DF01AFB30460A9924
:102850000DF0C1FA304605990DF072FC304614F0C7
:10286000E1F8294630460DF024FB304607990DF07B
:1028700078FB0121284613F068FE284603F088FC07
:102880000D90C0F888600DA803F010FD07F006FD5C
:102890001DB0BDE8F08F38B505004FF000040CD036
:1028A00005F0A6FB284603F073FC0090B0F9344015
:1028B000684603F0FBFC07F0F1FC204638BD002819
:1028C00008BF7047F8B50C46074605F091FB38463F
:1028D00003F05EFC0090D0F88850C06C05F0AAFAB6
:1028E00006460098C464684603F0E0FC384600F0F1
:1028F0006DF8384613F027FD75B1204605F09AFAB9
:10290000B04205D03846FFF724FE3846FFF7C2FE36
:10291000214628460DF05FFA07F0C0FCF8BD0028FC
:1029200008BF704738B50C46054605F061FB2846E0
:1029300003F02EFC0090C06B03F04FFD002818BF81
:10294000401E8442C8BF04460098B0F93410A1422A
:102950000BD08486684603F0A9FC284613F0F3FCEC
:102960000421284613F0F1FD02E0684603F09EFCC6
:1029700007F094FC38BD002808BF7047032928BF22
:102980007047F8B514460D46074605F031FB38464A
:1029900003F0FEFB0090D0F8886000EB8500C16D6D
:1029A000A1420DD0C465684603F080FC384613F0A0
:1029B000CAFC46B12246294630460DF0D8FB02E05B
:1029C000684603F073FC07F069FCF8BDF8B50446EF
:1029D00003F0DEFB01460090B0F93800002804BF88
:1029E000C86C05F027FA0099CA6AB1F980301268FC
:1029F00000EB43001518084614F0DCFD0646684657
:102A000003F054FC2A463146204614F06DF9F8BD17
:102A100038B50D46002403F0BBFB0090C06B29467F
:102A200003F0E7FC0546684603F040FC1DB128466C
:102A300003F0AEFB0446204638BD704710B513487E
:102A40000EF076F812480EF055F912480FF02AFBF6
:102A5000114810F003FC114810F0E4FF1048FEF795
:102A600085F94FF07F4006F0C7FF012006F0FCFE1D
:102A700003F012FE4FF07F4006F0BEFF002006F08C
:102A8000F3FEBDE81040FFF7E9BA0000B109010804
:102A9000390C0108451E0108912E0108D53801089E
:102AA000A10A0008002808BF70472DE9F04F91B037
:102AB0000F46044605F09CFA204603F069FB01909E
:102AC00090F85490D0F85880466BC56C01A803F07C
:102AD000EDFBB8F1000F04D039462046C04700F0A6
:102AE000C6B94FF000084FF0010A122F7ED006DC65
:102AF000082F7CD0102F7BD0112F07D13AE0132F55
:102B000064D01D2F00F000811E2F72D0202FC0F244
:102B1000AE81B9F1000F00F00E81204603F038FBC2
:102B20000690D0F84C90466B06A803F0BFFB002E31
:102B300000F00181304603F02BFB06464946049025
:102B400007F07CFA81463046FDF7DEFB484540F24F
:102B5000EF804E44304607F02BFA31183046FDF72F
:102B6000E7FB04A803F0A2FB0521204613F0EDFCCF
:102B700000F0E1B8002E00F07A81304603F008FB47
:102B800006462946029007F059FA0644304607F0F7
:102B9000FFF90546CDF8148007F01AFA8046681C44
:102BA00087B2384607F014FA0546A8450CD13946D5
:102BB00005A807F0DBF92A4605A93046FDF766FBB4
:102BC0000521204613F0C1FC02A8AEE0002E00F063
:102BD0004E81304603F0DCFA06462946029007F0A3
:102BE0002DFA0644304607F0D3F903E022E02DE049
:102BF00026E05EE00546CDF8108007F0E9F9804652
:102C0000681E87B2384607F0E3F90546A8450CD19F
:102C1000394604A807F0AAF92A4604A93046FDF768
:102C200035FB0521204613F090FC02A803F03EFB83
:102C300000F01DB9691C204600F042FC00F017B9F5
:102C4000691E204600F03CFC00F011B9002D00F098
:102C50000E81691E204600F033FC204603F098FAEE
:102C60000590C66C456B05A803F020FB002D00F015
:102C7000FE80284603F08CFA05463146039007F0A3
:102C8000DDF906462846FDF73FFBB04298BF03A892
:102C90004BD93544284607F08BF929182846FDF70B
:102CA00047FB03A803F002FB0521204613F04DFC6F
:102CB000DDE0204603F06CFA0590C66C456B05A874
:102CC00003F0F4FA002D7CD0284603F061FA0546A3
:102CD0003146049007F0B2F906462846FDF714FB8A
:102CE000B04298BF04A820D93544284607F060F9BF
:102CF00029182846FDF71CFB04A803F0D7FA052184
:102D0000204613F022FCB2E0204603F041FA019085
:102D1000B9F1010F08BF80F8548005D080F854A0A5
:102D20002946204600F0CCFB01A803F0BFFA9EE044
:102D300004A803F0BBFAB8B20790204603F028FAC3
:102D400006460390B0F93800002812DD706B0027AA
:102D500040B103F01DFA009008F0AAFE074668464D
:102D600003F0A4FAB6F93810781C8842C8BF46466A
:102D700000DC01260398C06C0D9003A803F096FABE
:102D8000002E74D0079807F023F9074626464FF027
:102D90000009204603F0FCF90990406B40B103F0B4
:102DA000F7F90090FDF7B0FA8146684603F07EFA25
:102DB000099907EB0900498F401A00F1010909A898
:102DC00000E054E003F072FAB9F1000F2ADD09F1D6
:102DD0001009304603F0DCF90490D0F834B0408F8D
:102DE00000EB090A04A803F061FA5146584603F0C3
:102DF000E5F95FEA00093AD0BBF1000F07D103F013
:102E0000C7F9009080F80080684603F04FFA30461A
:102E100003F0BEF90490A0F83AA0C0F8349004A8DA
:102E200003F044FA204603F0B3F90390466B03A87D
:102E300003F03CFA304603F0ABF906460C900D99CE
:102E400007F0FCF806443046FDF75EFA421CF01924
:102E50003146FDF71BFA3046079907F087F80CA8B2
:102E600003F024FA0521204613F06FFBE2E620462A
:102E700013F069FA07F012FA11B0BDE8F08F70B5DF
:102E80004468054682B0204614F062FD0646294695
:102E9000204611F025FC002804BF02B070BD286850
:102EA0000E2844D004DA0B2836D00C2852D116E074
:102EB0000F282BD0A0F5807013384BD1204613F08B
:102EC00083FC002120461DF069FC204603F060F9D8
:102ED0000190C06F002113F00EFC01A824E0E86807
:102EE00078B1017A41B10168204600F035F901213D
:102EF000204613F02AFB2DE00221204613F025FB8B
:102F000028E00321204613F020FB23E00121204686
:102F10001DF044FC02B070BD204603F039F900906A
:102F2000343003F037F8684603F0C0F912E08EB190
:102F3000E868416800290DDD0168092918BF0A29E0
:102F400008D00D2918BF1B2904D02046FFF7AAFD81
:102F500002B070BD284612F035FA02B070BD2DE9FE
:102F6000F04186B00DF13008B8E8F0104FF00008DD
:102F7000CDF814808DE8F01000F004F806B0BDE83C
:102F8000F08100002DE9FF4F85B09846DDE9165429
:102F9000DDE9126B91468A46159F05F029F804F188
:102FA000580231494BF48050CDE90212CDE900605E
:102FB00043464A465146059812F04AF904004CD05F
:102FC00003F0E6F810223946019011F0E1FEDFF837
:102FD0009CC001999CE8CD1101F16009A9E8CD11CF
:102FE000012081F85500681C18BF012081F880007D
:102FF000002DD8BF082528B2088700254D87461C1C
:1030000001A84D6303F052F9204603F0C1F8009087
:10301000D0F83480408F8719684603F047F9394665
:10302000404603F0CBF8060013D0B8F1000F06D1EC
:1030300003F0AEF80290057002A803F037F92046BD
:1030400003F0A6F8009047874663684603F02EF920
:1030500003E0204612F0F0F9002407F01FF909B050
:103060002046BDE8F08F00007F2E0008C009002038
:10307000002808BF7047F8B515460E46044604F010
:10308000B7FF7DB1002332461946204612F0B0F852
:103090000546204603F07CF80090C567684603F0BB
:1030A00005F90FE0204603F073F80090C06F12F0AE
:1030B000ACF900990020C867204613F044F968462F
:1030C00003F0F4F807F0EAF8F8BD00000148806862
:1030D00070470000C009002038B505004FF000041B
:1030E0000BD004F085FF284603F052F80090846C62
:1030F000684603F0DBF807F0D1F8204638BD002819
:1031000008BF7047F8B516460C46054604F070FF38
:10311000284603F03DF8009038B1022C05D200EBB0
:1031200084004667284613F00EF9684603F0BEF89F
:1031300007F0B4F8F8BD70B50D46044604F058FF2A
:1031400034B12946204600F0BBF9204613F0FBF8C5
:10315000BDE8704007F0A2B8002808BF70472DE90D
:10316000F04186B00C46074604F042FF384603F0B3
:103170000FF80090406B002849D003F009F8039045
:103180000098806E06F078FC8046384612F094FD78
:103190000646039804F01AFE0546009890F8601061
:1031A00001F00301012918D002290FD0416EC06A35
:1031B00000680844201A441E039808F079FC002C8B
:1031C00011DA0021384600F07BF917E0701B401C33
:1031D00000EBD070A4EB6004EEE7406E711B081AA0
:1031E000201A441CE8E7A54204DB02462146039866
:1031F00008F0E8FB0146384600F062F903A803F046
:1032000055F8404606F038FC384613F09CF86846FE
:1032100003F04CF807F042F806B0BDE8F08100007A
:103220002DE9F8431D46DDE908681446894607463E
:1032300004F0DEFE002F5ED0384602F0A9FF3049D0
:10324000009081652F49C1650021C0E91291C0E954
:103250000F4580F8446080F85680012180F85410B2
:1032600090F88080684603F021F8B8F1000F29D06B
:10327000002DBABF02206D420120234B0A2D07DB2F
:1032800083FB05218A10401CA2EBE1750A2DF7DAB9
:10329000002CBABF0221644201210A2C08DB83FB07
:1032A00004C24FEAA20C491CACEBE2740A2CF6DA19
:1032B000002E1CBF491C401C8842C8BF014638462E
:1032C00000F03DF838461FF039FA384602F060FF4A
:1032D000009000F0E0F80D490978884205D1009887
:1032E000C06C411C384600F0EBF8684602F0DEFF87
:1032F000384613F028F806F0D1FFBDE8F883000047
:103300004D8001083D270208676666661C030020A1
:10331000002808BF704738B50D46044604F068FE23
:10332000204602F035FF009018B18566204613F064
:103330000AF8684602F0BAFF06F0B0FF38BD002870
:1033400008BF70472DE9F04385B00C46054604F0F0
:103350004FFE284602F01CFF0090B0F93810468F4F
:103360004FF00008A14245D012DD406B80B102F061
:103370000FFF019008F09CFBA04206DD214601985A
:1033800006F05CFE019901F8008001A802F08EFFB2
:10339000684602F08BFFA01B461C284602F0F8FE90
:1033A0000290D0F83490408F871902A802F07EFF77
:1033B0003946484602F002FF060013D0B9F1000F6B
:1033C00007D102F0E5FE039080F8008003A802F028
:1033D0006DFF284602F0DCFE02904787466302A894
:1033E00002F064FF284602F0D3FE009004872846CE
:1033F00012F0A9FF684602F059FF06F04FFF05B032
:10340000BDE8F083002808BF7047F8B516460C46A3
:10341000054604F0EDFD284602F0BAFE009038B1F2
:10342000022C05D200EB8400C666284612F08BFF02
:10343000684602F03BFF06F031FFF8BD38B50500E5
:103440000C4608BF38BD04F0D3FD284602F0A0FEAC
:103450000090C16BA142C8BF0C46016CA142B8BF2D
:103460000C46816CA14210D08464C16D00291CBF40
:1034700028468847284612F066FF684602F016FF85
:103480000521284613F061F802E0684602F00EFFBD
:1034900006F004FF38BD38B50546406B002468B11E
:1034A00002F076FE00900446E96C06F0C7FD204469
:1034B00006F06EFD0446684602F0F8FE204638BD70
:1034C00010B582B00C4602F063FE0090406BF8B17C
:1034D00002F05EFE019008F0EBFA009991F854209A
:1034E000002A18BF0122002CB8BF00248442C8BFA4
:1034F0000446B1F93800801AA042B8BF0446C86C2F
:10350000A04218BFCC640020086501A802F0CEFEDE
:10351000684602F0CBFE02B010BD7047014908605A
:1035200070470000143C014082790168002A35D0C0
:103530001F4A136823EA01011160111D0A6803681C
:103540009A430A60017901F1804101F59E310A68D0
:1035500003681A430A6017490A6803689A430A60B5
:103560000B1D1A68D0F800C022EA0C021A604279DA
:10357000102A08D002F1804202F59E3211680068DC
:103580000843106070470A68D0F800C042EA0C0295
:103590000A6019680068084318607047007900F1F4
:1035A000804000F59E30026822EA01010160704708
:1035B000003C0140083C014010B522F0F7FB074CED
:1035C0002168884218BF10BD22F004FCA168401A8F
:1035D000E06021690844206110BD0000C80000209F
:1035E00000234FF02042102808BF506E0CD0B0F5D9
:1035F000807F08BFD2F8840006D0B0F5805F0CBF92
:10360000D2F8A400D2F8580131EA000008BF012323
:1036100018467047D0E90012114382686FF01F030B
:10362000C06803EB421242EA4020084301490860A7
:1036300070470000500100A0F0B4D0E9011211431E
:10364000D0E903231A4311434269C46911438269D3
:10365000D0F820C011432143436A41EA0C010568B8
:1036600041EA03024FF02041002D08BFC1F840217C
:103670000AD044EA0C0C4CEA0303C1F84031036859
:1036800001EB8303C3F840216FF00F031D030268B1
:103690006FF0FF0C1C042AB3826A16685768761E06
:1036A00003EB0713334396680CEB062C43EA0C0339
:1036B000B2F810C005EB0C4C43EA0C03D2F80CC076
:1036C000928A4FEA0C3CACF5805C04EB02524CEA67
:1036D0000202C1F84821006801EB8000C0F84831BF
:1036E000F0BC7047806A02684668521E03EB0613FE
:1036F0001A4383680CEB03231A43DFF830C0C36816
:103700000CEB03331A43038A05EB03431A43838A02
:10371000007E04EB03531A434FF07F4303EB00603A
:103720001043C1F84801F0BC7047000000F0FFFFF3
:1037300002490A6842EA400008607047540100A04C
:103740002DE9F04389B0984615460F4606004FF024
:10375000000423D000F0D5FA0446304600F0B8FA51
:10376000814604F045FC03A9304600F009FC17F03F
:10377000010F17D0BDF91C00001B401B401C82210B
:103780000096CDE9018123461A464946FDF7D0F857
:1037900004460021FDF7F8FA06F080FD09B0204646
:1037A000BDE8F083BDF9180017F0020F284414BFDC
:1037B00040F202210221E3E710B50523FFF7C0FF25
:1037C0000446054A0021FDF7FDFA0449204613F09E
:1037D00064F8204610BD0000C59C0108B52F020802
:1037E0002DE9F047446805468EB04FF000082046AA
:1037F00002F0CEFC0090B0F87C90D0F868A0D0F831
:103800008070D0F88860C06D002818BFD0F80080A4
:10381000684602F04BFD56B171682846884700287B
:103820001CBF0EB0BDE8F0873668002EF4D12868C2
:1038300014287DD00ADCA0F10B00072880F06581F8
:10384000DFE800F0FD47FCFB40FB1900202800F0FA
:1038500015810ADA172802BFC5F80CA00EB0BDE822
:10386000F0871E2840F0518199E0262878D02A2838
:1038700040F04B8118E02046EE6802F089FC019090
:10388000717A002904BF317A012940F00F81B0F824
:103890007C1041F48071A0F87C1000F007B900BFE3
:1038A00002F004FD00F031B9204602F071FC0090F6
:1038B000E968002912BFC0F88410D0F88400E860DD
:1038C000684648E0B8F1000F1CBF2046C04700F032
:1038D0001CB927462046EE6802F05AFC0290B0F868
:1038E0007C4002A802F0E2FCE868002804BF0EB0A9
:1038F000BDE8F087307A18B314F0080F04BF3846DB
:1039000013F090F8384611F01FFC14F0100F12BF9E
:1039100014F4807F0EB0BDE8F08714F0800F1CBF58
:103920000EB0BDE8F08700237E48B0F9002000E02B
:1039300017E03146384612F0F1FF0EB0BDE8F087CF
:10394000384602F025FC0290B0F87C1021F480711A
:10395000A0F87C1002A802F0A9FC0EB0BDE8F08728
:103960000BE005A9204600F00BFBDDE90612E86834
:10397000016042600EB0BDE8F087E86802281CBF15
:103980000EB0BDE8F0870C94E8680D9027200A90EF
:103990000AA9A86814F0D6F90EB0BDE8F087E86867
:1039A00001281ED0002C04BF0EB0BDE8F08704F043
:1039B0001FFB204602F0ECFB0190B0F87C1011F0E8
:1039C000080F06D021F00801A0F87C10204612F064
:1039D000BAFC01A802F06AFC06F060FC0EB0BDE87B
:1039E000F087384612F016FD58B1384613F01AF831
:1039F000384612F0A5FB88B10121384610F031FF9E
:103A00000CE0504613F062F80746204602F0C0FB77
:103A10000090C0F88070684602F048FCD4B104F011
:103A2000E7FA204602F0B4FB0290B0F87C1011F0E7
:103A3000080F0AD141F0080102E057E011E05BE015
:103A4000A0F87C10204612F07EFC02A802F02EFCAA
:103A500006F024FC002F04BF0020E8600EB0BDE893
:103A6000F08719F0080F50D1E868C068F0B3007A09
:103A700000281CBF204612F0D5FF46E0EE68AEB32A
:103A80002146706813F03CFF90B12646204602F0B4
:103A90007FFB0190B0F87C1011F0080F06D141F0C7
:103AA0000801A0F87C10304612F04DFC01A8F7E6A2
:103AB0002746204602F06CFB0490B0F87C1011F011
:103AC000080F06D021F00801A0F87C10384612F04B
:103AD0003AFC04A802F0EAFB2146306813F0FCFE31
:103AE00020B1204602F054FB039000E00DE0316865
:103AF000C0F8801003A8D3E6204602F049FB0090EE
:103B0000703002F047FA6846CAE62946204610F0AF
:103B1000E7FD00281CBF284611F054FC0EB0BDE89C
:103B2000F0870000B80500202DE9F04387B00DF1C3
:103B30003809B9E8F0114FF00009CDF818908DE878
:103B4000F01100F027F807B0BDE8F08370B588B039
:103B5000B0F908400DF10C0E0C9ED0F818C0456865
:103B6000AEE87010B0F812C00024CDE90014CDF812
:103B700008C0B0F90C10B0F91040B0F90EC0B0F99F
:103B80000A00194410442346624600F003F808B0C6
:103B900070BD00002DE9FF4F8BB09946DDE9186537
:103BA000DDE91B8792468B461E9C04F021FA04F146
:103BB0006000444945F48055CDE90210CDE9006527
:103BC0004B46524659460B9811F042FB040073D005
:103BD00002F0DEFA30224146049011F0D9F83A4E54
:103BE000049A06F1080102F1340E91E80B1FAEE8C9
:103BF0000B1FD6E90A01C2E915011D9850661A98F3
:103C0000A2F87C004FF00008C2F88080C2F86C80F7
:103C1000C2F888807068D06504A802F047FB05A947
:103C2000204600F0ADF9294841F28271CDF80C80B0
:103C30000094CDE90110BDF91E00BDF91A10BDF9BF
:103C40001C20401A431CBDF91800121A521C11F016
:103C5000FFFA80467068416820468847204602F097
:103C600097FA0490C0F8688004A802F01FFB42F2A3
:103C70000400054204BF204611F0AAFC04F0B8F984
:103C8000204602F085FA0090006F0190684602F02D
:103C90000DFB394601A808F0EBF858B1204602F0B8
:103CA00077FA009001990167684602F0FFFA204612
:103CB00012F049FB06F0F2FA06F0F0FA0FB02046D7
:103CC000BDE8F08FE1370008B8050020B3420008D6
:103CD00038B505004FF0000411D004F089F92846EA
:103CE00002F056FA0090C06D0021806802682846F4
:103CF00090470446684602F0D9FA06F0CFFA20460B
:103D000038BD30B587B005004FF0000414D004F082
:103D10006FF901A9284600F033F9284602F038FA75
:103D20000090B0F95440684602F0C0FA002C08BF79
:103D3000BDF9044006F0B2FA07B0204630BD30B5F8
:103D400004468BB0006802F023FA009090F87C10D3
:103D5000006F246AC1F3C005002818BF02F018FAEA
:103D600006902169E068CDE90201A088401EADF807
:103D70001000E089ADF812002089401CADF8140055
:103D8000608AADF81600BDF80800401CADF80800C8
:103D9000BDF80A00401CADF80A00BDF80C00401E3A
:103DA000ADF80C000098406B05F066FE009808AA7C
:103DB00002A9B0F95A30069806F020FB009800EBF3
:103DC0008500806B0AF0B0FC009800EB8500006C69
:103DD0000AF0E4FC08AB02AA04A9069810F0F4FE6D
:103DE000684602F063FA069800281CBF06A802F095
:103DF0005DFA00200BB030BD002808BF7047F8B551
:103E000015460C46064604F0F3F8304602F0C0F9B9
:103E10000090022C05D200EB84008563304612F03E
:103E200092FA684602F042FA06F038FAF8BD002825
:103E300008BF704738B50C46054604F0D9F8284647
:103E400002F0A6F90090816CA14203D08464806ED8
:103E500012F079FA684602F029FA06F01FFA38BD26
:103E60002DE9F04182B00E46054604F0C1F8002D60
:103E700029D0284602F08CF90190C16D8C6800F0C1
:103E800029F907460198466301A802F00FFA226853
:103E90000121284690470646236803212846984773
:103EA000804622680021284690470446284600F0B4
:103EB000C5F94346324639462846009400F040F999
:103EC000284612F040FA06F0E9F902B0BDE8F081A8
:103ED00038B50C46054604F08BF855B1284602F07B
:103EE00057F900900466684602F0E0F9284612F09F
:103EF0002AFABDE8384006F0D1B9002808BF70475B
:103F000030B583B00D46044604F072F8204602F046
:103F10003FF90090006F0190684602F0C7F929460A
:103F200001A807F0A5FF58B1204602F031F9009032
:103F300001990167684602F0B9F9204612F003FAC8
:103F400006F0ACF903B030BD002808BF704738B5A3
:103F50000C46054604F04CF8284602F019F900908A
:103F6000B0F95A10A14204D0A0F85A40284612F0E5
:103F7000EAF9684602F09AF906F090F938BD0000B7
:103F80002DE9F04F00278DB00C468146BA4602F06D
:103F9000FFF80190C06D0121856848462A68904766
:103FA00080462A6803214846904707902A680221E4
:103FB0004846904706902A680021484690470646A2
:103FC000019813F0F7FA0590019813F0FAFA834676
:103FD000019890F8321001F02001002918BFB0F9C3
:103FE00058A04FF0000506D0B0F954501DB9406BF1
:103FF00003F025FF851C0198C06E10B111F074FE0E
:10400000074625806780A4F8048007990598401A20
:1040100006EB0A01401E294420813944E1800699BB
:10402000ABEB0101491E6181A4F80C80208270195C
:10403000E681401E608201A802F038F9B4F90C70E4
:10404000B4F910604D46484602F0A2F80690C16DE2
:10405000D0F8008006A8D1F8089002F027F9D9F826
:1040600000200021284690478146284611F072FC26
:1040700005001CBF4FEA284A0FFA88F825D000BF78
:1040800002F086F80790B0F90230B0F90010B0F9EC
:104090000420A3EB0A03A1EB0801A2EB08024B45A5
:1040A0000BD190F8280010F0800F03D08E42A8BFEB
:1040B0004E1E02E09742D8BF571C07A802F0F6F840
:1040C000284611F006FD0500DAD1A78126820DB041
:1040D000BDE8F08F10B50146002091F8322012F0B3
:1040E000200F08BF10BDB1F95400002818BF10BD43
:1040F000486B03F0A4FE801C10BD70B58AB00E465C
:10410000044602F045F80990C06D856809A802F0E0
:10411000CDF80094002E08BF18200BD0012E08BF48
:10412000162007D0022E08BF152003D0032E08BF8B
:10413000172000D101906968684688470AB070BDB1
:104140002DE9FF4F85B0994690460E46DDF848B000
:10415000059802F01DF80390C16D8D68FFF7BAFF56
:10416000044603A802F0A2F82A68012105989047A6
:1041700002902A6803210598904701902A6800213F
:10418000059890478246B44204BF0298404506D144
:104190000198484502BFDA4509B0BDE8F08FA41B7D
:1041A00000273E46059811F0D5FB050004BF09B075
:1041B000BDE8F08F0198AAEB0B0AA9EB0009029861
:1041C000A0EB0808284601F0E3FF0090806A10F099
:1041D000800F03D010F4007F06D024E010F4007F9D
:1041E00021D010F0800F1ED124B12246114628465E
:1041F00012F000FA009890F8280010F0800F06D016
:1042000004FB1691761C5246284612F08FF900984E
:10421000008D10F4007F06D004FB07817F1C5246FE
:10422000284612F083F9684602F040F8284611F05B
:1042300050FC0500C6D109B0BDE8F08F70B586B05E
:10424000064601F0A5FF0590D0E91A4505A802F041
:104250002DF854EA050004BF06B070BD694630462B
:10426000FFF78EFEACB1BDF90620BDF90410204663
:1042700012F00EF9BDF90A00BDF90610401A421CF1
:10428000BDF90800BDF90410401A411C204612F087
:104290002BFD002D04BF06B070BDBDF90600BDF9B1
:1042A0000210421ABDF90410284612F0F1F806B0C7
:1042B00070BD2DE9F0430446406887B0054611F013
:1042C0003DFC814601F064FF0090D0F88080876C4F
:1042D000466E684601F0EAFF2068172865D008DCC2
:1042E0000E2853D00F280FD0142818BF15285CD0E3
:1042F00055E01E2822D01F2841D0222808BFE760A1
:104300004DD107B0BDE8F0836FF07040874204D014
:1043100038460AF009FA02F0BFF9002E04BF07B0D0
:10432000BDE8F083D4E902122068CDE90205CDE9A9
:10433000041202A8B04707B0BDE8F083E068002887
:1043400004BF07B0BDE8F083B8F1000F18BFA8455F
:1043500005D0404612F066FB07B0BDE8F083284662
:1043600012F0B4FB0446484601F012FF0090C0F87A
:104370008040684601F09AFF07B0BDE8F08321460F
:10438000484610F0ADF907B0BDE8F083E068416839
:10439000002904DD006809281DD00A280BD0002E52
:1043A0001CBF2046C4F80490C4D1204611F00AF87E
:1043B00007B0BDE8F083284612F0D4FB0446484617
:1043C00001F0E6FE0090C0F88040684601F06EFF04
:1043D00007B0BDE8F083284612F078FB0446484653
:1043E00001F0D6FE0090C0F88040684601F05EFF04
:1043F00007B0BDE8F083000010B53749002020F079
:10440000ADFB10B13549002008700B2020F01AFCDC
:10441000334C20600B2020F015FC60600B2020F056
:1044200011FCA0600B2020F00DFCE0600B2020F0C0
:1044300009FC20610B2020F005FC60610B2020F0BE
:1044400001FCA0610B2020F0FDFBE0610B2020F0BF
:10445000F9FB20620B2020F0F5FB60620B2020F0BE
:10446000F1FBA0620B2020F0EDFBE0620B2020F0BE
:10447000E9FB20630B2020F0E5FB60630B2020F0BC
:10448000E1FBA0630B2020F0DDFBE0630B2020F0BC
:10449000D9FB20640B2020F0D5FB60640B2020F0BA
:1044A000D1FBA0640B2020F0CDFBE0640B2020F0BA
:1044B000C9FB20650B2020F0C5FB60650B2020F0B8
:1044C000C1FBA0650B2020F0BDFBE0650B2020F0B8
:1044D000B9FB206610BD00003813002090000020BA
:1044E000701500202DE9F04782B00024514D009452
:1044F0004FF0080A019410204FF04009C5F800A0C1
:10450000C5E901098701C5E90347884626462846CB
:104510000DF006FF1020FDF797FC00281CBF02B02D
:10452000BDE8F08744480089000428603720C5E9C9
:1045300001094048C5E903670DF0F2FE3720FDF799
:1045400083FC00281CBF02B0BDE8F0874FF0FF31AC
:104550003A48C0E9001A302181600221C0E90316FF
:10456000012141610DF070FE3320C5F80890C5E9C6
:104570000060C5E903672F480DF0D2FE3320FDF738
:1045800063FC07001CBF02B0BDE8F0872C4E30680A
:1045900040F22A65284208BFE9460CD14FF40010CA
:1045A0000DF07CFE20B10DF0B5FE49F82400641C2E
:1045B00030682842F2D008200DF070FE30B108209B
:1045C0000DF036FE02B00420BDE8F08702200DF0A9
:1045D00065FE30B102200DF02BFE02B00220BDE8D6
:1045E000F08720200DF05AFE30B120200DF020FE83
:1045F00002B00620BDE8F0874FF400700DF04EFECB
:1046000038B14FF400700DF013FE02B00720BDE882
:10461000F08740F2FF500DF00BFE009800BAC8F88A
:104620000400019800BAC8F8000002B03846BDE89E
:10463000F0870000F8500220080200200C510220F0
:10464000342C01400148406880B27047C800002007
:104650002DE9F84F0F46DDF828900646941BA3EB92
:104660000708D9F800504FF0000A54EA080063D058
:10467000002CD4BF60422046B8F1000FCCBF4146A9
:10468000C8F1000188420ADA204644468046304696
:104690003E46074610461A4603464FF0010A002CD4
:1046A000CCBF20466042A04208BF012008D030465F
:1046B000164602466442C8F100081F464FF0FF301C
:1046C0000090C448C449B8F1000FD0F800C01CBF26
:1046D00004EBD4724FEA620BB8BFCBF1000B30D0C1
:1046E0009CF81A20002A00F0FA80009A002ABCBF29
:1046F0002A19C9F800200025002CC0F2458100BF0E
:1047000008FB05B090FBF4F0C219D9F8001000982E
:104710000844B049C9F8000009688B7E012B00F0FD
:104720000081022B00F00781032B00F00D81042B88
:1047300040F01B8100F038B93046BDE8F84F00F07A
:1047400085BABAF1000F62D09CF81AC0BCF1000F14
:1047500014D04FF00008002CA4BF8A46834640DBEB
:10476000DBF8001028466D1C8A7E012A0CD0022A34
:1047700014D0032A1BD0042A28D134E0314638460D
:10478000BDE8F84F09F076BA801DC21700EB12722F
:1047900022F00F02801A0C281FDB17E0C21700EB73
:1047A000927222F00302801A022816DB0EE08AFBC6
:1047B0000032D310A3EBE272524202EB820200EB12
:1047C00082000C2809DB1038022806D3C96E06EBDC
:1047D00008004A6801463846904708F10108A0459C
:1047E000BEDD681EDCE07D4A82FB00329310A3EB45
:1047F000E272A2EB820200EBC2000C28EDDBA0F11A
:104800001002022A24BF14380228E6D3DEE79CF8FF
:104810001A80B8F1000F14D04FF00008002CA4BF8C
:104820008A46834642DBDBF8001028466D1C8A7EF0
:10483000012A0FD0022A17D0032A1ED0042A2BD116
:1048400039E0DCF86C003946036801B03046BDE859
:10485000F04F1847801DC21700EB127222F00F02B2
:10486000801A0C281EDB17E0C21700EB927222F0B0
:104870000302801A022815DB0EE08AFB0032D310F7
:10488000A3EBE272524202EB820200EB82000C28A0
:1048900008DB1038022805D3C96E06EB08004A6809
:1048A0003946904708F10108A045BCDD681EC9F8EB
:1048B0000000BDE8F88F494A82FB00329310A3EB59
:1048C000E272A2EB820200EBC2000C28EADBA0F14C
:1048D0001002022A24BF14380228E3D3DCE70025A3
:1048E000002CACBF8146BDE8F88F00BF08FB05B0C7
:1048F00090FBF4F03844BAF1000F0AD0D9F8002048
:104900007119D26E526890476D1CA542EEDDBDE86C
:10491000F88FD9F800107319C96E4A680146184615
:10492000F1E7801DC31700EB137323F00F03C01AC8
:104930000C2825DB19E0C31700EB937323F0030366
:10494000C01A02281CDB10E0234B83FB00C34FEA94
:10495000E30CACEBE3735B4203EB830300EB8300FC
:104960000C280DDB103802280AD3C96EBAF1000FEB
:1049700006EB05004B680EBF1146014610469847EE
:104980006D1CA5427FF7BCAE0098002804DAD9F868
:1049900000002044C9F80000D9F800100098081A57
:1049A000C9F80000BDE8F88F0C4B83FB00C34FEA49
:1049B000A30CACEBE373A3EB830300EBC3000C2865
:1049C000DEDBA0F11003022B24BF14380228D7D35A
:1049D000CBE700002803002067666666ABAAAA2A18
:1049E0002DE9F047DFF85892804684B0D9F80000EE
:1049F0000F460C99007E1D461646012800F0C78020
:104A0000A8EB060C7C1B5CEA040104BF04B0BDE803
:104A1000F087421E0021BCF1000FBCBF0121CCF188
:104A2000000C002CBCBF41F002016442644504DD6F
:104A300020466446844641F00401A0020CEBDC737E
:104A400000EB630090FBFCF080107E4C4FEA201CD2
:104A500000F00F0034F81C30C0F1100013FB00F31D
:104A6000102807D004EB4C0CC0F11000BCF902C0B8
:104A70000CFB003303F10800C31700EB13700011A7
:104A800011F0040F18BFC0F5806011F0010F18BFBE
:104A9000C0F5006011F0020F18BFC0F5805000F59E
:104AA000806100F500600024C0F30B00B0F5006FDA
:104AB000C4BFA0F500600124B0F5806FC8BFC0F589
:104AC00000604FEAA01A604B00F03F00C0F1400CBC
:104AD00033F81A00BCF1400F00FB0CF007D003EBD9
:104AE0004A0ACCF1400CBAF802A00AFB0C002030B4
:104AF0008009002C18BF404200FB02FC0024C1F3D7
:104B00000B00B0F5006FC4BFA0F500600124B0F544
:104B1000806FC8BFC0F500604FEAA01A00F03F00E8
:104B200033F81A10C0F140004143402806D003EB8F
:104B30004A03C0F140005B8803FB001101F1200033
:104B40008009002C18BF404200FB02F1BCF1000FAD
:104B5000B4BFCCF500700CF500704FEAA020B8BFD0
:104B600040420029BDBFC1F500718912C1F1000C9E
:104B700001F50071A8BF4FEAA12C00280FDD411CF0
:104B800001EBD171491000EBD07040100EE00091A4
:104B900039464046FFF75CFD04B0BDE8F08700EB06
:104BA000D071401E491000EBD0704010BCF1000FD6
:104BB000C6BF0CF1010202EBD2720CEBDC724FEAC1
:104BC0006202CEBF0CEBDC73ACF1010303EBD373D9
:104BD0005B1008EB010CADF800C007EB020CADF860
:104BE00002C0A8EB000C301AADF80800E81AADF8C6
:104BF0000A007018ADF804C0ADF80C00A7EB030C68
:104C0000A818ADF80E000023ADF806C01A4604211E
:104C1000684600F08DF8D9F8002040463946527EAB
:104C2000002A08BF00F012F83046D9F800202946C3
:104C3000527E002A08BF00F009F804B0BDE8F087F2
:104C4000280300202A1E0908081E0908064A1368BE
:104C50001A7E012A05D0521E02EBD272521000F0C9
:104C600005B8DA6E52681047280300202DE9F84F86
:104C700006460F4640F2C32050434FF47A7190FB32
:104C8000F1F000F1010902FB02F002EBD271DFF852
:104C90009C8000EB610A1446B118D8F80020301B44
:104CA000D26E13680A46394698470125B9F1010FBB
:104CB000B8BFBDE8F88F00BF05FB05F004FB04009A
:104CC000504519DD4C4516DD70190090D8F80030BC
:104CD000421EA6EB050BDB6E39190BF101001B68B8
:104CE0009847D8F800300098DB6E421E391B1B68CD
:104CF0000BF101009847641E30190090D8F80000AD
:104D0000A6EB040B7919C06E009A036858469847C1
:104D1000D8F80000791B009AC06E0368584698477F
:104D20006D1CA945C8DABDE8F88F000028030020F3
:104D30002DE9FF4F83B0074640F6FF74C4F1000031
:104D400090460E1E0090C4BFB91C32460CDD00BF59
:104D5000B1F900008442C8BF0446009B8342B8BF3B
:104D60000090091D521EF3D187490868406970B14F
:104D7000B0F90630069A9A1A009B9A42B8BF009280
:104D8000B0F902200698101AA042C8BF0446009845
:104D90008442D2BFA6F1010907B0BDE8F08F002020
:104DA0007A490546002E0860C4BF069804EB000A45
:104DB0007EDD4D45B4BF691C002107EB850207EB82
:104DC000810CB2F90200BCF90230A04256D1A342D4
:104DD00014D137F9211037F9250001EB08036A498E
:104DE000404498420968C96ED1F800C0B4BF1A4661
:104DF00002465146A8BF1846E04787E000222946F0
:104E0000B9F1000F0CDD002914BF491E711E07EB1C
:104E10008100B0F90200A04203D1521C4A45F2DBE6
:104E20002046A04272D037F92510A0EB0400A3EB76
:104E30000402504009D401EB0800534902460968B6
:104E4000C96E0B685146984760E0DFF840B1DBF867
:104E500000C0BCF10C0F59DABCF10000C8BF4C4ACD
:104E60004DDD00BF02EB400333F9023C8B4246DBD1
:104E700022F81030401E0028F4DC40E0A34245D068
:104E800001DBA04203DDA042A8BF9C423EDB98426A
:104E90004FDC0146A042DFBF18468442B2F9003021
:104EA000BCF9002032DC00BFA2EB030C621A00E068
:104EB00030E00CFB02F2002AA0EB010CCEBF02EBAB
:104EC0006C02A2EB6C02521C401A92FBF0F0DFF86D
:104ED000BCB0C118DBF800C0BCF10C0F16DABCF195
:104EE0000000C8BF2A4A0ADD02EB400333F9023C46
:104EF0008B4204DB22F81030401E0028F4DC244AE8
:104F000022F810100CF10100CBF800006D1CB54226
:104F1000FFF64FAF06984FF0000B204401901B485E
:104F20005D4601680029C4BF1949B1F900A022DD1E
:104F300019E01946A342E9DC8442DCBFBCF9003029
:104F4000B2F90020E2DCAFE71149BBF1000F31F903
:104F500015A008D00C4908EB0A0240440968C96E44
:104F60000B680199984709496D1C8BF0010B096882
:104F70005046A942E8DC0098641C84427FF70FAFDA
:104F800007B0BDE8F08F000028030020C80A002009
:104F900054A5022010B5002004F02EFD6FF07F40D4
:104FA00004F041FD012004F0DBFD002004F0E6FDEB
:104FB000002004F0F3FD002004F052FD04480068D6
:104FC00004F05AFDBDE81040002004F09BBD000035
:104FD000240300202DE9F001002201255FF00306E3
:104FE000D1F800C005FA02F30CEA030C9C4533D15A
:104FF00007684FEA420C06FA0CF4A74307600F79E2
:10500000D0F8008007FA0CF747EA080707600F7925
:10501000012F18BF022F14D18768A74387604F79EB
:10502000D0F8088007FA0CF747EA08078760476856
:1050300027EA0303436043688F799740BFB23B433D
:105040004360C368A343C360CB7903FA0CF3D0F881
:105050000CC043EA0C03C360521C102AC0D3BDE845
:10506000F00170474B07DB0E9A40C90800EB810046
:10507000016A4FF00F0C0CFA03F399430162016AC5
:105080001143016270470246002012690A4218BFAC
:10509000012070474183704701837047002808BF93
:1050A000704733B583B0044602F0A2FF204601F0FA
:1050B0006FF80190456E01A801F0F8F8049801F02E
:1050C00067F800908460684601F0F0F8042204A9B3
:1050D000284601F011F9204611F035F905F0DEF807
:1050E00005B030BD002808BF704733B583B0044613
:1050F00002F07EFF204601F04BF80090856E684676
:1051000001F0D4F8049801F043F80190846001A8FC
:1051100001F0CCF8042204A9284601F0EDF820465D
:1051200011F011F905F0BAF805B030BD2DE9F04FD6
:1051300004460027D4E900069FB0B0F5407F08BFC1
:105140000127214630460FF0CBFA0546002F1CBF41
:1051500030461AF0F1F8002D04BF1FB0BDE8F08F03
:105160002068052809D00B2800F003820F2809D0F9
:10517000262800F04C8200F085BA30461AF0DCF8A0
:1051800000F080BA0296E0680890304601F000F81E
:105190000F90416D1091816D1391C16D1191016E50
:1051A0000B91C06A006801901AA810F04FFB1AA971
:1051B0000F980FF050FCDDE91A01CDE906011399B3
:1051C0000198BDF81A2008441044ADF81A000B9954
:1051D0000198BDF81E200844101AADF81E00109961
:1051E0000198BDF8182008441044ADF81800119932
:1051F0000198BDF81C200844101AADF81C00DDE928
:105200000601CDE91C011CA811F0C2FD0F98406BEE
:1052100004F0F2FB01F040FA0F98D0F8942012B19C
:105220000021029890470F9C94F86C0000287DD0D4
:10523000DDE9109A04A9DDF84CB0DDF82C80029865
:1052400010F0F0FBE06ABDF9101000681E90BDF987
:105250001400D4E91176401AA0EB0900A0EB0A0073
:10526000401C1490BDF91600BDF91210401AA0EBB5
:105270000B00A0EB0800401C1290206C04F0D3FB44
:1052800002F082FD199087B394F87800E16C10F079
:10529000010F14BF0020D4F88C0038440D18BD4213
:1052A00002DBED1BBD42FCDA94F87A0004F02AFC24
:1052B0001498854219DA00BF1E9805EB09010844CD
:1052C000BDF91210BDF9162094F87A305944A2EBBA
:1052D000080223B11346024602F05EFA01E002F032
:1052E00023FB14983D448542E6DB86B3206DD4F859
:1052F00080103044451AB54202DBAD1BB542FCDAE2
:1053000094F87B0004F0FEFB129885421FDA00BF80
:10531000BDF91010BDF9160001EB090CBDF9141010
:10532000A0EB0800401BA1EB0A0200E012E094F899
:105330007B1029B103461946604602F02DFA02E0BF
:10534000614602F0FDF9129835448542E0DB199878
:1053500004F0D8FB1AA906A8019A06F03CFD06A89D
:1053600011F016FDDDF83CB0FF21DBF83800B1EBA1
:10537000106F7CD0DDE9109A139E0B9C49EA060160
:1053800041EA0A010298214371D0DBF82C100D6824
:1053900004A910F047FB10F0A9FB149010F0BAFB21
:1053A0001190BDF9100048441390BDF9120030442B
:1053B0001290BDF91400A0EB0A07BDF91600A0EB8E
:1053C0000408DBF8380004F017FBDBF83C0004F0BD
:1053D0002AFBB9F1000F1AD009EB0500421E08980C
:1053E000B0F900101498081A904210DCBDF916307C
:1053F000BDF910001B1B71195B1C01F087F9129895
:1054000008F10102411E1398401E02F08DFABEB150
:105410007019431E0898B0F902101198081A9842A2
:105420000EDCBDF91000BDF91210BDF9142001F019
:105430006DF913987A1C411E1298401E02F080F9F3
:10544000BAF1000F1BD00899BDF91420B1F904304E
:105450001499A2EB0A00401C591A88420FDCBDF9CE
:10546000163071191B1B5B1C01F050F900E01FE0A6
:10547000129808F10102411E781C02F055FABCB1E5
:10548000BDF91630181B411C0898B0F90620119878
:10549000101A81420CDCBDF91000BDF9142001F096
:1054A00035F913987A1C411E08F1010002F048F901
:1054B0000F98D0F8942012B10121029890471CA8AF
:1054C00011F066FC0F98406E00F087FF051E4FF04C
:1054D00000041BD90F982146406E00F08AFF00F0AF
:1054E00057FE049078B10668304600F051FE0590F2
:1054F00030B1026830460899904705A800F0D6FE02
:1055000004A800F0D3FE641CAC42E3D306A811F05B
:105510003FFC0F98806E00F060FF051E4FF0000406
:105520001BD90F982146806E00F063FF00F030FE1B
:10553000049078B10668304600F02AFE059030B13C
:10554000026830460899904705A800F0AFFE04A80D
:1055500000F0ACFE641CAC42E3D3002011F018FC58
:105560000F98D0F8942012B10221029890470FA80A
:1055700048E0304600F00CFE0290406E00F02DFF37
:10558000051E4FF000041ADD02982146406E00F01F
:1055900030FF00F0FDFD049070B10668304600F069
:1055A000F7FD059028B141683046884705A800F00E
:1055B0007DFE04A800F07AFE641CAC42E4DB029895
:1055C000806E00F00AFF051E4FF0000411DD029806
:1055D0002146806E00F00DFF00F0DAFD039028B147
:1055E000006800F0A3FC03A800F060FE641CAC425D
:1055F000EDDB0298406E00F0C1FE0298806E00F074
:10560000BDFE02A800F052FE1FB0BDE8F08FE068BA
:10561000052837D1304610F0EEFAA568A84215D11A
:105620006768384600F0B4FD009028460CF008FD8D
:105630000646284610F0CDF9FE281BD11EE038465C
:1056400010F081FE684600F031FE1BE0304610F09D
:10565000A0FAA568A84215D16768384600F098FD01
:10566000009028460CF0ECFC0646284610F0B1F9F4
:10567000FE2803D00098C0F88C60E0E70098C0F8DE
:105680008060DCE71FB02046BDE8F04F0FF09ABE07
:105690002DE9F04F85B08346DDE90F758A469146C6
:1056A0009846119E0E9C02F0A3FC6C201B49CDE98C
:1056B0000210CDE9004743464A46514658460FF08E
:1056C000C7FD040024D000F056FE074600F053FE4C
:1056D0008046204600F05CFD0490C0E91978002265
:1056E00031460FF055FB0E4A049992E8C91701F1B3
:1056F000340BABE8C917D2E90803D2E90AC2C1E901
:105700001503C1E917C2A1F8785004A800F0CEFD36
:1057100004F0C4FD05B02046BDE8F08F2D5100080F
:10572000E805002013B582B0044602F061FC204673
:1057300000F02EFD009060B1406A00F029FD0146A6
:105740000190022303AA009800F001F901A800F0DB
:10575000ADFD684600F0AAFD04F0A0FD04B010BD48
:105760002DE9F04383B01C4690460E46814602F078
:105770003FFC2C2000F0BAFB070023D0700000F0A3
:10578000B5FB05001CBFB8F1000F002C09D000F0DC
:10579000FFFC620041460190FAF778FD01A800F095
:1057A00085FD384600F0F4FC0949009000F10C0238
:1057B0004562A2E852020749016007494160684614
:1057C00000F074FD04F06AFD03B03846BDE8F083D4
:1057D00029E901081DFA0108D3F801082DE9F84369
:1057E0001E4614460F46804602F002FC302000F0B0
:1057F0007DFB050014D000F0CBFC0090C0E90587CC
:1058000084840A4AB7EE000AC66180ED0A0AD2E92A
:105810000012C0E9031206490160684600F046FD27
:1058200004F03CFD2846BDE8F8830000180600207F
:1058300003FB0108F8B50D4606004FF0000411D037
:1058400002F0D6FB304600F0A3FC0090C468AC42E6
:1058500003D0C560806810F076FD684600F026FD34
:1058600004F01CFD2046F8BD002808BF70472DE954
:10587000F8431C4615460F460646DDF8208002F028
:10588000B7FB304600F084FC0090C0F860804765AC
:10589000C0E91654684600F009FD304619F04CFD89
:1058A000304610F050FD04F0F9FCBDE8F883F8B57F
:1058B0000D4606004FF0000411D002F099FB30466F
:1058C00000F066FC0090446CAC4203D04564304666
:1058D00010F039FD684600F0E9FC04F0DFFC2046DA
:1058E000F8BDF8B50D4606004FF0000411D002F0E7
:1058F0007FFB304600F04CFC0090846CAC4203D03F
:105900008564304610F01FFD684600F0CFFC04F0BF
:10591000C5FC2046F8BDF8B50D4606004FF0000462
:1059200013D002F065FB304600F032FC009090F896
:105930006C40AC4204D080F86C50304610F003FD4F
:10594000684600F0B3FC04F0A9FC2046F8BD2DE940
:10595000F0410446806884B01D4617460E46002874
:1059600004BF04B0BDE8F081D4E9040188420FD13E
:10597000481E00FB05F271193046FAF787FC2069D2
:105980002A46401E05FB00603946FAF77FFC0FE00F
:1059900005FB0063401C20612A4639461846FAF789
:1059A00075FCE16821B104B02046BDE8F04108472C
:1059B000A468204600F0ECFB0290B0F85450B0F818
:1059C0005860B0F85C70B0F8608002A800F06EFC1F
:1059D0006946204610F026F8BDF8000069462844C4
:1059E000ADF80000BDF802003044ADF80200BDF88B
:1059F0000400C01BADF80400BDF80600A0EB0800D1
:105A0000ADF80600204610F035FC04B0BDE8F0818A
:105A10002DE9F04184B0044600F0BAFB0290B0F8E2
:105A20005450B0F85860B0F85C70B0F8608002A8CC
:105A300000F03CFC694620460FF0F4FFBDF8000082
:105A400069462844ADF80000BDF802003044ADF8C6
:105A50000200BDF80400C01BADF80400BDF806004C
:105A6000A0EB0800ADF80600204610F003FC04B0DF
:105A7000BDE8F081014AC2E900017047CC02002074
:105A8000014AC2E900017047D4020020014AC2E97C
:105A900000017047DC020020014AC2E900017047A2
:105AA000E4020020014AC2E900017047C40300205B
:105AB0002DE9F04F4B4989B00B68B3F922100691DC
:105AC000D3F81CC0B3F92480DCF81C40A1898142C2
:105AD0009CBFE289904205D8471A4FF0FF35D4F8B1
