:020000040800F2
:10000000E804002041380008793700087B370008F1
:100010007D3700087F3700088137000800000000A6
:10002000000000000000000000000000833700080E
:10003000853700080000000087370008893700086E
:10004000893800088D380008913800089538000874
:10005000993800089D38000891370008A138000839
:10006000A5380008A9380008AD380008B1380008E4
:10007000B5380008B9380008BD380008C138000894
:10008000C5380008C9380008CD380008D138000844
:10009000D5380008D9380008DD3800089337000843
:1000A000E1380008E5380008E9380008ED380008B4
:1000B000F1380008F5380008F9380008FD38000864
:1000C0000139000805390008093900080D39000810
:1000D0001139000815390008193900081D390008C0
:1000E000953700082139000825390008293900080A
:1000F0002D39000831390008353900083939000830
:100100003D390008413900084539000849390008DF
:100110004D3900085139000855390008593900088F
:100120005D3900086139000865390008693900083F
:100130006D390008713900087539000879390008EF
:100140007D3900088139000885390008893900089F
:100150008D3900089139000895390008993900084F
:100160009D390008A1390008A5390008A9390008FF
:10017000AD390008B1390008B5390008B9390008AF
:10018000BD390008C1390008C5390008C93900085F
:10019000CD390008D1390008D5390008D93900080F
:1001A000DD390008E1390008E539000800000000E9
:1001B000000000000000000000000000000000003F
:1001C000000000000000002000200020002000208F
:1001D000002000200000002000000000000000506F
:1001E000005000500000000000000000000000006F
:1001F000000000000000000900090012007F00124A
:10020000007F0012002400240000000000100038CD
:1002100000540050005000380014005400540038BE
:10022000001000000000803000490049004AC03240
:10023000200520092009C010000000000000000C6B
:100240000012001200140018002500230023801D56
:1002500000000000000000400040004000000000DE
:100260000000000000000000000000000000000886
:10027000001000100020002000200020002000209E
:1002800000100010000000400020002000100010AE
:1002900000100010001000100020002000000020BE
:1002A000007000200050000000000000000000006E
:1002B0000000000000000000000000080008007FAF
:1002C000000800080000000000000000000000001E
:1002D00000000000000000000000000000000020FE
:1002E00000200040000000000000000000000000AE
:1002F000007000000000000000000000000000008E
:1003000000000000000000000000000000000020CD
:10031000000000000000001000100010002000206D
:1003200000200020004000400000000000000010FD
:100330000028004400440044004400440028001009
:1003400000000000000000100030005000100010FD
:10035000001000100010001000000000000000302D
:100360000048004400040008001000200040007C09
:1003700000000000000000300048000400080010E9
:1003800000080044004800300000000000000008A1
:1003900000180018002800280048007C0008000809
:1003A000000000000000003C0020004000700048F9
:1003B0000004004400480030000000000000001865
:1003C0000024004000500068004400440028001051
:1003D000000000000000007C000400080010001075
:1003E000001000200020002000000000000000108D
:1003F00000280044002800100028004400280010B5
:100400000000000000000010002800440044002C00
:10041000001400040048003000000000000000004C
:10042000000000200000000000000000000000208C
:10043000000000000000000000000020000000009C
:10044000000000000000002000200040000000002C
:1004500000040008003000400030000800040000E4
:1004600000000000000000000000007C0000000010
:10047000007C000000000000000000000000000000
:100480000040002000180004001800200040000078
:100490000000000000000038006400440004000870
:1004A0000010001000000010000000000000800F8D
:1004B0004010A02EA0512051205120512053C04D5A
:1004C0002020401000000008001400140014002236
:1004D000003E002200410041000000000000003CFE
:1004E000002200220022003C002200220022003CC8
:1004F000000000000000000E00110021002000207C
:10050000002000210011000E000000000000003C4F
:100510000022002100210021002100210022003CB6
:10052000000000000000003E002000200020003EEF
:10053000002000200020003E000000000000003EDF
:10054000002000200020003C00200020002000208F
:10055000000000000000000E001100210020002714
:10056000002100210011000E000000000000002109
:10057000002100210021003F002100210021002155
:1005800000000000000000200020002000200020CB
:1005900000200020002000200000000000000008D3
:1005A0000008000800080008000800480048003063
:1005B000000000000000002200240028002800386D
:1005C0000028002400240022000000000000002079
:1005D0000020002000200020002000200020003EFD
:1005E0000000000000008020803180318031802AAE
:1005F000802A802A802A8024000000000000002138
:1006000000310031002900290025002300230021AA
:10061000000000000000000C001200210021002159
:10062000002100210012000C000000000000003C2E
:10063000002200220022003C002000200020002098
:10064000000000000000000C001200210021002129
:10065000002100210016000D000100000000003EF6
:10066000002100210021003E0024002200218020E2
:10067000000000000000001C002200220020001CDE
:10068000000200220022001C000000000000003ECA
:10069000000800080008000800080008000800081A
:1006A00000000000000000210021002100210021A5
:1006B000002100210012000C000000000000004199
:1006C000004100220022002200140014001400083F
:1006D0000000000000004044404A402A802A802A4E
:1006E000802A802A802A00110000000000000041BA
:1006F000002200140014000800140014002200411D
:100700000000000000000041002200220014000848
:100710000008000800080008000000000000007E3B
:100720000002000400080010001000200040007EBD
:100730000000000000000030002000200020002009
:1007400000200020002000200020002000000040A9
:100750000040002000200020002000200010001099
:1007600000000000000000600020002000200020A9
:1007700000200020002000200020002000000010A9
:1007800000280028002800440000000000000000AD
:100790000000000000000000000000000000000059
:1007A00000000000000000000000007E004000206B
:1007B0000000000000000000000000000000000039
:1007C00000000000000000000000003800440004A9
:1007D000003C00440044003C0000000000000040D9
:1007E0000040005800640044004400440064005885
:1007F0000000000000000000000000300048004041
:1008000000400040004800300000000000000004EC
:1008100000040034004C004400440044004C003408
:100820000000000000000000000000380044004408
:10083000007C004000440038000000000000006020
:10084000004000E000400040004000400040004008
:10085000000000000000000000000034004C0044D4
:1008600000440044004C00340004004400000040F8
:100870000040005800640044004400440044004428
:100880000000000000000040000000400040004068
:100890000040004000400040000000000000004018
:1008A0000000004000400040004000400040004088
:1008B0000040004000000040004000480050006040
:1008C00000500050004800480000000000000040B8
:1008D0000040004000400040004000400040004018
:1008E000000000000000000000000052006D004900
:1008F00000490049004900490000000000000000D4
:1009000000000058006400440044004400440044D7
:100910000000000000000000000000380044004417
:1009200000440044004400380000000000000000C3
:100930000000005800640044004400440064005873
:10094000004000400000000000000034004C004463
:1009500000440044004C0034000400040000000087
:100960000000005000600040004000400040004097
:1009700000000000000000000000003000480040BF
:100980000030000800480030000000000000004077
:10099000004000E000400040004000400040006097
:1009A000000000000000000000000044004400447B
:1009B00000440044004C003400000000000000002F
:1009C00000000044004400280028002800280010EF
:1009D0000000000000000000000000490049005530
:1009E00000550055005500220000000000000000E6
:1009F00000000044002800280010002800280044BF
:100A00000000000000000000000000440044002836
:100A10000028002800100010001000100000000046
:100A2000000000780008001000200020004000783E
:100A30000000000000000010002000200020002026
:100A400000400020002000200020002000000020A6
:100A50000020002000200020002000200020002096
:100A60000020002000000040002000200020002086
:100A700000100020002000200020002000000000C6
:100A8000000000000074005800000000000000009A
:100A900000000000000000000070005000500050F6
:100AA00000500050005000700000000080B500F0C1
:100AB0006AF900F0AAF900F070F8002801D00420CB
:100AC00008E000F07DF80121012000F096F800F028
:100AD000D4F8002002BD80B5012000F0A3F8012168
:100AE000072000F0B5F80D2000F05DFA002002BDEF
:100AF000F8B5402000F057FA10F08000DFF85416E7
:100B00000880DFF85006008800282AD000F00DF990
:100B1000060000F01BF90700DFF83C060068B04251
:100B200004D2DFF834060068341A03E0DFF8280640
:100B30000068841BDFF824060068B84204D2DFF89E
:100B40001C0600683D1A03E0DFF810060068C51BAC
:100B50002819062805D3DFF800060660DFF8FC0533
:100B60000760DFF8F005DFF8F01509684180DFF86D
:100B7000E405DFF8E8150968818000F0F8F8DFF88F
:100B8000D415C88001214B2000F062F900214B20D0
:100B900000F05EF9DFF8BC05F2BD80B500F01EF88C
:100BA00040F61101884209D0DFF8A8070068002844
:100BB00002D100F09CFB02E0012000E0002002BD19
:100BC00080B50221032000F043F9022000F0C4FBAD
:100BD0000021032000F03CF9002002BD10B50024E4
:100BE000002000F0E0F904002402012000F0DBF90D
:100BF00020430400200080B210BD70B504000D0039
:100C00000026042000F0CFF90600EDB2002D01D03F
:100C1000A64300E026433100C9B2042000F018F9D1
:100C2000002070BD38B504000025092000F0BBF994
:100C30000500E4B2002C02D055F0010501E015F0EA
:100C4000FE052900C9B2092000F002F9002032BDDA
:100C500070B504000D0000260A2000F0A4F906007B
:100C6000EDB2002D01D0264300E0A6433100C9B209
:100C70000A2000F0EDF8002070BD80B501210220AF
:100C8000FFF7BBFF4921202000F0E2F8022000F02E
:100C900063FB0121212000F0DBF800211E2000F081
:100CA0002FF89A21412000F0D3F801214A2000F0CA
:100CB000CFF801214B2000F0CBF800214B2000F0B1
:100CC000C7F80121562000F0C3F80121582000F098
:100CD000BFF80321402000F0BBF8FF210B2000F0FB
:100CE000B7F80020DFF86C14C880DFF8681488803B
:100CF000DFF860144880DFF85C140880002002BD33
:100D000070B504000D000026172000F04CF9060015
:100D1000EDB2002D01D0264300E0A6433100C9B258
:100D2000172000F095F8002070BD10B54D2000F0A0
:100D300017FA0400B4F16E000C2190FBF1F4012CC1
:100D400001DA00200400200080B210BD10B54F2051
:100D500000F006FA0400B4F16E00102190FBF1F4EB
:100D6000012C01DA00200400200080B210BD10B573
:100D7000512000F0F5F90400002C01D100200400FE
:100D8000200080B210BD00B583B001215FF40010D7
:100D900000F0BFFB01214FF4817000F09CFB0121AA
:100DA0004FF4804000F0C4FB01215FF4001000F01C
:100DB000CEFB00215FF4001000F0C9FB04220621E5
:100DC000DFF8C80500F071FC04220721DFF8BC053C
:100DD00000F06BFC4020009002208DF804000220FF
:100DE0008DF8050001208DF8060000208DF8070021
:100DF00000A9DFF8980500F001FC8020009000A910
:100E0000DFF8880500F0FAFB07BD00B585B00020CB
:100E1000ADF804004BF6FF70ADF806000020ADF809
:100E200008004FF48060ADF80A004FF48040ADF840
:100E30000C00DFF85C05009000A9DFF8400500F029
:100E40008DFC0121DFF8340500F00EFD05B000BD7A
:100E500070B504000D0000260121DFF8200500F028
:100E600011FDDFF8F0044FF440510160DFF8101578
:100E7000DFF8080500F05DFD00280BD1DFF8D40491
:100E80000068411EDFF8CC2411600028EED100F08C
:100E90002EFA87E000228221DFF8E00400F00EFD48
:100EA000DFF8B0044FF440510160DFF8E814DFF8D8
:100EB000CC0400F03EFD00280BD1DFF89804006858
:100EC000411EDFF8902411600028EED100F00FFAE7
:100ED00068E0DFF8C4040088DFF878144FF440526B
:100EE0000A60DFF8A014DFF8940400F022FD002867
:100EF0000BD1DFF860040068411EDFF85824116050
:100F00000028EED100F0F3F94CE02100C9B2DFF87F
:100F10006C0400F008FDDFF83C044FF44051016020
:100F2000DFF86014DFF8540400F003FD00280BD153
:100F3000DFF820040068411EDFF818241160002843
:100F4000EED100F0D4F92DE02900C9B2DFF82C046D
:100F500000F0E9FCDFF8FC034FF440510160DFF8DA
:100F60002414DFF8180400F0E4FC002807D0DFF8B0
:100F70001814DFF8080400F0DCFC00280BD1DFF8BF
:100F8000D4030068411EDFF8CC2311600028E6D1AD
:100F900000F0ADF906E00121DFF8E00300F080FC8D
:100FA0003000C0B270BD38B5040000250121DFF863
:100FB000CC0300F067FCDFF89C034FF44051016064
:100FC000DFF8BC13DFF8B40300F0B3FC00280BD14A
:100FD000DFF880030068411EDFF8782311600028E5
:100FE000EED100F084F9B3E00021DFF8900300F0C7
:100FF00070FC00228221DFF8840300F05FFCDFF840
:1010000054034FF440510160DFF88813DFF86C039C
:1010100000F08FFC00280BD1DFF838030068411E78
:10102000DFF8302311600028EED100F060F98FE086
:10103000DFF864030088DFF81C134FF440520A60A5
:10104000DFF84013DFF8340300F073FC002809D107
:10105000C0480068411EBF4A11600028F0D100F06E
:1010600046F975E02100C9B2DFF8100300F05BFC1F
:10107000B8484FF440510160DFF80813BF4800F052
:1010800058FC002805D0C049BC4800F052FC00289C
:1010900009D1B0480068411EAE4A11600028EBD16A
:1010A00000F025F954E00121B44800F0EBFBA94819
:1010B0004FF440510160B249B04800F03AFC0028BA
:1010C00009D1A4480068411EA24A11600028F2D14B
:1010D00000F00DF93CE001228221A84800F0EEFB6F
:1010E0009C484FF440510160AA49A44800F021FCFB
:1010F000002809D197480068411E964A11600028CF
:10110000F2D100F0F4F823E0A348008891494FF4AD
:1011100040520A60A149994800F00BFC002809D10F
:101120008C480068411E8B4A11600028F2D100F003
:10113000DEF80DE00121914800F0B2FB8F4800F08D
:10114000F5FB050001218D4800F0C3FB2800C0B26B
:1011500032BD0000B8000020D0000020D4000020E4
:1011600010B582B004000020ADF8000001218348D2
:1011700000F088FB77484FF44051016080497F4878
:1011800000F0D7FB00280AD172480068411E714A5E
:1011900011600028F2D100F0AAF880B2A6E0002287
:1011A0008221764800F08AFB6A484FF44051016082
:1011B0007849724800F0BDFB00280AD165480068F4
:1011C000411E644A11600028F2D100F090F880B20C
:1011D0008CE0714800885F494FF440520A606949C9
:1011E000664800F0A6FB00280AD15A480068411E54
:1011F000584A11600028F2D100F079F880B275E009
:101200002100C9B25D4800F08EFB01215B4800F06F
:1012100039FB50484FF4405101605949574800F09C
:1012200088FB00280AD14B480068411E494A1160DA
:101230000028F2D100F05BF880B257E00122822151
:101240004E4800F03BFB43484FF440510160514988
:101250004A4800F06EFB00280AD13E480068411E53
:101260003C4A11600028F2D100F041F880B23DE024
:101270000021424800F02DFB4FF400613F4800F090
:1012800043FB4548008833494FF440520A603E49C9
:101290003A4800F04EFB00280AD12E480068411E53
:1012A0002C4A11600028F2D100F021F880B21DE034
:1012B0000121324800F0F4FA304800F037FB8DF895
:1012C00001002E4800F032FB8DF8000001212B4870
:1012D00000F0FFFA4FF2FF71284800F015FB9DF86F
:1012E00000009DF8011050EA012080B216BD00B543
:1012F00085B00121214800F0D3FA01211F4800F0F8
:10130000F6FA00211D4800F0F2FAFFF73CFD1B48F9
:1013100000F0F8F90020ADF804004BF6FF70ADF8CE
:1013200006003320ADF808004FF48060ADF80A00E5
:101330004FF48040ADF80C001548009001210F4893
:1013400000F092FA00A90D4800F008FA002005B05C
:1013500000BD00009C00002001B481B0002000907E
:1013600001980B49484300900098002803D000984A
:10137000401E0090F8E702B07047000000540040A3
:101380000100001080000010040000100004024062
:10139000A086010002000010185400404000001018
:1013A00010B40B0653EA801353EA0273DFF81842B5
:1013B000236010BC7047DFF81C12C0B20860704791
:1013C000F0B4002100220023022400250226DFF8C9
:1013D000F0713F6817F00C0739000F00002F04D0A0
:1013E000042F06D0082F08D03CE0DFF8EC7107602E
:1013F0003BE0DFF8E871076037E0DFF8C8713F686D
:10140000C7F380573D00DFF8BC713F6817F03F0716
:101410003E00002D0DD0DFF8C471B7FBF6F7DFF802
:10142000A4C1DCF800C0CCF3881C0CFB07F73B0020
:101430000CE0DFF8A471B7FBF6F7DFF888C1DCF841
:1014400000C0CCF3881C0CFB07F73B00DFF874717D
:101450003F68C7F301477F1C7F003C00B3FBF4F7F4
:10146000076002E0DFF870710760DFF854713F68D1
:1014700017F0F00739000909DFF86471CF5D3A0011
:101480000768D7404760DFF838713F6817F4E057C6
:101490003900890ADFF84871CF5D3A004768D740C4
:1014A0008760DFF81C713F6817F460473900490B0B
:1014B000DFF82C71CF5D3A004768D740C760F0BCB9
:1014C00070470021414A1268110031F44031014354
:1014D0003E4A11607047C9B2002905D0414A1268DE
:1014E0000243404B1A6004E03E4A126882433D4B7F
:1014F0001A607047C9B2002905D03B4A12680243FE
:10150000394B1A6004E0384A12688243364B1A603D
:101510007047C9B2002905D0344A12680243334BE0
:101520001A6004E0314A12688243304B1A607047F7
:10153000C9B2002905D02E4A126802432C4B1A600A
:1015400004E02B4A12688243294B1A607047C9B2E3
:10155000002905D0274A12680243264B1A6004E08E
:10156000244A12688243234B1A60704710B401006A
:10157000002200230020C9B24C09E4B22200012A53
:1015800003D10E4C2468230008E0022A03D1104C3A
:101590002468230002E0184C24682300C9B211F02B
:1015A0001F04220033FA02F4E40702D501242000CC
:1015B00001E000242000C0B210BC70470038024097
:1015C0000838024004380240883802408C38024013
:1015D00070380240700047420024F40040787D01DA
:1015E0008400002030380240383802404038024041
:1015F000443802402038024074380240F0B40022DF
:101600000023002400252A00102A4AD201259540F3
:101610002B000D681D402C009C4240D1056803261C
:101620001700FFB27F00BE40B543056005680E7924
:101630001700FFB27F00BE40354305600D79012DD4
:1016400002D00D79022D1AD1856803261700FFB24A
:101650007F00BE40B543856085684E791700FFB2B4
:101660007F00BE4035438560456801269640B543FE
:10167000456045688E799640B6B235434560C56889
:1016800003261700FFB27F00BE40B543C560C568A2
:10169000CE791700FFB27F00BE403543C560521CB3
:1016A000B2E7F0BC704741837047F0B400230024D8
:1016B000D2B211F00705EDB2AD0012FA05F52B001C
:1016C00089B2CD1010EB850589B2CE1010EB8606DD
:1016D000366A0F2711F0070C5FFA8CFC5FEA8C0C5E
:1016E00017FA0CF7BE432E6289B2CD1010EB8505B8
:1016F0002D6A1D432C0089B2CD1010EB85052C629C
:10170000F0BC704710B50400514884420AD1012151
:101710005FF40010FFF71BFF00215FF40010FFF7DC
:1017200016FF1AE04B4884420AD101215FF4800081
:10173000FFF70DFF00215FF48000FFF708FF0CE0CA
:101740004548844209D101215FF40000FFF7FFFE04
:1017500000215FF40000FFF7FAFE10BD2DE9F04311
:1017600085B004000D005FF0000900260427DFF8B3
:10177000EC80A08881464FF6C07010EA090900A8E5
:10178000FFF71EFE029880463548B8FBF0F00600D1
:1017900056EA0909A4F8049020884FF6FE71084023
:1017A00020800020814628682E4988420ED2286871
:1017B0004000B8FBF0F00700BFB2042F01DA0420AC
:1017C000070057EA0909701C208426E0E8884BF6D8
:1017D000FF71884206D1286803214843B8FBF0F026
:1017E000070007E0286819214843B8FBF0F007001C
:1017F00057F48047380501D157F0010757F40040EE
:1018000050EA0909B6B24FF4967000FB06F04FF4A7
:101810007A7190FBF1F0401C2084A4F81C90208881
:1018200050F001002080208881464FF6F53010EA04
:101830000909A8886989084350EA0909A4F80090B1
:10184000A88929890843208105B0BDE8F0830000FC
:101850000054004000580040005C004000127A0034
:1018600040420F00A1860100C9B2002904D00288BD
:1018700052F00102028004E002884FF6FE731A4023
:1018800002807047C9B2002904D0028852F48072E5
:10189000028004E002884FF6FF631A40028070471E
:1018A000C9B2002904D0028852F40072028004E018
:1018B00002884FF6FF531A4002807047D2B2002AC6
:1018C00002D051F0010101E011F0FE01C9B2018224
:1018D0007047C9B2002904D0028852F480620280A5
:1018E00004E002884FF6FF331A4002807047C9B205
:1018F000002904D0028852F40042028003E00288EA
:101900005204520C0280704789B2B1F5006F04D1C5
:10191000028852F40062028004E002884FF2FF73F2
:101920001A4002807047C9B201827047008AC0B273
:10193000704782B00200002000230193002300932F
:1019400000920B0F01930902090A019B002B03D09F
:10195000009B1433009303E0090C009B18330093A1
:10196000009B1B680B4202D00123180001E00023FA
:101970001800C0B202B070472DE9F04F80460FF258
:10198000807095B014461D46D0E90023CDE913239D
:1019900003AE00200391B0610DF1340A00E04C4425
:1019A0000020ADF8020013AB4FF0FF3221460DF1DD
:1019B000020000F0B1FB8146B9F1010F08DA20788E
:1019C000B0F1010969EB09096FEA09004FEAD07922
:1019D000BDF8020025280CBFA9F1010BCB46BBF1D5
:1019E000010F0EDB274617F8011B0398C047039031
:1019F000002800F0D981B069401CB061BBF1010B37
:101A0000F1D1BDF80200252804D10020F06030613A
:101A1000706105E00028C2D1B069C7E140F0010063
:101A200014F8011F2029F9D023290DD02B2904D027
:101A30002D2906D030290AD00CE040F0020080B2F7
:101A4000EEE740F00400FAE740F00800F7E740F066
:101A50001000F4E72A290DD129680A1D2A600968B7
:101A60003162002904D5494240F00400316280B25D
:101A7000641C13E0002131620BE0316A6FF0004317
:101A8000994205D001EB810302EB43013039316209
:101A9000641C2278A2F130010A29EED321782E2984
:101AA00003D04FF0FF31F1611EE014F8011F2A2925
:101AB00006D129680A1D2A60641C0968F16113E0D7
:101AC0000021F1610BE0F1696FF00043994205D00C
:101AD00001EB810302EB43013039F161641C227890
:101AE000A2F130010A29EED3B0840FF21C602178F4
:101AF00000F022FB08B114F8010B8DF832009DF8BC
:101B00003200682804BF2078682803D162208DF84D
:101B10003200641C0DA8B0602278252A13D0582A00
:101B20003CD0632A00F0AD80642A18BF692A70D0C7
:101B30006F2A33D0702A28D0732A09D0752A18BF8B
:101B4000782A2BD0BFE0F068411CF1602521A3E08A
:101B50009DF832006C28286813D0011D29600068A8
:101B6000F2697060002A02D500F008FB07E000214E
:101B700000F030FB00281ABF7168401AF06930612C
:101B8000ADE0011D2960026896E02868011D29600A
:101B90007821006802900DA870606EE09DF83230E8
:101BA0006C2B08BF286811D0712B08BF286802D0A1
:101BB00028686A2B0AD1C01D20F007002860014662
:101BC00001F108002860D1E9000102E0011D29604F
:101BD00000680290682B02D102A8008803E0622B03
:101BE00002D102A80078029096F8240000073FD5A1
:101BF000029800283CD042F02000782838D1F068C4
:101C0000302100F80A10401C411CF16000F80A2045
:101C10002EE09DF83200622802D0682806D00BE042
:101C20002868011D296090F9000009E02868011D5D
:101C30002960B0F9000003E02868011D29600068F0
:101C40000290002804D5F068411CF1602D210DE0C0
:101C5000B08C810704D5F068411CF1602B2105E0B0
:101C6000C00705D5F068411CF160202100F80A107A
:101C7000F0680DA940187060114602A800F0C1F983
:101C80002DE09DF832006C2809D0F068411CF1600D
:101C900029680A1D2A60096800F80A101FE02868F0
:101CA000011D296001AA0068ADF804000020ADF80C
:101CB00006004FF0FF30F06102A9404600F079F8CD
:101CC00000280CD570E0F068411CF160252100F877
:101CD0000A1022B1F068411CF16000F80A20306A55
:101CE000F168401A7169401A3169A0EB010996F850
:101CF0002400641C40070FD420208DF8000000272A
:101D000008E0012300AA02A9404600F0E1F90028FA
:101D10004AD17F1C4F45F4DBF7680DF1340B0AE024
:101D20001BF8011B0398C047039000283CD0B06902
:101D3000401CB0617F1E002FF2D130208DF80000D2
:101D40004FF0000B776908E0012300AA02A9404682
:101D500000F0BEF940BB0BF1010BBB45F4DB37696A
:101D6000D6F804B009E01BF8011B0398C0470390A4
:101D7000D0B1B069401CB0617F1E002FF3D196F83E
:101D8000240040077FF50CAE20208DF8000000E015
:101D90007F1C4F45BFF604AE012300AA02A94046AE
:101DA00000F096F90028F3D04FF0FF3015B0BDE8F1
:101DB000F08F2DE9F44F0F4694B0D7F8208083467A
:101DC000B8F1000F48BF6FF0004800F02FFA796AB1
:101DD000401801900FF23830D0E90023CDE90223FA
:101DE00097F82800400702D40198412805D24020E6
:101DF0000DF1100A0190002507E000F021FA5FEADA
:101E0000000AF8D1D0E7A8EB0908B8F1010FC0F239
:101E100083801498018802AA0DF1010000F068FA8D
:101E20008146002800F189801498008818B9B9F11A
:101E3000010900F18280C8456EDB3869019909EB20
:101E40000002914256D27D624042B969401A7969D6
:101E5000451A97F8280040070FD420208DF800007D
:101E6000002408E0012300AA3946584600F030F962
:101E7000002862D1641CAC42F4DB3B69524639460F
:101E8000584600F025F9002857D130208DF8000081
:101E90000026BC6908E0012300AA3946584600F034
:101EA00017F9002849D1761CA642F4DB7C69BE688C
:101EB0000AE016F8011B7868D847786000283CD003
:101EC000F869401CF861641E002CF2D197F82800D4
:101ED00040070DD520208DF8000007E0012300AA5F
:101EE0003946584600F0F4F838BB641CAC42F5DBC8
:101EF00000253D614A4638690DF10101504400F06A
:101F000005FA3869484438611498801C1490801E82
:101F1000008800287FF477AF786A3969401AB96978
:101F2000401A7969A0EB010897F82800400719D4F6
:101F300020208DF80000A94612E04FF0FF3558E050
:101F4000012400AE16F8011B7868D8477860002895
:101F5000F3D0F869401CF861641EF3D109F101095E
:101F6000C145EDDB3B6952463946584600F0B0F8B2
:101F70000028E2D130208DF80000A946B869019010
:101F80000FE0012400AE16F8011B7868D84778608E
:101F90000028D2D0F869401CF861641EF3D109F121
:101FA000010901988145ECDB7B69BA6839465846DE
:101FB00000F08EF80028C0D197F82800400716D509
:101FC00020208DF80000A9460FE0012400AE16F88D
:101FD000011B7868D84778600028AED0F869401CAB
:101FE000F861641EF3D109F10109C145EDDB3D61E2
:101FF0007D6204A882451CBF504600F0C3F9284604
:10200000D4E6F0B4C2686F2908BF082405D041F0B7
:102010002003782B14BF0A2410240668182337469F
:10202000642918BF692902D1002E48BF7F425FB9D9
:10203000056A4DB9082C27D190F82810090723D537
:1020400030211723D1751FE0B7FBF4F604FB167798
:1020500030375D1EFFB22B463A2FA4BFA1F1510CC1
:102060006744AF54370003D085689E18B542EBD360
:10207000082C09D190F82810090705D5995C30295A
:1020800002D05B1E30219954C3F1180141619A18A6
:102090008260026A914208DA511A81614FF6EF724A
:1020A000018D11400185F0BC7047002A0ED590F8D3
:1020B000282002F01402102A08D1426A0369D21AB9
:1020C0008369D21A531A012BA8BF8361F0BC7047F1
:1020D000F8B504460D4616461F46002004E0E869A0
:1020E000401CE8617F1E002047B116F8011B68689C
:1020F000A04768600028F2D14FF0FF30F2BD000029
:102100000000000000000000686C747A4C000000C1
:102110000000000000000000F8B504460D46164619
:102120001F4600F06FF93B4632462946204601B073
:10213000BDE8F04000F07DB90278C9B28A421AB118
:102140001CBF10F8012FF9E718BF0020704710B42A
:1021500050F8041B81B102681218001D50F8043BAE
:10216000DC0744BFA9F10104E31852F8044B43F81B
:10217000044B091FF9D1EBE710BC704700F10103D4
:10218000810704D010F8011B89B18107FAD10268D8
:10219000B2F10131914311F0803F04BF50F8042F98
:1021A000F6E710F8011B11B110F8011BFBE7C01A8C
:1021B000704750F8041B61B150F8042BD30744BF9B
:1021C000A9F101039A18002342F8043B091FFAD130
:1021D000EFE77047C9B2830706D0521E22D310F82A
:1021E000013B9942F7D11FE0083A13D302F10402F0
:1021F00041EA012141EA014150F8043B121F21BF8D
:102200004B40A3F1013C2CEA030C1CF0803FF3D0BF
:10221000C9B2001F083210F8013B521E28BF91EAD4
:10222000030FF8D818BF0120401E704780B500F09A
:10223000E9F8012002BD0268531C03601170704769
:1022400070B5054605F10F00C408E400C046C0465D
:10225000A54232D2082C04D2082402E0083000F053
:1022600091F82248026811000CD1011D0A6802B3DE
:102270001368A34238BF111DF8D310E01D68A542B2
:102280000DD2191D0B68002BF8D11268011D00E05A
:10229000191D0B6893420CD01D68A542F8D361B19B
:1022A0000D682A68A2F10803A3420AD26A680A608C
:1022B0000FE000F0E1F80028D0D1C046C046002071
:1022C00070BD63190B60121B6E685E600B681A604C
:1022D0002C60096800291DBF4A68002A091D0021D9
:1022E0000160C046C04605F1080070BDC000002076
:1022F00070B504460D46164600F084F8324629466D
:102300002046BDE8704000F087B8000062B38B073C
:1023100008D0521E11F8013B00F8013B00F0248068
:102320008B07F6D1830740F0208000BF103A07D317
:1023300030B4B1E83810103AA0E83810F9D230BC07
:10234000530724BFB1E80810A0E8081044BF51F8B3
:10235000043B40F8043BD20724BF31F8022B20F89D
:10236000022B44BF0B7803707047083A07D3B1E8DB
:102370000810083A40F8043B40F804CBF7D2530762
:10238000E4E7000000B9704710B5A0F10804206828
:10239000082833D310F0070F30D1C046C046184884
:1023A000416809B18C4203D26160446017E019466C
:1023B0004B680BB1A342FAD30A6853189C421BD353
:1023C000A34204D123689A180A600C4607E04A68C1
:1023D0001AB123681B199A420ED362604C6061687F
:1023E00051B1226813198B4206D10023036008689B
:1023F0008018206048686060C046C04610BD00007C
:10240000C000002080B5DFF80C0000F04BF88069B8
:1024100002BD00000800002030B430B90FF24800BF
:10242000D0E90045C2E900451BE00170012030BC45
:10243000704730B431B90FF23800D0E90045C3E934
:1024400000450EE01AB930BC6FF00100704708B1CA
:102450000A7802800978481E804130BCC043C00F12
:102460007047002030BC70470000000000000000F2
:1024700000000000000000000749086808B10020C3
:1024800070470648C008C00008600549C908C9006F
:10249000091A0160704700BFE0000020EF0400202F
:1024A000E80600207047000000B59FB001215FF0F2
:1024B0008060FFF73DF801215FF40000FFF70BF8A3
:1024C00000F000FA002010900020119000201290DF
:1024D0000020139000201C9000201D9000201E90D2
:1024E00003220721C020FEF75BFF5FF40030FEF7F8
:1024F000E8FF0120FEF75FFF3D20FFF737F80028D7
:10250000FAD00220149001201590082016900A207D
:1025100017904FF4CB70189040F2051019904FF4BB
:10252000CC701A9040F207101B9010A800F0CEFA61
:102530004620009040F2851001900D200290FC2072
:10254000039002200490FF200590002006900020B8
:10255000079000200890002009904FF480600A90B6
:1025600005200B9040F283200D904FF420700E90C8
:10257000F0200F905FF040400C9000A9DFF80C03B2
:1025800000F071FBDFF808030C904FF4C0600A9074
:1025900007200B9000A9DFF8FC0200F064FB01208B
:1025A00000F05DFB0121DFF8E40200F0F6FB012101
:1025B000DFF8E00200F0F1FB012000F050FBDFF853
:1025C000D80200F02BF81FB000BD01B4009800281D
:1025D00009D1DFF8C8025FF040410160DFF8C002B6
:1025E0000021016008E0DFF8B402DFF8A412016006
:1025F000DFF8AC020121016001B0704701B4DFF8DF
:10260000A402BDF80010018001B0704701B4DFF8EA
:102610009802BDF80010018001B07047DFF88C12FD
:1026200008607047DFF884020068704700210022CC
:102630001100B1F5183F06D2DFF86022126822F8C7
:102640001100491CF5E770472DE9F04100230024F3
:102650000025002680B24FF4207707FB00F73D00ED
:1026600040F23F1789B27F1ABE1900273B00DFF8FE
:102670003C723F68FF88BB4258D200273C00DFF81D
:102680002C723F68BF88BC4247D232F813705FF0AB
:10269000800CDFF818E2DEF800E0BEF804E05FF03E
:1026A0000C089EFBF8FE5FFA8EFE5FEACE0E1CFA67
:1026B0000EFC5CFA04FC17EA0C0F05D1DFF8EC7194
:1026C0003F68BF880D2F0EDB32F813705FF0010CEE
:1026D0001CFA04FC17EA0C0F11D1DFF8D0713F6827
:1026E000BF880D2F0BDBDFF8B4713F6817EB46078F
:1026F000DFF8B4C1BCF800C025F807C00AE0DFF875
:102700009C713F6817EB4607DFF898C1BCF800C022
:1027100025F807C0761C641CB1E7DFF890713F68AC
:10272000BF88D7F5A077BE195B1CA0E7BDE8F08194
:1027300070B504000D001600203EF6B2DFF86C0103
:102740000068C08800FB06F0DFF8601109680968BE
:1027500011EB4002290089B2200080B2FFF774FF1C
:1027600070BDF8B504000D0040F23F160027287830
:10277000002801D0012000E00020B6B2711C89B20F
:10278000DFF8282112689288914201DB012100E0E4
:102790000021C0B208420ED02A78310089B2200050
:1027A00080B2FFF7C5FFDFF8040100688088361AA1
:1027B0006D1C7F1CDBE7F1BD2DE9F04192B2544264
:1027C000002592B25600D6F10206DFF8D0703F68BD
:1027D00080B2B0EB040C15FA81FE4FF4A07808FB30
:1027E0000ECCDFF8C0E0BEF800E027F81CE0DFF810
:1027F000AC703F6814FA80FC15FA81FE4FF4A078A3
:1028000008FB0ECCDFF89CE0BEF800E027F81CE0E7
:10281000DFF888703F6814FA80FC89B2B1EB050ECE
:102820004FF4A07808FB0ECCDFF878E0BEF800E0AB
:1028300027F81CE0DFF864703F6880B2B0EB040C4E
:1028400089B2B1EB050E4FF4A07808FB0ECCDFF88F
:1028500054E0BEF800E027F81CE033009D420ADB9C
:102860006D1C6F007F1CBE196742AF4203D19C42B2
:1028700001DB00273B009C4203DA641C67007F1CDD
:10288000BE19012CA1DBBDE8F08100008468014085
:10289000006002C00469014094000020A0000020F4
:1028A000DC000020E4000020A4000020D80000206C
:1028B00080B50121DFF8F801FEF7F5FE012000F0F8
:1028C000B9F901BD00B583B001217F20FEF703FEF9
:1028D0000E2203217648FEF7E8FE0E2204217448FA
:1028E000FEF7E3FE0E2206217148FEF7DEFE0E2201
:1028F00008216F48FEF7D9FE0E220B216C48FEF727
:10290000D4FE0E220C216A48FEF7CFFE41F6581085
:10291000009002208DF8050002208DF804000020B0
:102920008DF8060000208DF8070000A96048FEF72A
:1029300065FE092200215F48FEF7B7FE0E2208213E
:102940005C48FEF7B2FE0E2209215A48FEF7ADFEA2
:102950000E220A215748FEF7A8FE0E220B215548E9
:10296000FEF7A3FE40F60170009000A95148FEF763
:1029700045FE0E2206215048FEF797FE0E22072143
:102980004D48FEF792FEC020009002208DF8050011
:1029900002208DF8040000208DF8060000208DF83C
:1029A000070000A94448FEF729FE0E2203214348F0
:1029B000FEF77BFE0E220A214048FEF776FE4FF41A
:1029C0008160009002208DF8050002208DF804003F
:1029D00000208DF8060000208DF8070000A9374878
:1029E000FEF70CFE0E220B213548FEF75EFE0E228E
:1029F0000C213348FEF759FE4FF4C05000900220DE
:102A00008DF8050002208DF8040000208DF80600E6
:102A100000208DF8070000A92948FEF7EFFD0E22DF
:102A20000A212848FEF741FE4FF480600090022002
:102A30008DF8050002208DF8040000208DF80600B6
:102A400000208DF8070000A91D48FEF7D7FD0E22D3
:102A500006211D48FEF729FE0E2207211A48FEF71F
:102A600024FEC020009002208DF8050002208DF881
:102A7000040000208DF8060000208DF8070000A952
:102A80001148FEF7BBFD0120009002208DF80500E3
:102A900001208DF8040000208DF8060000208DF83C
:102AA000070000A90248FEF7A9FD07BD00000000CD
:102AB000000002400004024000080240000C0240F6
:102AC000001002400014024000180240F0B500213E
:102AD00000220023002400250026DFF8D8723F687A
:102AE000DFF8D4C21CEA0707DFF8C8C2CCF80070D0
:102AF00007693F043900DFF8BC723F68D0F814C0A2
:102B00005CEA010C5CEA0707DFF8A8C2CCF80070A9
:102B1000DFF8A8723F68DFF8A0C21CEA0707DFF8F9
:102B20009CC2CCF8007087693F043A00DFF88C72D1
:102B30003F68D0F81CC05CEA020C5CEA0707DFF8CB
:102B40007CC2CCF80070DFF878723F68DFF868C2AA
:102B50001CEA0707DFF868C2CCF80070076A3F0478
:102B60003B00DFF85C723F68D0F824C05CEA030CDD
:102B70005CEA0707DFF848C2CCF80070DFF844725F
:102B80003F68DFF834C21CEA0707DFF838C2CCF828
:102B90000070876A3F043C00DFF828723F68D0F875
:102BA0002CC05CEA040C5CEA0707DFF818C2CCF81A
:102BB0000070DFF814723F68DFF810C21CEA0707E4
:102BC000DFF804C2CCF80070DFF8FC713F68D0F881
:102BD00000C0D0F804E05EEA0C0CD0F808E05EEA31
:102BE0000C0CD0F80CE05EEA0C0C5CEA0707DFF88E
:102BF000D8C1CCF80070476B3F023D00076B3F0423
:102C00003E00DFF8CC713F6817F07F47DFF8C0C1A6
:102C1000CCF80070DFF8B8713F6855EA060CD0F8C0
:102C200038E05EEA0C0C5CEA0707DFF8A4C1CCF8D8
:102C30000070F0BDC0B2002808D0DFF88C11096820
:102C400051F00101DFF88021116007E0DFF8781111
:102C5000096849084900DFF8702111607047DFF802
:102C60007411086070472DE9F04100220023002410
:102C7000002500260027D1F804C05FEA0C4C62460C
:102C8000D0F804C01CF4704CC0F804C0D1F800C0E7
:102C900052EA0C0CC0F804C0D1F80CC05FEA0C4C2E
:102CA0006346D0F808C01CF4704CC0F808C0D1F8D6
:102CB00008C053EA0C0CC0F808C0D0F810C05FEA96
:102CC000DC0C5FEACC0CC0F810C0D1F810C0C0F822
:102CD00010C0D1F81CC05FEA0C2C6446D1F820C0AB
:102CE0005FEA0C4C6546D1F824C05FEA0C6C66467E
:102CF000D0F818C05FF0000EC0F818E0D1F818E066
:102D000054EA0E0E55EA0E0E56EA0E0EC0F818E002
:102D1000D0F814E05FEA1E2E5FEA0E2EC0F814E031
:102D2000D1F814E0C0F814E0D0F81CE0DFF8A88077
:102D300018EA0E0EC0F81CE0D1F828E0D1F82C807B
:102D400058EA0E0EC0F81CE0D0F828E05FF000084A
:102D5000C0F82880D1F83080C0F82880D1F83880B9
:102D60005FEA08484746D0F82C8018F0E028C0F801
:102D70002C80D1F8348057EA0808C0F82C80D0F8AD
:102D800030805FEAD8285FEAC828C0F83080D1F8E0
:102D90003C80C0F83080BDE8F081C9B2002904D081
:102DA000026852F00102026003E002685208520019
:102DB000026070470868014000F800F00C680140AC
:102DC0001068014014680140186801408F88FE0FA8
:102DD0002C68014024680140F8F8FFFF00B593B06B
:102DE00000F032F801210120FEF784FB0220009060
:102DF00006200190042002900620039002200490F7
:102E000002200590022006900020079002200890E2
:102E10000820099000200A9040200B904FF4C070C9
:102E20000C9000200D904FF400600E9000200F9049
:102E30004FF40050109000A8119007A800F066F918
:102E400000F0CDF813B000BD00B583B001217C20A7
:102E5000FEF741FB02208DF8040002208DF80500EA
:102E600000208DF8060000208DF807000C220021BC
:102E7000A048FEF71AFC0C2202219E48FEF715FC22
:102E80000C2203219B48FEF710FC0D20009000A9A6
:102E90009848FEF7B3FB0C2200219748FEF705FC8B
:102EA0000C2201219448FEF700FC0C220E219248CE
:102EB000FEF7FBFB0C220F218F48FEF7F6FB4CF2CE
:102EC0000300009000A98C48FEF798FB0C2200211B
:102ED0008A48FEF7EAFB0C2207218848FEF7E5FB4B
:102EE0000C2208218548FEF7E0FB0C2209218348CB
:102EF000FEF7DBFB0C220A218048FEF7D6FB40F2EE
:102F00008170009000A97D48FEF778FB0C2200211B
:102F10007B48FEF7CAFB0C2201217948FEF7C5FB6E
:102F20000C2202217648FEF7C0FB0C2203217448D4
:102F3000FEF7BBFB0C2204217148FEF7B6FB0C2206
:102F400005216F48FEF7B1FB0C220B216C48FEF700
:102F5000ACFB0C220C216A48FEF7A7FB0C220D21CA
:102F60006748FEF7A2FB0C220E216548FEF79DFB89
:102F70000C220F216248FEF798FB4FF63F000090AD
:102F800000A95F48FEF73AFB0C2200215D48FEF7DE
:102F90008CFB0C2201215B48FEF787FB0C220221EF
:102FA0005848FEF782FB0C2204215648FEF77DFBB1
:102FB0000C2205215348FEF778FB0C2208215148CA
:102FC000FEF773FB0C220F214E48FEF76EFB48F212
:102FD0003710009000A94B48FEF710FB07BD30B535
:102FE00085B000244FF6FF7501200090102001905D
:102FF00001200290002003902021002000F01BF906
:10300000002803D0002D01D06D1EF5E700A800F0C8
:10301000FCF80A2000F05DF80220009010200190DA
:1030200001200290002003904FF6FF700500202140
:10303000002000F000F9002803D0002D01D06D1E03
:10304000F5E700A800F0E1F80320009010200190BF
:1030500008200290002003904FF6FF700500202109
:10306000002000F0E8F8002803D0002D01D06D1EEC
:10307000F5E700A800F0C9F84FF40C700400042034
:103080000090102001900120029003944FF6FF70F1
:1030900005002021002000F0CEF8002803D0002DEC
:1030A00001D06D1EF5E700A800F0AFF84FF41F70D7
:1030B00000F0BAF84FF6FF7005002021002000F064
:1030C000BAF8002803D0002D01D06D1EF5E705B039
:1030D00030BD01B481B00020009001980A494843F6
:1030E00000900098002803D00098401E0090F8E758
:1030F00002B0704700080240000C0240001002407D
:103100000014024000180240A086010070B40021A3
:10311000002200230024456886683543C66835438D
:10312000066935434669354386693543C669354383
:10313000066A3543466A354329000568002D05D1E6
:103140000568DFF84C6146F825100DE0C569066A90
:103150003543466A35432B00DFF834512B60056850
:10316000DFF82C6146F825100568002D27D1856A07
:103170002D686D1E866A7668761E55EA0615866A83
:10318000B668761E55EA0625866AF668761E55EA02
:103190000635866A3669761E55EA0645866A766978
:1031A000761E55EA0655866AB669761E55EA0665A4
:1031B0002A000568DFF8DC6046F8252023E0856AF0
:1031C0002D686D1E866A7668761E55EA0615866A33
:1031D000B668761E55EA0625866A3669761E55EA71
:1031E00006452A00856AED686D1E866A7669761E38
:1031F000360556EA05352C00DFF898502C60056836
:10320000244E46F8252070BC7047002102684368B0
:103210001A4383685B1E52EA4312C36852EA432290
:1032200011001D4A116070471C49096851EA4001AC
:103230001A4A1160704710B4020000200023102ABF
:1032400003D1104C2468230010E0B2F5807F03D135
:103250000D4C2468230009E0B2F5805F03D10B4CCC
:103260002468230002E00E4C2468230011EA0304C2
:103270008C4202D00024200001E001242000C0B2D2
:1032800010BC7047640000A0840000A0A40000A04F
:10329000400100A0480100A0500100A0540100A07E
:1032A000580100A040B2002808D540B210F00F022B
:1032B000944BD2180B0102F8043C03E040B2924A4E
:1032C0000B018354704710B50400601EB0F1807F7D
:1032D00001D301200EE0601E8C4908600F215FF0D1
:1032E000FF30FFF7DFFF8A4800210160894807218E
:1032F0000160002010BD30B58DB08748FEF760F842
:10330000854840686421B0FBF1F0FFF7DCFF002046
:1033100000F012F9FFF762FDFFF7C6F8FFF7C8FAF1
:103320000120FFF752F94FF6FF70FFF77FF94FF6D4
:10333000FF70FFF76BF91F20FFF760F9FDF7B6FB91
:10334000FDF7C9FBFDF729FCFDF7D2FB73490860C7
:10335000FF210B20FDF77CFD7048006800880028E5
:1033600069D04FF6FF70FFF749F90722D5F1F00158
:1033700089B2200080B2FFF71FFA684800684088D1
:10338000040066480068808805001F20FFF736F9B2
:10339000FFF748F96249C088002210FB02F080B2B2
:1033A000FFF7DFF9FFF73EF95E49C088FFF7D9F96B
:1033B0005A48006842885C4900A800F0F3F8FFF71B
:1033C00031F900A9C08880B2800080B2FFF7C9F946
:1033D000524800688288554900A800F0E3F8FFF7DA
:1033E00021F900A9C088052210FB02F080B2FFF786
:1033F000B8F94A480068C2884D4900A800F0D2F8E0
:10340000FFF710F900A9C088062210FB02F080B275
:10341000FFF7A7F94FF47840FFF7F0F807223F488D
:1034200000688088D0F1F00189B23C48006840888B
:10343000FFF7C2F950E04FF6FF70FFF7DFF8072201
:10344000D5F1F00189B2200080B2FFF7B5F91F2055
:10345000FFF7D4F8FFF7E6F83149C088002210FBE7
:1034600002F080B2FFF77DF9FFF7DCF82D49C08844
:10347000FFF777F92948006842882B4900A800F037
:1034800091F8FFF7CFF800A9C08880B2800080B221
:10349000FFF767F9214800688288244900A800F0F6
:1034A00081F8FFF7BFF800A9C088052210FB02F0E1
:1034B00080B2FFF756F919480068C2881C4900A875
:1034C00000F070F8FFF7AEF800A9C088062210FBE4
:1034D00002F080B2FFF745F9052000F001F833E76C
:1034E00014490860134909680029FBD17047114845
:1034F0000068002804D00F480068401E0D4908608D
:103500007047000018ED00E000E400E014E000E087
:1035100018E000E010E000E0A8000020CC0000204F
:1035200098370008B4370008503800085C380008A5
:1035300068380008C80000201CB504000121E4B26E
:10354000DFF8540050F82400FDF7C5FFE4B2DFF8BF
:103550004C0030F81400009001208DF80400002089
:103560008DF8060001208DF8070002208DF8050077
:1035700000A9E4B2DFF8280050F82400FEF73EF876
:10358000E4B2DFF81C0050F82400E4B2DFF80C10BD
:1035900031F81410018313BD30380008803800085A
:1035A000740000200CB41CB5044604A801900A461F
:1035B000009401AB00A9074878441830FEF7DCF905
:1035C000009900220A7000285CBF0098001B16BCFE
:1035D0005DF80CFB63ECFFFF80B54848006850F4D1
:1035E0007000464908604648006850F001004449B0
:1035F0000860444800210160414800684249084091
:103600003F4908604148424901603D48006830F444
:1036100080203B4908603F480021016000F005F828
:103620003D485FF00061016001BD82B00020019063
:10363000002000903248006850F480303049086023
:103640002F48006810F4003000900198401C019051
:103650000098002803D10198B0F5A06FF0D1284858
:103660000068800302D50120009001E00020009056
:10367000009801283ED12948006850F08050274921
:1036800008602748006850F44040254908601D48FC
:103690001C49096801601B48006850F40040194942
:1036A00008601848006850F4A05016490860174890
:1036B0001C4901601248006850F080701049086091
:1036C0000F4800688001FBD5174840F20571016082
:1036D0000C480068800880000A49086009480068B2
:1036E00050F00200074908600648006810F00C001E
:1036F0000828F9D102B070470000000088ED00E012
:103700000038024008380240FFFFF6FE043802404D
:10371000103000240C38024008ED00E04038024030
:1037200000700040195A4007003C024010B507499C
:1037300079441831064C7C44163404E00A68081DAC
:10374000511888470146A142F8D110BD0800000079
:10375000280000005FEAFFFF40000000A8000020F2
:1037600000000000EBE9FFFFA80000007C02000061
:1037700000000020000000007047FEE7FEE7FEE7C3
:10378000FEE770477047704780B5FFF7B0FE01BD98
:103790007047704770470000202020202054452D9E
:1037A00053544D3332463433394C4344333520205F
:1037B000202020002020204578616D706C652072EB
:1037C000756E2053544D5045383131202020200053
:1037D0004EF68851CEF20001086840F4700008608F
:1037E0004FF00070E1EE100A7047000000F00BF897
:1037F000002801D0FFF79AFF0020C046C046FFF71F
:103800007AFD00F002F80120704700F001B80000D6
:103810000746384600F002F8FBE7000080B5C046D6
:10382000C046024A11001820ABBEFBE7260002008A
:103830001000000000000000000000000000000078
:103840000148804701480047D9350008753800080D
:10385000583D25642020202000000000593D2564AB
:1038600020202020000000005A3D25642020202038
:1038700000000000C046C046FFF7AAFFFFF7B6FFF2
:103880000200000000000000FFF7FEBFFFF7FEBFD0
:10389000FFF7FEBFFFF7FEBFFFF7FEBFFFF7FEBF5C
:1038A000FFF7FEBFFFF7FEBFFFF7FEBFFFF7FEBF4C
:1038B000FFF7FEBFFFF7FEBFFFF7FEBFFFF7FEBF3C
:1038C000FFF7FEBFFFF7FEBFFFF7FEBFFFF7FEBF2C
:1038D000FFF7FEBFFFF7FEBFFFF7FEBFFFF7FEBF1C
:1038E000FFF7FEBFFFF7FEBFFFF7FEBFFFF7FEBF0C
:1038F000FFF7FEBFFFF7FEBFFFF7FEBFFFF7FEBFFC
:10390000FFF7FEBFFFF7FEBFFFF7FEBFFFF7FEBFEB
:10391000FFF7FEBFFFF7FEBFFFF7FEBFFFF7FEBFDB
:10392000FFF7FEBFFFF7FEBFFFF7FEBFFFF7FEBFCB
:10393000FFF7FEBFFFF7FEBFFFF7FEBFFFF7FEBFBB
:10394000FFF7FEBFFFF7FEBFFFF7FEBFFFF7FEBFAB
:10395000FFF7FEBFFFF7FEBFFFF7FEBFFFF7FEBF9B
:10396000FFF7FEBFFFF7FEBFFFF7FEBFFFF7FEBF8B
:10397000FFF7FEBFFFF7FEBFFFF7FEBFFFF7FEBF7B
:10398000FFF7FEBFFFF7FEBFFFF7FEBFFFF7FEBF6B
:10399000FFF7FEBFFFF7FEBFFFF7FEBFFFF7FEBF5B
:1039A000FFF7FEBFFFF7FEBFFFF7FEBFFFF7FEBF4B
:1039B000FFF7FEBFFFF7FEBFFFF7FEBFFFF7FEBF3B
:1039C000FFF7FEBFFFF7FEBFFFF7FEBFFFF7FEBF2B
:1039D000FFF7FEBFFFF7FEBFFFF7FEBFFFF7FEBF1B
:1039E000FFF7FEBFFFF7FEBF000000000000000071
:1039F00000000000000000000000000000000000C7
:103A000000000000000000000000000000000000B6
:103A100000000000000000000000000000000000A6
:103A20000000000000000000000000000000000096
:103A30000000000000000000000000000000000086
:103A40000000000000000000000000000000000076
:103A50000000000000000000000000000010024014
:103A60000000000000000000000000000000000056
:103A7000010203040102030406070809AC0100085F
:103A80000C000C0000300000000000C0FFFF000030
:040000050800387542
:00000001FF
