:020000040800F2
:1000000000040020291900087D130008811300084E
:1000100085130008891300088D13000800000000F4
:100020000000000000000000000000009513000820
:100030009113000800000000991300089D130008A8
:10004000A1130008A5130008A9130008AD130008A8
:10005000B1130008B5130008B9130008BD13000858
:10006000C1130008C5130008C9130008CD13000808
:10007000D1130008D5130008D9130008DD130008B8
:10008000E1130008E5130008E9130008ED13000868
:10009000F1130008F5130008F9130008FD13000818
:1000A00001140008051400080D14000811140008BC
:1000B00015140008191400081D1400082114000864
:1000C00025140008291400082D1400083114000814
:1000D00035140008391400083D14000841140008C4
:0C00E00045140008491400084D140008E5
:1000EC0010B50400002C0AD0B4F5803F07D0B4F54D
:1000FC00802F04D0A021DFF8380500F02BFDDFF8AD
:10010C002C05006800687FF480310840DFF81C156E
:10011C0009680860DFF81405006800687FF4802126
:10012C000840DFF80815096808605FF48030241A6D
:10013C0004D05FF44030241A0BD014E0DFF8EC0448
:10014C000068006850F48030DFF8E014096808603B
:10015C0009E0DFF8D8040068006850F4A020DFF84C
:10016C00CC140968086010BD10B50400E4B2002C72
:10017C0007D0E4B2012C04D0FE21DFF8B40400F067
:10018C00E9FC0248E4B2046010BD00BF000042422A
:10019C0038B504000D000020002C0BD0B4F5803FC6
:1001AC0008D0B4F5403F05D04FF48C71DFF88004D3
:1001BC0000F0D0FC002D2FD0B5F5802F2CD0B5F54C
:1001CC00002F29D0B5F5402F26D0B5F5801F23D0B0
:1001DC00B5F5A01F20D0B5F5C01F1DD0B5F5E01F9B
:1001EC001AD0B5F5001F17D0B5F5101F14D0B5F502
:1001FC00201F11D0B5F5301F0ED0B5F5401F0BD018
:10020C00B5F5501F08D0B5F5601F05D040F2191197
:10021C00DFF81C0400F09EFCDFF810040068406856
:10022C007FF47C11084055EA04010843DFF8FC1305
:10023C000968486031BD000010B50400E4B2002C20
:10024C0008D0E4B2012C05D04FF49971DFF8E0032B
:10025C0000F080FC0148E4B2046010BD6000424232
:10026C0010B504000020002C09D0012C07D0022C62
:10027C0005D04FF4A371DFF8B80300F06BFCDFF886
:10028C00AC0300684068032188432043DFF89C13CB
:10029C000968486010BD000010B504000020002C57
:1002AC0015D0802C13D0902C11D0A02C0FD0B02CAA
:1002BC000DD0C02C0BD0D02C09D0E02C07D0F02CBA
:1002CC0005D040F27911DFF8680300F043FCDFF849
:1002DC005C0300684068F02188432043DFF84C132E
:1002EC000968486010BD000010B504000020002C07
:1002FC0011D0B4F5806F0ED0B4F5A06F0BD0B4F55F
:10030C00C06F08D0B4F5E06F05D040F29911DFF85A
:10031C00200300F01FFCDFF81403006840687FF432
:10032C00E06108402043DFF804130968486010BD01
:10033C0010B504000020002C11D0B4F5806F0ED045
:10034C00B4F5A06F0BD0B4F5C06F08D0B4F5E06F66
:10035C0005D040F2B911DFF8D80200F0FBFBDFF852
:10036C00CC02006840687FF46051084050EAC40039
:10037C00DFF8B8120968486010BD000010B5040021
:10038C00002C07D0012C05D040F2F711DFF8A002A9
:10039C0000F0E0FB0148046010BD00BFD8004242F1
:1003AC0010B504000020002C0ED0B4F5804F0BD0FB
:1003BC00B4F5004F08D0B4F5404F05D040F20D21F4
:1003CC00DFF86C0200F0C6FBDFF8600200684068E2
:1003DC007FF4404108402043DFF850120968486020
:1003EC0010BD000010B5002200215FF0000C0023AE
:1003FC00DFF838E2DEF800E0DEF804E01EF00C0E68
:10040C007246002A04D0042A05D0082A06D02CE013
:10041C00304901602BE02F49016028E0DFF80C1215
:10042C000968496811F47011890C891CDFF8FC21EA
:10043C001268526812F4803CBCF1000F04D1264AB9
:10044C0001FB02F1016012E0DFF8E0211268526852
:10045C0012F4003F04D0204A01FB02F1016006E0D7
:10046C001C4A01FB02F1016001E01A490160DFF84E
:10047C00BC110968496811F0F00212091749535C64
:10048C000168D9404160DFF8A4110968496811F48A
:10049C00E062120A1149535C4168D9408160DFF86F
:1004AC008C110968496811F46052D20A0B49535CEB
:1004BC004168D940C160DFF874110968496811F4CA
:1004CC004042920B0649535CC168B1FBF3F10161E8
:1004DC0010BD00BF00127A0000093D007C19000815
:1004EC009819000838B504000D002A48204201D1A3
:1004FC00002C04D140F202314D4800F02BFBEDB240
:10050C00002D07D0EDB2012D04D040F20331484844
:10051C0000F020FBEDB2002D07D044480068806944
:10052C00204342490968886107E0404800688069B7
:10053C00E14308403D490968886131BD38B5040084
:10054C000D001448204201D1002C04D140F23E3160
:10055C00374800F0FFFAEDB2002D07D0EDB2012DB7
:10056C0004D040F23F31324800F0F4FAEDB2002DE5
:10057C0007D02E480068C06820432C490968C86021
:10058C0007E02A480068C068E14308402749096829
:10059C00C86031BD82A1FFFF10B50400002100220C
:1005AC000020E4B2202C22D0E4B2312C1FD0E4B2D3
:1005BC00392C1CD0E4B2412C19D0E4B2612C16D0E9
:1005CC00E4B27A2C13D0E4B27B2C10D0E4B27C2CA5
:1005DC000DD0E4B27D2C0AD0E4B27E2C07D0E4B26C
:1005EC007F2C04D040F2B531114800F0B3FAE4B2DC
:1005FC006109C9B2012903D10C480068026808E0FE
:10060C00022903D109480068026A02E00748006821
:10061C00426AE4B214F01F01012088401040401ED1
:10062C008041C043C00FC0B210BD00009404002034
:10063C007015000810B50400B4F5E06F10D0B4F5D7
:10064C00C06F0DD0B4F5A06F0AD0B4F5806F07D091
:10065C00B4F5407F04D05421DFF8700200F07AFA30
:10066C00DFF86C02006802492143C16010BD000034
:10067C000000FA0538B504000020002100220023F8
:10068C000F2594F803C0BCF1000F07D0E0780128C7
:10069C0004D06921DFF8340200F05CFA20780028DD
:1006AC0000F084802078012800F0808020780228D7
:1006BC007CD02078032879D02078042876D0207834
:1006CC00052873D02078062870D0207807286DD0A4
:1006DC00207808286AD02078092867D020780A2842
:1006EC0064D020780B2861D020780C285ED020783C
:1006FC000D285BD020780E2858D020780F2855D0A4
:10070C002078102852D0207811284FD02078122829
:10071C004CD02078132849D02078142846D0207843
:10072C00152843D02078162840D0207817283DD0A3
:10073C00207818283AD02078192837D020781A2811
:10074C0034D020781B2831D020781C282ED020784B
:10075C001D282BD020781E2828D020781F2825D0A3
:10076C002078202822D0207821281FD020782228F9
:10077C001CD02078232819D02078242816D0207853
:10078C00252813D02078262810D0207827280DD0A3
:10079C00207828280AD02078292807D020782A28E1
:1007AC0004D06A21DFF8240100F0D4F96078102815
:1007BC0004D36B21DFF8140100F0CCF9A0781028D9
:1007CC0004D36C21DFF8040100F0C4F9E0780028B0
:1007DC0041D0DFF8FC000068C06810F4E060D0F590
:1007EC00E060000AD0F10403C54060789840A1781D
:1007FC00294008430001217811F00301C9B2C90056
:10080C00884021788910DFF87C20126812EB810176
:10081C00D1F80013FF22237813F00303DBB2DB00C3
:10082C009A40D34319401040014320788010DFF8E0
:10083C005420126812EB8000C0F80013207840118D
:10084C00DFF8401009680122237813F01F039A4047
:10085C0041F820200DE020784011DFF828100968BD
:10086C0011EB80000121227812F01F029140C0F898
:10087C00801031BD80B500F0D4FE01BD80B500F014
:10088C00D2FE01BD9C04002038B504000D00B4F16B
:10089C00005F07D0B4F1006F04D040F26B110B482D
:1008AC0000F058F90748854204D34FF4B671074855
:1008BC0000F050F904482840204305490968886035
:1008CC0031BD00BFFFFF010080FFFF1FB8160008FD
:1008DC00A004002080B5012000F030FD0C48006819
:1008EC00002808D10A48012101602021084800682D
:1008FC0000F054F807E0064800210160202104486C
:10090C00006800F04BF8034800F05AFA01BD00BF34
:10091C00000400201019000880B50120FFF724FC0A
:10092C002020FFF739FE0028FAD00020FFF798FCB2
:10093C005FF48030FFF7D4FB3120FFF72DFE002849
:10094C00FAD05FF4E0115FF48030FFF721FC012056
:10095C00FFF772FC3920FFF71FFE0028FAD00020A9
:10096C00FFF70CFD4FF44040FFF71AFD0020FFF796
:10097C00DFFC4FF48060FFF7B7FC0020FFF78CFC26
:10098C00022000F05FFD002000F078FD102000F048
:10099C008FFD0220FFF764FC01BD000080B5020052
:1009AC00521E9241D243D20FD2B289B2684800682B
:1009BC0000F0CCFB01BD000000B58BB000F00CFAD0
:1009CC00FFF758FFFFF7A8FF00215FF00060FFF76B
:1009DC005BFF4FF44070FFF72DFE01211C20FFF749
:1009EC0081FD00211C20FFF7A9FD03208DF80200DA
:1009FC0010208DF803007020ADF8000000A95448B9
:100A0C00006800F001FB10210120FFF7C7FF202137
:100A1C000120FFF7C3FF40210120FFF7BFFF012199
:100A2C004FF48040FFF75EFD00214FF48040FFF74C
:100A3C0085FD18208DF803004FF40070ADF8000010
:100A4C0003208DF8020000A94148006800F0DCFA90
:100A5C0004208DF803004FF48060ADF8000000A96D
:100A6C003B48006800F0D0FA5FF4E13005900020BC
:100A7C00ADF818000020ADF81A000020ADF81C00ED
:100A8C000020ADF81E000C20ADF8200005A92B4865
:100A9C00006800F061F801212848006800F018F99E
:100AAC00274800F08DF9274800F08AF9264800F015
:100ABC0087F9234800F084F91FA000F081F923483E
:100ACC0000F07EF901214FF40060FFF70BFD0021CF
:100ADC004FF40060FFF732FD4FF43470ADF80800AE
:100AEC000020ADF80A004CF25030ADF80C0000209C
:100AFC00ADF80E0000208DF8100002A800F088FB65
:100B0C00012000F01BFC0121012000F0E5FB192065
:100B1C008DF8040007208DF8050000208DF80600E4
:100B2C0001208DF8070001A8FFF7A4FD012000F0BB
:100B3C00BFFBFFF7A3FEFEE70D0A000068040020D0
:100B4C00E4170008301800087C1800086C1900081D
:100B5C0044040020FEE7000070B586B004000D00D0
:100B6C0000260020002100222B68002B03D02868CF
:100B7C005549884204D37221DFF81C02FFF7EAFFC3
:100B8C00A888002809D0A8884FF48051884204D046
:100B9C007321DFF80402FFF7DDFFE888002813D08B
:100BAC00E8884FF4805188420ED0E8884FF4005109
:100BBC00884209D0E8884FF44051884204D074210F
:100BCC00DFF8D401FFF7C6FF288900280ED028894A
:100BDC004FF48061884209D028894FF4C061884263
:100BEC0004D07521DFF8B001FFF7B4FF6889002845
:100BFC0013D068894FF4807188420ED068894FF405
:100C0C000071884209D068894FF44071884204D041
:100C1C007621DFF88401FFF79DFFA8894FF6F37169
:100C2C00084202D1A889002804D17721DFF8680195
:100C3C00FFF790FF268A4CF2FF000640E888E9890E
:100C4C000843298A0843698A0843A98A084306434A
:100C5C0026820026A08906004EF6F3100640A888CE
:100C6C0029890843A98908430643A6810026A08A3E
:100C7C0006004FF6FF40064068890643A682002610
:100C8C0000A8FFF7AFFB1148844201D1039800E0A4
:100C9C000298192100FB01F029688900B0FBF1F1E1
:100CAC006420B1FBF0F006013009642200FB121243
:100CBC00100132306421B0FBF1F010F00F0006434C
:100CCC00268106B070BD00BF21AA44000038014047
:100CDC0038B504000D00EDB2002D07D0EDB2012D9A
:100CEC0004D0E721DFF8B000FFF734FFEDB2002DA0
:100CFC0004D0A08950F40050A08104E0A0894DF6E6
:100D0C00FF710840A08131BD38B504000D004FF4CF
:100D1C000070ADB2854204D340F2CD111E48FFF7EE
:100D2C0019FFE805C00DA08031BD000038B50400E6
:100D3C000D000020ADB2012D23D0ADB2802D20D0FE
:100D4C00ADB2402D1DD0ADB2202D1AD0ADB2102DAC
:100D5C0017D04FF48070ADB2854212D04FF40070B2
:100D6C00ADB285420DD0ADB2082D0AD0ADB2042D76
:100D7C0007D0ADB2022D04D040F2A2210648FFF7F5
:100D8C00E9FE208815EA0001080080B2401E80416F
:100D9C00C043C00FC0B232BD8017000880B5C0B2CE
:100DAC00010089B205480068FFF7AEFF80210348B7
:100DBC000068FFF7BBFF0028F8D001BD68040020D5
:100DCC0010B5040003E02078FFF7E8FF641C2078DE
:100DDC000028F8D110BD00003C483D4901603D4859
:100DEC003D4901603D483E4901603E483E49016035
:100DFC003E483F4901603F483F4901603F484049F8
:100E0C000160404840490160404841490160414807
:100E1C0041490160414842490160424842490160F0
:100E2C0042484349016043484349016043484449AF
:100E3C0001604448444901604448454901604548C3
:100E4C0045490160454846490160464846490160AC
:100E5C004648474901604748474901604748484967
:100E6C00016048484849016048484949016049487F
:100E7C004949016049484A4901604A484A49016068
:100E8C004A484B4901604B484B4901604B484C491F
:100E9C0001604C484C4901604C484D4901604D483B
:100EAC005FF0804101604C484C4901604C484D4911
:100EBC0001604D484D4901604D484E4901604E4816
:100ECC004E4901604E484F4901607047580400205C
:100EDC00002401405C040020002801403404002060
:100EEC00006C004030040020006400406C040020C2
:100EFC00000002407004002008000240740400202E
:100F0C001C00024078040020300002407C040020C9
:100F1C004400024080040020580002408404002059
:100F2C006C00024088040020800002404004002035
:100F3C00000401408C04002000200240900400209A
:100F4C0000F8FF1F44040020000801404804002062
:100F5C00000C01404C040020001001405004002003
:100F6C000014014054040020001801403C040020EF
:100F7C000000014028040020005400402C040020F4
:100F8C000058004018040020003000409C04002051
:100F9C0000E100E0A004002000ED00E03804002097
:100FAC000070004094040020001002401004002047
:100FBC000028004064040020003001401C04002084
:100FCC00003800409804002010E000E0600400208D
:100FDC00002C014004040020080400200004004000
:100FEC000C04002000080040680400200038014078
:100FFC00200400200044004024040020004800404D
:10100C0014040020002C004070B504000D000026D4
:10101C0000220020002300215FF0000C95F803E073
:10102C00BEF1000F19D0E878042816D0E8782828EB
:10103C0013D0E878482810D0E87814280DD0E87838
:10104C0010280AD0E8781C2807D0E878182804D093
:10105C006521DFF8B801FFF77DFD2888002804D151
:10106C006621DFF8A801FFF775FDE87810F00F0690
:10107C00E87810F0100F0FD0A87801280AD0A878C3
:10108C00022807D0A878032804D06E21DFF87C0151
:10109C00FFF760FDA87806432888000624D0216855
:1010AC0000201DE0012383402A881A409A4216D161
:1010BC0083005FF00F0C1CFA03FC7FEA0C0211405A
:1010CC0016FA03F21143EA78282A02D1012282404F
:1010DC006261EA78482A02D1012282402261401CD6
:1010EC000828DFD32160002128884FF480718842C2
:1010FC002AD36168002024E001220300083312FA8D
:10110C0003F32A881A409A421AD183005FF00F0C1D
:10111C001CFA03FC7FEA0C02114016FA03F211438D
:10112C00EA78282A04D10122030008339A4062612C
:10113C00EA78482A04D10122030008339A4022613C
:10114C00401C0828D8D3616070BD000070B5050044
:10115C000E001400B6B2012E42D0B6B2022E3FD011
:10116C00B6B2042E3CD0B6B2082E39D0B6B2102E80
:10117C0036D0B6B2202E33D0B6B2402E30D0B6B266
:10118C00802E2DD04FF48070B6B2864228D04FF40A
:10119C000070B6B2864223D04FF48060B6B286425D
:1011AC001ED04FF40060B6B2864219D04FF4805076
:1011BC00B6B2864214D04FF40050B6B286420FD06D
:1011CC004FF48040B6B286420AD04FF40040B6B21B
:1011DC00864205D040F24511DFF83000FFF7BAFC2B
:1011EC00E4B2002C08D0E4B2012C05D04FF4A3716A
:1011FC00DFF81800FFF7AEFCE4B2002C02D0B6B258
:10120C002E6101E0B6B26E6170BD0000541600088C
:10121C0010B504006088002811D0608810280ED00A
:10122C00608820280BD06088402808D0608860280F
:10123C0005D040F22511DFF80001FFF78BFCE088A8
:10124C0000280FD0E0884FF4807188420AD0E088E3
:10125C004FF40071884205D04FF49371DFF8D80039
:10126C00FFF778FCDFF8CC000068A1888185DFF8F7
:10127C00C400006821880185DFF8B8000068008888
:10128C0010F09F00DFF8AC1009680880DFF8A400AC
:10129C0000680088E188628811430843DFF89410E5
:1012AC0009680880DFF88C000068217A018610BD7F
:1012BC0010B50400E4B2002C08D0E4B2012C05D027
:1012CC004FF44171DFF87000FFF744FC0148E4B2C1
:1012DC00046010BD0080254238B504000D0014F4E4
:1012EC007F4F02D1A4B2002C04D14FF44C711248A0
:1012FC00FFF730FCEDB2002D07D0EDB2012D04D07C
:10130C0040F231310C48FFF725FCEDB2012D07D12D
:10131C00084800688089204306490968888107E0ED
:10132C00044800688089E1430840024909688881C3
:10133C0031BD0000600400201C17000810B504002B
:10134C0014F47F4F02D1A4B2002C04D140F6B51195
:10135C000548FFF7FFFB05480068008AE143084099
:10136C0002490968088210BD1C170008600400209F
:10137C0070470000FEE70000FEE70000FEE70000FB
:10138C00FEE7000070470000704700007047000047
:10139C007047000070470000704700007047000065
:1013AC007047000070470000704700007047000055
:1013BC007047000070470000704700007047000045
:1013CC007047000070470000704700007047000035
:1013DC007047000070470000704700007047000025
:1013EC007047000070470000704700007047000015
:1013FC00704700007047000080B5FFF76BFA01BD25
:10140C0070470000704700007047000070470000F4
:10141C0070470000704700007047000070470000E4
:10142C0070470000704700007047000070470000D4
:10143C0070470000704700007047000070470000C4
:10144C007047000010B50400002C07D0012C05D00B
:10145C00022C03D04B212348FFF77CFB2248006869
:10146C00006810F038002049096808601E480068C0
:10147C00006820431C490968086010BD10B50400C1
:10148C00082C05D0002C03D05E211648FFF762FB18
:10149C0015480068006808218843134909680860EA
:1014AC0011480068006820430F490968086010BDA6
:1014BC0010B50400102C05D0002C03D07121094864
:1014CC00FFF748FB0848006800681021884306496C
:1014DC0009680860044800680068204302490968EC
:1014EC00086010BDF81400088C040020433A5C44DA
:1014FC006F63756D656E747320616E6420536574D3
:10150C0074696E67735C62756C61746F765CD0E045
:10151C00E1EEF7E8E920F1F2EEEB5C54452D49528F
:10152C003532302053544D333246313033524554DA
:10153C0047657474696E67537461727465645F5047
:10154C003130305C4C6962726172795C7372635CCD
:10155C0073746D3332663130785F666C6173682EEC
:10156C0063000000433A5C446F63756D656E747381
:10157C0020616E642053657474696E67735C627568
:10158C006C61746F765CD0E0E1EEF7E8E920F1F283
:10159C00EEEB5C54452D49523532302053544D33CB
:1015AC00324631303352455447657474696E675313
:1015BC007461727465645F503130305C4C69627276
:1015CC006172795C7372635C73746D333266313043
:1015DC00785F7263632E630030BF704720BF704723
:1015EC0040BF7047BFF36F8F7047BFF34F8F70478B
:1015FC00BFF35F8F704701DF7047EFF314807047C4
:10160C0080F31488BFF36F8F7047EFF30980704736
:10161C0080F309887047EFF30880704780F30888DF
:10162C00704772B6704762B6704771B6704761B654
:10163C00704780F311887047EFF31280704740BAFF
:10164C00704700BA70470000433A5C446F63756D95
:10165C00656E747320616E642053657474696E6773
:10166C00735C62756C61746F765CD0E0E1EEF7E8E8
:10167C00E920F1F2EEEB5C45572D41524D353131FD
:10168C002053544D33322D503130335C6C696272BF
:10169C006172795C7372635C73746D333266313072
:1016AC00785F6770696F2E6300000000433A5C44FA
:1016BC006F63756D656E747320616E642053657411
:1016CC0074696E67735C62756C61746F765CD0E084
:1016DC00E1EEF7E8E920F1F2EEEB5C45572D4152D3
:1016EC004D3531312053544D33322D503130335C24
:1016FC006C6962726172795C7372635C73746D3362
:10170C0032663130785F6E7669632E6300000000BC
:10171C00433A5C446F63756D656E747320616E64DF
:10172C002053657474696E67735C62756C61746F59
:10173C00765CD0E0E1EEF7E8E920F1F2EEEB5C4507
:10174C00572D41524D3531312053544D33322D509C
:10175C003130335C6C6962726172795C7372635C98
:10176C0073746D3332663130785F74696D312E630A
:10177C0000000000433A5C446F63756D656E7473D2
:10178C0020616E642053657474696E67735C627556
:10179C006C61746F765CD0E0E1EEF7E8E920F1F271
:1017AC00EEEB5C45572D41524D3531312053544DA4
:1017BC0033322D503130335C6C6962726172795CFA
:1017CC007372635C73746D3332663130785F75732A
:1017DC006172742E630000000D0A3D3D3D3D3D3DA0
:1017EC003D3D3D3D3D3D3D3D3D3D3D3D3D3D3D3D1D
:1017FC003D3D3D3D3D3D3D3D3D3D3D3D3D3D3D3D0D
:10180C003D3D3D3D3D3D3D3D3D3D3D3D3D3D3D3DFC
:10181C003D3D3D3D3D3D3D3D3D3D3D3D3D3D3D3DEC
:10182C00000000000D0A3D20202020202020202038
:10183C002020202020202020202020202028432968
:10184C00205445525241454C454354524F4E494306
:10185C00412020202020202020202020202020205B
:10186C0020202020202020202020203D00000000CF
:10187C000D0A3D2020202020496E2D4170706C698E
:10188C00636174696F6E2050726F6772616D6D6900
:10189C006E67204170706C69636174696F6E202093
:1018AC002856657273696F6E20312E302E302920C8
:1018BC00202020202020203D00000000F5180008EA
:1018CC00A8000000000400200000000010B504482F
:1018DC00044C02E050F8041B8847A042FAD110BD1A
:1018EC00C8180008D8180008002305E050F8041B9D
:1018FC0041F8043B121FFBD150F8042B002AF5D100
:10190C00704700000D0A205465737420696E74656D
:10191C007272757074204F4B2100000000F038F883
:10192C00002801D0FFF7D2FF0020FFF745F800F0A8
:10193C0031F8000080B504490868002803D0022063
:10194C00ABBE0020086001BDA404002080B5FFF7E9
:10195C00F1FF02491820ABBEFCE7C046260002008E
:10196C0053797374656D20746573743A00000000CC
:10197C000000000001020304010203040607080929
:10198C0007463846FFF7E2FFFBE7000002040608B3
:08199C0001207047FFF7F4BFC2
:0400000508001929AD
:00000001FF
