:020000040800F2
:10000000C80E00209D4B0008694700086B47000898
:100010006D4700086F4700087147000800000000A6
:10002000000000000000000000000000754700080C
:100030007347000800000000774700087947000870
:100040007B4700087D4700087F470008814700087C
:10005000834700088547000887470008894700084C
:100060008B4700088D4700088F470008914700081C
:1000700093470008954700089747000899470008EC
:100080009B4700089D4700089F470008A1470008BC
:10009000A9470008B1470008B3470008B547000862
:1000A000B7470008B9470008BB470008BD4700082C
:1000B000BF470008C1470008C3470008C5470008FC
:1000C000C7470008C9470008CB470008CD470008CC
:1000D000CF470008D1470008D9470008E14700088A
:0C00E000E9470008EB470008ED47000866
:1000EC0001B411F00F010098006810F4E0600143B6
:1000FC0041F4004151F080010098016001B070475B
:10010C0011B581B00C00019801F0E4FDE4B2A042FD
:10011C0024D0E4B22000000101990968484040F461
:10012C00004050F08000DFF8D01C084001990860B6
:10013C00019801F0CFFDE4B2A0420ED0E4B2200051
:10014C00000101990968484040F4004050F08000DB
:10015C00DFF8A41C08400199086013BDFDE701B449
:10016C00002904D00098006890F0400101E000984C
:10017C000168DFF8880C014041F4004151F0800126
:10018C000098016001B0704701B40098006850F00D
:10019C004000DFF8681C084040F4004050F080003C
:1001AC000099086001B0704701B400980068DFF84E
:1001BC00501C084050F400400099086001B0704792
:1001CC0001B4002902D04FF4807100E000210098A6
:1001DC000068DFF8302C1040014341F4004151F02D
:1001EC0080010098016001B0704701B4C9B24902A6
:1001FC0000980068DFF8102C1040014341F40041D6
:10020C0051F080010098016001B0704711B581B0C8
:10021C000C00019801F065FDE4B2A04224D0E4B2D8
:10022C002000000301990968484040F4004050F058
:10023C008000DFF8D81B084001990860019801F094
:10024C0050FDE4B2A0420ED0E4B2200000030199AC
:10025C000968484040F4004050F08000DFF8AC1BC7
:10026C0008400199086013BDFDE701B4002904D0D2
:10027C000098006890F4804101E000980168DFF874
:10028C00900B014041F4004151F080010098016055
:10029C0001B0704701B40098006850F48040DFF85A
:1002AC00701B084040F4004050F08000009908603A
:1002BC0001B0704701B400980068DFF8581B084083
:1002CC0050F080000099086001B0704700B583B011
:1002DC0001215FF4000001F027FE01215FF4000012
:1002EC0001F002FE00215FF4000001F01DFE002071
:1002FC0001F07DFDDFF8200B0121018000210D2094
:10030C0001F002FE01210D2001F0DEFD0122202171
:10031C00DFF8080B01F0BEFE2020ADF80400102021
:10032C008DF8070003208DF8060001A9DFF8EC0A10
:10033C0001F04AFE01215FF4EA1001F0B4FE4FF423
:10034C00C050ADF8040018208DF8070003208DF87C
:10035C00060001A9DFF8C80A01F036FE002000F003
:10036C00C7FB00F023F8DFF8BC0A00210180132042
:10037C008DF8000001208DF8010000208DF802009E
:10038C0001208DF8030000A801F0BDFE14208DF8AB
:10039C00000002208DF8010000208DF802000120E1
:1003AC008DF8030000A801F0AEFE07BD80B500205B
:1003BC0007E02821DFF8702A01FB002100220A60E7
:1003CC00401C2028F5D3002007E00C21DFF85C2A24
:1003DC0001FB002100228A80401C1028F5D3DFF895
:1003EC00500A00210160002001F0EEFEDFF8440A03
:1003FC00400840384FF6F8710840DFF83C1A088086
:10040C00DFF8380A002101600122DFF8341ADFF826
:10041C00340A00F09DF80122DFF82C1ADFF82C0AC0
:10042C0000F096F8002000F05DFBDFF8EC094FF4CB
:10043C001C41018001BD002000E0401C10280DD2A1
:10044C000C21DFF8E82901FB002189880029F4D16F
:10045C000C21DFF8D82901FB002000E000207047B8
:10046C000021818070472DE9F04104000D00160039
:10047C00DFF8C809D0F800802F683F2F03D31F374F
:10048C007F097F0102E07F1C7F087F000020208015
:10049C0001E0D8F80880B8F1000F18D0B8F80200C5
:1004AC00B8F80410081820802088C01C20802088F0
:1004BC004FF6FC7108402080D8F80800D8F80810D6
:1004CC00002904D04088218879188842E1D32088FB
:1004DC003818DFF87C19C908C900884201D30020FC
:1004EC001EE0FFF7A8FF002801D1002018E0DFF87C
:1004FC004C190968002908D1DFF840190860DFF8A9
:10050C003C19096800228A6004E0D8F80810816060
:10051C00C8F8080006702188418087802F60012070
:10052C00BDE8F08138B50400DFF810090068002838
:10053C000DD00178E4B2A14205D18168A960FFF722
:10054C008FFFA86801E0050080680028EFD131BD5D
:10055C002DE9FF4106000F009046002E09D140F214
:10056C000232DFF8F018DFF8F00801F02FFE01F08E
:10057C002CFEB07801F0C0F90500EDB22820DFF8B0
:10058C00A81800FB0514B8F1000F00F07382002FBF
:10059C0009D140F20932DFF8BC18DFF8C00801F0CD
:1005AC0015FE01F012FEB08801902A00D2B201A90A
:1005BC000DF10A00FFF757FF002801D104208EE24D
:1005CC00786800280FD0B08801902A00D2B201A917
:1005DC0002A8FFF748FF002805D12800C0B2FFF79A
:1005EC00A1FF04207BE200202077002084F8250066
:1005FC00F07810F003002073B088A060786894F84D
:10060C00251060F3000184F8251038782071E80774
:10061C000DD5EDB22820DFF8101800FB051090F86E
:10062C00250010F00100401C84F8240002E000209A
:10063C0084F82400DFF8280800903878009911EB32
:10064C0080000090EDB26908C9B20098FFF748FD30
:10065C0000982060E80740F1FD8000210098FFF72A
:10066C004FFD00210098FFF77AFD0098FFF79CFDE5
:10067C00DFF8F007DFF8BC1749084039C908C90092
:10068C00227911EBC20149008908890008182179E7
:10069C00C90011F00101BDF80A200A52DFF8C407A5
:1006AC00DFF8901749084039C908C900227911EBC5
:1006BC00C201891C49008908890008182179C900E0
:1006CC0011F0010100220A52207B002806D00228DA
:1006DC005DD010D3032800F0A380AEE00121009878
:1006EC00FFF783FD00210098FFF76AFD02210098B7
:1006FC00FFF706FDAAE094F82500C00709D44FF4D3
:10070C005572DFF85017DFF8600701F05FFD01F05C
:10071C005CFD00210098FFF779FDDFF84807DFF852
:10072C00141749084039C908C900227911EBC201D4
:10073C00091D49008908890008182179C90011F0A0
:10074C000101BDF808200A52DFF81807DFF8E4169B
:10075C0049084039C908C900227911EBC201891D29
:10076C0049008908890008182179C90011F0010194
:10077C0000220A5202210098FFF737FD0021009851
:10078C00FFF71EFD03210098FFF7BAFC5EE0002185
:10079C000098FFF72AFD94F8250010F0010100984D
:1007AC00FFF70EFD94F82500C00734D50021009802
:1007BC00FFF72CFDDFF8AC06DFF878164908403956
:1007CC00C908C900227911EBC201091D4900890829
:1007DC00890008182179C90011F00101BDF8082021
:1007EC000A52DFF88006DFF84C1649084039C90870
:1007FC00C900227911EBC201891D490089088900C1
:10080C0008182179C90011F0010100220A520021B7
:10081C000098FFF72AFD02210098FFF771FC15E004
:10082C0003210098FFF7E1FC00210098FFF7C8FCBA
:10083C0002210098FFF764FC08E040F27632DFF802
:10084C001416B9A001F0C2FC01F0BFFC0098FFF730
:10085C00ABFC43E1DFF8140600680390002100981C
:10086C00FFF7D4FC00210098FFF7FFFC0098FFF77E
:10087C0021FDB088019001983F2801D3012000E0B0
:10088C000020C0B2BDF80C1060F3CF31ADF80C10E5
:10089C0001983F2803D301984009401E01E00198BC
:1008AC004008BDF80C1060F38E21ADF80C10DFF889
:1008BC00B405DFF8801549084039C908C900227908
:1008CC0011EBC201091D490089088900081821791A
:1008DC00C90011F00101BDF80A200A52DFF88405A5
:1008EC00DFF8501549084039C908C900227911EBC5
:1008FC00C201891D49008908890008182179C9009D
:10090C0011F00101BDF80C200A52207B002806D002
:10091C0002284FD010D3032800F09580A0E00121CD
:10092C000098FFF762FC00210098FFF749FC0221B8
:10093C000098FFF76BFCD1E0DFF82805DFF8F41422
:10094C0049084039C908C900227911EBC201891C38
:10095C0049008908890008182179C90011F00101A2
:10096C00BDF80C200A5200210098FFF7C9FBDFF8F4
:10097C00F404DFF8C01449084039C908C9002279C9
:10098C0011EBC20149008908890008182179C900B6
:10099C0011F00101BDF808200A5202210098FFF75E
:1009AC0024FC00210098FFF70BFC03210098FFF7B3
:1009BC002DFC93E000210098FFF717FC94F825001C
:1009CC0010F001010098FFF7FBFB94F82500C0071D
:1009DC0034D500210098FFF793FBDFF88804DFF88B
:1009EC00541449084039C908C900227911EBC201D5
:1009FC00891C49008908890008182179C90011F05F
:100A0C000101BDF80C200A52DFF85804DFF8241459
:100A1C0049084039C908C900227911EBC2014900C3
:100A2C008908890008182179C90011F00101BDF865
:100A3C0008200A5200210098FFF791FB032100982F
:100A4C00FFF7E4FB4AE003210098FFF7CEFB0021FF
:100A5C000098FFF7B5FB03210098FFF7D7FB3DE0AB
:100A6C0040F2B532DFF8EC132FA001F0AFFB01F030
:100A7C00ACFB33E0EDB22820DFF8AC1300FB051023
:100A8C00006800282AD0DFF8D8030090EDB22820A7
:100A9C00DFF8941300FB05100079009911EB80002E
:100AAC000090E80707D500210098FFF729FB009874
:100ABC00FFF77AFB06E000210098FFF7A7FB0098F0
:100ACC00FFF7F8FB2800C0B2FFF72CFDEDB2282091
:100ADC00DFF8541300FB051000210160002004B066
:100AEC00BDE8F08150F08000DFF8041E08807047EC
:100AFC0080B5002801D0002200E00122D2B22021D2
:100B0C00DFF8180301F0C6FA01BDDFF80C0300880A
:100B1C0050F00800C0490880BF48008850F004001D
:100B2C00BD490880704700003000000080B5C0B29D
:100B3C00002803D002283DD021D35DE0BC480068DA
:100B4C0000281BD0BA480068401EB949086000282C
:100B5C0014D1B14800884FF6FF610840AE490880B7
:100B6C00AD4800884FF6EF710840AB490880AA48A1
:100B7C0000884FF6F7710840A74908803CE0A6486A
:100B8C0000884FF6FB710840A3490880A84808214B
:100B9C000160A148008850F010009F4908809E48D1
:100BAC0000884FF4807108439B490880002001F0B5
:100BBC0007FC21E0DFF83C0D008880B210F44040C7
:100BCC00B0F5004F05D1B0F5405F02D1FFF79DFFA6
:100BDC0012E0002810D0904800884FF6FB710840B6
:100BEC008D4908808C4800884FF6F77108408A4977
:100BFC000880002001F0E4FB01BD10B50400E4B254
:100C0C002820894A00FB04200068002801D1062016
:100C1C00A3E0002935D0E4B22820834900FB04105E
:100C2C0007210177E0071AD50121E4B228207E4A7A
:100C3C0000FB04200068FFF763FAE4B228207A492D
:100C4C0000FB041090F8250010F00100401CE4B2E9
:100C5C002821754A01FB042181F824007CE0012144
:100C6C00E4B22820704A00FB04200068FFF7CEFA9B
:100C7C00E4B228206C4900FB0410002180F82410F9
:100C8C006AE0E4B22820684900FB041000210177D7
:100C9C00E00735D5E4B22820634900FB041090F836
:100CAC00250010F00100401CE4B228215E4A01FB33
:100CBC00042181F82400E4B228205B4900FB0410D5
:100CCC0090F82500C00708D50021E4B22820564A28
:100CDC0000FB04200068FFF7C8FA0021E4B22820CA
:100CEC00514A00FB04200068FFF739FA0221E4B2F4
:100CFC0028204D4A00FB04200068FFF701FA2BE086
:100D0C00E4B22820484900FB0410002180F824108C
:100D1C00E4B22820444900FB041090F82500C007D9
:100D2C0008D50021E4B228203F4A00FB04200068CB
:100D3C00FFF715FA0021E4B228203B4A00FB0420FF
:100D4C000068FFF792FA0321E4B22820364A00FB30
:100D5C0004200068FFF75AFA002010BD80B5324815
:100D6C0090F84D0010F00100401C2F4981F84C0008
:100D7C002D48072180F844102B48002180F82410BE
:100D8C0029480721017701210120FFF736FF0121B6
:100D9C000020FFF732FF01BD10B50C00C0B22821B6
:100DAC00214A01FB00210968002901D1062020E01D
:100DBC00C1070ED5C0B228211B4A01FB00200068D8
:100DCC0000F088FF012801D1012000E00020C0B212
:100DDC000DE0C0B22821144A01FB0020006800F08D
:100DEC0080FF012801D1012000E00020C0B220606A
:100DFC00002010BD00000000BF8FFFFFCF8FFFFF52
:100E0C000F8FFFFF8F8EFFFF8F89FFFF8FBFFFFFBD
:100E1C008FCFFFFF8F0FFFFF405C0040000C0140A5
:100E2C0000080140445C0040080000200805002038
:100E3C00B406002000040000505C0040B006002006
:100E4C00C04B0008B84B0008D04B0008C84B00083A
:100E5C00C003000054480008844B0008404B0008B5
:100E6C00005C004000600040084A0008E44B0008A9
:100E7C00F8B50500EDB22820DFF8341E00FB05168E
:100E8C003068002809D140F2D942DFF8381CDFF86D
:100E9C00380C01F09BF901F098F9307F022803D04F
:100EAC00307F012840F02385E80740F1B082B0691B
:100EBC007169401A2CE0DFF8FC0DDFF8FC1D4908C5
:100ECC004039C908C900327911EBC201891D4900AA
:100EDC008908890008183179C90011F001010C52F8
:100EEC0003213068FFF70CF9EDB22820DFF8C01DA4
:100EFC0000FB051090F82400401EEDB22821DFF80D
:100F0C00B02D01FB052181F82400B0697169401AEC
:100F1C0096F82410002907D000281BD196F825102C
:100F2C00C1F34001C90715D496F82510C1F340014F
:100F3C00C90700F1DC84002840F0D9840320307705
:100F4C003069002800F0D3842800C0B2316988478A
:100F5C0000F0CDBC0221317796F82510C1F3800149
:100F6C00C9070ED5B16888420BD196F8251011F03F
:100F7C00FB0186F8251096F8251051F0020186F831
:100F8C002510B168884201D2040000E0B46820004A
:100F9C00002805D196F8251011F0FD0186F82510D2
:100FAC0071697269821872610127327B002A06D03E
:100FBC00022A50D0C0F04681032A40F0E781DFF8C6
:100FCC00F42CDFF8F03CDFF8F0CC5FEA5C0CBCF101
:100FDC00400C5FEADC0C5FEACC0C96F804E01CEBEE
:100FEC00CE0C5FEA4C0C5FEA9C0C5FEA8C0C1CEBA1
:100FFC00030396F804C05FEACC0C1CF0010C3CF81F
:10100C0003309BB25B0033F003039A18DFF8A43C67
:10101C00DFF8A4CC5FEA5C0CBCF1400C5FEADC0CA2
:10102C005FEACC0C96F804E01CEBCE0C5FEA4C0C9F
:10103C005FEA9C0C5FEA8C0C1CEB030396F804C073
:10104C005FEACC0C1CF0010C1CF803309BB213F0C3
:10105C0001039B18B6E196F82520D2074BD4DFF894
:10106C00542CDFF8503CDFF850CC5FEA5C0CBCF140
:10107C00400C5FEADC0C5FEACC0C96F804E01CEB4D
:10108C00CE0C5FEA4C0C5FEA9C0C5FEA8C0C1CEB00
:10109C00030396F804C05FEACC0C1CF0010C3CF87E
:1010AC0003309BB25B0033F003039A18DFF8043C67
:1010BC00DFF804CC5FEA5C0CBCF1400C5FEADC0CA2
:1010CC005FEACC0C96F804E01CEBCE0C5FEA4C0CFF
:1010DC005FEA9C0C5FEA8C0C1CEB030396F804C0D3
:1010EC005FEACC0C1CF0010C1CF803309BB213F023
:1010FC0001039B18A5E032681268C2F3803212F02B
:10110C00010292F00107FFB2002F4BD0DFF8A42BA5
:10111C00DFF8A03BDFF8A0CB5FEA5C0CBCF1400C25
:10112C005FEADC0C5FEACC0C96F804E01CEBCE0C0E
:10113C005FEA4C0C5FEA9C0C5FEA8C0C1CEB030323
:10114C0096F804C05FEACC0C1CF0010C3CF80330A0
:10115C009BB25B0033F003039A18DFF8583BDFF8BF
:10116C0058CB5FEA5C0CBCF1400C5FEADC0C5FEA2C
:10117C00CC0C96F804E01CEBCE0C5FEA4C0C5FEA4E
:10118C009C0C5FEA8C0C1CEB030396F804C05FEA22
:10119C00CC0C1CF0010C1CF803309BB213F00103B7
:1011AC009B184EE0DFF80C2BDFF8083BDFF808CB80
:1011BC005FEA5C0CBCF1400C5FEADC0C5FEACC0C27
:1011CC0096F804E01CEBCE0C1CF1040C5FEA4C0C02
:1011DC005FEA9C0C5FEA8C0C1CEB030396F804C0D2
:1011EC005FEACC0C1CF0010C3CF803309BB25B00AA
:1011FC0033F003039A18DFF8BC3ADFF8BCCA5FEA95
:10120C005C0CBCF1400C5FEADC0C5FEACC0C96F891
:10121C0004E01CEBCE0C1CF1040C5FEA4C0C5FEAF6
:10122C009C0C5FEA8C0C1CEB030396F804C05FEA81
:10123C00CC0C1CF0010C1CF803309BB213F0010316
:10124C009B18BFE032681268C2F3801212F00107DB
:10125C00002F4BD0DFF85C2ADFF8583ADFF858CA79
:10126C005FEA5C0CBCF1400C5FEADC0C5FEACC0C76
:10127C0096F804E01CEBCE0C5FEA4C0C5FEA9C0C7D
:10128C005FEA8C0C1CEB030396F804C05FEACC0CF1
:10129C001CF0010C3CF803309BB25B0033F00303F1
:1012AC009A18DFF8103ADFF810CA5FEA5C0CBCF150
:1012BC00400C5FEADC0C5FEACC0C96F804E01CEB0B
:1012CC00CE0C5FEA4C0C5FEA9C0C5FEA8C0C1CEBBE
:1012DC00030396F804C05FEACC0C1CF0010C1CF85C
:1012EC0003309BB213F001039B184EE0DFF8C429C6
:1012FC00DFF8C039DFF8C0C95FEA5C0CBCF1400C08
:10130C005FEADC0C5FEACC0C96F804E01CEBCE0C2C
:10131C001CF1040C5FEA4C0C5FEA9C0C5FEA8C0C31
:10132C001CEB030396F804C05FEACC0C1CF0010C18
:10133C003CF803309BB25B0033F003039A18DFF8E0
:10134C007439DFF874C95FEA5C0CBCF1400C5FEADD
:10135C00DC0C5FEACC0C96F804E01CEBCE0C1CF118
:10136C00040C5FEA4C0C5FEA9C0C5FEA8C0C1CEBE7
:10137C00030396F804C05FEACC0C1CF0010C1CF8BB
:10138C0003309BB213F001039B181BE040F2245274
:10139C00DFF8301702A000F019FF00F016FFA6E2EC
:1013AC0030000000326A8A5C491C401E002807D0BD
:1013BC00D6F820C011F80CC052EA0C22491C401E71
:1013CC001A601B1D0028EDD1307B022806D196F83F
:1013DC002500C00702D53068FEF75CFF002F3FF4F4
:1013EC006AADDFF8D008DFF8D01849084039C908D1
:1013FC00C900327911EBC201891C490089088900A6
:10140C0008183179C90011F001010C5268E596F801
:10141C002400002800F05E82307B002806D00228D1
:10142C0062D0C0F05181032840F0EC81DFF88408D1
:10143C00DFF8841849084039C908C900327911EB22
:10144C00C201891D49008908890008183179C90031
:10145C0011F00101085A80B28005800DDFF8541894
:10146C00DFF85028DFF850385B08403BDB08DB0026
:10147C00347913EBC4031B1D5B009B089B009A186B
:10148C003379DB0013F001039A5A92B2520032F016
:10149C0003025118DFF81C28DFF81C385B08403BAE
:1014AC00DB08DB00347913EBC4031B1D5B009B08CA
:1014BC009B009A183379DB0013F001039A5C92B20B
:1014CC0012F001025118B2697369D21A824280F08B
:1014DC00A28105203077EDB22820DFF8D41700FB6D
:1014EC0005104069B061F5E196F82500C0074DD4B0
:1014FC00DFF8C007DFF8C01749084039C908C90030
:10150C00327911EBC201891D49008908890008183C
:10151C003179C90011F00101085A80B28005800DA3
:10152C00DFF89017DFF88C27DFF88C375B08403B2F
:10153C00DB08DB00347913EBC4031B1D5B009B0839
:10154C009B009A183379DB0013F001039A5A92B27C
:10155C00520032F003025118DFF85827DFF85837E1
:10156C005B08403BDB08DB00347913EBC4031B1D29
:10157C005B009B089B009A183379DB0013F0010386
:10158C009A5C92B212F0010251189CE0306800781B
:10159C0040064BD4DFF81C07DFF81C17490840390C
:1015AC00C908C900327911EBC201891C49008908AC
:1015BC00890008183179C90011F00101085A80B26C
:1015CC008005800DDFF8EC16DFF8E826DFF8E8364A
:1015DC005B08403BDB08DB00347913EBC4035B0096
:1015EC009B089B009A183379DB0013F001039A5A7D
:1015FC0092B2520032F003025118DFF8B826DFF82D
:10160C00B8365B08403BDB08DB00347913EBC403D2
:10161C005B009B089B009A183379DB0013F00103E5
:10162C009A5C92B212F0010251184CE0DFF8840679
:10163C00DFF8841649084039C908C900327911EB22
:10164C00C201891D49008908890008183179C9002F
:10165C0011F00101085A80B28005800DDFF8541694
:10166C00DFF85026DFF850365B08403BDB08DB0028
:10167C00347913EBC4031B1D5B009B089B009A1869
:10168C003379DB0013F001039A5A92B2520032F014
:10169C0003025118DFF81C26DFF81C365B08403BB0
:1016AC00DB08DB00347913EBC4031B1D5B009B08C8
:1016BC009B009A183379DB0013F001039A5C92B209
:1016CC0012F001025118FEE63068006840044BD558
:1016DC00DFF8E005DFF8E01549084039C908C90012
:1016EC00327911EBC201891C49008908890008185C
:1016FC003179C90011F00101085A80B28005800DC2
:10170C00DFF8B015DFF8AC25DFF8AC355B08403BF3
:10171C00DB08DB00347913EBC4035B009B089B00F4
:10172C009A183379DB0013F001039A5A92B25200E3
:10173C0032F003025118DFF87C25DFF87C355B08AA
:10174C00403BDB08DB00347913EBC4035B009B08E4
:10175C009B009A183379DB0013F001039A5C92B268
:10176C0012F0010251184CE0DFF84805DFF848157B
:10177C0049084039C908C900327911EBC201891DE9
:10178C0049008908890008183179C90011F0010154
:10179C00085A80B28005800DDFF81815DFF8142583
:1017AC00DFF814355B08403BDB08DB00347913EBC6
:1017BC00C4031B1D5B009B089B009A183379DB004C
:1017CC0013F001039A5A92B2520032F003025118EC
:1017DC00DFF8E024DFF8E0345B08403BDB08DB009B
:1017EC00347913EBC4031B1D5B009B089B009A18F8
:1017FC003379DB0013F001039A5C92B212F0010210
:10180C00511860E640F28952AE49ADA000F0DEFC02
:10181C0000F0DBFC6BE0EDB22822DFF8943402FB25
:10182C000532926890420BD204223277EDB2282214
:10183C00DFF87C3402FB053252698218B26101E098
:10184C000222327773697269821872610CE00A683D
:10185C00091D346A1A555B1C401E002804D0120A5C
:10186C00346A1A555B1C401E0028F0D1307B0228CC
:10187C0006D196F82500C00702D53068FEF784FC27
:10188C0003213068FEF7C2FCEDB22820DFF82014EB
:10189C0000FB051090F82400401EEDB22821DFF863
:1018AC00102401FB052181F8240030680068000534
:1018BC0008D5EDB22820DFF8F81300FB051006213F
:1018CC00017714E0B0697169401A00287FF49FAD6C
:1018DC0003203077307F022809D0307F012806D0D2
:1018EC003069002803D02800C0B231698847F1BDA7
:1018FC004C5C0040485C004010F00F0149000006B1
:10190C0000D5491C0800C0B2704780B5002805D02E
:10191C00002300220021012001F0E8FA01BD38B5B6
:10192C0001F02EFBDFF89403008880B2DFF89013EF
:10193C00098889B251F01F010840C0F3C031C907B2
:10194C0040F1BB80DFF87C1310F00F0211EB820129
:10195C00097811F00F01C0F3001010F0010090F0A5
:10196C000100C0B210EB4104E4B22820D04900FBC6
:10197C00041090F82500C00740F19F80E0074ED579
:10198C00E4B22820CA4900FB04100068002807D1E3
:10199C0040F223624B49CC4800F018FC00F015FCD7
:1019AC00E4B22820C24900FB04100068FEF7FCFBDF
:1019BC00E4B22820BE4900FB0410006801F0F2FAE2
:1019CC000500E4B22820BA4900FB0410012180F87C
:1019DC002410E4B22820B64900FB0410007B012837
:1019EC0018D0E4B22820B24900FB0410006801F0C2
:1019FC00E2FA85420ED1E4B22820AD4900FB041076
:101A0C0090F82400401CE4B22821A94A01FB0421CF
:101A1C0081F824002000C0B2FFF72AFA4DE0E4B2AE
:101A2C002820A34900FB04100068002807D140F2CD
:101A3C0032622449A44800F0C9FB00F0C6FBE4B2B2
:101A4C0028209B4900FB04100068FEF733FCE4B22D
:101A5C002820974900FB0410006801F0ACFA05003F
:101A6C00E4B22820924900FB0410012180F82410D4
:101A7C00E4B228208E4900FB0410007B012818D00A
:101A8C00E4B228208A4900FB0410006801F08AFAAD
:101A9C0085420ED1E4B22820854900FB041090F851
:101AAC002400401CE4B22821814A01FB042181F866
:101ABC0024002000C0B2FFF7DBF901F062FA31BD5F
:101ACC003000000054480008A44A000810B501F08A
:101ADC0055FA7A480488A4B27948008880B250F04C
:101AEC001F000440C4F38020C0070AD573484FF68A
:101AFC00FF310180FEF75AFC002000F061FC00F081
:101B0C0070FCC4F30030C00706D56C484EF2FF7170
:101B1C0001800220FFF70AF8C4F3C020C00708D5E3
:101B2C00FEF7F3FF65484EF2FF710180012000F0D3
:101B3C0047FCC4F30020C00706D560484FF6FF6190
:101B4C0001800020FEF7F2FFC4F3C030C00740F163
:101B5C00AB805C4814F00F0110EB8100007810F0A2
:101B6C000F00C4F3001111F0010191F00101C9B291
:101B7C0011EB4004E4B228204D4900FB041090F80E
:101B8C002500C00700F19080E4B22820484900FBF2
:101B9C000410012180F82410E00718D5E4B22820A5
:101BAC00434900FB04100068002807D140F2A362EF
:101BBC004649454800F00AFB00F007FBE4B2282038
:101BCC003B4900FB04100068FEF7EEFA17E0E4B2A4
:101BDC002820374900FB04100068002807D14FF477
:101BEC00D5623A49384800F0F1FA00F0EEFAE4B266
:101BFC0028202F4900FB04100068FEF75BFBE4B2C1
:101C0C00002C38D12A48006801F0DEF9002820D0D9
:101C1C002748012180F84C1000235FF0FF3200218F
:101C2C00012001F063F9002308222949002001F06A
:101C3C005DF927480078000602D5002000F066FC0C
:101C4C0000F0E5FB1A48007F07282DD1FFF786F836
:101C5C002AE01F480078000608D5154800690028BE
:101C6C0004D000201249096988471DE02000C0B249
:101C7C00FFF7FEF818E0E4B2012C11D114480078FB
:101C8C00000608D40A48806B002804D001200849BB
:101C9C00896B884708E02000C0B2FFF7E9F803E041
:101CAC002000C0B2FFF7E4F801F069F910BD0000A4
:101CBC00080000200060004000040000445C00406C
:101CCC00405C0040005C0040D449000854480008C7
:101CDC004C06002001B400980068C0F3011001B05C
:101CEC00704701B40098006810F44050000B01B02C
:101CFC00704710B450F8041B81B102681218001D13
:101D0C0050F8043BDC0744BFA9F10104E31852F876
:101D1C00044B43F8044B091FF9D1EBE710BC704797
:101D2C00DFF87812096831F48031DFF87022116025
:101D3C00DFF86812096831F48021DFF86022116045
:101D4C00B0F5803F03D0B0F5802F09D011E0DFF85B
:101D5C004C02006850F48030DFF84012086008E054
:101D6C00DFF83802006850F4A020DFF83012086069
:101D7C00FFE77047DFF82C12C0B2086070470022F2
:101D8C00874B1B681A0032F47C12084302438448C8
:101D9C00026070478449C0B2086070470021804AD5
:101DAC00126811008908890001437D480160704761
:101DBC0000217B4A1268110031F0F0010143784890
:101DCC00016070470021764A1268110031F4E0611D
:101DDC0001437348016070470021714A1268110079
:101DEC0031F4605151EAC0016D48016070476F4990
:101DFC000860704700216A4A1268110031F44041B2
:101E0C00014367480160704730B400220021002371
:101E1C000024634D2D6815F00C052A00002A04D00F
:101E2C00042A05D0082A06D021E06249016020E08E
:101E3C00604901601DE05A49096811F47011890C60
:101E4C00891C574A126812F48033002B03D15A4A6A
:101E5C00514301600AE0524A1268920303D5564A74
:101E6C005143016002E0534A5143016001E0514982
:101E7C0001604B49096811F0F00212094F49545C9A
:101E8C000168E14041604649096811F4E062120AB8
:101E9C004A49545C4168E14081604149096811F448
:101EAC006052D20A4549545C4168E140C1603C49EA
:101EBC00096811F44042920B4149545CC168B1FB72
:101ECC00F4F1016130BC7047C9B2002905D0314929
:101EDC00096808432F49086005E02E49096831EA72
:101EEC0000002C4908607047C9B2002905D02A4966
:101EFC00096808432849086005E02749096831EA60
:101F0C000000254908607047C9B2002905D01F4957
:101F1C00096808431D49086005E01C49096831EA55
:101F2C0000001A4908607047C9B2002905D0184949
:101F3C00096808431649086005E01549096831EA43
:101F4C00000013490860704710B4002200230021E0
:101F5C00C0B24409E4B22200012A02D10F490B6835
:101F6C0006E0022A02D112490B6801E015490B6800
:101F7C00C0B210F01F0201209040034201D0012199
:101F8C0000E000210800C0B210BC70470C100240E9
:101F9C0010100240181002401C10024000100240A9
:101FAC00041002400000424260004242D80042420B
:101FBC002010024000127A0000093D00104B00086E
:101FCC00DC4B000824100240F0B400220026002450
:101FDC0000250023002791F803C01CF00F0C62466B
:101FEC0091F803C05FEACC6C01D58B781A430B785F
:101FFC001B0621D0036800241AE00125A5400E8899
:10200C002E40AE4213D1A5000F2616FA05F7BB439E
:10201C0012FA05F52B43CD78282D02D10125A540C8
:10202C004561CD78482D02D10125A5400561641C80
:10203C00082CE2D3036000230B884FF48074A34276
:10204C0026D34368002420E0012514F10806B5408E
:10205C000E882E40AE4217D1A5000F2616FA05F7B2
:10206C00BB4312FA05F52B43CD78282D04D101255D
:10207C0014F10806B5404561CD78482D04D10125F1
:10208C0014F10806B5400561641C082CDCD34360D0
:10209C00F0BC7047D2B2002A02D089B2016101E0D3
:1020AC0089B24161704770B40023002400220025DE
:1020BC00104E36683200C0F30346350086B233004A
:1020CC00860202D532F0E06206E0C40203D5032496
:1020DC00AC40A24300E09A43C9B2002905D080026B
:1020EC0002D552EA034200E01A430248026070BC77
:1020FC007047000004000140DFF8C0100843DFF80F
:10210C00B8100860704770B400210022002300242E
:10211C000F25C678002E35D02749096811F4E061E7
:10212C00D1F5E061090AD1F10404CD404178A14018
:10213C0082782A4011430901027812F00302D2B2CC
:10214C00D200914002789210194B53F82220FF23B1
:10215C00047814F00304E4B2E400A3409A43194059
:10216C000A4301788910124B43F821200178491158
:10217C00134A0123007810F01F0013FA00F042F804
:10218C0021000AE001784911084A0123007810F077
:10219C001F0013FA00F042F8210070BC7047094A86
:1021AC0011400843034908607047000080E100E0DB
:1021BC0000E400E008ED00E00CED00E00000FA05A2
:1021CC0000E100E080FFFF1F70477047F0B583B05F
:1021DC000C460A2100238DF80A3002AB0A25491E51
:1021EC00C9B292FBF5F606EB8607A2EB470230323A
:1021FC005A703246012A0FDB491EC9B292FBF5F622
:10220C0006EB8607A2EB470230321A703246012ADF
:10221C00A4BF9B1E0129E2DA0346002200A809187C
:10222C00204600F0E8FE08B900F02AFF03B0F0BD2C
:10223C0080B5DFF8240C007810F0F800DFF8181CDB
:10224C000870DFF8140C007810F07F00DFF8081C21
:10225C000870DFF8040C007E10F0FD00DFF8F81BAE
:10226C000876DFF8F40B007E10F0FE00DFF8E81BB8
:10227C000876FEF72BF801BDC0B2002809D0022861
:10228C0014D00CD3042819D014D3062821D019D378
:10229C0021E0DFF8C40B007810F007001DE0DFF838
:1022AC00B80B0078C0B2C009C0B216E0DFF8A80BBA
:1022BC00406812E0DFF8A00BC0680EE0DFF8980B66
:1022CC0040690AE0DFF8900B007EC0F34000C0B21A
:1022DC0003E0002001E05FF0FF30704738B50400E8
:1022EC00DFF8740B007810F00700052815D10025D5
:1022FC000EE0DFF8640B10EB850002692900DFF8B3
:10230C00580B806800F059F9002100F0A7FD6D1CF6
:10231C00DFF8440BC0688542EBD3E4B22000401ECA
:10232C00022804D9C01E13D0401E19D032E0002060
:10233C00FFF74AFF0020FEF7D5FB002000F024FE3B
:10234C000020DFF8141B4860DFF80C1B48612EE0FE
:10235C000020FFF739FFDFF8000B0021416026E079
:10236C0000250EE0DFF8F00A10EB85000269290069
:10237C00DFF8E40A806800F020F9012100F06EFD1E
:10238C006D1CDFF8D40AC0688542EBD30120FFF73F
:10239C001BFF0CE00020FFF717FF002000F0F4FDFE
:1023AC000020DFF8B41A4860DFF8AC1A4861DFF897
:1023BC00A80A007864F30200DFF89C1A087031BD9B
:1023CC0080B5002801D0012100E00021DFF8882A27
:1023DC00127861F3C712DFF8801A0A7000F0D2FD90
:1023EC0001BD80B50320FFF779FF00F0CCFD01BDE6
:1023FC0088420AD20100DFF8C00A90F84D0050F074
:10240C000400DFF8B42A82F84D000800704780B54C
:10241C00DFF8A80A0078C0B2400910F003000028C9
:10242C0003D0022862D056D36BE0DFF8900A4078D4
:10243C00002814D0012815D0032816D0052817D051
:10244C00062818D007282FD0082830D0092831D0DA
:10245C000A2832D00B2833D00C2834D036E000F0C8
:10246C00ADF937E000F029FA34E000F0C8FA31E0B9
:10247C0000F034FB2EE0DFF8440A00781F210842FC
:10248C0002D100F0D3FB0EE0DFF8300A0078000632
:10249C0005D5DFF8280A00F07DFD002803D0DFF811
:1024AC00180A0721017715E000F0FBFB12E000F0A1
:1024BC0006FC0FE000F026FC0CE000F040FC09E00C
:1024CC0000F063FC06E000F0F3FC03E0DFF8E80941
:1024DC000721017719E0DFF8E40900F05DFD002821
:1024EC0003D0DFF8D409072101770EE0DFF8CC091F
:1024FC0000F056FD002803D0DFF8BC090721017756
:10250C0003E0DFF8B4090721017701BD80B5DFF8DE
:10251C00AC090078000608D50020FFF7F6F9DFF8C3
:10252C0098090FF2290101610FE00120FFF7EDF985
:10253C00DFF888094078052802D10FF2310001E05C
:10254C000FF20900DFF87019886301BD80B5002314
:10255C005FF0FF320021012000F0C8FC00235FF087
:10256C00FF320021002000F0C1FC01BD80B5DFF876
:10257C00E808DFF8481989784161DFF8DC08406920
:10258C00FEF7B0FADFF8D0084069002803D0042029
:10259C00FFF7A4FE02E00320FFF7A0FE00235FF08C
:1025AC00FF320021012000F0A1FC00235FF0FF327C
:1025BC000021002000F09AFC01BD70B504000D0054
:1025CC001600002C09D14FF4CE72DFF8F418DFF8A6
:1025DC00F408FFF7FBFDFFF7F8FD200001E00178A0
:1025EC00081861880919884209D241780429F6D162
:1025FC008178A942F3D1C178B142F0D100E000203A
:10260C0070BDDFF8C4180A68116802E01168491C33
:10261C0011601168002907D04B78022BF6D14B7949
:10262C008342F3D1080000E00020704738B5040065
:10263C000D00002C09D140F2DD12DFF88418DFF810
:10264C008C08FFF7C3FDFFF7C0FD002D06D12079E4
:10265C00DFF87C1808602078001904E0287840190D
:10266C0001E001780818DFF868180968002913D010
:10267C000178002910D04178052907D1DFF85018CE
:10268C000968491EDFF84828116006E041780429E2
:10269C0002D041780229E4D1002032BD38B50500C2
:1026AC00002D40D02800FFF7ACFF0400002C01D116
:1026BC0001203FE00420FFF711FE002000F064FC35
:1026CC00DFF894078460DFF890074560DFF888072F
:1026DC00007E10F0FD00DFF880170876E079C0B2BC
:1026EC008009DFF87417097E60F30001DFF86807D2
:1026FC0001762079DFF86017C860002006E0DFF86B
:10270C00581711EB800100220A61401CDFF84817B2
:10271C00C9688842F3D30520FFF7E0FDDFF83807DE
:10272C0000F032FC05E0002000F02EFC0420FFF746
:10273C00D5FD002032BD80B580B200280FD1DFF866
:10274C001807007EDFF88C170860DFF88C37022240
:10275C00DFF88017012000F0C9FB002000E0012009
:10276C0002BD80B5DFF86C0700210160DFF8683727
:10277C000222DFF86017012000F0B8FB002002BD38
:10278C0080B580B210F07F01112901DB012014E02B
:10279C00DFF8401700220A60C0B2FFF7ADF8DFF88F
:1027AC003417C0B2FEF7F8FADFF82C370222DFF844
:1027BC002417012000F09AFB002002BD80B5DFF841
:1027CC009806007810F00700042842D3DFF8EC06D6
:1027DC00C08802283DD1DFF8E4060078000638D521
:1027EC00DFF8D8064088002833D1DFF8D00600780F
:1027FC0010F01F00002803D0022819D00CD323E0BE
:10280C00DFF8B8068088FFF796FF002803D0DFF8C2
:10281C00A8060721017720E0DFF8A0068088FFF7E3
:10282C00A0FF002803D0DFF890060721017714E001
:10283C00DFF888068088FFF7A3FF002803D0DFF8B5
:10284C0078060721017708E0DFF86C06072101778D
:10285C0003E0DFF864060721017701BD89B2002986
:10286C0002D180B2012801D0012008E0DFF8E80590
:10287C00007E10F0FD00DFF8E015087600207047B0
:10288C000120704710B589B211F07F02112A02DACB
:10289C0080B2002801D001200EE00800C0B2FFF782
:1028AC002BF8040000212000C0B2FEF7A6F920008E
:1028BC00C0B200F06EFB002010BD80B5DFF89805AB
:1028CC00007810F00700042865D3DFF8F005C08805
:1028DC00002860D1DFF8E405007810F01F00002814
:1028EC0003D0022832D013D350E0DFF8D005818812
:1028FC00DFF8C8054088FFF7B1FF002803D100209E
:10290C00FFF704FE03E0DFF8B0050721017746E08E
:10291C00DFF84405007810F00700052811D3DFF824
:10292C009C058188DFF894054088FFF7A9FF0028F3
:10293C0007D1DFF8A43500220021012000F0D6FADF
:10294C0003E0DFF874050721017728E0DFF80805BC
:10295C00007810F00700052805D2DFF86005007933
:10296C007F2108420DD1DFF854058188DFF84C0532
:10297C004088FFF787FF002803D10020FFF7C6FD32
:10298C0003E0DFF834050721017708E0DFF82805BC
:10299C000721017703E0DFF820050721017701BD4E
:1029AC0089B2002902D180B2012801D0012008E0AF
:1029BC00DFF8A404007E50F00200DFF89C140876C7
:1029CC00002070470120704710B589B211F07F02CA
:1029DC00112A02DA80B2002801D001200EE0080092
:1029EC00C0B2FEF789FF040001212000C0B2FEF73F
:1029FC0004F92000C0B200F0CBFA002010BD80B565
:102A0C00DFF85404007810F00700042861D3DFF8D5
:102A1C00AC04C08800285CD1DFF8A004007810F06A
:102A2C001F00002803D002282ED013D34CE0DFF86F
:102A3C008C048188DFF884044088FFF7B1FF0028FC
:102A4C0003D10020FFF762FD03E0DFF86C040721DF
:102A5C00017742E0DFF80004007810F00700052849
:102A6C000DD3DFF858048188DFF850044088FFF755
:102A7C00A9FF002803D10020FFF748FD03E0DFF891
:102A8C0038040721017728E0DFF8CC03007810F038
:102A9C000700052805D2DFF8240400797F210842BD
:102AAC000DD1DFF818048188DFF810044088FFF797
:102ABC008BFF002803D10020FFF728FD03E0DFF88F
:102ACC00F8030721017708E0DFF8EC030721017711
:102ADC0003E0DFF8E4030721017701BD80B5DFF8DF
:102AEC007803007810F00700032818D3DFF8CC0324
:102AFC0000781F21084212D1DFF8C003808800281B
:102B0C000DD1DFF8B803C088002808D1DFF8AC037A
:102B1C004088802803D20120FFF7F8FC03E0DFF89F
:102B2C0098030721017701BD80B5C0B2002811D1EF
:102B3C00DFF88803C188DFF8A4030078FFF758FC9E
:102B4C00DFF894330200DFF89413012000F0CEF983
:102B5C00002000E0012002BD10B5DFF88013497C95
:102B6C00C0B2884201D3012013E0C0B2DFF8581381
:102B7C00096809684418DFF84403C1886088FFF7C6
:102B8C0037FC0200DFF850332100012000F0AEF9D1
:102B9C00002010BD38B5DFF830138C68C0B20028A7
:102BAC000DD1DFF81803C1882078FFF721FCDFF87E
:102BBC00283302002100012000F098F934E00021B4
:102BCC00022201E0491C921C23789A420AD2135D1E
:102BDC00BA4D2D79AB42F5D113195B78B74D6D79A0
:102BEC00AB42EFD123789A4201D301201DE0B64AC3
:102BFC00D26852F8214000E0241D002C04D0401E65
:102C0C000100C9B20029F7D1002C01D101200CE040
:102C1C00AA48C18820680078FFF7EAFB0200AE4B97
:102C2C002168012000F062F9002032BD80B58A488D
:102C3C00007810F0070003282FD3A048C078012893
:102C4C0004D021D3032815D00AD31DE09B488078EB
:102C5C00FFF76AFF002802D09748072101771FE091
:102C6C0096488078FFF778FF002802D09248072119
:102C7C00017715E091488078FFF78CFF002802D08F
:102C8C008D48072101770BE08C4800F083F9002870
:102C9C0006D089480721017702E087480721017790
:102CAC0001BD6D48007810F00700042803D382485A
:102CBC000721017702E0804807210177704780B532
:102CCC006548007810F00700042817D37B4840882B
:102CDC00002813D17948808800280FD17748C08804
:102CEC0001280BD10220FFF7C7FA7A4908607A4B0A
:102CFC0001227849012000F0F9F802E06E48072122
:102D0C00017701BD80B55448007810F00700042805
:102D1C0011D36A48808800280DD16848C0880028E3
:102D2C0009D166488078FFF7B9FC002803D1002050
:102D3C00FFF7ECFB02E060480721017701BD80B58D
:102D4C004548007810F0070005281AD14248C068A1
:102D5C005A498988884214D35848C088012810D110
:102D6C005648408800280CD15B4B01225348808880
:102D7C00394911EB800010F11001012000F0B6F878
:102D8C0002E04D480721017701BD38B53248007883
:102D9C0010F00700052843D14848C08800283FD1CF
:102DAC0046484288454881882B488068FFF705FCD7
:102DBC000400002C03D140480721017733E03F4841
:102DCC008088254911EB800002693C4881882248A3
:102DDC008068FFF7F2FB0500002D07D140F21C5272
:102DEC0037493F48FFF7F2F9FFF7EFF900212800C8
:102DFC0000F034F831488088174911EB80002F49D6
:102E0C00498801610121200000F028F8124800F0E7
:102E1C00BBF8314B00220021012000F067F802E0E2
:102E2C0025480721017731BD2749496800E0091D74
:102E3C000A68002A0DD00A681278074B5B689A4220
:102E4C00F5D10A685278C0B28242F0D10868001DF0
:102E5C0000E000207047000008060020F8B50400D0
:102E6C000D000026002C1BD140F25A5214491D486B
:102E7C00FFF7ACF9FFF7A9F912E0B078FFF7D4FF30
:102E8C000700002F07D140F25E520D491648FFF79C
:102E9C009DF9FFF79AF92A0039003000FDF758FB2D
:102EAC0031002000FFF7C2FB0600002EE5D1F1BD7A
:102EBC000148072101777047080000204C060020CC
:102ECC00B8480008204A0008904A0008B84A000890
:102EDC00BC060020B806002019250008684A000826
:102EEC00CC4A0008904B0008504B00082DE9F041EB
:102EFC0004000D0016001F00E4B228201E4900FB40
:102F0C00041816F1010F06D1002088F81C000020CF
:102F1C00C8F810002BE000F0C7F8D8F80000002823
:102F2C0003D100F0CFF8082023E098F81C00022809
:102F3C0003D100F0C7F800201BE00020C8F81400F3
:102F4C00C8F82050C8F81070C8F81860002E05D1C9
:102F5C0098F8250050F0020088F82500012088F828
:102F6C001C002000C0B2FDF783FF00F0ABF898F80E
:102F7C001C00BDE8F08100BF0800002070477047BE
:102F8C00704770477047704780B500F0E3F801BD9B
:102F9C00704770470120704780B500F01AF902BDE8
:102FAC000120704701B400980068C0F3803010F025
:102FBC00010001B0704701B400980068C0F38010A4
:102FCC0010F0010001B0704701B40098006810F4D3
:102FDC000060002801D0012000E0002001B0704703
:102FEC0010B5044603E014F8010B00F0A3FA2078A6
:102FFC000028F8D110BDF8B504460D4616461F46FC
:10300C0056B10FF24400FFF7EBFF3046FFF7E8FF35
:10301C000FF24400FFF7E4FF2046FFF7E1FF0FF249
:10302C004000FFF7DDFF2846FFF7DAFF0FF2340010
:10303C00FFF7D6FF3846FFF7D3FF0FF22C00FFF750
:10304C00CFFF0020F2BD0000496E2066756E6374E0
:10305C00696F6E2000000000202D2D200000000064
:10306C003A00000020000000202D2D2061737365B4
:10307C007274696F6E206661696C65640A00000089
:10308C00012000F06BBA50F8041B61B150F8042B0E
:10309C00D30744BFA9F101039A18002342F8043B5B
:1030AC00091FFAD1EFE7704705480068002800D1E6
:1030BC0072B603480068401C01490860704700BFA5
:1030CC008806002004480068401E03490860002858
:1030DC0000D162B6704700BF8806002080B5DFF8CB
:1030EC00F80300210160DFF8F40300210160DFF830
:1030FC00F0034FF416510160DFF8E40308218171ED
:10310C00DFF8DC0300214171DFF8D40300210171E9
:10311C00DFF8D00301210160DFF8CC03007850F018
:10312C000100DFF8C4130870DFF8BC03007850F01E
:10313C000200DFF8B4130870DFF8B003012101605E
:10314C00DFF8AC0300210160002000F003F8FFF76A
:10315C006FF801BD80B5002821D0406800281ED032
:10316C00DFF8780300210160DFF86C0301210160B6
:10317C000020DFF880130860DFF87C130860002063
:10318C00DFF878130860DFF8781308600FF25D132E
:10319C004022DFF870130420FFF7A8FE14E0012092
:1031AC00DFF850130860DFF8501308600020DFF8D8
:1031BC0058130860DFF844130860DFF84413086004
:1031CC00DFF814030021016001BDDFF80C03006877
:1031DC00704780B50100DFF83403082200F0C8F90D
:1031EC00DFF82803007810F01F00012824D1DFF845
:1031FC001C034078202806D01ED3222834D01DD39F
:10320C00232854D018E0DFF804034088002813D199
:10321C00DFF8F802808800280ED1DFF8F002C188B0
:10322C000720FFF7E5F80FF29D030200AC490020E0
:10323C00FFF75CFE002000E0012002BDB34840888F
:10324C00002810D1B148808800280CD1AF48C18823
:10325C000720FFF7CDF8AE4B0200A1490120FFF784
:10326C0045FE0020E9E7E7E7A848C08800281DD103
:10327C00A6488088002819D1A44880789A490978F2
:10328C0060F3000198480170A0488078C0B24008F3
:10329C009549097860F34101934801700120FFF7CB
:1032AC0035F99248012101600020C6E7C4E78B483C
:1032BC00012101608D48012101600120FFF726F9F1
:1032CC000020BAE780B591484078202809D18F4872
:1032DC00C088002805D08348012101600120FFF738
:1032EC0015F98C480721017701BD000010B50400C9
:1032FC00E4B2042C06D0EB2287498848FEF766FF1F
:10330C00FEF763FF7B4801210160E4B2282081496C
:10331C0000FB041080697949086010BD10B50400E9
:10332C00E4B2072C06D0FC227B497D48FEF74EFF09
:10333C00FEF74BFF704801210160E4B2282075496B
:10334C0000FB041080697049086010BD10B50C00BA
:10335C0061490968002901D1002036E0002C33D0E6
:10336C006449096800292ED064490968644A1268C6
:10337C00891A8C4204D361490968614A12688C1A13
:10338C0022005F4909685F4BC91800F02CF95C48B2
:10339C00006820185A49086059480068574909685C
:1033AC00884211D3FFF780FE524800210160544837
:1033BC00002101605B4B402252490420FFF796FD2F
:1033CC00FFF780FE00E00024200010BD38B504009B
:1033DC000D0041480068002801D100201AE0002DA2
:1033EC0002D116E0FFF76EFEFFF75EFE42480021A9
:1033FC0001604D4B2A0021000720FFF777FD0028C4
:10340C00F0D0FFF75FFE3C4800680028FBD03E4838
:10341C000568280032BD80B5C0B2032807D040F241
:10342C0097123D494148FEF7D1FEFEF7CEFE3048DB
:10343C000021016001BD01B584B027480068002857
:10344C0029D0A1208DF8000020208DF8010000204B
:10345C00ADF802000120ADF804000220ADF8060022
:10346C0002A804A9022200F093F801E0FFF72AFE5B
:10347C00FFF71AFE1E48012101602D4B022200A904
:10348C000320FFF733FD0028F0D0FFF71BFE184890
:10349C0000680028FBD105B000BD104800680F493A
:1034AC0000220A60002801D0012000E00020C0B2F8
:1034BC00704780B50B49002000F09CF8002801D023
:1034CC00012000E00020C0B202BD00B50449072273
:1034DC0000F04EF800BD0000700600206C060020C5
:1034EC003C0600205C0600206006002068060020D8
:1034FC00640600208406002080060020740600204C
:10350C0078060020C80500207C0600204406002018
:10351C001925000808000020F0470008E04A0008C0
:10352C00F04A0008F932000829330008004B000863
:10353C002334000810B582B0044614F1010F0AD0F0
:10354C008DF80000012200A9012000F05EF801288E
:10355C0001D1204616BD4FF0FF3016BD80B500F0EE
:10356C005DF8024A11001820ABBEFBE726000200F2
:10357C0062B38B0708D0521E11F8013B00F8013BD7
:10358C0000F024808B07F6D1830740F0208000BF29
:10359C00103A07D330B4B1E83810103AA0E838101C
:1035AC00F9D230BC530724BFB1E80810A0E80810CA
:1035BC0044BF51F8043B40F8043BD20724BF31F818
:1035CC00022B20F8022B44BF0B7803707047083A8B
:1035DC0007D3B1E80810083A40F8043B40F804CB94
:1035EC00F7D25307E4E710B504002000FFF7C0FF43
:1035FC00200010BD70B504000D00FFF755FD2E68BE
:10360C002C60FFF75FFD300070BD80B5002802D440
:10361C0000F03AF802BD002002BD000080B500F0B9
:10362C0043F802000023DB431068984204D01100D9
:10363C000220ABBE002010605068984204D0111DCF
:10364C000220ABBE0020506001BD000010B584B05C
:10365C00040000F029F8A100421810680021C943A9
:10366C0088420DD107A00090002C01D1002000E071
:10367C00042001900320029069460120ABBE10602B
:10368C0004B010BD3A74740080B5002901D100203B
:10369C0002BD012801D0022802D100F009F802BDB8
:1036AC0000F016F802BD0000004870470000002032
:1036BC0030B583B00C0015000120FFF7C7FF009058
:1036CC000194029569460520ABBE281A03B030BDA3
:1036DC0010B584B0130000900191029301220400F4
:1036EC0069460520ABBE181A2100C046C04604B07E
:1036FC0010BD000010B40268521C3223B2FBF3F46C
:10370C0003FB142243689A4201D1002004E00368B1
:10371C001B1819720260012010BC704710B40268AB
:10372C0043689A4201D100200CE04268521C3223BB
:10373C00B2FBF3F403FB142243681B181B7A0B70C7
:10374C004260012010BC704780B50821DFF80409E5
:10375C0000F090FD00280CD00821DFF8F80800F0EC
:10376C0093FDDFF8F408006850F00200DFF8E81869
:10377C0008600221DFF8DC0800F07CFD00280CD08A
:10378C000221DFF8D00800F07FFDDFF8CC080068DC
:10379C0050F00800DFF8C01808600421DFF8B40806
:1037AC0000F068FD00280CD00421DFF8A80800F018
:1037BC006BFDDFF8A408006850F00800DFF89818DB
:1037CC0008600121DFF88C0800F054FD00280CD0B3
:1037DC000121DFF8800800F057FDDFF87C08006855
:1037EC0050F00400DFF8701808602021DFF864083E
:1037FC0000F040FD002814D0DFF8580800F031FD2F
:10380C000100C9B2DFF854080068FFF773FF002805
:10381C0007D1DFF84408006850F00200DFF83818D0
:10382C0008608021DFF82C0800F024FD00281ED051
:10383C0040F22771DFF81C0800F02BFD012816D18F
:10384C0000A9DFF81C080068FFF768FF002807D004
:10385C009DF8001089B2DFF8FC0700F0FEFC06E0D2
:10386C00002240F22771DFF8EC0700F0CFFC01BD1D
:10387C0080B50821DFF8EC0700F0FCFC00280CD028
:10388C000821DFF8E00700F0FFFCDFF8DC07006838
:10389C0050F00200DFF8D01708600221DFF8C407EF
:1038AC0000F0E8FC00280CD00221DFF8B80700F08B
:1038BC00EBFCDFF8B407006850F00800DFF8A8173D
:1038CC0008600421DFF89C0700F0D4FC00280CD021
:1038DC000421DFF8900700F0D7FCDFF88C070068B4
:1038EC0050F00800DFF8801708600121DFF874073A
:1038FC0000F0C0FC00280CD00121DFF8680700F0B4
:10390C00C3FCDFF86407006850F00400DFF85817B8
:10391C0008602021DFF84C0700F0ACFC002814D024
:10392C00DFF8400700F09DFC0100C9B2DFF83C074E
:10393C000068FFF7DFFE002807D1DFF82C070068CE
:10394C0050F00200DFF8201708608021DFF8140720
:10395C0000F090FC00281ED040F22771DFF804071D
:10396C0000F097FC012816D100A9DFF804070068C5
:10397C00FFF7D4FE002807D09DF8001089B2DFF8BD
:10398C00E40600F06AFC06E0002240F22771DFF842
:10399C00D40600F03BFC01BD80B50821DFF8D4064D
:1039AC0000F068FC00280CD00821DFF8C80600F0F5
:1039BC006BFCDFF8C406006850F00200DFF8B816A4
:1039CC0008600221DFF8AC0600F054FC00280CD093
:1039DC000221DFF8A00600F057FCDFF89C06006817
:1039EC0050F00800DFF8901608600421DFF8840618
:1039FC0000F040FC00280CD00421DFF8780600F021
:103A0C0043FCDFF87406006850F00800DFF8681615
:103A1C0008600121DFF85C0600F02CFC00280CD0BB
:103A2C000121DFF8500600F02FFCDFF84C0600688F
:103A3C0050F00400DFF8401608602021DFF834064F
:103A4C0000F018FC002814D0DFF8280600F009FC60
:103A5C000100C9B2DFF824060068FFF74BFE00280E
:103A6C0007D1DFF81406006850F00200DFF80816E2
:103A7C0008608021DFF8FC0500F0FCFB00281ED05C
:103A8C0040F22771DFF8EC0500F003FC012816D199
:103A9C0000A9DFF8EC050068FFF740FE002807D00E
:103AAC009DF8001089B2DFF8CC0500F0D6FB06E0DB
:103ABC00002240F22771DFF8BC0500F0A7FB01BD26
:103ACC0010B588B0040002A800F07CFB0020ADF813
:103ADC001000E4B2002C05D0022C00F06081C0F084
:103AEC00B280FBE13C2000F005FCDFF870150860AB
:103AFC00DFF868050068002801D10020A1E03C2017
:103B0C0000F0F8FBDFF858150860DFF85405006882
:103B1C00002806D1DFF84405006800F049FC0020BD
:103B2C008FE00020DFF8381509680860DFF83015E1
:103B3C0009684860DFF8241509680860DFF81C156F
:103B4C0009684860DFF80C0500F0A2FA01214FF477
:103B5C008040FEF7B9F901210420FEF7B5F90021E8
:103B6C000420FEF7D1F900210420FEF79CFA032073
:103B7C008DF8020018208DF803004FF40070ADF89A
:103B8C00000000A9DFF8FC04FEF71EFA04208DF8F3
:103B9C0003004FF48060ADF8000000A9DFF8E404E6
:103BAC00FEF712FA02A9DFF8AC0400F09DFA25200A
:103BBC008DF8040005208DF8050000208DF8060016
:103BCC0001208DF8070001A8FEF79DFA40F2FF31A5
:103BDC00DFF8800400F058FB01222821DFF8740480
:103BEC0000F014FB002240F22661DFF8680400F0BC
:103BFC000DFB012240F22551DFF8580400F006FBC2
:103C0C00002240F22441DFF84C0400F0FFFA0022BD
:103C1C0040F64601DFF83C0400F0F8FA002240F6CA
:103C2C006A11DFF8300400F0F1FA00226021DFF8AD
:103C3C00240400F0EBFA0121DFF8180400F0D8FAA4
:103C4C00012008B010BD3C2000F054FBDFF81C1420
:103C5C000860DFF818040068002801D10020F0E7A4
:103C6C003C2000F047FBDFF808140860DFF8000484
:103C7C000068002806D1DFF8F403006800F098FB18
:103C8C000020DEE70020DFF8E81309680860DFF8A1
:103C9C00E01309684860DFF8D41309680860DFF89E
:103CAC00CC1309684860DFF8BC0300F0F1F901217E
:103CBC005FF40030FEF718F901210420FEF704F937
:103CCC0000210420FEF720F900210820FEF7EBF973
:103CDC0003208DF8020018208DF803000420ADF8A5
:103CEC00000000A9DFF89C03FEF76EF904208DF8A4
:103CFC0003000820ADF8000000A9DFF88803FEF7E8
:103D0C0063F902A9DFF85C0300F0EEF926208DF8C8
:103D1C00040006208DF8050000208DF80600012017
:103D2C008DF8070001A8FEF7EEF940F2FF31DFF83D
:103D3C00340300F0A9FA01222821DFF8280300F04F
:103D4C0065FA012240F22771C64800F05FFA0022A2
:103D5C0040F22661C34800F059FA012240F2255185
:103D6C00C04800F053FA002240F22441BD4800F054
:103D7C004DFA002240F64601BA4800F047FA0022FC
:103D8C0040F66A11B74800F041FA00226021B548AC
:103D9C0000F03CFA0121B34800F02AFA50E73C202D
:103DAC0000F0A8FAB5490860B4480068002801D1B1
:103DBC00002046E73C2000F09DFAB1490860B0486D
:103DCC000068002805D1AD48006800F0F1FA002029
:103DDC0037E70020AA4909680860A94909684860C2
:103DEC00A64909680860A54909684860A14800F01F
:103DFC004FF901215FF48020FEF776F801211120A4
:103E0C00FEF762F800211120FEF77EF801219E4892
:103E1C00FEF749F903208DF8020018208DF80300F5
:103E2C004FF48060ADF8000000A99848FEF7CCF87C
:103E3C0004208DF803004FF40060ADF8000000A9D9
:103E4C009248FEF7C1F802A98A4800F04DF92720E4
:103E5C008DF8040007208DF8050000208DF8060071
:103E6C0001208DF8070001A8FEF74DF940F2FF3153
:103E7C00804800F009FA012228217E4800F0C6F99A
:103E8C00002240F227717B4800F0C0F9002240F27A
:103E9C002661784800F0BAF9012240F225517548A4
:103EAC0000F0B4F9002240F22441724800F0AEF95F
:103EBC00002240F646016F4800F0A8F9002240F6B7
:103ECC006A116C4800F0A2F900226021694800F0E8
:103EDC009DF90121674800F08BF9B1E60020B0E6AE
:103EEC000EB410B587B0040000A800F06BF9E4B272
:103EFC00002C03D0022C19D016D319E05548BDF86C
:103F0C002810ADF80410BDF82A10ADF80610BDF855
:103F1C002C10ADF808100999009100A900F0E4F8F4
:103F2C0007B010BC5DF810FB4E48E8E75148E6E7D7
:103F3C00F6E7F8B50C001500C0B2002803D0022833
:103F4C0008D004D309E04548076800260AE0474832
:103F5C000768FAE749480768F7E700200FE0FFF722
:103F6C00B1F8761CAE4209D2FFF79EF83119380031
:103F7C00FFF7D4FB0028F2D1FFF7A4F83000F2BD14
:103F8C002DE9F0410C0015000026C0B2002803D02A
:103F9C00022821D01BD324E02E4F3148D0F80080CA
:103FAC00002D2BD0FFF780F8D8F80400D8F80010BB
:103FBC00884219D1217889B2380000F04EF90122DB
:103FCC0040F22771380000F021F9761C0CE0254FE7
:103FDC002748D0F80080E3E7264F2948D0F8008026
:103FEC00DEE700200BE0761CAE4205D2315D404688
:103FFC00FFF780FB0028F6D1FFF764F83000BDE82E
:10400C00F08180B501000020C9B2002903D002293B
:10401C0009D004D30AE01049FFF7ECFA06E0124984
:10402C00FFF7E8FA02E01449FFF7E4FA02BD80B5A5
:10403C00002909D0C0B2002803D0022807D004D32D
:10404C0007E0044800F011F901BD0648FAE70948F9
:10405C00F8E7F9E700380140A40600208C060020A0
:10406C009006002000440040A80600209406002082
:10407C009806002000480040AC0600209C0600205A
:10408C00A0060020000801401000140000100140A0
:10409C0080B54949884210D04849884218D04849CF
:1040AC00884220D101214FF48040FDF72DFF0021E3
:1040BC004FF48040FDF728FF15E001215FF400303C
:1040CC00FDF732FF00215FF40030FDF72DFF0AE011
:1040DC0001215FF48020FDF727FF00215FF4802091
:1040EC00FDF722FFFFE701BD2DE9F04385B0040089
:1040FC000D005FF00009002600275FF00008208A01
:10410C0081464CF2FF0010EA0909E888E989084366
:10411C00298A0843698A0843A98A084350EA09098D
:10412C00A4F810905FF00009A08981464EF6F310B8
:10413C0010EA0909A88829890843A989084350EA83
:10414C000909A4F80C905FF00009A08A81464FF68B
:10415C00FF4010EA0909688950EA0909A4F814908B
:10416C005FF0000900A8FDF74FFE1548844201D10D
:10417C00039E00E0029E192000FB06F029688900CE
:10418C00B0FBF1F76420B7FBF0F05FEA00195FEACF
:10419C001910642101FB10785FEA08103230642199
:1041AC00B0FBF1F010F00F0050EA0909A4F80890E8
:1041BC0005B0BDE8F083000000440040004800401A
:1041CC00003801404FF4165101600021818000211C
:1041DC00C18000210181002141810C2181810021BC
:1041EC00C18100210182002141820021818270471E
:1041FC00C9B2002904D0818951F40051818104E0B5
:10420C0081894DF6FF72114081817047F0B4002412
:10421C000025002600230F00FFB27F09FFB23C00EF
:10422C0089B211F01F010D000121A9400E000300FD
:10423C00012C01D10C3304E0022C01D1103300E02D
:10424C001433D2B2002A03D018683043186002E04D
:10425C001868B0431860F0BC7047C905C90D81805F
:10426C0070478088C005C00D7047818951F00101ED
:10427C008181704700220088084201D0012200E0B1
:10428C0000221000C0B27047028832EA010101809E
:10429C00704770B40A00002400230025002116008A
:1042AC00F6B27609F6B2350092B212F01F06330060
:1042BC00012616FA03F3012D02D181890B4006E089
:1042CC00022D02D1018A0B4001E0818A0B4092B28F
:1042DC00140AA4B2012111FA04F400880440002B42
:1042EC0003D0002C01D0012100E000210800C0B255
:1042FC0070BC704770B5054605F10F00C408E400AA
:10430C00012000F0B3F8A5422BD2082C04D20824CB
:10431C0002E0083000F04CF8244D286801000CD164
:10432C00291D0868B8B10268A24238BF011DF8D334
:10433C0016E01368A34213D2111D0A68002AF8D1A3
:10434C000068291D00E0111D0A68824203D0136821
:10435C00A342F8D304E000F0B9F80028D9D1002129
:10436C0021B9012000F0A6F8002070BD0E6830685D
:10437C00A0F10802A2423CBF7068086007D3A219E2
:10438C000A6073685360001B0A6810603460086828
:10439C0000281DBF41680029001D00202860012055
:1043AC0000F088F806F1080070BD000054060020EB
:1043BC0000B9704710B5A0F108042068082837D35D
:1043CC0010F0070034D1012000F050F81948416872
:1043DC0009B18C4203D26160446017E019464B6806
:1043EC000BB1A342FAD30A6853189C421BD3A342C5
:1043FC0004D123689A180A600C4607E04A681AB17F
:10440C0023681B199A420ED362604C60616851B1EB
:10441C00226813198B4206D10023036008688018A8
:10442C002060486860600120BDE8104000F042B890
:10443C0010BD00005406002010B5234C2068A0B11C
:10444C00201D00F058F804F1080000F054F804F1B5
:10445C000C0000F050F804F1100000F04CF804F1DE
:10446C001400BDE8104000F046B810BD38B5044645
:10447C00154D286890B9281D00F03CF805F108008E
:10448C0000F038F805F10C0000F034F805F11000DC
:10449C0000F030F805F1140000F02CF80120286031
:1044AC00052C06D205EB8400001DBDE8324000F05F
:1044BC0023B831BD052805D2034901EB8000001D4E
:1044CC0000F01BB87047000024060020064908685D
:1044DC0008B100207047054808600549C908C900A3
:1044EC00091A0160704700BFC0060020C80E0020EA
:1044FC00C8120020704770477047704780B5012084
:10450C00FDF738FC2020FDF71FFD0028FAD0002015
:10451C00FDF744FC5FF48030FDF702FC3120FDF721
:10452C0013FD0028FAD05FF4E0115FF48030FDF742
:10453C0026FC0120FDF72EFC3920FDF705FD002897
:10454C00FAD00020FDF753FC4FF44040FDF752FC2D
:10455C000020FDF741FC4FF48060FDF733FC002098
:10456C00FDF726FC022000F0CBF8002000F0D4F878
:10457C00102000F0DDF80220FDF710FC01BD70B535
:10458C00A4B001245D4800680390FEF78DFDFFF791
:10459C00B5FF00215FF00060FDF701FE4FF44070A5
:1045AC00FDF7AAFD012000F0D1F801210020FFF752
:1045BC0087FAFEF793FD0120FCF79AFAFEF782FDCD
:1045CC00BDF80C0050F00100ADF80C00BDF80C006B
:1045DC0050F00200ADF80C0015E00020ADF818000A
:1045EC000020ADF8140004A983B068461822FEF729
:1045FC00CFFF0EBC0020FFF773FCFEF74EFF01004F
:10460C000020FFF714FDFEF7E0FD0028FBD063212E
:10461C000AA8FEF79BFE0600002E0AD000200AAD69
:10462C00361A4519320029000020FFF7A9FC8642F2
:10463C00F6D163220AA90020FFF77BFC0600002EAE
:10464C0005D031000AA8FEF7C1FE0028F9D00020E1
:10465C00FFF7D7FC54EA000100291FD00024010900
:10466C00BDF80C2061F38202ADF80C20C108BDF836
:10467C000C2061F30412ADF80C204108BDF80C209D
:10468C0061F38612ADF80C208008BDF80C1060F3B5
:10469C004511ADF80C100398FEF7CDFEFEF709FF9F
:1046AC000028AAD000A8FEF710FF009804909DF8EF
:1046BC000400002803D002280AD004D30CE0002008
:1046CC00ADF8160008E04FF44050ADF8160003E0CA
:1046DC004FF40050ADF816009DF80500012802D0EB
:1046EC00022805D079E74FF4C060ADF8180077E7E1
:1046FC004FF48060ADF8180072E70000D84B00084A
:10470C001149096811F038010F4A11600E49096806
:10471C0008430D49086070470B49096831F00801DE
:10472C00094A11600849096808430749086070473D
:10473C000549096831F01001034A11600249096802
:10474C00084301490860704700200240DFF8081058
:10475C00C0B2086070470000008025427047FEE739
:10476C00FEE7FEE7FEE770477047704770477047FB
:10477C007047704770477047704770477047704775
:10478C007047704770477047704770477047704765
:10479C007047704780B5FDF7C2F801BD80B5FDF7D5
:1047AC0095F901BD70477047704770477047704767
:1047BC007047704770477047704770477047704735
:1047CC007047704780B5FEF7BFFF01BD80B5FFF79E
:1047DC004FF801BD80B5FFF7DFF801BD704770479A
:1047EC0070470000443A5C536F66745F54455C44F8
:1047FC0069736B5F54452D53544D3332463130330E
:10480C005C44656D6F2070726F6772616D5C5445AE
:10481C002D49523532302053544D333246313033DA
:10482C005245545669727475616C436F6D2D4344D7
:10483C00435F503130305C6170705C63645F636CFB
:10484C006173732E63000000443A5C536F66745FAF
:10485C0054455C4469736B5F54452D53544D33324E
:10486C00463130335C44656D6F2070726F677261D6
:10487C006D5C54452D49523532302053544D3332F2
:10488C00463130335245545669727475616C436FBE
:10489C006D2D4344435F503130305C6D6F64756CEB
:1048AC0065735C7573625F68772E6300443A5C5382
:1048BC006F66745F54455C4469736B5F54452D534C
:1048CC00544D3332463130335C44656D6F20707219
:1048DC006F6772616D5C54452D49523532302053EF
:1048EC00544D3332463130335245545669727475D7
:1048FC00616C436F6D2D4344435F503130305C6DC0
:10490C006F64756C65735C7573625F74392E6300CC
:10491C000902430002010080320904000001020276
:10492C0000000524001001052406000105240100E7
:10493C000104240206070581030800010904010093
:10494C00020A00000007050202400000070583026E
:10495C004000000010B5084979441C31074C7C44D8
:10496C001A34A14206D0081D0A685118884701461E
:10497C00A142F8D110BD00BF2C0000004C0000007B
:10498C00220343004400200043006C0061007300CC
:10499C00730020006500780061006D0070006C00F1
:1049AC0065000000E3E6FFFFBC06000008000020E5
:1049BC00000000003FD3FFFF0800000020020000B1
:1049CC0000000020000000005553425F45505F5628
:1049DC00414C494428264570436E66675B45505DE3
:1049EC002900000018034900410052002000530028
:1049FC0079007300740065006D0073007045502DD4
:104A0C003E62446F75626C6542756666657265647C
:104A1C000000000070436F6E66696775726174699F
:104A2C006F6E20213D204E554C4C000000F009F8D3
:104A3C00002801D0FFF78EFF0020FFF7A0FD00F04B
:104A4C0002F80120704700F001B800000746FFF79C
:104A5C00F3FC3846FEF782FDFBE700001201100163
:104A6C0002000008FFFF1500000001020301000016
:104A7C0012033000300030003000300030003000C5
:104A8C0031000000A84B0008204B0008E04B000848
:104A9C00B04B0008000000005553425F45505F5674
:104AAC00414C4944287045502900000070496E74EF
:104ABC0065726661636520213D204E554C4C0000AB
:104ACC0070496E7465726661636543757272656E6A
:104ADC00740000004550203D3D20436F6D6D4F75B7
:104AEC00744570004550203D3D20436F6D6D496EFF
:104AFC00457000004550203D3D205265706F72742A
:104B0C0045700000000000000102030401020304D0
:104B1C0006070809604B00086C4B0008784B00082E
:104B2C0000000000F04900088C4900087C4A00088D
:104B3C00000000007055736245505F457874446105
:104B4C00746100007055736245505F457874446120
:104B5C0074610000018100000100000000000000F1
:104B6C0001020000020000000000000001830000B0
:104B7C0003000000000000007045505F4465736343
:104B8C000000000070496E74657266616365000018
:104B9C00C046C046C046C046FFF748FF1C49000847
:104BAC0000000000304B000800000000070500006A
:104BBC000800000000000000000000000705800055
:104BCC0008000000000000000000000000000000D1
:104BDC00020406080403090400000000FFFFFFFFA5
:044BEC00FFFFFFFFC9
:0400000508004B9D07
:00000001FF
