:020000040800F2
:1000000030780020C1620108B9610108BB610108B4
:10001000BD610108BF610108C16101080000000065
:10002000000000000000000000000000C3610108A3
:10003000C561010800000000C7610108C96101082D
:10004000896301088D6301089163010895630108C4
:10005000996301089D630108A1630108A563010874
:10006000A9630108AD630108B1630108B563010824
:10007000B9630108BD630108C1630108C5630108D4
:10008000C9630108CD630108D1630108D563010884
:10009000D9630108DD630108E1630108E563010834
:1000A000E9630108ED630108F1630108F5630108E4
:1000B000F9630108FD630108016401080564010892
:1000C000096401080D640108116401081564010840
:1000D000196401081D6401082164010825640108F0
:1000E000296401082D640108316401080000000042
:1000F0000000000000000000000000000000000000
:1001000000000000000000003564010839640108A7
:100110003D6401084164010845640108496401081F
:100120004D640108516401085564010859640108CF
:100130005D640108CB610108CD61010869640108B3
:100140006D6401087164010875640108796401082F
:100150002F53544D33325F486F6D655F576562733F
:1001600065727665725F44656D6F5F66696C657315
:100170002F54452D53544D3332463130372E6A704B
:100180006700485454502F312E3020323030204FE9
:100190004B0D0A5365727665723A207549502F30BF
:1001A0002E392028687474703A2F2F64756E6B6531
:1001B0006C732E636F6D2F6164616D2F7569702F85
:1001C000290D0A436F6E74656E742D747970653AEB
:1001D00020696D6167652F6A70670D0A0D0AFFD887
:1001E000FFE000104A4649460001010100C800C86E
:1001F0000000FFE1010645786966000049492A00D0
:10020000080000000A001A01050001000000860035
:1002100000001B010500010000008E000000280105
:100220000300010000000200000031010200120082
:100230000000960000003E01050002000000A8003A
:1002400000003F01050006000000B80000000203A6
:10025000020016000000E80000001051010001003B
:100260000000010000001151040001000000C21E46
:1002700000001251040001000000C21E0000000036
:1002800000003F0D0300E80300003F0D0300E803FA
:1002900000005061696E742E4E45542076332E3521
:1002A0002E313000257A0000A086010083800000F6
:1002B000A0860100FFF90000A0860100E98000008F
:1002C000A086010030750000A086010060EA0000F1
:1002D000A0860100983A0000A08601006F17000078
:1002E000A086010050686F746F73686F7020494377
:1002F000432070726F66696C6500FFE20C584943D9
:10030000435F50524F46494C4500010100000C48E4
:100310004C696E6F021000006D6E7472524742207D
:1003200058595A2007CE000200090006003100008B
:10033000616373704D5346540000000049454320EB
:10034000735247420000000000000000000000005F
:100350000000F6D6000100000000D32D48502020F8
:10036000000000000000000000000000000000008D
:10037000000000000000000000000000000000007D
:10038000000000000000000000000000000000115C
:100390006370727400000150000000336465736381
:1003A000000001840000006C77747074000001F09C
:1003B00000000014626B707400000204000000145E
:1003C0007258595A00000218000000146758595A10
:1003D0000000022C000000146258595A000002402C
:1003E00000000014646D6E64000002540000007090
:1003F000646D6464000002C4000000887675656462
:100400000000034C0000008676696577000003D485
:10041000000000246C756D69000003F800000014F2
:100420006D6561730000040C00000024746563684E
:10043000000004300000000C725452430000043CE1
:100440000000080C675452430000043C0000080CF4
:10045000625452430000043C0000080C7465787438
:1004600000000000436F7079726967687420286328
:10047000292031393938204865776C6574742D50DE
:1004800061636B61726420436F6D70616E7900000F
:10049000646573630000000000000012735247425D
:1004A0002049454336313936362D322E3100000091
:1004B000000000000000000012735247422049452E
:1004C0004336313936362D322E310000000000001F
:1004D000000000000000000000000000000000001C
:1004E000000000000000000000000000000000000C
:1004F00000000000000000000000000058595A20D1
:10050000000000000000F35100010000000116CCC3
:1005100058595A20000000000000000000000000B0
:100520000000000058595A200000000000006FA28F
:10053000000038F50000039058595A2000000000D0
:10054000000062990000B785000018DA58595A2057
:1005500000000000000024A000000F840000B6CFBF
:1005600064657363000000000000001649454320E5
:10057000687474703A2F2F7777772E6965632E63CE
:10058000680000000000000000000000164945431C
:1005900020687474703A2F2F7777772E6965632EF1
:1005A0006368000000000000000000000000000080
:1005B000000000000000000000000000000000003B
:1005C000000000000000000000000000000000002B
:1005D00064657363000000000000002E494543205D
:1005E00036313936362D322E312044656661756CD0
:1005F000742052474220636F6C6F75722073706174
:100600006365202D20735247420000000000000067
:10061000000000002E4945432036313936362D3250
:100620002E312044656661756C7420524742206308
:100630006F6C6F7572207370616365202D2073522B
:100640004742000000000000000000000000000021
:1006500000000000000000006465736300000000FB
:100660000000002C5265666572656E6365205669F0
:100670006577696E6720436F6E646974696F6E2079
:10068000696E2049454336313936362D322E3100D8
:10069000000000000000000000002C52656665723A
:1006A000656E63652056696577696E6720436F6E76
:1006B000646974696F6E20696E204945433631392B
:1006C00036362D322E310000000000000000000000
:1006D000000000000000000000000000000000001A
:1006E00076696577000000000013A4FE00145F2EF9
:1006F0000010CF140003EDCC0004130B00035C9E2C
:100700000000000158595A2000000000004C095612
:100710000050000000571FE76D6561730000000086
:1007200000000001000000000000000000000000C8
:10073000000000000000028F0000000273696720C3
:1007400000000000435254206375727600000000E0
:100750000000040000000005000A000F001400194A
:10076000001E00230028002D00320037003B00400F
:100770000045004A004F00540059005E00630068C5
:10078000006D00720077007C00810086008B009075
:100790000095009A009F00A400A900AE00B200B727
:1007A00000BC00C100C600CB00D000D500DB00E0DB
:1007B00000E500EB00F000F600FB01010107010D70
:1007C00001130119011F0125012B01320138013EDE
:1007D0000145014C0152015901600167016E01752B
:1007E000017C0183018B0192019A01A101A901B150
:1007F00001B901C101C901D101D901E101E901F248
:1008000001FA0203020C0214021D0226022F023812
:100810000241024B0254025D02670271027A0284B5
:10082000028E029802A202AC02B602C102CB02D52D
:1008300002E002EB02F50300030B03160321032D74
:1008400003380343034F035A03660372037E038A8C
:10085000039603A203AE03BA03C703D303E003EC7A
:1008600003F9040604130420042D043B0448045532
:1008700004630471047E048C049A04A804B604C4BE
:1008800004D304E104F004FE050D051C052B053A14
:1008900005490558056705770586059605A605B53A
:1008A00005C505D505E505F606060616062706372D
:1008B00006480659066A067B068C069D06AF06C0EA
:1008C00006D106E306F507070719072B073D074F73
:1008D000076107740786079907AC07BF07D207E5CA
:1008E00007F8080B081F08320846085A086E0882E5
:1008F000089608AA08BE08D208E708FB09100925CF
:10090000093A094F09640979098F09A409BA09CF7D
:1009100009E509FB0A110A270A3D0A540A6A0A81F5
:100920000A980AAE0AC50ADC0AF30B0B0B220B3934
:100930000B510B690B800B980BB00BC80BE10BF93B
:100940000C120C2A0C430C5C0C750C8E0CA70CC002
:100950000CD90CF30D0D0D260D400D5A0D740D8E96
:100960000DA90DC30DDE0DF80E130E2E0E490E64EB
:100970000E7F0E9B0EB60ED20EEE0F090F250F4105
:100980000F5E0F7A0F960FB30FCF0FEC10091026E2
:1009900010431061107E109B10B910D710F5111381
:1009A0001131114F116D118C11AA11C911E81207E3
:1009B000122612451264128412A312C312E3130307
:1009C000132313431363138313A413C513E51406EE
:1009D00014271449146A148B14AD14CE14F0151294
:1009E000153415561578159B15BD15E016031626FA
:1009F0001649166C168F16B216D616FA171D174121
:100A00001765178917AE17D217F7181B1840186506
:100A1000188A18AF18D518FA19201945196B1991A9
:100A200019B719DD1A041A2A1A511A771A9E1AC50B
:100A30001AEC1B141B3B1B631B8A1BB21BDA1C0228
:100A40001C2A1C521C7B1CA31CCC1CF51D1E1D4704
:100A50001D701D991DC31DEC1E161E401E6A1E949E
:100A60001EBE1EE91F131F3E1F691F941FBF1FEAF2
:100A700020152041206C209820C420F0211C214802
:100A8000217521A121CE21FB22272255228222AFCE
:100A900022DD230A23382366239423C223F0241F54
:100AA000244D247C24AB24DA250925382568259794
:100AB00025C725F726272657268726B726E827188D
:100AC0002749277A27AB27DC280D283F287128A241
:100AD00028D429062938296B299D29D02A022A35AC
:100AE0002A682A9B2ACF2B022B362B692B9D2BD1D0
:100AF0002C052C392C6E2CA22CD72D0C2D412D76AB
:100B00002DAB2DE12E162E4C2E822EB72EEE2F243D
:100B10002F5A2F912FC72FFE3035306C30A430DB89
:100B20003112314A318231BA31F2322A3263329B88
:100B300032D4330D3346337F33B833F1342B34653D
:100B4000349E34D83513354D358735C235FD3637AB
:100B5000367236AE36E937243760379C37D73814CB
:100B60003850388C38C839053942397F39BC39F9A1
:100B70003A363A743AB23AEF3B2D3B6B3BAA3BE82C
:100B80003C273C653CA43CE33D223D613DA13DE06A
:100B90003E203E603EA03EE03F213F613FA23FE25B
:100BA0004023406440A640E74129416A41AC41EE00
:100BB0004230427242B542F7433A437D43C0440358
:100BC0004447448A44CE45124555459A45DE46225F
:100BD000466746AB46F04735477B47C04805484B1C
:100BE000489148D7491D496349A949F04A374A7D88
:100BF0004AC44B0C4B534B9A4BE24C2A4C724CBAA6
:100C00004D024D4A4D934DDC4E254E6E4EB74F0072
:100C10004F494F934FDD5027507150BB51065150F3
:100C2000519B51E65231527C52C75313535F53AA22
:100C300053F65442548F54DB5528557555C2560F00
:100C4000565C56A956F75744579257E0582F587D8F
:100C500058CB591A596959B85A075A565AA65AF5CB
:100C60005B455B955BE55C355C865CD65D275D78B6
:100C70005DC95E1A5E6C5EBD5F0F5F615FB360054C
:100C8000605760AA60FC614F61A261F56249629C95
:100C900062F06343639763EB6440649464E9653D89
:100CA000659265E7663D669266E8673D679367E92A
:100CB000683F689668EC6943699A69F16A486A9F77
:100CC0006AF76B4F6BA76BFF6C576CAF6D086D606D
:100CD0006DB96E126E6B6EC46F1E6F786FD1702B14
:100CE000708670E0713A719571F0724B72A6730163
:100CF000735D73B87414747074CC7528758575E160
:100D0000763E769B76F8775677B37811786E78CC06
:100D1000792A798979E77A467AA57B047B637BC255
:100D20007C217C817CE17D417DA17E017E627EC251
:100D30007F237F847FE5804780A8810A816B81CDF6
:100D40008230829282F4835783BA841D848084E344
:100D5000854785AB860E867286D7873B879F88043A
:100D6000886988CE8933899989FE8A648ACA8B30DA
:100D70008B968BFC8C638CCA8D318D988DFF8E6623
:100D80008ECE8F368F9E9006906E90D6913F91A812
:100D90009211927A92E3934D93B69420948A94F4AC
:100DA000955F95C99634969F970A977597E0984CEA
:100DB00098B89924999099FC9A689AD59B429BAFD0
:100DC0009C1C9C899CF79D649DD29E409EAE9F1D5D
:100DD0009F8B9FFAA069A0D8A147A1B6A226A29690
:100DE000A306A376A3E6A456A4C7A538A5A9A61A68
:100DF000A68BA6FDA76EA7E0A852A8C4A937A9A9EB
:100E0000AA1CAA8FAB02AB75ABE9AC5CACD0AD440D
:100E1000ADB8AE2DAEA1AF16AF8BB000B075B0EAD5
:100E2000B160B1D6B24BB2C2B338B3AEB425B49C44
:100E3000B513B58AB601B679B6F0B768B7E0B85958
:100E4000B8D1B94AB9C2BA3BBAB5BB2EBBA7BC210F
:100E5000BC9BBD15BD8FBE0ABE84BEFFBF7ABFF569
:100E6000C070C0ECC167C1E3C25FC2DBC358C3D46A
:100E7000C451C4CEC54BC5C8C646C6C3C741C7BF0B
:100E8000C83DC8BCC93AC9B9CA38CAB7CB36CBB64F
:100E9000CC35CCB5CD35CDB5CE36CEB6CF37CFB837
:100EA000D039D0BAD13CD1BED23FD2C1D344D3C6BF
:100EB000D449D4CBD54ED5D1D655D6D8D75CD7E0EA
:100EC000D864D8E8D96CD9F1DA76DAFBDB80DC05B6
:100ED000DC8ADD10DD96DE1CDEA2DF29DFAFE03626
:100EE000E0BDE144E1CCE253E2DBE363E3EBE47336
:100EF000E4FCE584E60DE696E71FE7A9E832E8BCE6
:100F0000E946E9D0EA5BEAE5EB70EBFBEC86ED1134
:100F1000ED9CEE28EEB4EF40EFCCF058F0E5F17226
:100F2000F1FFF28CF319F3A7F434F4C2F550F5DEB7
:100F3000F66DF6FBF78AF819F8A8F938F9C7FA57E9
:100F4000FAE7FB77FC07FC98FD29FDBAFE4BFEDCB7
:100F5000FF6DFFFFFFDB00430003020202020203FA
:100F60000202020303030304060404040404080643
:100F700006050609080A0A090809090A0C0F0C0ADD
:100F80000B0E0B09090D110D0E0F101011100A0C8C
:100F900012131210130F101010FFDB004301030394
:100FA0000304030408040408100B090B10101010AC
:100FB0001010101010101010101010101010101031
:100FC0001010101010101010101010101010101021
:100FD0001010101010101010101010101010FFC072
:100FE00000110800CC00FA030122000211010311D4
:100FF00001FFC4001F000001050101010101010002
:1010000000000000000000010203040506070809B3
:101010000A0BFFC400B5100002010303020403051C
:101020000504040000017D010203000411051221E2
:1010300031410613516107227114328191A10823B5
:1010400042B1C11552D1F02433627282090A1617D7
:1010500018191A25262728292A3435363738393AD7
:10106000434445464748494A535455565758595A98
:10107000636465666768696A737475767778797A88
:10108000838485868788898A929394959697989980
:101090009AA2A3A4A5A6A7A8A9AAB2B3B4B5B6B7A5
:1010A000B8B9BAC2C3C4C5C6C7C8C9CAD2D3D4D5D1
:1010B000D6D7D8D9DAE1E2E3E4E5E6E7E8E9EAF110
:1010C000F2F3F4F5F6F7F8F9FAFFC4001F01000394
:1010D0000101010101010101010000000000000106
:1010E00002030405060708090A0BFFC400B5110036
:1010F000020102040403040705040400010277004E
:1011000001020311040521310612415107617113D7
:1011100022328108144291A1B1C109233352F01542
:101120006272D10A162434E125F11718191A2627FC
:1011300028292A35363738393A43444546474849FD
:101140004A535455565758595A63646566676869D7
:101150006A737475767778797A82838485868788CE
:10116000898A92939495969798999AA2A3A4A5A6F2
:10117000A7A8A9AAB2B3B4B5B6B7B8B9BAC2C3C41E
:10118000C5C6C7C8C9CAD2D3D4D5D6D7D8D9DAE24A
:10119000E3E4E5E6E7E8E9EAF2F3F4F5F6F7F8F96F
:1011A000FAFFDA000C03010002110311003F00F7FF
:1011B0003F891FB487C66F0EFC45F13685A378C9F9
:1011C00063B0B0D56EADADE26D3ED5CC71A4ACA12F
:1011D0007718F270001C9278E79CD64699FB48FE7F
:1011E000D1BAE4EF67A27886EB51B88C06786CF43C
:1011F0004B79DD01E84AA42481C1E4D739E26F0DBF
:10120000DDF8E3F681D6FC256523432EAFE2FBCB68
:10121000269954334311BC90492807825103B807DB
:1012200083B715F75F82BC2FA77846C97C29E0DD1C
:1012300022D34BD0B4BC459DA5E5BA9B682EC4E42F
:1012400012DD3748C5999B7703193E0D0857C44EE8
:10125000569B493EE7E9F9BE372CC9B0F429AC24C6
:101260002752508B778ADADBBD356DDCF8B6FBF69A
:101270009CFDA0AC2E24B3BFF174B6D711712452DB
:10128000E956D1BA1F7531645506FDAA7E3BA8FF09
:101290000091E9BFF05F6BFF00C6EBEBFF008E3FF4
:1012A0000C746F8A3E13D4F4B9F4F56D7B4CB36BB8
:1012B000BD2AED171224B862B1E79251D936B2F2C5
:1012C000390C3E60A47E71DC3839C1EBD38ACB1473
:1012D000ABE1A4973B69F9B3BF20AD95677464FE99
:1012E000AB08CE36BAE54D6BB35A796C779F18BF11
:1012F0006A7FDA0740D1638B46F8ACE267724C91A3
:10130000D85A2F45CA9CC6A4EC6CE472A4E390386A
:10131000CFCF763FB7D7ED7B7A5A2B5F18DD48F1F8
:1013200015127EED3A900F43F5AE83E2E943A45ADD
:1013300043F62BDB44577318BA937E50824053B167
:1013400070339F5E4F6AF0BF08CD796F0CD7170FCF
:10135000BE517122EFDBD406DA323A7A0FC2BD5C9D
:101360000D472A5ABBB3E2788B0B1A38B93845249B
:10137000B956892DD3E8B4E87B04BFB747ED888A16
:101380004CFE31BA439C0F92219FC8E6A197F6EB21
:10139000FDAE70246F1CDF03BB000F280FCBAD72B6
:1013A0009E20BB68FC2963A6C7A359C97335F4B74F
:1013B00033EA81E469DA164455876E760546566C41
:1013C000850C7CC39240C0CDD76E223A1E8BA0D92B
:1013D000E8D691DC4725C9BCD5A29E579EE4B94307
:1013E00012B29628A230AC06D0A4EF3BB3818EAEE9
:1013F00077D8F0792276F37EDDDFB5B261A5F1C64C
:10140000A6ADBBA6631FC8D4527EDE1FB59461771C
:1014100078E7550C7B12BF877AE1FC45711DC596B4
:1014200089E1DB3D2EC2D9AD6DE4173A9C32CA6525
:10143000BC98CA583CA198AAED42130814614120F7
:101440009C9AB3AE6A969A8DFE956B6BE1CB0B1BA3
:101450005B4D361B6792DA595CDE4CB92F712191D6
:101460009B0ED9190984E061579C9CEF4D0395743C
:101470003A89BF6F1FDAB4613FE13CD6777A6EC715
:101480003F9D447F6F4FDAA55C423C7DAD9CFABF27
:1014900023F5AE4B5FD4ED3C4BAFA0B0F0FD9E8F7B
:1014A000676905BC2A2D9E4659992355791BCC6640
:1014B0003B99816383B72780071526ABA959789399
:1014C000C67757F6FE16B0D0ECA2957CAB1B4795BD
:1014D000A10AA8BD0C8ECFF31049CB1E49C1030051
:1014E0003E67B585CB1474ADFB7AFED506508BE311
:1014F000FD6F8EA3CD6CFF003A61FDBD7F6A8F3317
:1015000062FC43D6F19FF9E8D9FF00D0AB9A8B5724
:10151000B3D57C6373E227F0B5869D6C2FA49A3D0A
:101520002E1699ADC4424CAC3B99BCC29B78C96D98
:10153000D8EF9E69DA2EA76A9AD49E30D4BC13A73E
:101540004915BDDBDD9D14CD30B631872DF67DC04C
:10155000893663E5CEFDD8EE4D1CCFB072A7D4ED31
:10156000F43FDBAFF6A6B86781BE206AE774AB969E
:1015700091C9217073B4E4E3B7E75AF37ED99FB4FD
:10158000944B23C1F1375B95A3C6D06E9BE7FA005D
:101590004F7E2BCBFC2FE265F0F4CFE267F0C69FC5
:1015A000AA4B1DBCEE34BBC127D999DE36550DB10F
:1015B00095BE52C181DC3E655CE46417E99E28BBA0
:1015C000D06C2F6FD3C3FA7EAD7173672DAF937A52
:1015D000B21584CC8504C9B194F991EEDC84E4643D
:1015E000720D438A6DBB1D10C4D4A71518CB4F458F
:1015F000FE46A6A5FB6D7ED470EA13ACDF14FC5545
:10160000182CCE8B1DFC814679C7DEE83A7E155337
:10161000FE1B6BF6A19376EF8B9E2E1E9B75190019
:10162000CFD77715910EB8747B4BB2BE16D2F58921
:10163000751B63627ED8921FB1976526E2228CBF2C
:10164000BC5DA71BB72FCC72A6A03A99D22C24D38D
:1016500061F0C69B723565489AE6E11DA5B5DAC111
:10166000F74454AA82DB4A9DC186D63D0E0D5F35F4
:10167000B4B1CF652D5B368FEDA7FB5114663F18D3
:101680003C63B863006A9263F13BA947EDA5FB5048
:10169000046CFC5FF186E24607F6ACB8C77E77D6ED
:1016A0001A6ACB65A5CDA1C5E1BD2EE06A3223350E
:1016B000FCD149F69B511E7E588AB0401F71DDB99E
:1016C000589DAB82B83963EA5E569FFD831F87340D
:1016D000B68E5996ECEA4D1BFDA902A95F207CDB72
:1016E0003CB6DFB8E5376E45F9B1905DFC85CABB05
:1016F0009D00FDB47F6A011E4FC5CF1896CE3FE412
:101700002D363FF43A53FB67FED3FB370F8B7E3009
:10171000CE79CEAF3E0FFE3F5CE5C6AE8DA647E16B
:10172000DFF844B4C31C570F78BA8A2BADE49BD5BD
:1017300017C82DBB618D766F1F206CB37CC460070A
:101740005C6A516A3A6DAE86BE14D32CA2D325973B
:1017500017B1A49F6ABB326C38998B142136E1769D
:10176000AAE373677714733EC1CABA33A07FDB4321
:10177000F69E0A3FE2EDF8C06579FF0089BCFD7F67
:10178000EFBA64DFB667ED40A10AFC61F1890CB9DC
:101790006FF89BCE369F4FBD58B7BAA1D5F4FB0D5D
:1017A0001E7F0AE8D62BA42C90A5DDA44EB717C146
:1017B000DCC9BEE1998ABB2EFD8A542808AA304FA5
:1017C0003515F6A526B96F6515E786B4AD35B4CBEA
:1017D0007FB123D8C0D19BB55762269B731DD29D84
:1017E000D82C36821578E09227E43715B9BB73FB05
:1017F00066FED3AAC047F17FC67CFA6B173E9FEF07
:10180000558F0D7ED7DFB4EEAFAE5A58DE7C62F155
:10181000B476CF3A47237F6D5C0EA78190E3DFF269
:10182000AE6F5ED6D75B5B0B9B9F0A693A53DAD9E2
:1018300043692AE9F1C91A4DE5204F3DC333665784
:10184000DBB9C8201624802A8C09141AC697E544EF
:10185000A10DDC442F4CB6783FCFF3A2FA5DA1A8CE
:101860002936979FE0AE7D95A47C4AF8FDAB59DB05
:101870005E7FC2FAD5ED4DC69775AA88EEB56BA806
:10188000B745072C91B1189A52A09D91EE230738C5
:10189000AD0F10FC44F8DDE1BF0DCFABEA1F17BE62
:1018A0002047716D717160B235DCC2CAE6EE1BA3D0
:1018B000149146E486F9231BC920825C2FCA548602
:1018C000E3BE18FC61D3351D32C3C253F81745225D
:1018D0004D674BD206AF9CCB696E7ECC921F241015
:1018E0008439F30B12A4BEF71B811B85CF1BF8377D
:1018F00040F0CF877C39E1BD275E87C4377AB2C517
:101900008BEF2BECF045E7CBE6F9AD192CEB7242EF
:10191000F94C4B0FDDAA657382BF3788A35A8ABF83
:1019200033D577F4F33F6DC9F39CB734C42A12A5BD
:1019300018B8CB6F671778C549C9DF952492B68F61
:10194000577D2EF51FE1EF8C1FB4B78A6568740FC1
:101950001FF8D2F994E18C7A94C114E33B4B960AB8
:10196000091D01393DAAE6BFF15BF69CF0BC10DC15
:101970007883C6BE35B1B7BAF960B97D466686468A
:10198000EA02C8AC50B60676E738E718AFB2FE0EEA
:10199000FC04F0AFF624052EEEA2B2D26E3CAB48AA
:1019A000EDF6C6CCCA3E7690EDF9B7EE0587723DEE
:1019B000AACFC4AF843A5E8FA7CB62C1B55F0E6A6F
:1019C000E1A1BBB1BDDA7C96F97011D403B48048B3
:1019D000FE2565055B918E9597D4F67CCEA3BFA9B5
:1019E000F373E3EC37D72D0C0D2F657DB95735BD5B
:1019F00076BFCADD3CCF9BBF651F8C7F143C5DF179
:101A0000F3C37A27897E21788752D3A64BC325ADAD
:101A1000D5FC9245215B690AEE5270707079EE0137
:101A2000AFD10AFCCDFD96F447F0C7ED69A5786DFE
:101A3000E7F38E957DAA59F9BC66411C3320638E6D
:101A40000676838ED9AFD32AE9CA5C9D1929BBB427
:101A5000DFE879FE24C30D1CCE8CF0915184E94659
:101A60004AC92DDCB5B23F39758F154BE0BFDA1B83
:101A700059F16471349FD93E32BFBA78D0E1A48D58
:101A80006F6512203D01642CB93EB5F7E784BC4B6D
:101A9000A178B74687C49E13D46DEFF4EBEFDE0751
:101AA00046C157C0DCAC3AAB0EEA4020D7E6DF8C2B
:101AB0007C5BF0EAFBE24F8DAF754F11C491CDAF67
:101AC0006A33DA6C72A640D792361BE46DA36124A8
:101AD0001C7DEDA31824AC161F103C01A16A57977A
:101AE0003A27C45BDD3D17007D82E65866B85DA8E5
:101AF00076A951EBE70F988EABD79AE6C354AB4269
:101B000052F76E9B3A33AC160B35A34671ACA35219
:101B1000308A7B34D5969BEE9BFCD1F787C7CF8A62
:101B2000DA3FC2CF086A77325F447C47ABDA35A62A
:101B300097688DFBCC90C04A475D885D98B1C02402
:101B40000504122BF392690741D0702B675AF18775
:101B5000C359EE66961F1235ECD3E775CDEBCDBDBC
:101B60009B7C403B90A493B4CB9383F74719FBDC59
:101B7000E6ABADF86A57B8BDD1F55866D356736E6B
:101B800093A93B4B81C8E7953D4ED3C80475EA72D3
:101B9000C64EA57926E365D0EFE1AC360F2BA33511
:101BA0000A8A5296B27A2492DBAE9BEEF732FE3668
:101BB000CE8DA65B2ADDFDA5E49E499985CACC01A0
:101BC00065C73845DA78E9C8C62BC43C1DA65FEA6C
:101BD00032DCA258C9E42C858B9F9465B0D8FC33C5
:101BE0005EDDE298BC09E21D3C5B45E2882178D7C6
:101BF0007E260ECAF2796D95384E1776003C9C1001
:101C000071D71E2D71E1ED5249A2FB1F87FC32D125
:101C1000007CC8E504C8304F2AC38F4E31EB5E8E7E
:101C20000DA8C2D25A9F279EC655ABB74A49C1DB01
:101C3000AADD27E7E6FF00AB1D8F886E759B7F0C42
:101C4000E9DE1CD3F44D2DA38AFA4B896F4C0C6F3F
:101C5000195E345F28C9BF6F94A63DCABB7219DCF8
:101C6000E4E71587AE5FEB62DB4BD2E3D22CE38A6D
:101C7000D9A69249618009A767DB8F324DDC85DBED
:101C8000C0C0C64F5CD4167E18D21EFE08B51D3BE0
:101C900045B1D3DA60D7124D002D1C5B509E831BDB
:101CA000B25C7A700FD587C1BADDA47FBCF0AF8774
:101CB000159320FF00A30CFF009E6B49E22952768A
:101CC00095FEE39B09906331D1E6A2E2D69F697D40
:101CD000C59D73C43AADF268DA4AE87A65B5AE9943
:101CE0006CF119ADED7CB9EE64699A4F3277DC7C0A
:101CF000C601F6838185551CE325BAE6B57DADEABC
:101D00009616F3E91616B65A7D9C76D18B387CA7C9
:101D1000948672D24A771DEE7760B7190AA31C55D4
:101D20000BAF0FEB76D1A492783F4058C9C2B8B13F
:101D30001B58FA67B9FF000AA377637D6CCD1BF8C7
:101D400063C3A767A5929E6A562E823B5708E69307
:101D5000D947FF00025D0E8350F10DF6B3AD833E0F
:101D600095A5DA5ADB416F6D0C7676C210E91C6AD4
:101D70009BDF93BA46DBB9DFF898934971E22D4BAC
:101D800059F11DE6AB7FA66976CA645F2EDECAD81C
:101D900041004550A0040C719C64E3A924F7AE54A3
:101DA0008BF25517C2FE1E507BFD80700FB75E99F7
:101DB0003C73F5ABE9E1FD7EF34783C43A77863C9B
:101DC0002D3E973DCB59C57C6D55609264D9E62276
:101DD000C8E42B32F991E4024832271C8AA856A5A0
:101DE00024B953B6C7262B20C5E125CB5E7052DE41
:101DF000CE6AFF0071B03C4FAB6A7E24BEF135F66F
:101E000097A3DBCB35F4B76B65696C22B38C172CC9
:101E100022488B1C46381B771E38CD56D13C53AC1C
:101E20005B6B8FE2FBBD17469A64BB37CBA6496C50
:101E3000AFA7B3EE2C226819BE68B3FC05B18E2B98
:101E40009ED5E1F1269493DDC9E11F0D35BC2158E3
:101E50004A96B0BE63723CB7186395391C818C9C5E
:101E600075E2B1BFE122D6A52A6DFC1FA14D2B3A28
:101E7000A809A6AE58720E3AF39DA07D6A955A4FF6
:101E80004B7919CB23C6C29FB5BC5ABF4927AFF5C2
:101E9000F81DA787BC4DE22D0C9F1047A26917B70C
:101EA00071C6EC2DAF2D566B52CCA461E327903355
:101EB000C73C100F6A4D375DF13F8774FBABAB6DCC
:101EC0001F4EB99AE6DA4B4DB7F6A93A2094152C75
:101ED00081BEEBA86255C72A4023915CEC3AC78BC0
:101EE0005AE5ADEDBC31A1C170E71E43242931E7AD
:101EF00081B090C7A1EDD6AFCDAD78D6D545B6B3FC
:101F0000A1C16176A77186E2CC29DA7EE90A403F59
:101F10008F7A53AF4A2AF22F07C3B8FC6CD53A1C0C
:101F2000ADEBF6969EA68DB6BDACE8D65736F6D686
:101F30003A44CDA85B9B3985E5B4733451B3296924
:101F400022DDCC728DBF2B8E464FA9A626B57FA46D
:101F500069771A659DBE8D7A3538E3865B8BD449E7
:101F6000E6B48D6459330367F74E4A0562392ACCCB
:101F7000A783588FABEAAE4BCDA6E8CECDD59B4F0D
:101F80008C93F8E2BABD07C21E22D674DD3F538C93
:101F90007856DA2D52F96C221358C8B891B7850CCF
:101FA000CB195009423EF6464120020D4FD6E83388
:101FB000D0ABC179AE1D2954E54B6F8BFE019A75EC
:101FC000ED4ED6CE6D1ED13466B4BE78DEE659AD88
:101FD000A292788C792BE4CA7E6881DC430070C3BE
:101FE00019CE061EFE21BE8EC7FB0238F44FB0C9C3
:101FF0003ADDBCE6DE3376B22AB28459BEF2C6437D
:102000001253A16553DAA1D7B4CF10F8665B6B5DAC
:102010004B4ED04BDD5AA5D6D8AD11C20258146331
:102020008C6E56560C0120104672081A563E0AF164
:10203000F6A22CD6CFC37E1E77D422335B4616D4AD
:1020400048EA151CFC85B2085951B04670C0D1F55C
:10205000CA3713E0DCCA305372824F67CFD3AF4325
:102060002A5D6EE9EDFF00B15E4D2C5889BED2921B
:10207000AC512DD2CBB7695F3C7CE63C007613B403
:102080001C9C649CB9BC41732E9D06852FF642585A
:10209000D8C92CB6F2C7044B72EF284DFE6CC3E7CB
:1020A0009402836AB12172D8C6E35AB71E14F14E66
:1020B0009DA46A3A9DF27866CE4D36E3ECF259BDA6
:1020C000B0F399B62B92BB54A11B5D4F2C3A81D42F
:1020D0008CF30759D532B9B0D2460E40FB0A0FE94E
:1020E00047D728234A3C119AE21374DC1DB4F8BF89
:1020F000E01A73F8AEFAFEC6D347D44E8EB6FA672E
:1021000098B692C36F0C533A3BEF2269170D3618FD
:1021100090A5F2547CA3800525D789AFF588AD97AB
:10212000547D1E33A7C7F66B636B6F0DB97883B30D
:102130002994A01E6BFCC4191B2C40504E00AA47CA
:102140005CD5116210DAE96182FEF33A7C63E6DC69
:1021500071EB918C73C7F53A023F163E88DE21FB86
:102160000F87BECB19FBC45B79B9DE17022DDE6683
:1021700072476E993D39A16368762A7C0B9C43E3D4
:10218000E457D3E2FF008036EF5BBCF11476B26B0C
:1021900089A479F676E96A86DADE180346836A1638
:1021A00011801DC803739CB31E589359A6E02EB32B
:1021B000A6E4C32A9BB8C02181C73D80FA523EA540
:1021C000AECEE71A3E8F2945663FF12C8DC2004006
:1021D000E703819603F115BD6BA47882E2DA6D56B0
:1021E0002F0EE916D6D69F67926DF651A4B1AC9F1B
:1021F0007180E0ED38CAB0E3DFA66962A95B44ED07
:10220000E871D4E16CC28D5F6739D352DBE35A6D5C
:10221000A3BEABE25D3AAEE8F72F845E00D3E3796C
:10222000A3BDBBF2B51B4D6B45D692D669E28D6E50
:102230002CD9AC81550D03334A7CF71B1664382A20
:10224000FB48526A3F19FC44D3BC4B69A435959DA9
:10225000C4177609144E4DBC10031C45C479109266
:1022600019F632A92493841924938E62F75DF1A79D
:10227000855353F00EA2F756375A6EA535BDD2FDE1
:10228000AA5F3ADDE22F1496C08729E586DD950026
:102290008240E715D47C26D334DD6ECB5FB6BAD14D
:1022A000ADEF6616E44534D244A2022DEE5CED5744
:1022B000656720C6AF8421B113738255BC4C462696
:1022C00078A6A9457F48FD5326E19C1F0D46A66FC1
:1022D0008EA8A6AF78B4ECAD3D1EAE5669A7F87ACD
:1022E0001F427ECEDFB5DDB78020BFD1BC4A0DECEA
:1022F0005A839BC40EFE596B9C2A6D5930C01655EB
:1023000051B5BA95072093BBA1F8CDFB5A58F8CA2E
:10231000DD74D16F2E8963A7CA275B5133FDB6EEFA
:10232000E141DAA4AEDF2D304FB753962021F04FB4
:102330001AF8216DEC34CBE83421A4689A937DA57A
:10234000755FB0289DDD6DD83246917589A48A46A7
:10235000625B08582E10261FBBF0EFC09D4ED7C100
:10236000CDA7DDC9A4DD5E3ADDBA97B6837E65856B
:10237000E3421DFE7051E546241C7CA36F241AD64F
:10238000A6615694396A2B74BF9FA1F1B5B87F87B7
:10239000A15D625625F23F7B912BB51D57C71BAD42
:1023A000D5AD6E6FCCC5FD92354BAD5BF6A3F0EEAF
:1023B000AF7CFBE7D42E350B995B9F9A47B7999872
:1023C000FE24935FA815F9D7F03BE14EA7F0A3F6E2
:1023D00097F01DA6AD7E93CD76B34A0242CAA164A2
:1023E000B7B955C31EA730B93EC50E4E481FA295BA
:1023F000D993A6A8CB9B7BFE88E1F1231385C5E684
:10240000142AE09DE9FB24968D7C329AEB67A5ACFB
:102410007F3DDF12E0D5EFFE3278B6C2C6F5E14867
:10242000F52BA95A333322FF00AE6185C03DFB7DF9
:102430006B988AE835E5C59CD6F7B3B5932A4F2744
:10244000DA4E371FE1420F271ED5E85F1220B3B5E1
:10245000F8F5E31F3E631BB6AB7710C10323ED1203
:102460007033D0E45676AFA0F83F4AF16EA3A6F8D9
:102470006F5F9350330B7335FA4320B6919E3562EC
:1024800055668D58321664276E18A92372E09F5244
:102490004E3B3FD4F88A552549B71B7CD27F9A67BB
:1024A00097EA9AF4379706DEC86A56AD1B18E68E8F
:1024B0006753D0FA827F9D7A94B7574348D5F4BDCD
:1024C000F22C0914322AF400946CB0C77E7AF5E934
:1024D0005CCF8A3C17E0AB0D63C4365E1ED6EEF5CA
:1024E00021A64B7289AA4C1A18AF9909DB2AA48A33
:1024F0001D51B83820119E9DAAE5B44B2F8A35C2D4
:102500001769302A93EA70F9FE43F4ACAAF2B51BBE
:102510001DD819CDAACDF58BBEDFA687310C1AAC1C
:102520005E1D1AFDDEAB3B41B0CBF2DD1120519EAA
:10253000082A46723D7BD509AEEEA0B33A85E49AEF
:10254000895203158E55DC884FF164633C8CE0D7CB
:10255000A1780F41F057883C33A869BE2AF1545A3C
:102560005DB596953DCC68D1BC8F752A26E5B751EF
:102570001AB10EE7203361477229BA7785FC17E25A
:102580000F0A6A736B5E2BBED2ECB4BD3FED16B67C
:10259000CD6EF24DA8C8ACBB2DB7246C43104B6F69
:1025A0007C2FEEF93922B594E29EBFA9E7C7992B9B
:1025B0002B6BE872BF0B6E1B50F1959B4934C5170E
:1025C0002F99986028EA4FA63D6BEAAF07E9DA6DCC
:1025D000F697ABCDAAAC52CA226FB379974637F3C0
:1025E0007C8DFC83C360293C9EA0001B38AF9BBC44
:1025F00035A0E91A2EB1A75DE9F7459668A56921CE
:102600009640CE1432638038FBC41CD7D21F0CDA3C
:10261000279F5AB0713456C16C5CA465576BDC2C93
:1026200076F943E5B6D62B34992D95C85E172587E4
:10263000998F4A7512FCCFB4E1BAF0C2602AD69DD8
:10264000FE24B4DEFEEF9AD3BF91626D41EDB4FD7E
:10265000165D6EE1EC745B0BAB7B996E6655F20216
:10266000379818B3AAEFE36AA9209215B6E0372687
:102670004D26CEDB51D52E567B9327DA12DEDE1B9C
:1026800078A48809E27B76569046706639DA370D71
:10269000B8C0CE335E5BAFF88BC65A33E95A45BD3E
:1026A000FDF59087535F2E45D46379144B6EF23A53
:1026B000345E502C1DA189B39651B0A9FBD52A7860
:1026C00097C75E7DCDBDCF893567FB68F2A789A42A
:1026D0008D18AF2362129FB9C83B7E5C7181D00117
:1026E0004E18697224DFF5F71C98CCD70F2C5BAB22
:1026F0004D34AEBA79DFA4ADAAD7D74DB53ACF0FD6
:1027000059E93FF0B63E1EEA16FA30B7B19750B31A
:1027100095A0765DB26DBD910E59029704A6DCE0DE
:102720001238F427DDFF006AFF000FE8DA6DCF866C
:10273000BC3FE1EB1B7D0AC2649751B7834BB812D3
:10274000B4B3C92E252A1E5182CB0E0AEF181BFAEC
:10275000E403E73AA78575DD0F5FD3FC4D75F0BF45
:10276000C51A1DE45ADDCDBDB5E6A7E2F8351B66F6
:10277000B9B7BA0B1C1149E4A1060C7CD21919187F
:10278000AE415046DCBD67E2A4F25CE9DA6788F44A
:102790004BDB1D574D9EF246D4639A77B899EE53A2
:1027A0007334C1AE3328385DA51D06C3CEE1B71C16
:1027B000515EC67EF3D51EDE3F0B533C9471784AC2
:1027C0006DD35169DDC6EADCDD399B7BAD75D4F292
:1027D000EF165A0D516E12F3554B8495AD9668A4C1
:1027E0009633234E000EEF22BE4905363606D39EA1
:1027F0000EEDCCBC4DEC915D218D094B3938540365
:10280000CBF39318DD20183B48E919E00C646471A0
:10281000D1F8BB50D216F6F60B1596186F659E1BB5
:10282000789812E21656EA727188F39E4E3A0E328A
:102830004F57F0B750F0CA5A1B4D77C25A86BD7138
:10284000737FBE086CF448AF24D88A81D83B26E356
:10285000B4B2E53794CB0CA1DD5DF09FB3A6EADA04
:10286000E7CDE6F29A9470BCD656BFE96D3D0F1ED7
:10287000FB3C3E51B67B2B66841C0430AE31F4C564
:102880006F681AC8D31174E9E092F34727F7FA7317
:1028900037080FDE92D98E7C9947518F95B0032B64
:1028A0000E2BA9F1768175AF7F61CBE18F87DAC5F9
:1028B000AB26950457D22E992469777656499A64A7
:1028C000519C2B45F30E79542C30BC0D5F145D5F89
:1028D000DAF82C69DABF80A5D2B5C16B6315C4F2F2
:1028E00078660B4416F0CD70C6559555595D85C573
:1028F0008A3385CBE0066395CEB52B46AC6316B71D
:10290000E97575E679983C457C056F6F464D38EB67
:10291000D6CFC9FF005E83F5CD77C33A25947A629E
:10292000F826DEFBCBB4CFF6A3E9BB13ECD240AF65
:102930001CC0838670E824FDE10466488F19CD3DF4
:102940002FC47A6696B7769692269E45CC9E5A5D9F
:1029500069F2A4F6ECB2DCEE5CA46C0AB096253900
:10296000C11E49015433034758D3E4D5BC1B660C40
:102970006F2CB63697A9B7CE8D6286DE33E702EBB1
:102980002E779DD3B80A98CED0073D3274FB1589B7
:10299000248D6C16D52379D16DC4C26F270ED85003
:1029A000EBC363A6E1C1AC70F463AFF5FA1F4B9FB4
:1029B000E6D5AA46305A2924EDCCF76AF7D27757E4
:1029C000BF65E5DCF40D77C33AEFC61D6CDF7C30E4
:1029D000F046B7AA5AE996D15BC96FA6E9F3DDF9CB
:1029E0000D24B3BC308611ABC87CB420314076C412
:1029F0007A85C8E8FC3BE1CD52F6CFC3F1DFF87F22
:102A000057B9B4BDB79346B6805CC90DD417ABE4D3
:102A1000C72C7E5B93F3138411A794424EBBB25C28
:102A20000AC7F83DE0D8FC51AD35BB7C399BC57376
:102A3000C3716C234B6F15DB68D710E44A4A4667B5
:102A4000E1F71504B053B0478E37835DC786B56F85
:102A500008787F4FB1B3D760B7B79AD751508C354C
:102A6000EB7FB65AA2CF27DA3CF1F6987FD2102C32
:102A7000011D154388F3C7CB5855A34E151DDBB771
:102A8000F5E4776073BCC2AE023428414DC5E8ACB2
:102A9000DB4AD2ED3E6E8BA25F2D0E4F5AF0EEAEAA
:102AA000347D62D61D46D6DE196DE5B97D3E1BC864
:102AB000764FE5DB5B82F144CE5FCB4FB3DC808C9D
:102AC000772A85DAB9502BC705A5B852CF0A4AC470
:102AD0006DC951C73EE33F911FCF3F476ABAC785D3
:102AE00022F0F6A7A7DB78874B1248B777AC34FD06
:102AF0005236B632358DDDBA42612D248EECD2C706
:102B00002070E4299194F7DBE053C50964F2626414
:102B1000C28DD920E4F735C15A4A125C8CFD23845A
:102B2000E15F33C35458EA7CAD497471D975BBBBBE
:102B300033E2B1B79E68E08B4FB72F2B055C8C0C4E
:102B40009381C9E057AA69FE1A8E6F035DD83DB51F
:102B5000FDF43A56EB4BB8624DD63B83DC5CF97B17
:102B6000948DCE4C48CAA183B049BE6DA404C8F070
:102B7000F7826CF5AF095EEB9369BAA492D9B4ED14
:102B800014B04B108F30DBF9BB4A91B986705CE40E
:102B90006148DBB8E457DA3FB45DE5A785B44D344E
:102BA000DA5A4D1D8DD6B172B7AF1DCCDB55134A25
:102BB000BA784BF07661B785C0C803E5E462AE84AD
:102BC000F557DD9F33C698C8E13110C261D2497311
:102BD00036DDEF74B46ACF4B6BD373F3F35ED2166A
:102BE000D75DBAD33C37A36931C9716985B97FB460
:102BF000A1808941668E3F38A9DCA02FCE5C63900E
:102C000015B0469C7FDBF726F163F0BE8A914C2D10
:102C100055228E5BE716F6D6FB818177DC36F47C95
:102C20008DDE66F23600850641DDF896174CF1A67A
:102C3000BDAC5DC067B4D1ED04D7F731DC3B296989
:102C40006E4C61F3205918976556014E1B38247C51
:102C5000D58F777D269C9796EFA6DFDAC966D1459A
:102C6000720CB9C79AA4A71BBE65215B91903B91DA
:102C7000DFD85B59247E6352B626551CB9E4F6D6DC
:102C8000EF5D23FAD8F5DD5A0D7FE28E8575E36F8F
:102C900010F882C02F9DA96AD1D8585867EC92DCF1
:102CA0003CB3C91CD2963300C57F7664329E541261
:102CB000BB813D37C09F08E9BE21D234AB1B468D96
:102CC000F5CF136A77B676904FAB0D3A295ED608EA
:102CD00042A24A2D663E6B2DE4C30CC8B801464E95
:102CE000D15E77A2F8AFC35A3F86A6D12EB469ED64
:102CF000F56B58350B7B891ECD673F689A230868B2
:102D0000E5F394C1F284490057122A00369258ED37
:102D10007C2DD5A4B6BBF873697BA247ABD926BD81
:102D2000E22BABB0F0C93245045616929998229D19
:102D3000E22D8250871B8C614A9C95AF2FDC559CFD
:102D4000AFB5F63F47C654C6C723A70A91B27187ED
:102D50002F328D9AE5727A6CF9B4776EEDEFA9EBAC
:102D6000BF15445F07356D1BC1DF13BC27A95F4A40
:102D700096AF7F6B696FE2A8EF20B51219E30AC620
:102D80004B2528D97924DA9F292E09DD922AEF8054
:102D90003E227883E2EEB23C23E179B52B2B8BAD5A
:102DA000B1DB43A8EB76D6E9349C1F2A3923D35FE5
:102DB000E7DA8EF87232B1B60B1C03DD687E27F8B5
:102DC0004DE3FD72ED358F857E1ED5B55D2ECAC3F0
:102DD000ED5A85D4133C97104F0F9B03872E33B9C0
:102DE0004EE230304E31C564FC42F13784FC0F7145
:102DF000A7FF00C22BF057E11C0F7C65679F5DBBEE
:102E0000BEB2CF97B767962DE19CB1F9DB39DB8C69
:102E10008C673C7C7438D326C4E295073777AA8B3D
:102E200083BFC375ABF2D4E0AD1C3FF65F2FD5FF77
:102E300000DA12B73A6B93E2D7DC52ECDA3B9B2B09
:102E40006D5741FDA73E1E685F12F48965F113D9E5
:102E5000BBE9F79A7F8863B9B68ADD16EB6C52A19D
:102E6000B081C9065948C1E8EBF310315F60D7C49F
:102E70003F03BE2F69FE2BF8DBE19D3BC4DF0DBE97
:102E80001BC3AB4F1496FA6EADA05D6A97F2C216E3
:102E90003763187B8B68D62F9413C9C104F7EBF600
:102EA000F57DD64B8EA38FA53A9436BF6F25F79F3D
:102EB0000F9ED4E6F61071B38C2CFB5DCE52D15D23
:102EC000D96BB77BB3F047E39D849A67C77F1BC775
:102ED0007E8156E352BC8893117015AE6420823E09
:102EE000A3BD64CBA7F83B44D593C31A06A17DA923
:102EF000E9B656D6683549ECFECC5DDA15320F2CB2
:102F0000B3708E590107E609BBE5CE076DFB45247A
:102F1000C7E36F8C0AC0AD1B6B57796E09FF005C6D
:102F2000D91D6B99F10DEF82DFC5D3597862DB595A
:102F30001E1E8D2D84373AA242B76D9453312B1348
:102F400014C090BEDE41DBB73CE6BD253724AFD8C8
:102F5000E0A94E34EA4A2BA338BF88BA3F84755F94
:102F6000175CDA68FAADD1B7D32596D74BB8BB81D9
:102F70006DDF518F7FC92F93B98AE78F943375EB3B
:102F80005ADA540D71AFF882785038896567039D1D
:102F9000A104C5BF41D2AAF8B9BC2775F1015EC42E
:102FA0006A16F059DE345E1F17C505CDCDAEFF00A1
:102FB00091A548F72EFC63386C56B784232755F14A
:102FC000486E1D85DA9C8F58EE2A2B3B462D1E8EAF
:102FD000534D547593FE5650F04683E14D556DCFD9
:102FE0008CF5EB8D12D742B0BBBCB76874D7B87BF9
:102FF0009B9F25FCA8180C102472177F45CE4820F3
:1030000056CE8379E198B42D4B56BF6BCB7B9B3B5F
:103010002596C6CE2B4F3BED7725D0794C411E52DD
:10302000EC691B7E1B94036FCD913F8465F0FDBC62
:10303000BA8DCF8EAD35336C9A6DC1B68B4B58BC03
:10304000D7BA119FB3EEF31B1E5F9BB379CE42EE4E
:10305000C64E28F0AEABE154D1F5ABDD7F48D5DBF1
:10306000508F4C73A441A72C455B50257609FCC2B8
:10307000310EDF373B096CEDC6466AE6DEBBF4FE77
:10308000BFCCF2E096870DE06D2341D2FC4A973A1F
:1030900076AE9712DCC32CB2C3B95CC64C89C12B87
:1030A000D304E307AFE15F5BFC356B1D335CD5EC0C
:1030B000F54B65F36C16C20B8569DA2490C8F6D11E
:1030C000AC4D856DE7CC1BD794236361B2C057C963
:1030D000BE068BC2F6FE2559347BB92495E199EEE4
:1030E000909DEAAC648F8CE072093FAFA57D7FE0D4
:1030F00047B1FF00849FC4097175341B45A7DB529B
:10310000393CB8245DD079419246577759B0517017
:1031100048F9CB0E2B9314DFB656DFCCFA6CB97F8F
:10312000C24545D39D7AEF13E76D56CACA0D734D5C
:10313000305AF85F7A6A9121165A807BD8C7D92E07
:103140000EC71BC8287BB14F95940C8C907A3B849A
:103150007B856631C2613B90C6F72122248CE1D881
:1031600072410464823B9E319AC4D4AFE0B8D5F476
:103170008F2F55D02E0C3AB42443676324372AA2EC
:10318000D27195931B5A3E3919CEED9D79C74521D1
:1031900057370E428549002D3E7C90BB5797033927
:1031A0001EB839C1AD1FD93C5C427ED65FD743BD46
:1031B000B5D07C35A06A16DAB1F08FC35D12D13577
:1031C00059A3B8BBF0FF008A9B592F0477A9FBB91C
:1031D0002DD6677585002164D99750A727765B9215
:1031E000F88573A4EA3E2A86E347BAB79AD8C5029F
:1031F0006F80498DCB06181691559C820E5B68CE68
:103200003A5755E36D4B42B9F0E8BBB2D4BE08CF94
:103210002A5FDF4928F0558DDC57013CEE3ED0B2E5
:10322000AEC16838110054F319272188F40F807A51
:10323000CEBBA37C3DF1F41A67C06B4F1ADB496922
:10324000135D6A13BAAAD8AAC0C76C8980F20C02AF
:10325000E56228E0A93F2F057CAAF1E6ADCB7FD738
:10326000A1FA8E515FEAB944F10A1CD25756725145
:103270005694A2BED7557D35D7648F91BC5E560B50
:10328000ED3A578F7C6D78219973B4B46EA51D41CA
:10329000EC4AB100F6ADDD07E22EB9E10D3EE3C226
:1032A00096D25A6A1A73DEBDDB23990473030BC0EE
:1032B000F8D8EA763AB2961F78344A32A5581FA950
:1032C0003C7DAAEA577F08BE156ADFF0CEFE139E4A
:1032D0000BED6A58EDE092C2E6488CDBC7D9D20507
:1032E000593CC0F71990AF98D206F289DAF9007C00
:1032F000DBFB54AEB56BF1A50EA9E016F05B5C5B91
:103300005A5C3E9E668A64652E54DC79D1808DBB02
:103310000CA4AF18400E4A9C76D05069539EA99FCA
:10332000159B2A98D93AD18F2B8F37DA8BBF2BD7A1
:1033300044EFF869F89E9DE15F0EFC47D7BC19A4E5
:103340004F69E27F0359DD5C09B58D1F40BCBA941B
:103350005EDD792C819C7EF0AA49249346E88C415D
:103360006C7184254F9A69BE2AF1378A34D7F0AD43
:1033700096916769A24AA62B986DA3725F75C25C8D
:1033800010B24CECC19E58F77DEC0DCD9C28017518
:103390003C39FB4FF8D3C29E17B3F0AE9B37879EE4
:1033A0005D32CAF34DD3F539630D79676F72D1B4CD
:1033B000A91B07D84E614DACCAC540C038C61FF026
:1033C000A358F0C8D32E34BD7B52B316F20632C0D8
:1033D000D6A92CB2EE8E7540ACD1BA85F38DB96505
:1033E0003CB2AF438AC69519D2F692AEA3BDE3F7BD
:1033F000BD7F2DF5BDF53CDA1879E2A708D28CDA4D
:10340000EB64DE9FD5CC7F12CF61A8CCFA75ADBC42
:1034100092C36D6CD6B15CC53384676792492455FD
:1034200012A653CC95C26E1928B1E47515A1E14FCF
:1034300087DE2DF12E948FE11D16CA69AEEF668EE0
:10344000DEC43BAAAC259886323CA48F98320FBCD0
:1034500049DA73CE6BD2358D47E12DD5B68F0E9EEE
:1034600074A9235B7885DC53E8AD95BB16B387DE82
:103470006CA28A4684CC206500EEEA303F8B1B5953
:1034800065D6F46D16D3E17DF4DA469FA6E9D6B38E
:103490006B305EEB8FA7D99D4A5F3184A91DEC91FB
:1034A000857610B1C46081E5FCA4ED6ACA356A4234
:1034B000FCAFF23F46AD82C06611A71C4D27069DAA
:1034C0009B973A51B69AA73EB65A2B6AD6A57F0764
:1034D0005B7857C2D7B70FE3EF0D787F5AB2D57438
:1034E00013AA69971A8FF6940E278DE5416F18B3CA
:1034F000B9523CC74642CE4AE51482AB92FB5E1EEF
:10350000F8A5E12D16CF4249E2D4618F4CBD5BC9CD
:10351000ADA20E620866566B7DED3EF78B687C9718
:10352000CB7EF18F24035CD6A1E13F1AEB70C17F03
:10353000AB6BDA3DEF950F9292CFE2BD3E611C4836
:10354000AAC1158DC1C2A8914E01C00E3D6ABC5FD3
:103550000CBC4D210904DA1B48CDB50278874F3CDD
:10356000ED2C71FBFEB819FA572CB175B9EED7E006
:103570007D4D1E11C82582F64ABD93D7DDA8EC9A71
:10358000BABEFE7AEDF25A1DAEB9F13FE1EDD6A416
:103590002E93C213DE22DCC57125CDED9594D2DCCD
:1035A000C604D985895C8055E15F3379E22465459D
:1035B000C147F29F19EB767AC489AA695E10B3D22B
:1035C00092DECED20963B03F28648C465C24B28D73
:1035D000C5CAEE63BB3924F3926B6356F06F8874EF
:1035E000AB182E6ED6D6E23BCB88ACE1FB05DC3ABD
:1035F00094B35D4C0B41088EDA477065D926D254DE
:10360000E4A903278AE5B52D1755D46F63F0FA783E
:1036100052E1AFAE56367B6BBB251344DF68F27EBA
:1036200045902BAAF9C7CAF9C7DEF949072284A732
:1036300055A725A154FF00B3B2BA4E9E1AADEA4574
:10364000E9EF76EBBDB57E4F4D3433ECBC43756B83
:10365000228105E3C2B22C8F079712AC983D08FB7C
:1036600047E15F4E787FE27DDF8CFE19DCC7068A7A
:10367000D753DD6BCE659E7B48A7D4AE82DBA5B069
:103680008C1172DF2A2DFA326576AF96FBDD571B5F
:10369000BE7EFF00851BE3D7B836ABE074F3D5518F
:1036A000BCAC59EFF9C064C0DF93B810540FBC082C
:1036B000C6722BBCF861E0CD3AEBC09716DAAF8446
:1036C000F408248B5192E96FEFF4E81E68955AC410
:1036D000614340D9E4ED003838925202E378EBA31D
:1036E0001507CABA9F27C455A1995258AC44949C57
:1036F0001DAF7D94BBDADBDBAFC8DFF12F847C65C7
:10370000E3ED4B53D33FB5BC35A7FF00C243A52D16
:103710008EA175AA8784882C6F637135B08D48D8C7
:10372000ED1468257448F008C65E22DE4B73E3FB97
:10373000AD7DEEA4D49B4EB7B9D54DBC92DBD8BCC1
:1037400037122ADBA7971920631BB7485BAF2A3FC4
:10375000BC6BDB42787BE1F6BDA5CDA7E9C6D2D72D
:103760005463756F1786618EDA5C656E40F32DA326
:103770008DE55482EE211C2E3693BDA4C3633E0317
:1037800073A078DB50786DEFB46D6034284B0D4634
:10379000D62116E2EE7685810B9FBF9CB1EE462BBB
:1037A000A20A2E694DFA9F35565529611D5C3435A4
:1037B000D397DDBDD5F56B7BD9C63F71B3F13A3BED
:1037C000B859BC753EB3A04B65E24BB9AEA316DA4F
:1037D0008C12DD24B20596488D8C12F99080D36D41
:1037E0001E638C6C607E618AEF3F672BA92FA2F06D
:1037F000BDF412C8D0C775E328995E278F20E84B27
:10380000D54DC7418232411938CA1209A5E29D73CC
:10381000C4BA37877C10FA75BEBED3F85F5386F002
:10382000DE6A3A769D6BA447204B758904A6DD2E8F
:103830002705A22ACB296C80AABB8E59BAFF0009A2
:10384000F8AB57D6BC63E08F106A7A6D9236BFAF83
:10385000F8AADF53FB0D899C410C9A4DAC533401FF
:103860008348F2849DD93EF3CB26D0C2466DA7098A
:10387000469C5C947ADCF47175B30C7E574D57DA34
:103880002BABB25CB17656D97BBB79D9753D83E160
:10389000BE932681E31F166977D1180C5A4F871FF4
:1038A0006382022369A840EA7A723AF635C569BE96
:1038B00027F1C2C3F12AF35DF893E2BD16F34DD7A9
:1038C000CDBF87AD5204B38E4B132C8098BE42D32C
:1038D0002050BF3E7A60F7C9F7AB0F0C784E6F15DA
:1038E0006B1E368FE25DBDC59F8920D3E2B7B6BBA4
:1038F00087CB1696F6D07948A01C31DC49720A8332
:1039000096E959FE3FF0BF882693455F03F8997505
:1039100074227376B61E2D4D11D41F2B63316B7933
:10392000449FC581F2E307AE78FC32B70A671F5D9A
:10393000A9386179A1250B36E1A72A8DED7BEED759
:103940002BF230598E19D18A94F557E8ECCD7F804F
:10395000DAF783750F1E7849A4F88DA86A1AEDD896
:1039600073158CDE28B89567C404BB1B732EC72063
:103970006491B3E523F1AFB1EBE36F813E0CF89BAB
:1039800027C59D0F58D7BC59AA69BA6E9C267934B1
:10399000C93C5316B29A8B346CBF395B68F604FB92
:1039A000C307938FC7EC9AFD5F8032AC4E5397CE1E
:1039B000962A3CADCAEB54DDACB76B4FCCF90CFF8B
:1039C00000114F13888CA96D63F06FE3578ADF50A5
:1039D000F8DBE3359E356886A5793EE890FDD17029
:1039E000E33EE3A7BD7377BE20D0F53D57EDBE1F84
:1039F000D1E6B6D0E5B6B5784DC4FE6CCEE635F36B
:103A000098B044C032072AA572AA546588DC62F8CF
:103A10008F7B14BF153C4372F8DF34F33B2804E579
:103A20005A6727A76E955750F12787A7D66E2D7C2A
:103A30003FA5C5A76996D6D6CB159A4CD70F115876
:103A4000D565727603869033018E370504E327ED42
:103A5000B974565D0F31CDCA4DC9EA66F8FB5AF00C
:103A6000B278C1F52B7D22E6D2282632E8115CDD42
:103A700035C4EB6E18102492354466E833B17E9558
:103A8000BBA1DC3E9DAD6BE142BB4AF23F23A0905F
:103A90004C3F404572BE33F167843C4DAE6B17F628
:103AA0001A569DA7DA79937F6658C72C939B68CFE7
:103AB00022212C9F3B60F196E78AE8349924B9F1E2
:103AC00016ACDB32A422E467AEC91BF91ACAAA6E8F
:103AD000314D1E8E5D5552F6CD3FB2CD8F00F8E3CD
:103AE000C156C61BAF881A16A17F0DED8DD4367650
:103AF000D63279064BBF2D8C6C5C86C2875C9047B2
:103B0000207E6FF0CEAF629A46AB25FF0087AE2EC7
:103B1000B51974F64D345B5D08522BD2576C926E1A
:103B200046DE817CC0506D24B03BB8C1C1F03EB3CD
:103B3000E17D1B4F3A978834083588E0D3AE52C5F3
:103B4000679A5823B7BA785922B80E8A73E5B90F25
:103B5000B4F0D82A78356B44F885A1681E19D4B51D
:103B60000D5B4DB2D42EAFF4E78AC257926863B7AB
:103B7000BB6C6CB805461CAFCD856F91B3D38E344A
:103B80009C5DDD93E9FD7F99E741AD2ED183E0890E
:103B90007C2D2788D468B0BADD149BED58DFB03E89
:103BA000F4C8F9FAF20F4E82BEB0D23C47A3E9BA8C
:103BB000AEA7A8DDBDD47FDA4B6D73730FD8A1BB60
:103BC0006B85548668D44B232989D5D7FD628C9C9C
:103BD00091C0C83F2C7836E3C3D71E23D313468A3F
:103BE000DDEF271379ED0465012429E98C1C9CD7AE
:103BF000D51E146D345BEAF16A09A7B486DEC638B7
:103C00007ED5A53DD6E6FECE7930244F9A23F20626
:103C100018CE59406F93711E5E62DC6AA6BF1F9971
:103C2000FA3F076170F8BCBEAC3111E657BD96FF94
:103C30000063B1E59E21F0E78E845A26B77906A588
:103C4000796F79AAABD9C7FD8315BC773B6DA546C3
:103C5000786545058063B4A6E39396EC4D4E96BE19
:103C60002188CB7175E16D42D2381C493DCC96A2BA
:103C700044B65555C97539C80064A9EB9C60E6BDCA
:103C800067C36123D2742D4E4D3E39AD2CDA368E8A
:103C90006B17FB64CCB92D7B18B524EEC1F20B2950
:103CA000504EE032C8500E9A37B859B548EE44AB82
:103CB0007B298DA20B6D21516EA0F98D1CBB4C4947
:103CC000F29425646C18C02338CD386265385F974C
:103CD000FAFBCF2B34C970F83CC1E19CDB4DAECB75
:103CE0007935D135A25AF9DF44713F11352F374369
:103CF000808F8ABE1EF12BB6A17770834EF0143AE6
:103D00001DD5B8690F9772CC218DA559101C479607
:103D1000D8186EE5540ED7E03E93E32BAF853F12E3
:103D2000B55F0FFC61B3F0A693A569DE76A3A7C9C2
:103D30006914E6E516CE5DCC6463BADC15062F3255
:103D40002DCCCCFB7A62BCFF00E34DD5E5CEB1A50E
:103D5000477FA66A1A74CB632E2D6FCA798105E45A
:103D6000EA645002B0476CB0C8E3760160013E6D72
:103D7000711477303DB4C7E491191BE8CA54FE842E
:103D8000D7972C57EFF9A6B4F9AE87EAB84E16F6D6
:103D9000992CA861A7EF3D758C26AEA69DAC928D9F
:103DA000FDDB5F74F5BBD0FA77C53A378B2EFF0089
:103DB000670F8237ADF19AC2CE2BEF11C06C8F9C8A
:103DC000AA2C5A527ECD70650738B3DB20624610AC
:103DD000CB8E8A01F22FDAAFC29E38D3FE265E69FF
:103DE000FE31F1FC3E3296DF43B5F3B538F4FB6D9E
:103DF00038C36ED24805ACB6D1318E2008321DA72B
:103E0000189518ED67AE3BE1A78054CD77AAF89AD4
:103E1000EEDA6F0F69DE698E17B8785A6952179F0C
:103E20006C92AA3ADBC412276667DBBB6B08C92118
:103E3000CAF4BAC597867C5DE249FC5161A25A5921
:103E400068D179AD651425ADEDB52092BB2DDB278A
:103E5000FCB0B758DE218E491B71F3CA80FA1ACE26
:103E6000368F5B7E07C17251CAF14EAD596B4F9FC1
:103E70009972453BC9DD2BEFF35F859DBCCFC37EB7
:103E8000069AD747B3926898215B86D3612E227930
:103E9000D03B17B895CE3CAB78F24348704ED2ABCE
:103EA00086DC62D4F877A0F87E2F13DBC3E25D577F
:103EB000769CAC544A2068D26381F2BFCC1D236645
:103EC0001C91B5F6E3FD5924A5FF0010EBC752790C
:103ED0002D2D1CB4123234F3797E5B5D327DC1B777
:103EE000FE59C4981E5C4381804E5B1B729E1684F3
:103EF00080F8E46460E7BE3F98AF42185835EFABF6
:103F0000B3E4EB711E354E7F56A8E117A59796DFF7
:103F10003F3DCEFF00E257C324D0645D6F47B679C2
:103F20003470E1E588392F6C763272D91B91838227
:103F30001F81D09DA1888F47E08C572B05FDF699F6
:103F40003FD97C42750D3440C964F7892B4767A976
:103F500079AA636B980A288CCCC30C39006DDF906A
:103F600024F857F12EDAC5A3F0CF8B251F617CC74B
:103F70006D77202E2D81CE639000C5A139E40562B6
:103F800084965571BE1974FC7DA16ABF0862BAD7C8
:103F9000FC21A3FDBF4ABD9EDEE1ADA2F39E4B19FD
:103FA00082948E48E48265CC2C974006F31942CD6A
:103FB00018264492DA5B8E3AD86F632E78EC7D2611
:103FC0005B9F4B36C3CB058997EF256B37ADFD6FF4
:103FD000D6DF7FAEFD8695ADEA1AE693A5DE689A38
:103FE000BA6A53DBF85AEECE231785D46DB1F3AC21
:103FF000D95E44378BB2624A1576C031C81C36D2BE
:10400000AE6B6AF73AB5F27D9EEFC529611BDD5CA8
:10401000B8BA8EC249801E44AB2918BD72C03EF4A6
:10402000DD8DD90147C9835E177FF19FC60618460B
:1040300089E1186D9DBED46EB75F5C462559C45E9C
:1040400062EE4BB2EC8FE4A655988CAA91822B427B
:104050007F8B7E24D7ED31AF5A2AF9939B96B69683
:10406000FEFA72663188CB9FF48209D83683D71C5A
:10407000700ED1C757964AE8FA5CB70B8AC2D47063
:10408000714D6FB47AF6DD697B7DFDF4F4DBAD52E2
:10409000C7516D29E4D756DA5B2D7FC32AF717BACB
:1040A0007C62DADE278EF6E52760D7132B8FF48249
:1040B000C50ED403E5C633597F6696CFC756B3E91C
:1040C0009F13ECE6B1BC8ECAC52D2C5A0B48B528FF
:1040D0007FB6EEA5FB23C693381B4A462158E3550D
:1040E000FDFC6AAAAA159B9CF0878F75ED63C69E9E
:1040F00019D32D2C34B8279F5DD25E396479FE79AF
:10410000603E4DB2C92B48CE1156423E5230391C4A
:1041100001B7BED6755D5EC3C596A7C4361A143600
:104120009A85BDB236A26E657607FB5E7DB6B6ECAB
:10413000C04DE7348EB9C349B8A2196464F3E9E10C
:10414000A738CADD07C4184C3CA97B4D154E54ED69
:10415000EEB7E775CB7B5D369AE9E7AAEE742F0CD4
:104160006A36F26B30AF83FC6FA6EE3A638825B6F1
:1041700091ADE664B9858E651663688C969890C09B
:1041800062275628580AF9B7E156A9E22F0CD9DD63
:10419000699E2861A8E94B13C9198B4C8F5348A716
:1041A00091A31BA58D99061846A99DEA72109CEC57
:1041B000C8F75F0FEA3E1196EB5B82DBC4B6EB7586
:1041C000E5682AD15DC302DD4D8B8B458423331C0A
:1041D000C89B906464F92D3853815F377C2AF8C9F5
:1041E000ACF80AF0E973D8DA35C8D4AC7504699E26
:1041F00078479B6CCED1E040F183912364721860C4
:10420000AE1802DB626EECFA5BE7B1E0708429CA9B
:104210008D783579371B5EDCB7F3BAB7E1F79EDDF1
:10422000A1F88FC3DE238F4CBA9743D7AE92DB4BF6
:104230009AC9E7B4F0E4AB1C6F3C5711CB2A9B72D0
:10424000E577AAC500F94E4A3B31CA823CF1BC274A
:10425000AD5B4735C69FE07D26E34DB4B94B892F52
:10426000352D06FA15895E776489E57830E1B7EC7B
:10427000C9C1200C0E2AFE97F12B5BD3742B4D1B6A
:10428000C3DE187923814C7693D94F27EF0AA4A275
:1042900057944C932B9F26555014280B1C600038C4
:1042A0004EB3C27F1F27F0CE75897417B7B9B44DCE
:1042B0001EFAC6FA6D3EDF50CFD9E6B96890A795D1
:1042C00006C90B498DEAC5B0A5170093461AAFB3CE
:1042D000D54B7FF8069C43964F115DDF0CED0B2408
:1042E000B9E36B5DBD924D2D5BD1DBCBBDDB187CA3
:1042F00025E22F83BA569DA6FC35D3F55D6B4B3076
:1043000045A85969CF74F6FAB5B40F6441768BCBE2
:1043100022426099DCED070CA373776FC38D0EE129
:104320007C25A2BEB1637DA7C7A1EB5AE5EEA4022E
:10433000C905C5A4335A58F9171179913C2E034188
:104340002061202A14364648352781FE2E595B41CC
:104350006DE02F126AD73E549ABDCB24CBA6269D82
:104360001DBC9771C5048B316B99B6A29841270388
:104370000C0F07A1CCD43E30789348D2607D6350B7
:10438000BBD4AEEFE5569ADA4D4EC255B69ACD0C77
:1043900076E5BECF6E3726D93270509C601E335101
:1043A00088AB194F9DC8D32AC9B1D5305FD9B0C2E7
:1043B000D949A7773B4ADADADB26AD777B5EF64D43
:1043C000EC8B9F1EE3F07FC48BEF0DDA78417C3BD2
:1043D000A0CBE1DD2E7B7D4AEEE2E123B9BB632E6B
:1043E000F79668E0802A819DC48C0CBF4000AE7BAC
:1043F000E16F81342D0FC536FA9EB5AC7853C49A5F
:1044000064124135DC56B7924B208D5C49B14B4369
:1044100084DE22742C48F94B1ED496DA8F882CBC8B
:10442000207C516BA46816D60F6F771C30C935FC01
:10443000922C6CACDB959E46538FB1CBB519C8C896
:104440003B93056BD0FE1A7ECA3F156FF40D4A28C8
:10445000AEADAC1F57B38D351D2FECD15C4EB03EC9
:10446000D963866DCC04126552411C850E5236CF3D
:10447000CA08E34E4E5CE91F4F88C3E5F81CB1E55E
:10448000989AFC904ECAEEF26F9AF2D526D35F76D8
:10449000CAEB73D3F41D4F4EF1A7ED33F0B351B512
:1044A00083C3BA0BF87967B26B647F267BD02495FF
:1044B0001024490A8251504672E46E461F2E39FB81
:1044C000DABF34FE18784FC61E15FDA73C0561E221
:1044D000F815258F56B82AE6DD2190C8EEF2CAAE4F
:1044E0001095CEE973F2B326186D6615FA595EDEA3
:1044F000593752126F7BFE88FCCF8D705470153087
:10450000B4B0F3E687B3BA6B5D1CE7D7FAB6DD0F3C
:10451000E79F5AB7B86F1BEA17B347218DE2116EB8
:10452000DA4FCDBB24E7FCF5A669BE1E934FB9BE9A
:10453000964D42D66B6BE6490A79722488EA0803E5
:1045400076D208C31FA57D41F117E1568973F19B0F
:104550005FF0B786ED23B18E4F155FE9769099DD58
:10456000618C2DD4EB1AE792142A01F80A8F4EFDC4
:104570009D754BEB1B79E38A3324AEF1F912B4EB52
:104580003AB80E76BA18F2A4AC6CC33D5464529E8D
:104590006B87A6F964ECCF125964A353D9CA71BDD5
:1045A00093EBD55FB7667C7FAA782679EFB52D5E51
:1045B0006D5A196E27792711436AEA0B124ED19F63
:1045C000E75BFA2C97936B97F732DCCE76D94404ED
:1045D0006C72158439185EC40E3D7F335F466BBF25
:1045E00002B5CD3E4D29A2F0FCB7C355BF8AC22605
:1045F000D3EE1A758DA4CED965DA0848863973C012
:10460000C8CF5AE335DF04E8FE0DD5FC45A6DD69C9
:10461000F24BAA68CEE97A6332B44D2AA617F78A1C
:10462000A146EC803A1383C7149665471168C1DD33
:104630009AE1B2F8C9CD2A89DA2F6BE9EBA6C78DCA
:1046400059E8D35FF85D7C3D75786C9DA2DA659280
:10465000273B79CF403F0ABFAB68F2DEF86868C7F6
:1046600054B48EE1EDE2B79A64B79590A26DC6108E
:10467000A8C13B14F5E2BA2BE8B5DD27C590F85A7E
:10468000F62B59EFA67488C56B728F1069230F1E25
:10469000250CC8C3E65CFCDEA091835D4456B0E9FE
:1046A0003E23BBF036BDA5A7F6C5ADE9B032C37356
:1046B00014B12DC2B95742CB9475241C3AB11C7762
:1046C0000723B675ECB992BF5E871E1B051AF51558
:1046D0002E749B76D79B7FB8F2EF871E146D23C78D
:1046E0005E1E863BAFB6ADC5CF92E52268C2820E94
:1046F000327B67A57D4FF0996CE7D43C5169A8687F
:10470000D7BA9C474ED3B72ADFDCA03BE2B78D99DE
:104710008472A701679B257E61B8755054E27C487E
:10472000FD9FFC4BF083C6BE1C8B59D72D6E2D759B
:10473000ABE2217B194C662689A212C65A441B4063
:10474000F35487208E7D8D77BE114D32DBC4979751
:1047500016BA1C320B6B18F50F3AC1E59537ACE968
:10476000029742EACB1EC890B231CAEDC919C8AE51
:104770000AF5954A89EDFD7FC13E9F0746582CB644
:10478000AA8C9494DC6CE2DEBEF2EF67D19F3E6AA5
:104790003E24D7AD1349B0D3FC49E1B3059EAD0C1F
:1047A000B6D1E8BABCB24F6CF25B4CCE523321C0EA
:1047B00066862DEE143068A20587437D0EBD15CDAB
:1047C000FDADC9BADBA9B9FED34795C477783F37A9
:1047D0009E41F9C727258F7EB58DA8EA3A75CCFA98
:1047E00074365ADF8375091357B4616D63A2CF6DB8
:1047F0007207D9AE7244850298B270EA1B716F2CB1
:104800008040247412CF35CB0B82D02C2AAC987FF9
:1048100031914AA90085000200E0E54E00F7ADE1C4
:104820002E54925A1E0632751D797349DFD5FAF55A
:10483000F33D075FD1BC3E2C6DBECB67F03F471701
:10484000974D6B2DC782F5CB9BFBA8E2F313E6B81F
:10485000479E50205EA1C0049000EF9CFF0019F815
:104860002A5B1F0F596B5A6E822D6DACD6582E667F
:10487000370AF35C8594AADCBC6B238556C81942C1
:10488000631945DCC48679750F117837514B6B5D20
:1048900047C57F0BB5CB08EE667BCB7F0378527D97
:1048A0002AEE288C91F324B25BC3E6C20E3081C19C
:1048B000E700A9E56F78C7E26DAE87676FA1E933BE
:1048C0004171A742BBCDA5A4B1CF6F1C32C3E55C3B
:1048D00034733A0C3CB17090B2148A3C2B2BC8480C
:1048E00083C8C4D3854AAF99DB447EB190E69986EC
:1048F0005B82A1F55A529AE69CA5BF2D925757BFED
:10490000C5AE9CDA6D6BBD0E3FC2FE191AC5BDC5A2
:10491000E6B1288B453191731BCBB12ED10A3ED91C
:104920000E08F2958C2EC4AB805A1F924796DE0B70
:104930009AFE2CF151D6A46B0D351A0D2D0AE10407
:104940007E5998AE76165DCDB157736C8F736DDC62
:10495000CCCD24AF24B21E28F13C3AA84D2F4646B8
:1049600087488483126D2AD39058AB302CC55419D4
:1049700024291966DBE63B33492CB34B2664714589
:104980006B1BCD23B19C600DBFF2CDB3D3FDEC7D8D
:1049900038CE0E457AF85C32C3C123F33E21CFEB0B
:1049A000E7D8B9622A689F45B2FF003F36F56471C7
:1049B000DBADAB452DC391BC9CB29CECC7047D4FD5
:1049C000E94D49619E531C8842BAED5249254E3A41
:1049D000F1D49239FA9A96FA0BB9332BC0B1A2618D
:1049E0004A8DA083C0C103BF4E3B7151C1FE88EF09
:1049F00014D6D279CC06D2A70CAA467A7D0FF9E656
:104A0000BAD6AAE7CF1022BC8FB220CEC7A003240B
:104A1000FE15EC5F077E3045A4245E0DF19CC5B405
:104A2000860D15ADCCA824FB16FDFBA37528FE65ED
:104A3000BB79B2EE428FB7CD94849125B9B6BBF263
:104A4000FB484EA2647897F78EA19D9541DBC8EB99
:104A5000DC7A920724FF00C04CBAC69F1451FDAE09
:104A60000B82F245E5A5C12085672B906363F7C6ED
:104A70003AF7EFCE734A528B7CACA8DE3EF44EBBC5
:104A8000E3D7C2CBAF05DD37893C21E1B7D4744908
:104A90008892E523BA1FE8018A9570C5A4F32DDF3B
:104AA000CC8CA4BE63E3CC8D4C930782EAEBC6E3C7
:104AB000D62F16502EBC3725BC3D5A65B81314F7B7
:104AC000D80038F523A0E7DEBDD3E1AFC601A36966
:104AD000C7C37E2F4B8BFD3208A4FB20489269632D
:104AE000043936E124211E372EE36310A0C8E78184
:104AF00024A24F29D53C516FA86AD737B6BA5CDAE1
:104B00005DA5C4A668609A49D56D94B6553CC78F1B
:104B1000076F00649CE3BE6BC5C6515424B955EEC3
:104B20007EC5C1B9B54CD68CE962AA72BA6959B4CE
:104B30009DFB27D6FE7EB7D77B1E1CD4AC34AF11AD
:104B4000695AC6A5A645AAD958DF5BDD4F65305224
:104B500097512481CC6C195970C14839561824E0FA
:104B6000FCCB5D2D97C60F035AF882DB5393E0CD43
:104B7000EC422B782D91BECA973FD9D2C53B98E71E
:104B8000B32812342AAC8E5911433C7F288F7123ED
:104B9000CE06A723DE858AC638ED4AB79B34BA8491
:104BA00065E494B96694AEF3B5589076AFDD238092
:104BB0002B4A29249F26DEF6DE50BD764838FCBA03
:104BC0005611A8E91EDE2F0143336E536EF6E57DC4
:104BD00034DF6F5D6E7B8C7FB4CDF413EA36773EA5
:104BE00027F8857FA7A4362A2E16D2606531BC2D02
:104BF000226F7BBD999423A1057E61230F9DB19FF8
:104C00009DAC3E1FCFE20B19AC5FC4FA2C6F66B6A9
:104C1000AB69741AE262C6693608B10C4EC554F528
:104C20002C063236EECE2B42EE269A2FBD24A8D289
:104C300044F3C2B92B72A8DB846E3232A79EE3B96B
:104C4000ECC0F65F0E86BB3DA6B4234D685A4BA858
:104C5000693FB8B5D462B35526F0637C923B162702
:104C6000A281800F380056D4EA3AB24A47858ECBEB
:104C7000A964183AB570974DDB7D7AFF00C1EFFE4D
:104C800066E7837E36DCE87E17F0EE9C342FB5CBEA
:104C9000A55A5E462E25BF9C3CBF69B658771008C2
:104CA00000A0191C727A8AD04F8F2D1D8C96F2F8B5
:104CB00059587D8F46B40C354B901534F977AF05B4
:104CC000CE779EBCF1DB8E2B9DF879E30F857A477A
:104CD00080ADF4CF14FC246D7358F2D9A3D4BFB7C0
:104CE0002683602A9B14C6836B05C364F7DDED5EE3
:104CF00089A47853C02FA6C515CF87FC045F599BA4
:104D0000ED5697377E30B8436903DBA0481D444514
:104D1000432C89239DC58FCF86181C7B2A946D6BED
:104D20001F92CF1355C9CA4DDCE7ADF5BBDF8BF73A
:104D3000D7179BBC23A2886F4EA2F36A10DD994B54
:104D4000B4F34A112E638E67D84CEE191C281E5AF4
:104D5000104F38D5D07E355FEB9E21B5F26CAE207A
:104D60003637126AE6EA6D75DE068ED6DE677F3765
:104D70006DB9772C9B8390877468B1800FCD57FEF7
:104D800006DADFDAF8B3C5D0F87AD35C845BDD8865
:104D9000962F0E6B16F1AA279CE02869F89900FB64
:104DA000AC3AF7FBC2B8BF843AB6A5E12D5FFE125C
:104DB000BF1CF8422B2B1BC8626D3A7D52305AE261
:104DC0005FB54521890C486589DE08EE17CD0B904B
:104DD00009E7902BCDC55251A89C74BEE7DFF0F6D1
:104DE000633C465D528D65CDECEDC895EEDCB4B606
:104DF0009BE896FDBD4C792CFC43A26B5E11D2DF83
:104E0000C5305F68BACEA16B2C9069F7CF25BA99EF
:104E10001A312472A1C01279722874233B5803C13D
:104E2000AFB37E0E5D5D4DF0F347D55EE247B9BB93
:104E3000335ECEF248599E69242F2393DD8B1E5B8F
:104E4000AE028E8057C99ADF8FBC3DE213E196B166
:104E5000B4D26D9AC2E6C6148E2B293CF328BF59F2
:104E600037099E04DB188894D80A8CF3B5892C3E48
:104E7000AFF83619BE19E850AC609844D19DDC0EED
:104E80002423A8FA579B2518BB47B17C4F89C563DB
:104E90002346B6321C8DF32B72F2F5DEDE7A7DC727
:104EA000A178A264D4FE21FC1ED7E550F7936B765F
:104EB000F0CD39FBD2288EE94027D8A31FAB1AFAD0
:104EC000AABE4BD6E63FF0927C1C5661BFFE12B8DC
:104ED000578F406EF3FF00A10AFAD2BD9CB7E0974E
:104EE000AFE88F8ECE9DF0F85FF0CBFF004E48FC10
:104EF000C4F1324A7E3A7896E24810797F11350F34
:104F00002D8364B28B8B93CFA724D7A0F86F50D595
:104F1000743D46EEEEDDE63225F45AADB16398A657
:104F200078C61A2739CA1742F1676E3695E7A81C6A
:104F300037895F77C74F13C2F8DABE39D424E3AF9D
:104F4000FC7CDDE6BA1BBB8B1B88B5549ED527D5F0
:104F500034F9167B685955CB5A36C57091B64679E7
:104F6000DE1C0C97565C8DB81F1B8D8B9E22693BF7
:104F70001D559D48E60F92D7E58EFF00E08967C674
:104F8000A0CB6D26AF67E75A2B5FF9EB1C52B2ED51
:104F9000124E5F664632074FE82BE7AD5FC2306BBB
:104FA0007E31F115B788FC51A8590B5B3B4DEC2EB7
:104FB0004F9772ED0FCED876CB64C5839C924F3D50
:104FC0002BE8DBF481F45F2D25964B5FB72885E451
:104FD0000C1DA0F364F2CB6EF9B250293BB9F5C1B8
:104FE000CD7CA7F15A385BC6BA95E5F451A5C8B691
:104FF000B05BA3326FDB3F968EDE5C7E548428DC90
:10500000037D08F41579637EDB40C8E69622BCAACE
:105010002E6F75EDFE28DFA3F3E9634A4F869E1AD3
:105020007D62386DBC317B7B68D3C2ADA8D90BB92A
:10503000D2D637644925DA91CA1CA2BB1654CBF1EB
:10504000C2F7A7F8E7C17E10F065FC1A7681125C02
:10505000477B04573F6BB9B69E294E49DDB23B955D
:1050600049225DCB8F9915CEDE70095AF23D3E265E
:105070008ED96E20B974592367CC12B449BB3D4018
:105080000AA00C76C74F4AF4EF82FAB69F69A94886
:1050900075BD4FE1E9F2AF62919FC5BA4CFA8B182A
:1050A000D209D7394B6987D9F2EA0A64132180E023
:1050B0008048FAEAB4A6E9B8F3FF005F79AE538FEF
:1050C000A14F1F1ABEC7992BB51D347BADA2DE962A
:1050D000EC40DE22F1178A3C7FE1F975BD7F53D4A5
:1050E00066826B482DE4BA99AE9E25F30602090943
:1050F00004679DBD0FA57AF6936E967E21B88E3D0E
:1051000006E27B7D2B4E92FA1FB32BCD1CB8BCC0A0
:105110009378704C0C4B4BB9B7E090395193E1BA8E
:10512000C4A9A578C5F53B582CEED56F0DDA25BC82
:105130007B2D5C2BA92A8802623E40000538EC0FCB
:1051400054BEF891AADBCF6D0F863C350082C3F7C1
:10515000B0BDE450DDC8B3995E4F34B3AA86605B3E
:105160008F971B5541CE4E7CDA52B753EFB37CBEBE
:1051700078A83A74A3C89A8BB745ADFA6BF87AD879
:10518000E6755F11CD79358695278AAFB5364D56D0
:10519000D2716B75E1C82CF84B7B85DCB3850F8130
:1051A000BF6ECC90E1833728B5BAF246F2C970934E
:1051B00022E1098D9795D9B06576838620F6E8318E
:1051C000DF8AE7B5AD535096286CE3D6BC6FA831A3
:1051D000D4AD6E8DAEA334125B12904C865DC24F7F
:1051E00091D4C985C8036BB6482003A896DE2A0867
:1051F000D757BE1A5B5014B19AEAFAD217C0CE4AFA
:1052000019261B8F1C633DB15E94650B27747E6B62
:105210008BC262235A49D36BE5FF00017E47B15B25
:1052200078D4F8CF55D03455F8CBA8F8A1A0D4DE67
:1052300048EDCF806D340488E63632ACEA87CC5C2A
:105240000DAC8EACA141721BA1E4FE39C90EA7F1D1
:105250001F527D60C81A7B4B3B896159964F310DB7
:10526000A4476C3B143B03B86DCA825481F29E6A1A
:10527000EFC43D77C55E28D3ED2FB4DF89BF19F5A4
:10528000ED3ACAF9AFBEDFE20962B9D3625F2C0D15
:10529000A9359CF32C53EE2548C8207232DC1F2020
:1052A000BBBEB9BFD5DF5ABBBCD5E577657586E512
:1052B0006FEE4464285E1DE22FD07AF438E95E7DFB
:1052C0007579EA7E9BC3DCD4B089C5F2E928E9642C
:1052D000FDEB37B25D9744D3B34DEA695CABE9F2BD
:1052E000F989F245F7CAAA6CF2BA659578D8012314
:1052F00074781B0F200420269DB4E97243DCCA5E3B
:10530000448D9231F312E48E3079E79E3B0383EDB6
:10531000595A54D0181D56D9A35795E46CC72C6C14
:10532000643D641E6206DD96EB8239DBC82508DE2B
:105330006E97287C9FB2B1CA3A70171B795E4E17E0
:10534000E64C8C9D9B97928C8EDE9E1B10A6B925F9
:10535000B9F9E67B91CF2DA8E70D60FF00AFBCDE69
:10536000589209232CC1E4C2E22660CDB48F940C7C
:105370000C3139239E831D0609AEB74D14B2C5F614
:1053800066598E555B78FDDA8E78C8C704673C0E87
:10539000B8C7185B3B88A45DB2C9BA791F67992B5F
:1053A00065555B39FCC93939CF71DEB56FA3834EC2
:1053B000B18A482E4C535A80D06F8887273821B243
:1053C00039C82703A0DA7BE49E96F95D99F3895DDD
:1053D00011594D6B6568F25CA35ADEC2CE973B64EF
:1053E00028CEA46570BDC9CE06318C139AC6D435BB
:1053F00039EFE4DF33158D06234DC4841DF93D4993
:10540000EE7BD579A696EA769643B9DB19C0FC0007
:10541000C577DA0F8720F0858AF8975E01752554E5
:105420009EDAD8C4656B356198E578C60BCEE30685
:1054300028B20E3123155C384D469FBD2DCD295322
:10544000A98892A54D5DB20D2BC2BA6E85672DF766
:105450008BE288DC343BDAD2E230E9691B860BE66A
:1054600046D80F70E036C889017059CA8576870B17
:1054700049F837AB5FA5D788740D160D217509C3A0
:10548000E83650A25C35D4465045ABC8CFB96492DB
:1054900030FB176E641149D466AB5D6B5E2AF1EE8A
:1054A000AD0786744D12699A4B964B1B40C4CD2CA8
:1054B000CD80EF212B99253B06F62000142E1151AB
:1054C000638BEA6F865F0FA2F861A0A5ADD6A4FA40
:1054D00096B3751F98ECF234B696C8EA4910467830
:1054E00008C09F9B1BA6CE78848137915B12EACDC2
:1054F000E9A1FA243094B8672F8CDD5FF689B4DC1B
:1055000052D92EEFF36BD177763E0CFC26F007C212
:105510004D05B54F1A786EDBC4BE2BD449B870B2B6
:10552000C8EB66187FAB8363A7968179F34365CF99
:10553000DD5D9891B27F686F859E15D4BC2B6FE3BB
:10554000FF00095A493D9DDC37104D0CD0A35D6921
:10555000D34104933AF9CFB9E54952268F648F2994
:1055600057785D5953CC8DBD04B25BC4FA85CDCB61
:1055700039621892DB9A47273BB70E4B671FD3B1AE
:105580003E2FF14FE30FDB74DB7F835E1A8A0175D8
:1055900071A83B5D4D25CC5144B2CEA6272ED2B08A
:1055A0008D58A395E582A800E72BB8E09BB1E7658D
:1055B00075B198DCC555536BED49DF48C56ADBE82A
:1055C000925FE5E47CC3793CF6D24B6371A65C3410
:1055D0006EDFE86B72E0C93AF076B608F9F824039A
:1055E000F7B1DD81DDAFE06F16F8622B5D4ED6FDC1
:1055F000347B079A5B278DAF34A9AF64C47386737D
:105600001AA6E0B8504B6E1CA8C0EA6BD47445F8DB
:105610006CBAAEA7F0F596DF59BBB7D47508ECAFFE
:105620002F34CB265954A451DACC5A5B911B1570F8
:10563000CDE46F2A7CD0DB8B4631C678BF50F08E2C
:10564000A53E9573E0BD2352D0BEC764F05EA3EAC9
:10565000535C0B99FED1338930EC7FE59BC4B8EDE8
:10566000E58C74C96A6B0F6753467DFCF0AF899473
:10567000F0F816EA52BDB9D72E9D55D36BB79F9D52
:105680009937C2CD43C21A258C1AEEADAA5D5B6A6A
:10569000166BBF4D78ECCC96EE1629033BAEDDCBF6
:1056A000B64F27041057713C1519F478BE2AE8123A
:1056B000436BA75DDEEABF6686EF7BC96FA5230952
:1056C000132E90646C1B99D6467C11D428C92A2BC2
:1056D000CF346F13DCE83E1AD3BC37A7C045B5867C
:1056E0009FA858401750B90365D2E70406C232B8E4
:1056F00039182086EE704F4769E26F88AD6969A955
:10570000B78135B8C5ECBA04D0CBF69BB119963841
:10571000CF9403671F3A2311939C296076D7A4B1D5
:10572000F17B23F33AFC1F8EA2FF0079657BDAED53
:105730006B6EDA9A5F0F7C45E1383C4BE28B9F122F
:10574000CFE1E8E0D4A66B9B43AFE8F77309BF7ED7
:10575000C7E45B5198CFDECE7E5C8F5502A9F83747
:10576000C5BE01F8756492E8F6CF6FA8CB6369698E
:1057700019B6D02D3F76D132C93F9B36F596E92434
:1057800065181215C29F9B791912F883E19FC53FD6
:1057900011DF5A5FBF83EE228FC9B81134FA9C6EB5
:1057A000F1AF992DDC8ADE64994F2D6E416538DAB0
:1057B00030C40DC71DF783757F1768DF0675CD3EB2
:1057C000CFC25E269AEB42D3269A1D67449E392D9E
:1057D0002C1266999A791A38A5570136C81C3A9541
:1057E0005C1054806B9275AA57A8D5B9525BD99FAB
:1057F0004B4F2BCB726CAE13A95156AB39C632A6A8
:10580000A704A3ABEA949DBA73276D6FD1A7E59E59
:105810002DF89E3C590DAE9BE75C46DF68448AD26A
:105820001B05B6B61BAF619F79FDFB9CAF94CAA068
:10583000827F78DF301C57D53F056FBCFF0087B0F3
:105840002C7926D6F6E9193A63F784F3E9C608FA03
:10585000D7CBFF0014FC33A0DBFDBF5DD1348F112B
:10586000594DFDAE6D9A7BE545B79DCA33B4901096
:1058700003637EE006080A8A7712F85E9FE14FC64E
:105880006D07C2567762FF00FB46D2EEF1C3DCA47F
:1058900071996DE46EEE8370C31FEE9181CFCDCD13
:1058A0007029EAD4DEA7AFC45C313AB84A13C9E91B
:1058B00049C1395D6F24DDBE6FF43EBDD590FF0058
:1058C0006A7C18BC23026F1920C1CE7A5C7E9D478A
:1058D000E15F5AD7E71785FE3CDE7C5CF8EDF0BF50
:1058E0004BB2B1363A1687AC5B25B44CA11E5919A0
:1058F000C03232A920632428CB11B9C9662C6BF4BD
:1059000076BD9CAE4A509B8F7FD11F9EF156598920
:10591000CA6185A18B5CB3706EDDAF39349F9D8FFA
:10592000CCDD790C9F1EBC56A5571FF09A6A586EA5
:10593000FF00F1F3795A97BAE5CECBBD52CA1826CB
:10594000874BBA6B57840CCF1C85F60979E194B26A
:1059500038080AB1F94EE032061F8CF578F49F8DB5
:105960007E2E75D39AE643E2ED5E41FBFD838BAB61
:10597000851FC27A6E624FF2EB54AFFE2AF87B4A63
:10598000D5AF67D2B40BCBBB5BAFF5928BDF292EC3
:10599000154ED4731B425D1C123EEB0F539CD7CBAC
:1059A0006230F3A98894B96E8BC6E0AACB16AA4AD6
:1059B0009DE328C6DB7F2C577F27E67A2EBB335B1F
:1059C000D8269F78161B84BD48654CF49237955CA9
:1059D0000CE32328706BE5FF00895A839F18F89F1A
:1059E00052B48A4B5B6B97B0B89646B349A403CBCD
:1059F0004618CB71B43E485CEEEFC0AF6ED2BE2A03
:105A0000E8332DEDF6B9A2451A5844F710472B9B01
:105A1000A6BA78D599D37088EDC1C8DCC7925BEA85
:105A20007CC7C2DE2B9BC41E36F12788749F274299
:105A30005BBD17CAF2AE6712E0092DD4EDC3C59362
:105A4000F2A90A039214811BE42930146A50AD793B
:105A5000C5A3A387F2A9D59623DAC2D1E5B26ECD4C
:105A60005F9A2D6EA5DBA27F2679559F86B589F4B6
:105A7000E4BD1A55EDC4701FB317874B99D924C8DC
:105A8000723081BA03C6060647E3EA1F0362F14F8C
:105A9000877C4F7B09F11DE785DAD65FEDB919BC2C
:105AA0000F06AD245691DB4E1AF58CFB48890B7915
:105AB0007B338CCA24C031823BAD4B4AD2A4F08EDA
:105AC0008BA86AD7378F7B79E2FB5F097D92D84735
:105AD0009586DA66F2F529DA68E56555375231625E
