:10000000A8470010AD850000D1850000D58500000F
:10001000D9850000DD850000E18500006E95FCEFCC
:10002000000000000000000000000000E585000066
:10003000E985000000000000ED850000F18500006A
:10004000F5850000637A0000F9850000FD85000059
:100050000186000005860000098600000D8600006C
:100060001186000015860000198600001D8600001C
:10007000218600000000000025860000298600007F
:100080002D8600003186000035860000398600008C
:100090003D8600004186000045860000498600003C
:1000A0004D860000518600005586000059860000EC
:1000B0005D8600006186000065860000698600009C
:1000C0006D8600007186000075860000798600004C
:1000D0007D860000818600008586000089860000FC
:1000E0008D860000000000000000000000000000FD
:1000F0000000000000000000000000000000000000
:100100007F020000DF01000005000000B084000055
:10011000B8840000C4840000D0840000DC840000A7
:10012000E8840000F4840000FC84000008850000DE
:100130000C0000001800000000000000FF0000009C
:10014000140300000003000098840000A084000055
:08015000A8840000000000007B
:0402FC00FFFFFFFF02
:100300005465726D696E616C203138202832347802
:100310003132290000000000000000000000000051
:1003200000000000000000000000000000000000CD
:1003300000000000000000000000000000000000BD
:1003400000000000FC00FC0003030303030303039D
:10035000CF03CF030303030303030303CF03CF033D
:100360003303330303030303FC00FC00000000001D
:1003700000000000FC00FC00FF03FF03FF03FF037D
:1003800033033303FF03FF03FF03FF03330333038D
:10039000CF03CF03FF03FF03FC00FC0000000000BD
:1003A0000000000000000000CC00CC00CF03CF0311
:1003B000FF03FF03FF03FF03FF03FF03FF03FF032D
:1003C000FC00FC00FC00FC0030003000300030007D
:1003D000000000003000300030003000FC00FC0065
:1003E000FC00FC00FF03FF03FF03FF03FF03FF0309
:1003F000FC00FC00FC00FC0030003000300030004D
:100400000000000030003000FC00FC00FC00FC009C
:10041000FC00FC0030003000FF03FF03FF03FF037C
:10042000FC00FC0030003000FC00FC00000000007C
:10043000000000003000300030003000FC00FC0004
:10044000FC00FC00FF03FF03FF03FF03FF03FF03A8
:10045000FC00FC0030003000FC00FC00000000004C
:10046000000000000000000000000000000000008C
:1004700000000000000000003C003C003C003C008C
:10048000000000000000000000000000000000006C
:1004900000000000FF03FF03FF03FF03FF03FF0350
:1004A000FF03FF03FF03FF03C303C303C303C3032C
:1004B000FF03FF03FF03FF03FF03FF03FF03FF032C
:1004C000FF03FF0300000000000000000000000028
:1004D00000000000FC00FC00CC00CC00CC00CC00F4
:1004E000FC00FC0000000000000000000000000014
:1004F00000000000FF03FF03FF03FF03FF03FF03F0
:10050000FF03FF0303030303330333033303330303
:1005100003030303FF03FF03FF03FF03FF03FF03C3
:10052000FF03FF030000000000000000F003F003E1
:10053000C003C003300330033C003C00C300C300D1
:10054000C300C300C300C3003C003C000000000027
:1005500000000000000000003C003C00C300C3009D
:10056000C300C300C300C3003C003C000C000C00EF
:100570000C000C003F003F000C000C0000000000CD
:10058000000000000000000000000000300030000B
:10059000F000F000F000F0003000300030003000DB
:1005A000300030003F003F000F000F00000000004F
:1005B00000000000F000F000CC00CC00FC00FC00CB
:1005C000CC00CC00CC00CC00CC00CC00FC00FC006B
:1005D000FC00FC000F000F000F000F0000000000E7
:1005E000000000000000000000000000000000000B
:1005F0000000000033033303FC00FC00030303038B
:10060000FC00FC0033033303000000000000000086
:1006100000000000000000000000000003000300D4
:100620000F000F003F003F00FF00FF003F003F00B2
:100630000F000F0003000300000000000000000096
:10064000000000000000000000000000C000C0002A
:10065000F000F000FC00FC00FF00FF00FC00FC00CC
:10066000F000F000C000C00000000000000000002A
:10067000000000000000000030003000FC00FC0022
:1006800033033303300030003000300030003000DE
:1006900033033303FC00FC00300030000000000096
:1006A000000000000000000000000000CC00CC00B2
:1006B000CC00CC00CC00CC00CC00CC00CC00CC00DA
:1006C00000000000CC00CC00CC00CC0000000000FA
:1006D0000000000000000000FC00FC00CF00CF0084
:1006E000CF00CF00CF00CF00CF00CF00CC00CC0098
:1006F000CC00CC00CC00CC00CC00CC000000000032
:1007000000000000000000003C003C00C300C300EB
:10071000030003003C003C00C300C3003C003C005D
:10072000C000C000C300C3003C003C00000000004B
:1007300000000000000000000000000000000000B9
:1007400000000000000000000000000000000000A9
:1007500000000000FF00FF00FF00FF00000000009D
:10076000000000000000000030003000FC00FC0031
:1007700033033303300030003000300030003000ED
:1007800033033303FC00FC0030003000FF03FF03A1
:10079000000000000000000030003000FC00FC0001
:1007A00033033303300030003000300030003000BD
:1007B0003000300030003000300030000000000019
:1007C00000000000000000000000000030003000C9
:1007D0003000300030003000300030003000300099
:1007E00033033303FC00FC00300030000000000045
:1007F00000000000000000000000000000000000F9
:100800000C000C0030003000FF00FF003000300012
:100810000C000C00000000000000000000000000C0
:1008200000000000000000000000000000000000C8
:10083000300030000C000C00FF00FF000C000C002A
:100840003000300000000000000000000000000048
:100850000000000000000000000000000000000098
:10086000000000000000000003000300030003007C
:10087000FF00FF000000000000000000000000007A
:100880000000000000000000000000000000000068
:10089000CC00CC00CC00CC00FF03FF03CC00CC008C
:1008A000CC00CC00000000000000000000000000B0
:1008B0000000000000000000000000000000000038
:1008C0003000300030003000FC00FC00FC00FC0078
:1008D000FF03FF0300000000000000000000000014
:1008E0000000000000000000000000000000000008
:1008F000FF03FF03FC00FC00FC00FC0030003000A4
:100900003000300000000000000000000000000087
:1009100000000000000000000000000000000000D7
:1009200000000000000000000000000000000000C7
:1009300000000000000000000000000000000000B7
:1009400000000000000000003000300030003000E7
:100950003000300030003000300030003000300017
:1009600000000000300030003000300000000000C7
:1009700000000000CC00CC00CC00CC00CC00CC00AF
:10098000CC00CC00000000000000000000000000CF
:100990000000000000000000000000000000000057
:1009A0000000000000000000CC00CC00CC00CC0017
:1009B000FF03FF03CC00CC00CC00CC00FF03FF03FF
:1009C000CC00CC00CC00CC000000000000000000F7
:1009D00000000000000000000C000C003C003C0087
:1009E000C300C300030003000C000C003000300003
:1009F000C000C000C300C3003C003C003000300019
:100A00000000000000000000CF00CF00CF00CF00AA
:100A100030003000300030000C000C000C000C00E6
:100A20000C000C00F300F300F300F30000000000E2
:100A300000000000000000000C000C003300330038
:100A400033003300330033000C000C003303330356
:100A5000C300C300C300C3003C033C03000000000C
:100A600000000000F000F000F000F000C000C00046
:100A70003000300000000000000000000000000016
:100A80000000000000000000000000000000000066
:100A90000000000000000000300030000C000C00DE
:100AA0000C000C000C000C000C000C000C000C00E6
:100AB0000C000C000C000C003000300000000000A6
:100AC00000000000000000000C000C0030003000AE
:100AD0003000300030003000300030003000300096
:100AE00030003000300030000C000C00000000002E
:100AF0000000000000000000000000003000300096
:100B000033033303FC00FC00FC00FC00330333031D
:100B10003000300000000000000000000000000075
:100B200000000000000000000000000000000000C5
:100B30003000300030003000FF03FF033000300091
:100B40003000300000000000000000000000000045
:100B50000000000000000000000000000000000095
:100B60000000000000000000000000000000000085
:100B7000000000003C003C003C003C003000300025
:100B80000C000C000000000000000000000000004D
:100B90000000000000000000FF00FF000000000057
:100BA0000000000000000000000000000000000045
:100BB0000000000000000000000000000000000035
:100BC0000000000000000000000000000000000025
:100BD000000000003C003C003C003C000000000025
:100BE0000000000000000000C000C000C000C00005
:100BF00030003000300030000C000C000C000C0005
:100C00000C000C00030003000300030000000000C0
:100C10000000000000000000FC00FC00C300C30056
:100C2000C300C300C300C300C300C300C300C300AC
:100C3000C300C300C300C3003F003F00000000002A
:100C40000000000000000000300030003C003C00CC
:100C5000330033003000300030003000300030000E
:100C60003000300030003000FF00FF0000000000C6
:100C700000000000000000003C003C00C300C30076
:100C8000C300C300C000C000300030000C000C00E6
:100C90000300030003000300FF00FF00000000004A
:100CA00000000000000000003C003C00C300C30046
:100CB000C000C000C000C0003C003C00C000C0003C
:100CC000C000C000C300C3003C003C0000000000A6
:100CD0000000000000000000C000C000F000F000B4
:100CE000CC00CC00CC00CC00C300C300FF00FF0050
:100CF000C000C000C000C000C000C0000000000074
:100D00000000000000000000FF00FF0003000300DF
:100D100003000300030003003F003F00C000C000C9
:100D2000C000C000C300C3003C003C000000000045
:100D30000000000000000000F000F0000C000C00BB
:100D4000030003003F003F00C300C300C300C30013
:100D5000C300C300C300C3003C003C00000000000F
:100D60000000000000000000FF00FF00C000C00005
:100D7000C000C000C000C0003000300030003000B3
:100D80000C000C000C000C000C000C00000000001B
:100D900000000000000000003C003C00C300C30055
:100DA000C300C300C300C3003C003C00C300C30039
:100DB000C300C300C300C3003C003C0000000000AF
:100DC00000000000000000003C003C00C300C30025
:100DD000C300C300C300C300C300C300FC00FC0089
:100DE000C000C000300030000F000F000000000005
:100DF00000000000000000000000000000000000F3
:100E0000000000003C003C003C003C0000000000F2
:100E1000000000003C003C003C003C0000000000E2
:100E200000000000000000000000000000000000C2
:100E3000000000003C003C003C003C0000000000C2
:100E4000000000003C003C003C003C003000300052
:100E50000C000C000000000000000000C000C000FA
:100E6000300030000C000C000300030003000300FE
:100E70000C000C0030003000C000C000000000007A
:100E80000000000000000000000000000000000062
:100E90000000000000000000FF00FF000000000054
:100EA000FF00FF0000000000000000000000000044
:100EB000000000000000000000000000030003002C
:100EC0000C000C0030003000C000C000C000C000AA
:100ED000300030000C000C00030003000000000094
:100EE00000000000000000003C003C00C300C30004
:100EF000C300C300C000C00030003000300030002C
:100F00000000000030003000300030000000000021
:100F100000000000000000003C003C00C300C300D3
:100F2000C300C300C300C300F300F300F300F300E9
:100F30000300030003000300FC00FC0000000000AD
:100F400000000000000000003C003C00C300C300A3
:100F5000C300C300C300C300FF00FF00C300C30001
:100F6000C300C300C300C300C300C30000000000EF
:100F700000000000000000003F003F00C300C3006D
:100F8000C300C300C300C3003F003F00C300C30051
:100F9000C300C300C300C3003F003F0000000000C7
:100FA00000000000000000003C003C00C300C30043
:100FB000C300C30003000300030003000300030099
:100FC00003000300C300C3003C003C00000000001D
:100FD00000000000000000003F003F00C300C3000D
:100FE000C300C300C300C300C300C300C300C300E9
:100FF000C300C300C300C3003F003F000000000067
:101000000000000000000000FF00FF0003000300DC
:101010000300030003000300FF00FF0003000300C0
:101020000300030003000300FF00FF0000000000B6
:101030000000000000000000FF00FF0003000300AC
:101040000300030003000300FF00FF000300030090
:10105000030003000300030003000300000000007E
:1010600000000000000000003C003C00C300C30082
:10107000C300C3000300030003000300F300F300F8
:10108000C300C300C300C3003C003C0000000000DC
:101090000000000000000000C300C300C300C30044
:1010A000C300C300C300C300FF00FF00C300C300B0
:1010B000C300C300C300C300C300C300000000009E
:1010C0000000000000000000FC00FC0030003000C8
:1010D0003000300030003000300030003000300090
:1010E0003000300030003000FC00FC000000000048
:1010F0000000000000000000FC00FC003000300098
:10110000300030003000300030003000300030005F
:1011100033003300330033000C000C0000000000EB
:101120000000000000000000C300C300C300C300B3
:1011300033003300330033000F000F00330033005F
:1011400033003300C300C300C300C300000000002D
:101150000000000000000000030003000300030083
:101160000300030003000300030003000300030067
:101170000300030003000300FF00FF000000000065
:101180000000000000000000C300C300C300C30053
:10119000FF00FF00FF00FF00C300C300C300C30047
:1011A000C300C300C300C300C300C30000000000AD
:1011B0000000000000000000C300C300C300C30023
:1011C000CF00CF00CF00CF00F300F300F300F30017
:1011D000C300C300C300C300C300C300000000007D
:1011E00000000000000000003C003C00C300C30001
:1011F000C300C300C300C300C300C300C300C300D7
:10120000C300C300C300C3003C003C00000000005A
:1012100000000000000000003F003F00C300C300CA
:10122000C300C300C300C3003F003F00030003002E
:10123000030003000300030003000300000000009C
:1012400000000000000000003C003C00C300C300A0
:10125000C300C300C300C300C300C300C300C30076
:10126000C300C300C300C3003C003C00300030009A
:10127000C000C000000000003F003F00C300C300EA
:10128000C300C300C300C3003F003F000F000F00B6
:1012900033003300C300C300C300C30000000000DC
:1012A00000000000000000003C003C00C300C30040
:1012B000C300C300030003003C003C00C000C000AA
:1012C000C300C300C300C3003C003C00000000009A
:1012D0000000000000000000FF03FF0330003000AA
:1012E000300030003000300030003000300030007E
:1012F00030003000300030003000300000000000CE
:101300000000000000000000C300C300C300C300D1
:10131000C300C300C300C300C300C300C300C300B5
:10132000C300C300C300C3003C003C000000000039
:101330000000000000000000C300C300C300C300A1
:10134000C300C300C300C300C300C300CC00CC0073
:10135000CC00CC0030003000300030000000000035
:101360000000000000000000C300C300C300C30071
:10137000C300C300C300C300C300C300C300C30055
:10138000FF00FF00C300C300C300C3000000000053
:101390000000000000000000C300C300C300C30041
:1013A000C300C3003C003C003C003C003C003C004F
:1013B000C300C300C300C300C300C300000000009B
:1013C0000000000000000000030303030303030305
:1013D00003030303CC00CC00CC00CC003000300071
:1013E00030003000300030003000300000000000DD
:1013F0000000000000000000FF00FF00C000C0006F
:1014000030003000300030000C000C000C000C00EC
:101410000300030003000300FF00FF0000000000C2
:1014200000000000000000003C003C000C000C002C
:101430000C000C000C000C000C000C000C000C004C
:101440000C000C000C000C003C003C0000000000F4
:101450000000000000000000030003000300030080
:101460000C000C000C000C0030003000300030008C
:1014700030003000C000C000C000C000000000000C
:1014800000000000000000003C003C003000300084
:1014900030003000300030003000300030003000CC
:1014A00030003000300030003C003C000000000004
:1014B000000000000000000030003000CC00CC0034
:1014C000000000000000000000000000000000001C
:1014D000000000000000000000000000000000000C
:1014E00000000000000000000000000000000000FC
:1014F00000000000000000000000000000000000EC
:1015000000000000000000000000000000000000DB
:10151000FF03FF033C003C003C003C000C000C00BF
:10152000300030000000000000000000000000005B
:1015300000000000000000000000000000000000AB
:10154000000000000000000000000000000000009B
:10155000000000003C003C00C000C000FC00FC009B
:10156000C300C300C300C300FC00FC000000000077
:10157000000000000000000003000300030003005F
:10158000030003003F003F00C300C300C300C300CB
:10159000C300C300C300C3003F003F0000000000C1
:1015A000000000000000000000000000000000003B
:1015B00000000000FC00FC00030003000300030027
:1015C0000300030003000300FC00FC000000000017
:1015D0000000000000000000C000C000C000C0000B
:1015E000C000C000FC00FC00C300C300C300C30077
:1015F000C300C300C300C300FC00FC0000000000E7
:1016000000000000000000000000000000000000DA
:10161000000000003C003C00C300C300C300C30046
:10162000FF00FF0003000300FC00FC0000000000BE
:101630000000000000000000300030000C000C0032
:101640000C000C003F003F000C000C000C000C00D4
:101650000C000C000C000C000C000C000000000042
:10166000000000000000000000000000000000007A
:1016700000000000FC00FC00C300C300C300C30066
:10168000C300C300C300C300FC00FC00C000C000D6
:101690003C003C00000000000300030003000300C6
:1016A000030003003F003F00C300C300C300C300AA
:1016B000C300C300C300C300C300C3000000000098
:1016C00000000000000000000000000030003000BA
:1016D00000000000300030003000300030003000EA
:1016E0003000300030003000FC00FC000000000042
:1016F000000000000000000000000000300030008A
:1017000000000000300030003000300030003000B9
:101710003000300030003000300030003300330043
:101720000C000C0000000000030003000300030095
:1017300003000300C300C300330033000F000F0099
:101740000F000F0033003300C300C300000000008F
:1017500000000000000000003C003C0030003000B1
:1017600030003000300030003000300030003000F9
:101770003000300030003000FC00FC0000000000B1
:101780000000000000000000000000000000000059
:1017900000000000C300C300FF00FF00C300C3003F
:1017A000C300C300C300C300C300C30000000000A7
:1017B0000000000000000000000000000000000029
:1017C0000000000033003300CF00CF00C300C3008F
:1017D000C300C300C300C300C300C3000000000077
:1017E00000000000000000000000000000000000F9
:1017F000000000003C003C00C300C300C300C30065
:10180000C300C300C300C3003C003C000000000054
:1018100000000000000000000000000000000000C8
:10182000000000003F003F00C300C300C300C3002E
:10183000C300C300C300C3003F003F000300030018
:101840000300030000000000000000000000000092
:1018500000000000FC00FC00C300C300C300C30084
:10186000C300C300C300C300FC00FC00C000C000F4
:10187000C000C000000000000000000000000000E8
:1018800000000000F300F300CC00CC000C000C00C2
:101890000C000C000C000C000C000C000000000000
:1018A0000000000000000000000000000000000038
:1018B000000000003C003C00C300C3000C000C0012
:1018C00030003000C300C3003C003C0000000000BA
:1018D0000000000000000000000000000C000C00F0
:1018E0000C000C003F003F000C000C000C000C0032
:1018F0000C000C000C000C003C003C000000000040
:1019000000000000000000000000000000000000D7
:1019100000000000C300C300C300C300C300C30035
:10192000C300C300C300C300FC00FC0000000000B3
:1019300000000000000000000000000000000000A7
:1019400000000000C300C300C300C300CC00CC00F3
:10195000CC00CC003000300030003000000000002F
:101960000000000000000000000000000000000077
:1019700000000000C300C300C300C300C300C300D5
:10198000C300C300FF00FF00C300C300000000004D
:101990000000000000000000000000000000000047
:1019A00000000000C300C300C300C3003C003C00B3
:1019B0003C003C00C300C300C300C30000000000A3
:1019C0000000000000000000000000000000000017
:1019D00000000000C300C300C300C300C300C30075
:1019E000C300C300C300C300FC00FC00C000C00073
:1019F0003F003F0000000000000000000000000069
:101A000000000000FF00FF00C000C00030003000F8
:101A10000C000C0003000300FF00FF0000000000AA
:101A20000000000000000000300030000C000C003E
:101A30000C000C000C000C00030003000C000C0058
:101A40000C000C000C000C00300030000000000006
:101A50000000000030003000300030003000300066
:101A60003000300000000000300030003000300056
:101A70003000300030003000300030000000000046
:101A800000000000000000000C000C0030003000DE
:101A90003000300030003000C000C00030003000A6
:101AA00030003000300030000C000C00000000005E
:101AB0000000000000000000CC00CC003300330028
:101AC0000000000000000000000000000000000016
:101AD0000000000000000000000000000000000006
:101AE0000000000000000000300030003000300036
:101AF000CC00CC00CC00CC0003030303030303039E
:101B00000303030303030303FF03FF0300000000B9
:101B10000000000000000000FC00FC00C300C30047
:101B2000C300C300C300C300FF00FF00C300C30025
:101B3000C300C300C300C300C300C3000000000013
:101B40000000000000000000FF00FF000300030091
:101B500003000300030003003F003F00C300C30075
:101B6000C300C300C300C3003F003F0000000000EB
:101B700000000000000000003F003F00C300C30061
:101B8000C300C300C300C3003F003F00C300C30045
:101B9000C300C300C300C3003F003F0000000000BB
:101BA0000000000000000000FF00FF000300030031
:101BB000030003000300030003000300030003000D
:101BC0000300030003000300030003000000000003
:101BD0000000000000000000F000F000CC00CC008D
:101BE000CC00CC00CC00CC00CC00CC00CC00CC0095
:101BF000CC00CC00CC00CC00FF03FF0303030303A5
:101C00000000000000000000FF00FF0003000300D0
:101C10000300030003000300FF00FF0003000300B4
:101C20000300030003000300FF00FF0000000000AA
:101C300000000000000000003303330333033303CC
:101C40003303330333033303FC00FC003303330358
:101C50003303330333033303330333030000000040
:101C600000000000000000003C003C00C300C30076
:101C7000C000C000C000C0003C003C00C000C0006C
:101C8000C000C000C300C3003C003C0000000000D6
:101C90000000000000000000C300C300C300C30038
:101CA000C300C300F300F300F300F300CF00CF0044
:101CB000CF00CF00C300C300C300C300000000007A
:101CC000000000003C003C00C300C300C300C30090
:101CD000C300C300F300F300F300F300CF00CF0014
:101CE000CF00CF00C300C300C300C300000000004A
:101CF0000000000000000000C300C300C300C300D8
:101D000033003300330033000F000F003300330083
:101D100033003300C300C300C300C3000000000051
:101D20000000000000000000FC00FC00C300C30035
:101D3000C300C300C300C300C300C300C300C3008B
:101D4000C300C300C300C300C300C3000000000001
:101D50000000000000000000C300C300C300C30077
:101D6000FF00FF00FF00FF00C300C300C300C3006B
:101D7000C300C300C300C300C300C30000000000D1
:101D80000000000000000000C300C300C300C30047
:101D9000C300C300C300C300FF00FF00C300C300B3
:101DA000C300C300C300C300C300C30000000000A1
:101DB00000000000000000003C003C00C300C30025
:101DC000C300C300C300C300C300C300C300C300FB
:101DD000C300C300C300C3003C003C00000000007F
:101DE0000000000000000000FF00FF00C300C3006F
:101DF000C300C300C300C300C300C300C300C300CB
:101E0000C300C300C300C300C300C3000000000040
:101E100000000000000000003F003F00C300C300BE
:101E2000C300C300C300C3003F003F000300030022
:101E30000300030003000300030003000000000090
:101E400000000000000000003C003C00C300C30094
:101E5000C300C300030003000300030003000300EA
:101E600003000300C300C3003C003C00000000006E
:101E70000000000000000000FF03FF0330003000FE
:101E800030003000300030003000300030003000D2
:101E90003000300030003000300030000000000022
:101EA0000000000000000000C300C300C300C30026
:101EB000C300C300C300C300FC00FC00C000C0009E
:101EC000C000C000C300C3003C003C000000000094
:101ED000000000000000000030003000FC00FC00AA
:101EE0003303330333033303330333033303330342
:101EF000FC00FC003000300030003000000000002A
:101F00000000000000000000C300C300C300C300C5
:101F1000C300C3003C003C003C003C003C003C00D3
:101F2000C300C300C300C300C300C300000000001F
:101F30000000000000000000C300C300C300C30095
:101F4000C300C300C300C300C300C300C300C30079
:101F5000C300C300C300C300FF03FF03000300036B
:101F60000003000300000000C300C300C300C3005F
:101F7000C300C300C300C300FC00FC00C000C000DD
:101F8000C000C000C000C000C000C00000000000D1
:101F90000000000000000000330333033303330369
:101FA0003303330333033303330333033303330381
:101FB0003303330333033303FF03FF030000000045
:101FC0000000000000000000330333033303330339
:101FD0003303330333033303330333033303330351
:101FE0003303330333033303FF03FF03000300030F
:101FF00000030003000000000F000F000F000F009F
:102000000C000C000C000C00FC00FC000C030C038A
:102010000C030C030C030C03FC00FC00000000008C
:102020000000000000000000C300C300C300C300A4
:10203000C300C300C300C300CF00CF00F300F30010
:10204000F300F300F300F300CF00CF000000000026
:102050000000000000000000030003000300030074
:1020600003000300030003003F003F00C300C30060
:10207000C300C300C300C3003F003F0000000000D6
:1020800000000000000000003C003C00C300C30052
:10209000C000C000C000C000FC00FC00C000C000C8
:1020A000C000C000C300C3003C003C0000000000B2
:1020B0000000000000000000C300C300330333032E
:1020C00033033303330333033F033F033303330348
:1020D0003303330333033303C300C30000000000A2
:1020E0000000000000000000FC00FC00C300C30072
:1020F000C300C300C300C300FC00FC00F000F000FC
:10210000CC00CC00C300C300C300C300000000002B
:1021100000000000000000000000000000000000BF
:10212000000000003C003C00C000C000FC00FC00BF
:10213000C300C300C300C300FC00FC00000000009B
:10214000000000000000000000000000C000C0000F
:102150003C003C00030003003F003F00C300C300FD
:10216000C300C300C300C3003C003C0000000000EB
:10217000000000000000000000000000000000005F
:10218000000000003F003F00C300C3003F003F00CD
:10219000C300C300C300C3003F003F0000000000B5
:1021A000000000000000000000000000000000002F
:1021B00000000000FF00FF00030003000300030015
:1021C00003000300030003000300030000000000FD
:1021D00000000000000000000000000000000000FF
:1021E00000000000F000F000CC00CC00CC00CC00DF
:1021F000CC00CC00CC00CC00FF03FF03030303039F
:1022000000000000000000000000000000000000CE
:10221000000000003C003C00C300C300C300C3003A
:10222000FF00FF0003000300FC00FC0000000000B2
:10223000000000000000000000000000000000009E
:10224000000000003303330333033303FC00FC00BE
:10225000330333033303330333033303000000003A
:10226000000000000000000000000000000000006E
:10227000000000003C003C00C300C3003000300000
:10228000C000C000C300C3003C003C0000000000D0
:10229000000000000000000000000000000000003E
:1022A00000000000C300C300C300C300F300F3003C
:1022B000CF00CF00C300C300C300C3000000000074
:1022C00000000000000000000000000030003000AE
:1022D0000C000C00C300C300C300C300F300F300F4
:1022E000CF00CF00C300C300C300C3000000000044
:1022F00000000000000000000000000000000000DE
:1023000000000000C300C300330033000F000F00C3
:102310000F000F0033003300C300C30000000000B3
:1023200000000000000000000000000000000000AD
:1023300000000000FC00FC00C300C300C300C30099
:10234000C300C300C300C300C300C30000000000FB
:10235000000000000000000000000000000000007D
:1023600000000000C300C300FF00FF00C300C30063
:10237000C300C300C300C300C300C30000000000CB
:10238000000000000000000000000000000000004D
:1023900000000000C300C300C300C300FF00FF0033
:1023A000C300C300C300C300C300C300000000009B
:1023B000000000000000000000000000000000001D
:1023C000000000003C003C00C300C300C300C30089
:1023D000C300C300C300C3003C003C000000000079
:1023E00000000000000000000000000000000000ED
:1023F00000000000FF00FF00C300C300C300C300D3
:10240000C300C300C300C300C300C300000000003A
:102410000000000000000000000000003303330350
:102420000000000000000000CC00CC000000000014
:102430000000000033033303000000000000000030
:10244000CC00CC0000000000CC00CC00000000005C
:102450003303330300000000CC00CC000000000078
:102460003303330300000000CC00CC000000000068
:1024700033033303CC00CC0033033303CC00CC0054
:1024800033033303CC00CC0033033303CC00CC0044
:1024900033033303CC00CC0033033303CC00CC0034
:1024A00033033303300030003000300030003000A0
:1024B000300030003000300030003000300030009C
:1024C000300030003000300030003000300030008C
:1024D000300030003000300030003000300030007C
:1024E00030003000300030003F003F00300030004E
:1024F000300030003000300030003000300030005C
:10250000300030003000300030003000300030004B
:10251000300030003F003F00300030003F003F00FF
:10252000300030003000300030003000300030002B
:1025300030003000CC00CC00CC00CC00CC00CC0073
:10254000CC00CC00CC00CC00CF00CF00CC00CC0025
:10255000CC00CC00CC00CC00CC00CC00CC00CC001B
:10256000CC00CC00000000000000000000000000D3
:102570000000000000000000FF00FF00CC00CC00C5
:10258000CC00CC00CC00CC00CC00CC00CC00CC00EB
:10259000CC00CC00000000000000000000000000A3
:1025A000000000003F003F00300030003F003F00CF
:1025B000300030003000300030003000300030009B
:1025C00030003000CC00CC00CC00CC00CC00CC00E3
:1025D000CC00CC00CF00CF00C000C000CF00CF00A7
:1025E000CC00CC00CC00CC00CC00CC00CC00CC008B
:1025F000CC00CC00CC00CC00CC00CC00CC00CC007B
:10260000CC00CC00CC00CC00CC00CC00CC00CC006A
:10261000CC00CC00CC00CC00CC00CC00CC00CC005A
:10262000CC00CC0000000000000000000000000012
:1026300000000000FF00FF00C000C000CF00CF007E
:10264000CC00CC00CC00CC00CC00CC00CC00CC002A
:10265000CC00CC00CC00CC00CC00CC00CC00CC001A
:10266000CC00CC00CF00CF00C000C000FF00FF00B6
:10267000000000000000000000000000000000005A
:1026800000000000CC00CC00CC00CC00CC00CC0082
:10269000CC00CC00CC00CC00FF00FF00000000000C
:1026A000000000000000000000000000000000002A
:1026B00000000000300030003000300030003000FA
:1026C000300030003F003F00300030003F003F004E
:1026D00000000000000000000000000000000000FA
:1026E00000000000000000000000000000000000EA
:1026F00000000000000000003F003F0030003000FC
:102700003000300030003000300030003000300049
:102710003000300030003000300030003000300039
:102720003000300030003000F003F0030000000003
:102730000000000000000000000000000000000099
:102740000000000030003000300030003000300069
:102750003000300030003000FF03FF0300000000B5
:102760000000000000000000000000000000000069
:102770000000000000000000000000000000000059
:102780000000000000000000FF03FF0330003000E5
:1027900030003000300030003000300030003000B9
:1027A00030003000300030003000300030003000A9
:1027B0003000300030003000F003F0033000300013
:1027C0003000300030003000300030003000300089
:1027D0003000300000000000000000000000000099
:1027E0000000000000000000FF03FF0300000000E5
:1027F00000000000000000000000000000000000D9
:1028000000000000300030003000300030003000A8
:102810003000300030003000FF03FF033000300094
:102820003000300030003000300030003000300028
:102830003000300030003000300030003000300018
:1028400030003000F003F00330003000F003F003FC
:1028500030003000300030003000300030003000F8
:1028600030003000CC00CC00CC00CC00CC00CC0040
:10287000CC00CC00CC00CC00CC03CC03CC00CC00F2
:10288000CC00CC00CC00CC00CC00CC00CC00CC00E8
:10289000CC00CC00CC00CC00CC00CC00CC00CC00D8
:1028A000CC00CC00CC03CC030C000C00FC03FC03DC
:1028B0000000000000000000000000000000000018
:1028C0000000000000000000000000000000000008
:1028D00000000000FC03FC030C000C00CC03CC0344
:1028E000CC00CC00CC00CC00CC00CC00CC00CC0088
:1028F000CC00CC00CC00CC00CC00CC00CC00CC0078
:10290000CC00CC00CF03CF0300000000FF03FF0387
:1029100000000000000000000000000000000000B7
:1029200000000000000000000000000000000000A7
:1029300000000000FF03FF0300000000CF03CF03EF
:10294000CC00CC00CC00CC00CC00CC00CC00CC0027
:10295000CC00CC00CC00CC00CC00CC00CC00CC0017
:10296000CC00CC00CC03CC030C000C00CC03CC037B
:10297000CC00CC00CC00CC00CC00CC00CC00CC00F7
:10298000CC00CC00000000000000000000000000AF
:1029900000000000FF03FF0300000000FF03FF032F
:1029A0000000000000000000000000000000000027
:1029B00000000000CC00CC00CC00CC00CC00CC004F
:1029C000CC00CC00CF03CF0300000000CF03CF0327
:1029D000CC00CC00CC00CC00CC00CC00CC00CC0097
:1029E000CC00CC003000300030003000300030002F
:1029F00030003000FF03FF0300000000FF03FF036F
:102A000000000000000000000000000000000000C6
:102A100000000000CC00CC00CC00CC00CC00CC00EE
:102A2000CC00CC00CC00CC00FF03FF030000000072
:102A30000000000000000000000000000000000096
:102A40000000000000000000000000000000000086
:102A500000000000FF03FF0300000000FF03FF036E
:102A600030003000300030003000300030003000E6
:102A700030003000000000000000000000000000F6
:102A80000000000000000000FF03FF03CC00CC00AA
:102A9000CC00CC00CC00CC00CC00CC00CC00CC00D6
:102AA000CC00CC00CC00CC00CC00CC00CC00CC00C6
:102AB000CC00CC00CC00CC00FC03FC0300000000E8
:102AC0000000000000000000000000000000000006
:102AD00000000000300030003000300030003000D6
:102AE00030003000F003F00330003000F003F0035A
:102AF00000000000000000000000000000000000D6
:102B000000000000000000000000000000000000C5
:102B100000000000F003F00330003000F003F00389
:102B20003000300030003000300030003000300025
:102B30003000300000000000000000000000000035
:102B40000000000000000000FC03FC03CC00CC00EF
:102B5000CC00CC00CC00CC00CC00CC00CC00CC0015
:102B6000CC00CC00CC00CC00CC00CC00CC00CC0005
:102B7000CC00CC00CC00CC00CF03CF03CC00CC00E9
:102B8000CC00CC00CC00CC00CC00CC00CC00CC00E5
:102B9000CC00CC003000300030003000300030007D
:102BA00030003000FF03FF0300000000FF03FF03BD
:102BB0003000300030003000300030003000300095
:102BC0003000300030003000300030003000300085
:102BD00030003000300030003F003F0000000000B7
:102BE00000000000000000000000000000000000E5
:102BF00000000000000000000000000000000000D5
:102C00000000000000000000F003F003300030007E
:102C10003000300030003000300030003000300034
:102C200030003000FF03FF03FF03FF03FF03FF0338
:102C3000FF03FF03FF03FF03FF03FF03FF03FF0384
:102C4000FF03FF03FF03FF03FF03FF03FF03FF0374
:102C5000FF03FF0300000000000000000000000070
:102C6000000000000000000000000000FF03FF0360
:102C7000FF03FF03FF03FF03FF03FF03FF03FF0344
:102C8000FF03FF033F003F003F003F003F003F00C6
:102C90003F003F003F003F003F003F003F003F003C
:102CA0003F003F003F003F003F003F003F003F002C
:102CB0003F003F00F003F003F003F003F003F003E4
:102CC000F003F003F003F003F003F003F003F0036C
:102CD000F003F003F003F003F003F003F003F0035C
:102CE000F003F003FF03FF03FF03FF03FF03FF03F2
:102CF000FF03FF03FF03FF03FF03FF0300000000C8
:102D000000000000000000000000000000000000C3
:102D100000000000000000000000000000000000B3
:102D2000000000003F003F00C300C300C300C30019
:102D3000C300C300C300C3003F003F000300030003
:102D4000030003000000000000000000000000007D
:102D500000000000FC00FC0003000300030003006F
:102D60000300030003000300FC00FC00000000005F
:102D70000000000000000000000000000000000053
:102D800000000000FF03FF0330003000300030007F
:102D90003000300030003000300030000000000013
:102DA0000000000000000000000000000000000023
:102DB00000000000C300C300C300C300C300C30081
:102DC000C300C300C300C300FC00FC00C000C0007F
:102DD0003F003F0000000000000000000000000075
:102DE0000000000030003000FC00FC00330333031F
:102DF0003303330333033303FC00FC0030003000A3
:102E00003000300000000000000000000000000062
:102E100000000000C300C300C300C3003C003C002E
:102E20003C003C00C300C300C300C300000000001E
:102E30000000000000000000000000000000000092
:102E400000000000C300C300C300C300C300C300F0
:102E5000C300C300C300C300FF03FF03000300035C
:102E6000000300030000000000000000000000005C
:102E700000000000C300C300C300C300C300C300C0
:102E8000FC00FC00C000C000C000C000000000004A
:102E90000000000000000000000000000000000032
:102EA00000000000330333033303330333033303DE
:102EB0003303330333033303FF03FF030000000036
:102EC0000000000000000000000000000000000002
:102ED00000000000330333033303330333033303AE
:102EE0003303330333033303FF03FF030003000300
:102EF00000030003000000000000000000000000CC
:102F0000000000000F000F000C000C003C003C0013
:102F1000CC00CC00CC00CC003C003C000000000009
:102F200000000000000000000000000000000000A1
:102F300000000000C300C300C300C300CF00CF00E7
:102F4000F300F300F300F300CF00CF000000000017
:102F50000000000000000000000000000000000071
:102F60000000000003000300030003003F003F00D7
:102F7000C300C300C300C3003F003F0000000000C7
:102F80000000000000000000000000000000000041
:102F9000000000003F003F00C000C000FC00FC003B
:102FA000C000C000C000C0003F003F0000000000A3
:102FB0000000000000000000000000000000000011
:102FC00000000000C300C300330333033F033F038B
:102FD0003303330333033303C300C3000000000093
:102FE00000000000000000000000000000000000E1
:102FF00000000000FC00FC00C300C300C300C300CD
:10300000FC00FC00C300C300C300C30000000000BC
:1030100000000000C300C300FF00FF000300030026
:103020000300030003000300FF00FF000300030090
:103030000300030003000300FF00FF000000000086
:103040000000000000000000CC00CC00CC00CC0050
:10305000000000003C003C00C300C300C300C300EC
:10306000FF00FF0003000300FC00FC000000000064
:1030700000000000000000003C003C00C300C30052
:1030800003000300030003003F003F0003000300B0
:1030900003000300C300C3003C003C00000000002C
:1030A0000000000000000000000000000000000020
:1030B00000000000FC00FC00030003003F003F0094
:1030C0000300030003000300FC00FC0000000000FC
:1030D0000000000003030303300030003000300024
:1030E0003000300030003000300030003000300060
:1030F0003000300030003000FC00FC000000000018
:103100000000000000000000CC00CC00CC00CC008F
:10311000000000003C003C00300030003000300077
:103120003000300030003000FC00FC0000000000E7
:10313000000000003C003C00C300C300C300C3000B
:10314000C300C300C300C300FC00FC00C000C000FB
:10315000C000C000C300C3003C003C0000000000F1
:10316000000000000000000000000000C300C300D9
:103170003C003C00C300C300C300C300C300C30045
:10318000C300C300C300C300FC00FC00C000C000BB
:103190003F003F003C003C00C300C300C300C3002D
:1031A0003C003C00000000000000000000000000A7
:1031B000000000000000000000000000000000000F
:1031C00000000000000000000000000000000000FF
:1031D0000000000030003000FC00FC003000300037
:1031E00000000000000000000000000000000000DF
:1031F00000000000000000000000000000000000CF
:1032000000000000000000003000300030003000FE
:1032100000000000000000000000000000000000AE
:103220000000000000000000F003F0033000300058
:103230003000300030003000300030003300330008
:10324000330033003C003C00300030000000000040
:103250000000000000000000F303F303F303F30396
:103260003300330033003300FF03FF033F003F0010
:10327000330033003300330033003300000000001C
:103280000000000000000000C300C3003C003C0040
:10329000C300C300C300C300C300C300C300C30016
:1032A000C300C3003C003C00C300C300000000009A
:1032B000000000000000000000000000000000000E
:1032C000FC00FC00FC00FC00FC00FC00FC00FC001E
:1032D000FC00FC00000000000000000000000000F6
:1032E00000000000000000000000000000000000DE
:1032F00000000000000000000000000000000000CE
:1033000000000000000000000000000000000000BD
:10331000000000002F70726F6365737365732E7306
:1033200068746D6C0025213A202F686561646572B0
:103330002E68746D6C0A3C68313E53797374656D08
:103340002070726F6365737365733C2F68313E3C08
:1033500062723E3C7461626C652077696474683D9A
:103360002231303025223E0A3C74723E3C74683E65
:1033700049443C2F74683E3C74683E4E616D653C28
:103380002F74683E3C74683E5072696F726974793C
:103390003C2F74683E3C74683E506F6C6C206861D2
:1033A0006E646C65723C2F74683E3C74683E457672
:1033B000656E742068616E646C65723C2F74683E43
:1033C0003C74683E50726F6373746174653C2F7413
:1033D000683E3C2F74723E0A25212070726F63652F
:1033E000737365730A25213A202F666F6F746572B7
:1033F0002E68746D6C0000002F3430342E68746DAC
:103400006C003C68746D6C3E0A20203C626F6479ED
:10341000206267636F6C6F723D2277686974652202
:103420003E0A202020203C63656E7465723E0A20AF
:1034300020202020203C68313E343034202D20666E
:10344000696C65206E6F7420666F756E643C2F68C2
:10345000313E0A2020202020203C68333E476F2048
:103460003C6120687265663D222F223E6865726568
:103470003C2F613E20696E73746561642E3C2F6839
:10348000333E0A202020203C2F63656E7465723E17
:103490000A20203C2F626F64793E0A3C2F68746DCD
:1034A0006C3E00002F66696C65732E7368746D6CDA
:1034B0000025213A202F6865616465722E68746D5D
:1034C0006C0A3C68313E46696C65207374617469AE
:1034D00073746963733C2F68313E0A3C63656E7494
:1034E00065723E0A3C7461626C6520776964746839
:1034F0003D22333030223E0A3C74723E3C74643EBE
:103500003C6120687265663D222F696E6465782E85
:1035100068746D6C223E2F696E6465782E68746DD8
:103520006C3C2F613E3C2F74643E0A3C74643E2523
:10353000212066696C652D7374617473202F696E28
:103540006465782E68746D6C0A3C2F74643E3C741C
:10355000643E3C696D67207372633D222F6661642F
:10356000652E706E6722206865696768743D31302A
:103570002077696474683D25212066696C652D7328
:1035800074617473202F696E6465782E68746D6C35
:103590000A3E203C2F74643E3C2F74723E0A3C74F9
:1035A000723E3C74643E3C6120687265663D222F29
:1035B00066696C65732E7368746D6C223E2F666944
:1035C0006C65732E7368746D6C3C2F613E3C2F7478
:1035D000643E0A3C74643E25212066696C652D7347
:1035E00074617473202F66696C65732E7368746DD3
:1035F0006C0A3C2F74643E3C74643E3C696D6720E9
:103600007372633D222F666164652E706E6722209F
:103610006865696768743D31302077696474683D16
:1036200025212066696C652D7374617473202F6683
:10363000696C65732E7368746D6C0A3E203C2F7440
:10364000643E3C2F74723E0A3C74723E3C74643E8D
:103650003C6120687265663D222F7463702E73682A
:10366000746D6C223E2F7463702E7368746D6C3CA5
:103670002F613E3C2F74643E0A3C74643E25212039
:1036800066696C652D7374617473202F7463702E7A
:103690007368746D6C0A3C2F74643E3C74643E3CE9
:1036A000696D67207372633D222F666164652E70B9
:1036B0006E6722206865696768743D3130207769DC
:1036C0006474683D25212066696C652D737461748E
:1036D00073202F7463702E7368746D6C0A3E203CE7
:1036E0002F74643E3C2F74723E0A3C74723E3C74EC
:1036F000643E3C6120687265663D222F737461747C
:10370000732E7368746D6C223E2F73746174732E04
:103710007368746D6C3C2F613E3C2F74643E0A3CB0
:1037200074643E25212066696C652D737461747321
:10373000202F73746174732E7368746D6C0A3C2F40
:1037400074643E3C74643E3C696D67207372633DF3
:10375000222F666164652E706E6722206865696736
:1037600068743D31302077696474683D2521206696
:10377000696C652D7374617473202F737461747335
:103780002E7368746D6C0A3E203C2F74643E3C2F8F
:1037900074723E0A3C74723E3C74643E3C61206824
:1037A0007265663D222F7374796C652E6373732284
:1037B0003E2F7374796C652E6373733C2F613E3CAE
:1037C0002F74643E0A3C74643E25212066696C6552
:1037D0002D7374617473202F7374796C652E637309
:1037E000730A3C2F74643E3C74643E3C696D6720F0
:1037F0007372633D222F666164652E706E672220AE
:103800006865696768743D31302077696474683D24
:1038100025212066696C652D7374617473202F7384
:1038200074796C652E6373730A3E203C2F74643E7A
:103830003C2F74723E0A3C74723E3C74643E3C61A0
:1038400020687265663D222F3430342E68746D6CAA
:10385000223E2F3430342E68746D6C3C2F613E3C18
:103860002F74643E0A3C74643E25212066696C65B1
:103870002D7374617473202F3430342E68746D6C22
:103880000A3C2F74643E3C74643E3C696D6720734F
:1038900072633D222F666164652E706E6722206818
:1038A00065696768743D31302077696474683D25C7
:1038B000212066696C652D7374617473202F343018
:1038C000342E68746D6C0A3E203C2F74643E3C2F8D
:1038D00074723E0A3C74723E3C74643E3C612068E3
:1038E0007265663D222F666164652E706E67223EAA
:1038F0002F666164652E706E673C2F613E3C2F74AD
:10390000643E0A3C74643E25212066696C652D7313
:1039100074617473202F666164652E706E670A3C53
:103920002F74643E3C74643E3C696D67207372631F
:103930003D222F666164652E706E6722206865697E
:103940006768743D31302077696474683D252120B3
:1039500066696C652D7374617473202F666164658C
:103960002E706E670A3E203C2F74643E3C2F7472AA
:103970003E0A3C2F7461626C653E0A3C2F63656EA3
:103980007465723E0A25213A202F666F6F74657246
:103990002E68746D6C0A00002F666F6F7465722E4E
:1039A00068746D6C0020203C2F626F64793E0A3C85
:1039B0002F68746D6C3E00002F6865616465722E1F
:1039C00068746D6C003C21444F4354595045204865
:1039D000544D4C205055424C494320222D2F2F57F7
:1039E00033432F2F4454442048544D4C20342E3020
:1039F00031205472616E736974696F6E616C2F2F20
:103A0000454E222022687474703A2F2F7777772ED4
:103A100077332E6F72672F54522F68746D6C342F6A
:103A20006C6F6F73652E647464223E0A3C68746D1B
:103A30006C3E0A20203C686561643E0A20202020FC
:103A40003C7469746C653E57656C636F6D6520747A
:103A50006F20746865207549502077656220736512
:103A600072766572213C2F7469746C653E0A202061
:103A700020203C6C696E6B2072656C3D22737479FA
:103A80006C6573686565742220747970653D227475
:103A90006578742F6373732220687265663D2273A4
:103AA00074796C652E637373223E20200A20203CBB
:103AB0002F686561643E0A20203C626F6479206251
:103AC00067636F6C6F723D2223666666656563226D
:103AD00020746578743D22626C61636B223E0A0A31
:103AE00020203C64697620636C6173733D226D65B0
:103AF0006E75223E0A20203C64697620636C6173F7
:103B0000733D226D656E75626F78223E3C61206860
:103B10007265663D222F223E46726F6E7420706180
:103B200067653C2F613E3C2F6469763E0A20203C4D
:103B300064697620636C6173733D226D656E756296
:103B40006F78223E3C6120687265663D2266696C32
:103B500065732E7368746D6C223E46696C652073C4
:103B60007461746973746963733C2F613E3C2F64A4
:103B700069763E0A20203C64697620636C61737329
:103B80003D226D656E75626F78223E3C61206872E1
:103B900065663D2273746174732E7368746D6C2254
:103BA0003E4E6574776F726B2073746174697374C1
:103BB0006963733C2F613E3C2F6469763E0A202086
:103BC0003C64697620636C6173733D226D656E752C
:103BD000626F78223E3C6120687265663D227463A4
:103BE000702E7368746D6C223E4E6574776F726BC5
:103BF0000A2020636F6E6E656374696F6E733C2F6D
:103C0000613E3C2F6469763E0A20203C62723E0A87
:103C100020203C2F6469763E0A20200A20203C6444
:103C2000697620636C6173733D22636F6E74656E99
:103C300074626C6F636B223E0A0000002F696E6431
:103C400065782E68746D6C003C21444F4354595084
:103C5000452048544D4C205055424C494320222D7C
:103C60002F2F5733432F2F4454442048544D4C207A
:103C7000342E3031205472616E736974696F6E61D5
:103C80006C2F2F454E222022687474703A2F2F77A4
:103C900077772E77332E6F72672F54522F68746D9B
:103CA0006C342F6C6F6F73652E647464223E0A3C13
:103CB00068746D6C3E0A20203C686561643E0A2091
:103CC0002020203C7469746C653E57656C636F6D91
:103CD0006520746F2074686520754950207765628F
:103CE00020736572766572213C2F7469746C653E31
:103CF0000A202020203C6C696E6B2072656C3D228E
:103D00007374796C65736865657422207479706565
:103D10003D22746578742F63737322206872656620
:103D20003D227374796C652E637373223E20200AE2
:103D300020203C2F686561643E0A20203C626F644D
:103D400079206267636F6C6F723D222366666665D9
:103D500065632220746578743D22626C61636B2216
:103D60003E0A0A20203C64697620636C6173733DCF
:103D7000226D656E75223E0A20203C6469762063C0
:103D80006C6173733D226D656E75626F78223E3C87
:103D90006120687265663D222F223E46726F6E7406
:103DA00020706167653C2F613E3C2F6469763E0A56
:103DB00020203C64697620636C6173733D226D65DD
:103DC0006E75626F78223E3C6120687265663D22A6
:103DD00066696C65732E7368746D6C223E46696CFF
:103DE0006520737461746973746963733C2F613EF9
:103DF0003C2F6469763E0A20203C64697620636C1F
:103E00006173733D226D656E75626F78223E3C6111
:103E100020687265663D2273746174732E736874D2
:103E20006D6C223E4E6574776F726B207374617493
:103E30006973746963733C2F613E3C2F6469763EFD
:103E40000A20203C64697620636C6173733D226DA7
:103E5000656E75626F78223E3C6120687265663DD2
:103E6000227463702E7368746D6C223E4E65747795
:103E70006F726B0A2020636F6E6E656374696F6E7C
:103E8000733C2F613E3C2F6469763E0A20203C62E1
:103E9000723E0A20203C2F6469763E0A0A20203CAC
:103EA00064697620636C6173733D22636F6E746521
:103EB0006E74626C6F636B223E0A20203C703E0A77
:103EC000202054686573652077656220706167659E
:103ED0007320617265207365727665642062792053
:103EE0006120736D616C6C207765622073657276FA
:103EF00065722072756E6E696E67206F6E20746FCA
:103F000070206F660A2020746865203C612068720A
:103F100065663D22687474703A2F2F7777772E7319
:103F20006963732E73652F7E6164616D2F7569708F
:103F30002F223E75495020656D626564646564207A
:103F40005443502F49500A2020737461636B3C2FF7
:103F5000613E2E0A20203C2F703E0A20203C703EFD
:103F60000A2020436C69636B206F6E2074686520A3
:103F70006C696E6B732061626F766520666F72206C
:103F800077656220736572766572207374617469F7
:103F900073746963732E0A20203C2F703E0A0A2036
:103FA000203C2F626F64793E0A3C2F68746D6C3E32
:103FB0000A0000002F7374796C652E6373730068B8
:103FC00031200A7B0A2020746578742D616C696742
:103FD0006E3A2063656E7465723B0A2020666F6ED0
:103FE000742D73697A653A313470743B0A20206607
:103FF0006F6E742D66616D696C793A617269616C7E
:104000002C68656C7665746963613B0A2020666F75
:104010006E742D7765696768743A626F6C643B0AE9
:10402000202070616464696E673A313070783B209B
:104030000A7D0A0A626F64790A7B0A0A202062619B
:10404000636B67726F756E642D636F6C6F723A206D
:10405000236666666565633B0A2020636F6C6F723A
:104060003A626C61636B3B0A0A2020666F6E742DA6
:1040700073697A653A3870743B0A2020666F6E74F3
:104080002D66616D696C793A617269616C2C686545
:104090006C7665746963613B0A7D0A0A2E6D656EF4
:1040A000750A7B0A20206D617267696E3A20347050
:1040B000783B0A202077696474683A3630253B0AD9
:1040C0000A202070616464696E673A3270783B0A36
:1040D000090A2020626F726465723A20736F6C69FE
:1040E00064203170783B0A20206261636B67726FD5
:1040F000756E642D636F6C6F723A2023666666631B
:1041000064323B0A2020746578742D616C69676E97
:104110003A6C6566743B0A20200A2020666F6E7434
:104120002D73697A653A3970743B0A2020666F6E88
:10413000742D66616D696C793A617269616C2C6885
:10414000656C7665746963613B20200A7D0A0A64A8
:1041500069762E6D656E75626F780A7B0A2020770E
:10416000696474683A203235253B0A2020626F72F8
:104170006465723A20303B0A2020666C6F61743AA5
:10418000206C6566743B0A746578742D616C696790
:104190006E3A2063656E7465723B0A7D0A0A2E636F
:1041A0006F6E74656E74626C6F636B0A7B20200A9D
:1041B00020206D617267696E3A203470783B0A2066
:1041C0002077696474683A3630253B0A0A202070EB
:1041D000616464696E673A3270783B0A0A20206233
:1041E0006F726465723A2031707820646F74746500
:1041F000643B0A20206261636B67726F756E642D89
:10420000636F6C6F723A2077686974653B0A0A20A5
:1042100020666F6E742D73697A653A3870743B0A44
:104220002020666F6E742D66616D696C793A6172DB
:1042300069616C2C68656C7665746963613B2020EC
:104240000A0A7D0A0A702E696E74726F0A7B0A2050
:10425000206D617267696E2D6C6566743A323070DC
:10426000783B0A20206D617267696E2D72696768FC
:10427000743A323070783B0A0A2020666F6E742DD3
:1042800073697A653A313070743B0A2F2A202066B0
:104290006F6E742D7765696768743A626F6C643B02
:1042A000202A2F0A2020666F6E742D66616D696C5E
:1042B000793A617269616C2C68656C7665746963C2
:1042C000613B20200A7D0A0A702E636C696E6B0ABE
:1042D0007B0A2020666F6E742D73697A653A3132DD
:1042E00070743B0A2020666F6E742D66616D696C78
:1042F000793A636F75726965722C6D6F6E6F73704A
:104300006163653B20200A2020746578742D616C00
:1043100069676E3A63656E7465723B0A7D0A0A705E
:104320002E636C696E6B390A7B0A2020666F6E748F
:104330002D73697A653A3970743B0A2020666F6E76
:10434000742D66616D696C793A636F757269657217
:104350002C6D6F6E6F73706163653B20200A2020A7
:10436000746578742D616C69676E3A63656E746507
:10437000723B0A7D0A0A0A700A7B0A202070616477
:1043800064696E672D6C6566743A313070783B0AEB
:104390007D0A0A702E72696768740A7B0A2020748D
:1043A0006578742D616C69676E3A72696768743BF1
:1043B000200A7D0A0A0000002F7463702E7368744F
:1043C0006D6C0025213A202F6865616465722E6846
:1043D000746D6C0A3C68313E43757272656E742070
:1043E000636F6E6E656374696F6E733C2F68313EE8
:1043F0003C62723E3C7461626C65207769647468EB
:104400003D2231303025223E0A3C74723E3C7468B5
:104410003E4C6F63616C3C2F74683E3C74683E5246
:10442000656D6F74653C2F74683E3C74683E5374D0
:104430006174653C2F74683E3C74683E52657472CA
:10444000616E736D697373696F6E733C2F74683E30
:104450003C74683E54696D65723C2F74683E3C74D0
:10446000683E466C6167733C2F74683E3C2F7472E3
:104470003E0A2521207463702D636F6E6E65637430
:10448000696F6E730A25213A202F666F6F7465720B
:104490002E68746D6C0000002F666164652E706E6E
:1044A000670089504E470D0A1A0A0000000D49485E
:1044B0004452000000040000000A08020000001C32
:1044C000996859000000097048597300000B1300E7
:1044D000000B1301009A9C180000000774494D4519
:1044E00007D60608141B39AF5BC0E30000001D743B
:1044F000455874436F6D6D656E74004372656174E9
:1045000065642077697468205468652047494D5078
:10451000EF64256E0000003A4944415408D7758C79
:104520003112001010C42E379E4065FDFF83F40A3F
:104530001C8D549BC9CC9A3D9073716791D474368D
:10454000A95501F82958C8BF48C481740BA30F7C32
:10455000DB04E84005DFA1F3FC73000000004945DF
:104560004E44AE42608200002F73746174732E73E8
:1045700068746D6C0025213A202F6865616465724E
:104580002E68746D6C0A3C68313E4E6574776F72AC
:104590006B20737461746973746963733C2F683141
:1045A0003E0A3C63656E7465723E0A3C7461626CDF
:1045B000652077696474683D223330302220626F51
:1045C000726465723D2230223E0A3C74723E3C7435
:1045D000643E3C7072653E0A495020202020202015
:1045E00020202020205061636B6574732072656306
:1045F00065697665640A2020202020202020202064
:104600002020205061636B6574732073656E740A9B
:104610000920202020205061636B65747320647230
:104620006F707065640A4950206572726F727320F2
:1046300020202049502076657273696F6E2F68655F
:1046400061646572206C656E6774680A20202020A2
:104650002020202020202020204950206C656E67DB
:1046600074682C206869676820627974650A202064
:1046700020202020202020202020204950206C6550
:104680006E6774682C206C6F7720627974650A20DD
:10469000202020202020202020202020495020667B
:1046A0007261676D656E74730A20202020202020BF
:1046B00020202020202048656164657220636865A1
:1046C000636B73756D0A202020202020202020207D
:1046D00020202057726F6E672070726F746F636F47
:1046E0006C0A49434D500920202020205061636B03
:1046F0006574732072656365697665640A2020209D
:10470000202020202020202020205061636B657411
:10471000732073656E740A20202020202020202022
:10472000202020205061636B6574732064726F7069
:104730007065640A202020202020202020202020B6
:104740002054797065206572726F72730A544350F9
:10475000202020202020202020205061636B6574C1
:10476000732072656365697665640A2020202020C5
:1047700020202020202020205061636B657473204E
:1047800073656E740A202020202020202020202005
:1047900020205061636B6574732064726F70706564
:1047A000640A2020202020202020202020202043B8
:1047B0006865636B73756D206572726F72730A2022
:1047C00020202020202020202020202044617461EF
:1047D000207061636B65747320776974686F75749A
:1047E0002041434B730A202020202020202020201D
:1047F0002020205265736574730A20202020202019
:104800002020202020202052657472616E736D6913
:104810007373696F6E730A0920202020204E6F2069
:10482000636F6E6E656374696F6E206176616C692B
:1048300061626C650A092020202020436F6E6E653E
:104840006374696F6E20617474656D707473207425
:104850006F20636C6F73656420706F7274730A3CB1
:104860002F7072653E3C2F74643E3C74643E3C7015
:1048700072653E2521206E65742D73746174730A10
:104880003C2F7072653E3C2F7461626C653E0A3C41
:104890002F63656E7465723E0A25213A202F666F7C
:1048A0006F7465722E68746D6C0A00000000000061
:1048B0001433000025330000D10000000000000088
:1048C000AC480000F833000002340000A1000000F2
:1048D00000000000C0480000A4340000B134000013
:1048E000E604000000000000D448000098390000F1
:1048F000A53900001200000000000000E848000098
:10490000B8390000C5390000750200000000000041
:10491000FC4800003C3C0000483C00006A030000EA
:104920000000000010490000B43F0000BF3F00003D
:10493000F70300000000000024490000B843000015
:10494000C3430000D300000000000000384900000D
:1049500098440000A2440000C500000000000000D0
:104960004C49000068450000754500003603000012
:104970000000000070B4C2788B18DFF8D02BD37120
:10498000857815EB11259571467856710078107170
:10499000EDB2B5EB112F06D2741C5471E4B2002CA9
:1049A00001D1401C1071DBB2C8B283420DDA681C21
:1049B0009071C0B2002808D15079401C5071C0B22B
:1049C000002802D11079401C107170BC704710B4DF
:1049D0005218521E0AE00B784C7814EB03239BB25A
:1049E000181880B2984200D2401C891C9142F2D320
:1049F00007D1097810EB012080B2B0EB012F00D273
:104A0000401C80B210BC704780B51422DFF8401BF8
:104A10000020FFF7DCFF002802D14FF6FF7002BD37
:104A2000BDE8024000F080BD38B5DFF8284B217C9E
:104A3000627C12EB0121A1F11405082204F11A0194
:104A400055FA80F080B2FFF7C2FF2A4692B204F115
:104A50002201FFF7BCFF002802D14FF6FF7032BDE4
:104A6000BDE8324000F060BD0620DDE710B4DFF89D
:104A7000DC0A002101720B4604E000EB41010B82CD
:104A8000511C0172027A11462829F6DB194601727F
:104A9000DFF8C44A06E0CC2313FB014100234B7628
:104AA000511C0172027A11462829F4DB4FF480610F
:104AB000C18110BC704710B4DFF8901A00220A724E
:104AC00001E0521C0A720A7A1346282B05DA01EB20
:104AD00043031C8A002CF4D1188210BC704738B5EF
:104AE000DFF8684A656E014605F10800FFF742FFEE
:104AF00020792872606E61794172606EA17981724D
:104B0000606EE179C17231BD000000002DE9F8430B
:104B1000DFF8385A6F6EDFF8444ADFF8386A06F279
:104B20003601A163296603280ED1787E00F00F00BC
:104B3000032803D1388A002800F080800020A08656
:104B400084F82C00BDE8F183022840F07D80E878ED
:104B5000401CE870C0B200280ED1A878401CA87094
:104B6000C0B2002808D16878401C6870C0B2002824
:104B700002D12878401C28700020A0866881787EA9
:104B80000146072901D0052908D1B87E401CB87616
:104B9000C0B27828D2D100207876CFE70028CDD0D7
:104BA000388A002845D0B87E411EB9760028C5D184
:104BB000F87E014606F22E08082906D07A7E022ADF
:104BC00001D0012A0DD105290BD100207876802053
:104BD00084F82C0000F084FF142088F8010000F015
:104BE000FEBB052900DB0420032101FA00F0B876A2
:104BF000F87E401CF876E08C401CE084787E00F063
:104C00000F00401E072899D8DFE810F07D02090048
:104C10000D00320308003203080032038EE7002043
:104C200088F8010073E2042084F82C0000F058FF9B
:104C30008CE301F00F0003287FF480AF082084F894
:104C40002C0000F04DFF50E32088401C2080B07BFA
:104C5000452806D0A088401CA080E088401CE08049
:104C60006CE706F20E0999F8020099F8031011EBAF
:104C70000020A18E8142FFF661AFA08699F8060060
:104C80003F21084203D199F80700002806D0A088E8
:104C9000401CA080A089401CA0814FE7278E002FD8
:104CA00002D1608E00280CD0B9F81000B84204D1AF
:104CB000B9F81200618E884203D0A088401CA08001
:104CC0003CE74FF6FF78FFF79FFE404506D0A088EF
:104CD000401CA080E089401CE0812FE799F8090082
:104CE00006280AD1608B401C6083FFF7BDFE40455B
:104CF00038D1DFF8640807463CE0012806D0A088D8
:104D0000401CA080208A401C208217E7608A401C3B
:104D1000608296F82200082806D0E08A401CE082D3
:104D2000208B401C208309E7002086F82200B08CED
:104D30004FF6F771884202DB0930B08401E0083099
:104D4000B084B9F80C00A9F81000B9F80E00A9F861
:104D50001200A9F80C70608EA9F80E00A08A401C01
:104D6000A082D9E3E08B401CE083208C401C20848F
:104D7000E4E6CC3700F5F8511431B942C0F0C280F6
:104D8000797E0029F5D0B9F81610BA889142F0D191
:104D9000B9F81410FA889142EBD1B9F80C103A889E
:104DA0009142E6D1B9F80E107A889142E1D16F664E
:104DB000002084F82C0006F22E0898F80100410724
:104DC00000F1C58196F82E10090989002972A28E7A
:104DD000511A1439A1867A7E02F00F02022A03D1F9
:104DE00000F03F02122A1DD089B2002902D103220D
:104DF000104217D099F818103A7A914240F0EC829C
:104E000099F819107A7A914240F0E68299F81A10CE
:104E1000BA7A914240F0E08299F81B10FA7A9142F6
:104E200040F0DA82C00642D5398A00293FD007F126
:104E30000C00FFF79FFD287999F81C10814236D1AC
:104E400099F81D106A79914231D199F81E10AA790A
:104E500091422CD199F81F10EA79914227D13873E9
:104E600068797873A879B873E879F873F87E0028C0
:104E700016D1B87D97F9181097F91A20891AA1EB65
:104E8000D00149B20818B875080000D54042F97D34
:104E90004018A0EB9100F875B97D00EBD100387691
:104EA000012084F82C00387EB87600203882787E85
:104EB00000F00F01491E07293FF640AEDFE811F070
:104EC00009004F01B4016F02D202ED028C026102AF
:104ED00034E694F82C00C0077FF530AE03207876D6
:104EE000402084F82C0000203882A08E002800F09A
:104EF000F88194F82C1041F0020184F82C10FFF78F
:104F0000EEFDEEE106F12E01497801F03F010229A4
:104F100017D1B9F81610E18600222A7201E0521C5E
:104F20002A722A7A1346282B08DA05EB43031B8AD8
:104F30009942F4D100273946297271E0608D401CF6
:104F4000608506F22E0898F8010040073FF5F6AD9F
:104F5000A08C401CA084142088F801002820A08682
:104F6000502086F82E0099F81B00287299F81F101F
:104F700089F81B1089F81F0099F81A10297299F8FE
:104F80001E2089F81A2089F81E1099F819202A7213
:104F900099F81D3089F8193089F81D2099F81830D2
:104FA0002B7299F81C7089F8187089F81C30401C15
:104FB00089F81F00C0B200280ED1481C89F81E00D5
:104FC000C0B2002808D1501C89F81D00C0B20028CA
:104FD00002D1581C89F81C00B9F81400E086B9F811
:104FE0001610A9F81410A9F81600B9F80C00A9F8C1
:104FF0001000B9F80E00A9F81200208EA9F80C00D4
:10500000608EA9F80E0059E2072907D1002F04D0BD
:10501000B97E92F81AC0614500D21746591C297210
:105020002B7A1946282906DACC2212FB0102517E7E
:105030000029E9D11746002F03D1208D401C20857F
:105040007CE56F660320B87638760020B8750420BA
:10505000F8750020F876B9F81600B880B9F8140091
:10506000F880B9F80C003880B9F80E00788001207B
:1050700078762878387368787873A878B873E87881
:10508000F8730120388299F81B00F87299F81A0019
:10509000B87299F81900787299F8180038720120DE
:1050A000FFF71DFD96F82E0000F0F00151292ADBD4
:1050B0000021297201E0491C2972297A0A46030954
:1050C0005B1FB2EB830F1EDA921992F8363084F828
:1050D0002D30002B17D0012BEDD002F2360292F8C2
:1050E00001C0022B2DD1BCF1040F2AD19078D178C8
:1050F00041EA0020E08640F2BB51884201DB40F2E9
:10510000BA507882B88206F12E001021417006F262
:105110002E0898F8010040F0020088F801000220F3
:1051200088F80800042088F80900052088F80A009B
:10513000BA2088F80B002C20A086602086F82E006C
:1051400052E1BCF1000FDED061442972B5E70020C6
:105150007876202084F82C0000F0C2FCEEE494F86D
:105160002C00C00757D598F8010000F03F00122826
:1051700051D196F82E0000F0F00151292ADB0021D0
:10518000297201E0491C2972297A0A4603095B1F2A
:10519000B2EB830F1EDA921992F8363084F82D3074
:1051A000002B17D0012BEDD002F2360292F801C08D
:1051B000022B2AD1BCF1040F27D19078D17841EA93
:1051C0000020E08640F2BB51884201DB40F2BA5039
:1051D0007882B8820320787699F81800387299F8A6
:1051E0001900787299F81A00B87299F81B00F872D1
:1051F0000120FFF774FC422084F82C000020388244
:10520000A086688100F06CFC6FE0BCF1000FE1D07B
:1052100061442972B8E7202084F82C0000F060FC7B
:10522000686E002141768CE698F80110CA0724D5F3
:10523000C00622D4388A00287FF480ACA08E401C9F
:1052400080B2FFF74CFC94F82C0040F0100084F87A
:105250002C00A18E002903D040F0020084F82C001D
:1052600000F03EFC01203882082078760020F87695
:1052700006F12E0011214170B1E088060DD598F895
:10528000070098F8061040EA0122A36BD218A26327
:10529000A28E40EA0120101AA086A08E00280AD013
:1052A000797EC90607D494F82C1041F0020184F8E5
:1052B0002C10FFF714FC98F8020098F8031011EB7B
:1052C0000020E086B88AE18E884201D3002900D10F
:1052D000E086E08E788294F82C00032108423FF4A7
:1052E0002DAC0020688100F0FBFB94F82C0006F246
:1052F0002E08810606D5002068817876142088F86B
:1053000001006CE0C1060BD50020688101203882C5
:10531000042078760020F876112088F801005EE0FD
:105320006989002910D0C00701D500203882388A49
:10533000002808D1788A6989884200D9084668819E
:105340006889388200E068810020F876286EA063C2
:105350006889002809D0388A002806D02830A0861D
:1053600006F12E00182141703BE094F82C008007D4
:105370007FF5E4AB2820A08606F12E0010214170B5
:105380002FE094F82C00C0077FF5D8AB002078768A
:10539000102084F82C0000F0A3FBFFF7CFBBA08EF9
:1053A000002801D0FFF79BFB94F82C0098F801101F
:1053B000C9074FD5C00705D5072078760020B876F5
:1053C000388201E0062078760120FFF788FB102064
:1053D00084F82C0000F084FB102088F801002820BD
:1053E000A086502086F82E0006F20E09387A89F839
:1053F0001C00787A89F81D00B87A89F81E00F87ABE
:1054000089F81F00387B89F81800787B89F8190023
:10541000B87B89F81A00F87B89F81B00062089F808
:105420000900B888A9F81400F888A9F81600208E99
:10543000A9F80C00608EA9F80E003888A9F81000B1
:105440007888A9F81200787EC00631D50020A8F827
:10545000020033E0C0071BD5052078760020388293
:10546000FFF76CBBA08E002801D0FFF738FB98F83F
:105470000100C0070CD5072078760020B8760120FF
:10548000FFF72DFB102084F82C0000F029FBA3E788
:10549000A08E0028A0D1FFF751BB94F82C00C007C4
:1054A0007FF54CAB072078760020B876FFF746BB37
:1054B000052088F80200BA2088F80300402089F807
:1054C0000800A08E010A89F8021089F80300002064
:1054D000A8F80600A8F80400FFF7C6FAC043A8F829
:1054E00004004520B073002089F80100A9F80600E7
:1054F000A889401CA88180B2010A89F8041089F8A3
:1055000005000020A9F80A00FFF77EFAC043A9F8B9
:105510000A00A08B401CA0836088401C6080002093
:1055200084F82C00FFF70EBB010A41EA002080B28C
:105530007047012909DB054A5181136E984204D056
:1055400052890146184600F037BB704748260010C4
:105550006220001054200010740000101827001062
:1055600010B5DFF8F0150968498A00F198046268FF
:10557000914201DAA16000E0A260A268D0F8981020
:10558000DFF8D405006800F017FBA06880B210BDFA
:1055900038B5044601208DF80000208D002802D087
:1055A000642802D018E06420208504F128052246F2
:1055B000DFF8A815284600F0A9FB002801D100203B
:1055C00032BD686FA96F401A6867A86F296F4018CD
:1055D0002867686F0128E6DA00208DF80000208532
:1055E000022032BD10B582B0044601208DF80000C3
:1055F000208D002802D0712802D00BE07120208578
:1056000004F12800826F016F00F051FB002801D1E6
:10561000002016BD00208DF800002085022016BD58
:1056200010B504460A21D4F8A40000F03BFC401C4D
:1056300004F1A4014A68D4F8A430C31A9BB2D21A68
:105640004A60C4F8A40010BD70B582B004460120C1
:105650008DF80000B4F84E00002806D0902823D022
:1056600093282AD0B12864D077E004F198056868BF
:10567000012872DBD4F898100A78252A33D14A78A9
:10568000212A30D101F20300E8606868C01E286159
:10569000E86810F8011C3A290CD12946401C00F09A
:1056A00032FC9020A4F84E002046FFF771FF00283E
:1056B0000ED143E09320A4F84E0004F19805E86869
:1056C00000F065FC0246E96820469047002835D086
:1056D0002046FFF7A5FF04F19805E868C4F8980094
:1056E00028696860C1E7DFF86C643168498A8142E3
:1056F00000DD0146A960D4F898000178252904D17D
:105700002521401C00F0CEFB02E0252100F0CAFB61
:1057100000280BD0D4F89810884207D0401AA8600F
:105720003068408AA968814200DBA860B120A4F8F3
:105730004E002046FFF756FF002801D1002076BD1D
:1057400004F19805A868D4F898104018C4F8980097
:105750006868A968401A686087E700208DF8000033
:10576000A4F84E00022076BD38B504460D4601204F
:105770008DF80000208D002813D0C22813D0C62831
:1057800026D0C9284AD0CB285ED0CD2872D0CF28C9
:1057900000F08680D12800F09980D32800F0A58001
:1057A00024E0C2202085284600F044FD0246294618
:1057B00004F1280000F07BFA002800F0A3802E21DD
:1057C00004F1820000F051FD050015D1C6202085AE
:1057D000DFF88C53284600F02DFD0246294604F1DF
:1057E000280000F064FA002800F08C8000208DF87A
:1057F00000002085022032BD05222946DFF864031F
:1058000000F035FD002807D006222946DFF85803AE
:1058100000F02DFD00280ED1C9202085D34D28464B
:1058200000F008FD0246294604F1280000F03FFA86
:105830000028DBD166E004222946CD4800F017FDA0
:1058400000280ED1CB202085CA4D284600F0F2FC5E
:105850000246294604F1280000F029FA0028C5D1A3
:1058600050E004222946C44800F001FD00280ED172
:10587000CD202085C14D284600F0DCFC024629469B
:1058800004F1280000F013FA0028AFD13AE0042216
:105890002946BB4800F0EBFC00280ED1CF20208524
:1058A000B84D284600F0C6FC0246294604F12800FF
:1058B00000F0FDF9002899D124E004222946B248DD
:1058C00000F0D5FC00280ED1D1202085AF4D284610
:1058D00000F0B0FC0246294604F1280000F0E7F988
:1058E000002883D10EE0D3202085A94D284600F062
:1058F000A1FC0246294604F1280000F0D8F900284E
:105900007FF474AF002032BDF8B5044601208DF855
:105910000000B4F84C0000280AD0E4281ED0E62885
:1059200025D0EA2835D0EE284CD0F12853D026E0F7
:1059300004F2820504F198063146284600F0E3FAA5
:10594000002823D1934F3146384600F0DCFA39461F
:10595000284600F0A1FCE420A4F84C008E49204623
:10596000FFF702FF00283BD0E620A4F84C002046B9
:10597000FFF70EFE002833D0884810210170002068
:105980008DF80000A4F84C000220F2BDEA20A4F833
:105990004C0083492046FFF7E7FE002820D02E2147
:1059A00004F1820000F07EFA002811D006226E4930
:1059B00000F05DFC00280BD10020A4F84E00EE2082
:1059C000A4F84C002046FFF73FFE0028D4D107E0A2
:1059D000F120A4F84C002046FFF7DAFD0028CBD1D7
:1059E0000020F2BD70B582B0044601208DF80000A1
:1059F000A088002806D0FD3806D0801F15D01238A8
:105A000043D05AE0FD20A0802021201D00F0D4F9D1
:105A1000002840D00422634904F1500000F027FC24
:105A200000280CD140F20310A0802021201D00F09E
:105A3000C3F900282FD094F850002F2806D05748DB
:105A4000102101700020A080012076BD04F28205A3
:105A500004F150067078202805D1142252492846B6
:105A600000F03CFC0BE0201D00F08BF90019002138
:105A700080F84F1014223146284600F02FFC0120F8
:105A800084F8960040F21510A0800A21201D00F035
:105A900093F9002801D1002076BD0822434904F182
:105AA000500000F0E4FB0028ECD1201D00F069F963
:105AB0000019002180F84E10E4E700208DF8000066
:105AC000A080022076BD10B50446FFF78BFF94F846
:105AD0009600012803D12046BDE8104014E710BD10
:105AE00010B51C48006800F11C042C480178B02255
:105AF00011422DD14A0616D5312204F15001201D44
:105B000000F0A8F9312204F1500104F1280000F05E
:105B1000A1F90020A4F84C0084F8960020702046DB
:105B2000BDE81040CFE7002C10D0090708D5217838
:105B3000491C2170C9B2142904DB2021017001E045
:105B4000002020702046BDE81040BCE720210170F5
:105B500010BD0000AC260010502700106155000059
:105B60001484000040840000488400008483000006
:105B700050840000A083000058840000BC83000013
:105B800060840000D883000068840000F483000073
:105B9000648300009C8200000883000044270010FA
:105BA000B48200008882000090820000A882000079
:105BB0004FF4A040FEF77FBF10B5044600F0C4FBD1
:105BC000204610BD01608280704730B41C888588F3
:105BD000002D17D0002C15D0046815682D7825707D
:105BE0000468247815686D1C156005686D1C0560D7
:105BF0001D886D1E1D8085886D1E85808C42E5D1B7
:105C0000022012E0002C01D100200EE018880028AC
:105C10000AD014682478401E18801068401C106058
:105C20008C42F3D1032000E0012030BC704710B556
:105C3000044694F82000062803D1824800784007E3
:105C400011D581480068418A6068228A914202D257
:105C5000FFF76FFC02E01146FFF76BFC062084F8AB
:105C60002000012010BD002010BD90F82010062952
:105C70001BD174490978C90717D573490A68528A34
