:1000000018200010F1D906000DDA060011DA0600FA
:1000100015DA060019DA06001DDA06008EC3D6EFDF
:1000200000000000000000000000000021DA0600CF
:1000300025DA06000000000029DA06002DDA0600A5
:1000400031DA0600CDD4060035DA060039DA0600CA
:100050003DDA060041DA060045DA060049DA060014
:100060004DDA060051DA060055DA060059DA0600C4
:100070005DDA06000000000061DA060065DA0600BD
:1000800069DA06006DDA060071DA060075DA060034
:1000900079DA06007DDA060081DA060085DA0600E4
:1000A00089DA06008DDA060091DA060095DA060094
:1000B00099DA06009DDA0600A1DA0600A5DA060044
:1000C000A9DA0600ADDA0600B1DA0600B5DA0600F4
:1000D000B9DA0600BDDA0600C1DA0600C5DA0600A4
:1000E000C9DA0600010040F10780F446404200F002
:1000F00003F851F00041604709D0B0FA80F1884020
:10010000C91CC1F58461090501EBD0214005704788
:10011000B0B581EA030C0CF0004C40F2FF7515EA13
:1001200011541DBF15EA1357AC42AF4239E0E41930
:1001300023EA455343F48013C90241F0004141EAE8
:10014000505EC7021100A7FB020200284FF000001A
:10015000EEFB01204FF00001E3FB072118BF42F046
:100160000102401800214941E3FB0E01A4F580641F
:100170000F0302D252004041494154F101046CDDA9
:10018000470872F1004250F1000051EB0451A1F513
:1001900080115CBF41EA0C01B0BD4CEA0551002062
:1001A000B0BD05EA1357AC4214BFAF4241E050EA7C
:1001B000410E1CBF52EA430E02E061460020B0BD72
:1001C00024423C441BD15FEA070EF6D0090302BF6C
:1001D00001460020AEF1140EB1FA81F7AEEB070430
:1001E00001FA07FE0C37C7F1200100FA07F7C840F3
:1001F0004EEA000E23EA455343F48013A2E733F09E
:100200000043B3FA83F704BFB2FA82FE77440B3F90
:10021000E41BB7F1200E2FBF02FA0EF3BB40C7F16B
:10022000200E22FA0EFE38BF43EA0E03BA40641CC9
:1002300082E750EA410E14BF52EA430E6FF000010C
:100240004FF4001717EB430F8ABF194617EB410F06
:10025000B5E74CEA05510020B0BDD4F10104B4F17A
:1002600020070FDAC4F12007520828BF42F001022C
:1002700010FA07F501FA07F7E1BF2A43E0403843D7
:10028000E1400FE0352C98DCC7F1200452EA40022F
:1002900020FA07F218BF42F0010231FA07F0A1403C
:1002A0000A43002172F1004250F1000051EB0C01B1
:1002B000B0BD50F8041B61B150F8042BD30744BF04
:1002C000A9F101039A18002342F8043B091FFAD14F
:1002D000EFE7704701206CF0CDBC00007050616CFE
:0802E0006C657465000000006C
:0402FC00FFFFFFFF02
:10030000FFD8FFE000104A464946000101010060A5
:1003100000600000FFDB0043000D090A0B0A080D16
:100320000B0A0B0E0E0D0F13201513121213271CA0
:100330001E17202E2931302E292D2C333A4A3E33D8
:100340003646372C2D405741464C4E525352323E82
:100350005A615A50604A51524FFFDB0043010E0E62
:100360000E131113261515264F352D354F4F4F4FB0
:100370004F4F4F4F4F4F4F4F4F4F4F4F4F4F4F4F8D
:100380004F4F4F4F4F4F4F4F4F4F4F4F4F4F4F4F7D
:100390004F4F4F4F4F4F4F4F4F4F4F4F4F4FFFC04C
:1003A00000110801E0028003012100021101031184
:1003B00001FFC4001B000002030101010000000056
:1003C0000000000000000405020306010007FFC44E
:1003D000003F1000020103030204040405030401AA
:1003E000050003010203000411051221314113220B
:1003F000516106147181233291A14252B1C1D115CC
:10040000E1F0243362F172164353829207A225FF72
:10041000C4001A01000301010101000000000000F6
:100420000000000002030401000506FFC4003211B1
:10043000000202020201040300010304020203009D
:100440000001021103211231410413225132617162
:10045000812342A1051491F0C1F13352B1D1E1FFE2
:10046000DA000C03010002110311003F0021278A6A
:100470004BA983AED890951B7CA4B7F6ABEDB50D18
:10048000D2F837514B1AA9FC29255194F4208FDC5E
:1004900055136D57D7D8E9229B8D360D4305A28A97
:1004A000470DF9B38E9E8474E6B337DA75FE937FF9
:1004B000381347281C805B0769E9F7A29452A68687
:1004C00045F845B6133CF6A64273818518C64D190A
:1004D000E2EC837C88570BE618E953C57194B28A25
:1004E00071F93900497A90425566652DC7239C7D84
:1004F0006AB2CC0868248E4C8CF94934E84BE3C9C5
:100500008F49559E89A369C302FBC751835A2B7F2C
:10051000FA9D3C18F6E18719EC7DC5064A9E369790
:10052000942A7B45304AAD19B7B86C00DC63AA9AAF
:10053000A59228AFB0F86D871B80EA2BCA9465831B
:10054000865F24CEE1521FDBC71A46A63C631DBB63
:10055000D55A84A628403C6E3547AB9B789B5E40BD
:1005600094ADD8A44EA4805B233C8CD177B3CBA8A8
:10057000326ECB024AC2B1A8042E7DA95FF484B9C1
:10058000CA2CABD0A5CF6576CF2582CA92A17DDCDF
:10059000B20C9E07738E94AAE67F16422DEC131FB1
:1005A000F9271FA9AF5F2E78E292E4EACB6728C64D
:1005B00056D804AB79E62BE1A63AAC6A323F414B00
:1005C000E5B48CBB4D76F2373C6E18068E4A325637
:1005D000FA3A7535FA2BB3DDF3B18479228230CC47
:1005E0004C63CC171D38A75A52AB59B5F96DD339A6
:1005F000D8A7A98C77FB9F5FAD063853D81896E92A
:10060000975AC934504F12B31B7914968C9E0E3BE7
:10061000FB1ED518EE6197C0F96BDDF1330CC65C9B
:10062000F6EC57B1E3E94C6E31950E9D2957D8C5CC
:100630002F071B4F9885FD735182FAFA3B97842C44
:100640004F6E8C42F88A49033D8E7A7A5130542895
:10065000BA79E49D5D30838E1546066AAB2D4A4D0E
:100660003F508DA28CB85CA3A80096071D33EE2BDB
:100670001A6D1DC54950D35D4D3AFA4FF57B7B5637
:10068000B7B885007665DA6453C608F51DBFF5492D
:10069000B4F433C0D342D89075046403EFE82970F2
:1006A00054A98AC69C634CEDCC515BDA39BA4963D4
:1006B00095A2114D032F05864AB7B0DB91FA56611A
:1006C000D25BC8DA2B8999E40D98D8F53C74CF7ABF
:1006D000C70B7FA3BDBB5FA29B6B701C4649597BB8
:1006E0008FE6FA7BFB56F2D7595B1B49151A397F07
:1006F0000C6C553C8F4C8EDF4AE8D28D19C3E2A2B8
:10070000089AC5ABEA0B1CB179A2CF998900838EF8
:1007100038E71417C491D95FA433D9C7716CD1B726
:1007200086E37878C646463DF835995BE3A1938B1E
:1007300051D19E49E17B292D2E0E5A2C8523F8B1EB
:10074000D2858DB6C255ADD589FE2EA7F4A8F82462
:10075000B5A2350D5A08B7BC78DA3920C2490B87E3
:100760000C4771ED5BDF8775B5D5F5058574F09B9A
:1007700013C49A469490A3A79463A924753FAD3AF5
:10078000395C6551F21BC8E2FE3E467F15DE4769C3
:100790001D95A92635B99956668C0CAA67D4D27BCB
:1007A0009D2ECE79C9B796F6273D17707FEB834E05
:1007B000C726E4EC760BDFD04697A4DCC170C5B544
:1007C000149A229FF69CE1B39EDC9F4FDEACBA697F
:1007D0002DA593C2DAB3052D1EE1C6EC77F6A63639
:1007E0009DD1B269BA42DD734E8F5D586EE544B358
:1007F000BF5C079610CC8E07B1E73EF56FC2AD2CFB
:100800007AB7C9DEA849F6971CF120032187A8A56D
:10081000F170DBF22E9C51B3F0937478505C1E0E95
:100820003382C793F5C526835EBA867960D56DADF0
:10083000C00C7C39227F36DCF191D338AEA6DE8540
:10084000C62E4C23540B79A7BA88DD45CC4551F709
:100850000C73DF8EE287F86B464B57786E6E5AE565
:100860002541E56501720E73FB5737AB0DCAA03AFF
:10087000D6EF9F44D264BC4B65992275054794ED31
:10088000240CFDB358DD635DD3B57D2E648AD6514B
:1008900034A4008C78461FC591EDFAD2F1C9F3FE5D
:1008A0008185372D14FC217121F1220E7C1F11A2AC
:1008B00046EBB78FF7A57A94921D6678279C2DD4C6
:1008C000242ACB9C65BB8FDF8A639C52DF4367245D
:1008D000F64AC638DA4613E7C4032C3AE6BD0CCB19
:1008E0007B13BAAE1A390800761DA81668FB8B1464
:1008F00045724E545D6D69F3323ABCE96CA83967B4
:10090000EE7D314A649A25246EDC47522BC671B9BC
:10091000BE3F6799349498048C1F2A3CAB9CE2B983
:10092000616F3EA53EC0CB1C29F99CF41FE4D5980D
:10093000A37A28C17C746896D52CAD234F109D8F67
:100940009C818DD9A84DA125E4626B8497C667DB95
:1009500090DC01EBF6F4AF4E389715165B18AE3C01
:1009600044969ADDF69534F06F59B61283C41B8015
:1009700020F5143ADFBCF786EEF65334AA41C30ED5
:10098000BFE2A64E9D3E81C72F92B3456AF3EA1699
:10099000C2F4C7E4DE5108FE361E83B003FAD18FDD
:1009A000123490178E48E6006F60E307DBFDEAC85B
:1009B00036D596397295C4CE5C59BDCDFDC3BB30DA
:1009C000C1273CB375C002B93A3C5665667909FE49
:1009D0001F11F27EC281C129390A71A937617A6675
:1009E000B30DBE9A6DA688B28904876F1BC81C031D
:1009F000ED577CFC9A8EC9C80AA01F108E00C7FB59
:100A000057639F80E145705CFCB0792DE111CACB42
:100A1000B1327904F4A09AD6E062DA4DA4A31F366D
:100A20007249349C993DB76C4CF2717BF206F6E545
:100A30006568C03BD7AE457518A30411F98F52699C
:100A4000ABAB472D055BDBC533B8C3647A0EB4543A
:100A5000445B868E063927CFF6AD694B4C2E37A303
:100A6000ABBFC6324AE096E769EB8A16EE279AFCDE
:100A70004968AC4A81827BD2BD949A4BA01C2984E0
:100A800030952732BA93B97F101EE6985A5DCAEAAC
:100A9000F33AA46CF811AC631803D2B65049F231A2
:100AA000C55F21CEB3796F14CB2A4E996F2C983C39
:100AB00091D8FD474A2F4CBAB3BAB45941DDBFC9EA
:100AC0003061F988EFFA734504DC5B329D1DD2B5C5
:100AD0000B65F1AD1EEA08AE813E1B90718F4CF69E
:100AE00034875880CA8E1AED649C3E59655F3FD9A1
:100AF000870C2B5549FF00E06638D4BA02B5430491
:100B0000BB225659339660DE53F5A2E779ADED0965
:100B1000BA05F2D85087D7D6B5A5D9D24B909A58F6
:100B2000E46492578CF988F28E4AD19628D0210C31
:100B300070A46EDDE94334DC1A5F4136E50681AD11
:100B40002E44D7D8456F0C3E3C4CF5FB537B9BCDD8
:100B500091F844BAC79E5D5B1FBD2D2B82B12B68F7
:100B6000B219A28D44A00F3756CE49FBD76FAE44C1
:100B700092203CBA0C3363AFA545EB1A50E144F91F
:100B80009A510BD3B5331288F6789CF946714C9D77
:100B90001755B321311BE7CACE7033FF0038A0C010
:100BA000965C0E2CC8414F1DF903BDBEB730E4CE94
:100BB000B312325502EC4C760319AB74DBCB7B4D90
:100BC00038EA123289645D91464E76A8E09FB9AF4B
:100BD00049284539D6FA3D3F6D46375FA164977283
:100BE000DEC33C6AEB1C8FE63296C0EBD0FA0ED522
:100BF0002D1563BC66174C6DC22F9D8720FF00F139
:100C0000F73E9FA52B171F5115292E98B8F1CF1B22
:100C10004BC84EB7A45B456AA5649A340DE601B291
:100C20004FBB7F8ACCD9B5A36AD0A5EFE2DA07C360
:100C30000CE323FF00756277D0F4971FE8F2DE6BB8
:100C4000A52624023504F9220102FD85577B21B631
:100C5000B69249227C39FCCAA383EA71DE89A69543
:100C6000AEC26944EC2207B551BCA164F3174271CE
:100C70009EDC734159E8ED68ED318629A1B659240F
:100C80008EE217CEECA9015875072450648BE498C6
:100C90009C89BA658A90DAC1F3B34D940400B8CB4D
:100CA00064F6C55834F6941B8B4612890E72873948
:100CB000344E4AE8639AB25A7DD192F248823BB8E8
:100CC0006E817D3AE7D39AD459DAF8D0B24D1050FC
:100CD0007270CA36F3FD2B1E9099BA17DED9C66C16
:100CE0002E6CA190C521E42B1CF9872067F94E3E9C
:100CF000A2ABF87F4EB8D32E977921D94B96CF97D8
:100D0000214E00EE7AFED42BCA33969A05F8B34BE7
:100D100011D9DBDEEF6124320576EA5D5B38CFA9BD
:100D2000CE7F5AC8C9333BED45D899FBD6693741C8
:100D300042F74100C573886F06D6C80261D47D6949
:100D4000A8852DA05325F24ECE324630500E809EFF
:100D5000A49FD85728FCACDA6A5602F6A679167614
:100D60005CA3BE0B03C0FF0082ACB0BC492D2E7447
:100D7000F31B08E47043678041E187DB8AE9527F17
:100D8000D0E6F5542ABA8ED45D1546F300416C7551
:100D900022A3673C51E3CA4B377A8FD42524D44928
:100DA000322528B8A6794ACD2BA300096C8AD07CBD
:100DB0003BA943A4DF3160CF1C8A15F6FE6E0823E1
:100DC0001F7152B94B1C9513CD4A3255FD1A6BED6C
:100DD00071A9C8B342855A451E1C727970076E7896
:100DE000079A3ECED24B78E3B69EF6296E64FCC3DA
:100DF00070CAAFF2E7BFFCED5E946353E5FA45D4E9
:100E0000E2EFF436F90D916E6741C77149EF34FB9B
:100E10009B9B887C29D5959C02D8CE0535D493160A
:100E2000A4AEC64F6F6D696AF3CF70C2289773B7CF
:100E30003D07B0ACF5BEA667D6ED6EEDED5E5B4846
:100E4000948491C852012430C9FA93C50CA57A48FC
:100E5000D5F246BFE7A070E2DDC960A482C3007F7F
:100E6000BD676E2D623E1C71AED5030ABE828A1D1F
:100E7000ECDC7AEC3AC669134AF966F322B965F5F7
:100E80005A3E0B98A131C9876651E5C1001A19472E
:100E9000C2064B6E89DFEA325E4296ED6A3E5E40E4
:100EA00077E4E41C7F01F4C8AF9C6B56D068F3C9AB
:100EB0006D6826C3F9FC5619383D147BF38A5A8AAB
:100EC0008AB062B82165BCB7B6F83693496C33B8BE
:100ED00080DD48EF8A8EA9733DECDBA695A59E4385
:100EE0009776E49C0C7F4A8DE55274BA2779936D0E
:100EF000228D32F9AD23976A16693033E9D68AB16B
:100F0000BD9ECC9789B6BB70734B9478C9C93DB16F
:100F1000539715AECAE4B9924625DCB12726A277CD
:100F20006D38EC32686A89AB650ED88DD8F5C60786
:100F3000D68FD16FEE2C498E211B2B72CB20F2FD68
:100F400069B16D7450AD25469662BA869C0AB2C6E8
:100F5000EC4069238FF2F73B7D4F6AB6073A6695FE
:100F6000E1CB3348A8FB95E4186C1FBD7A7052752D
:100F7000265AAE856DA169B2C2D35C78B0A60B19B2
:100F8000C1CFB8241EBE9DAB20BF84D9C027D0D20C
:100F9000334147A06692DA1D689777C648ED2CA6C4
:100FA000DEF21276B0CAC7EA71DBA56961F11E777D
:100FB0008240F34D1A8DDB463AF7F6A67A6E5C5BFB
:100FC0001D85BE3629D56336C4BF95657FCAABD4AF
:100FD0000F526B3F231690EF3B8F7C9A3CA3661118
:100FE0006D6AD396C61507563DBEDDE8D982E99EE7
:100FF00012C477BB0DCC64F5FA76A0AF22F76484F7
:101000003335DC734CC159943AE7DEAABB79542CD2
:1010100081CE77E59BD4D2E58BDC95BFA02494A448
:101020005120865791CCECB29C9041EA6896B44826
:101030004A09253B481963EF43E99495B9818B929E
:10104000DC8E5C3C3A5DC105F79237285EA47F6A6E
:10105000B602F74D04CB032F8D91EC3FDA8B0724BA
:10106000DDF9D878E4D37631BAB610C0F804B91CEB
:10107000BD016492C36F27194CE546683D4E778DDC
:10108000B6FF0055FF00C99932D6D85C924B3DABF4
:1010900020F0F2C31B57B7DEAB4B0956DA1273BA16
:1010A0003E783DEA6C9EB54614FB7FF0267954638A
:1010B000AEC2BE1DD09A1D436CB34370B82546DF47
:1010C000F35A4D434999258A680848C9C31270727A
:1010D0007D057A8E71518C5B0DC9A54CCC5CE9CB3A
:1010E0006F70C7C5272492B8C863EB9ED56CB7193B
:1010F0008819147889C6F3DC74C1AF3E5EB1472FFE
:1011000015D1DFF7153A2B516B3078E40ECE061B64
:10111000039603BFBD53732ABC2914521DAB80191B
:10112000C60800D530C9EE3A094AD81DDFCF693E5E
:1011300076B70D0CAD919E40FF006A63A5DF452C8C
:101140000E241B6E00E63DB9183D0D1424D368280B
:101150004FC1C92D4DCCAC59D1254382AAA0647A88
:10116000D55781ED2D914B8656601B239A16ED02C3
:10117000DDB08F98845B2DB8404A9C8FBD52773983
:10118000C93927AD795EB32394EBE88BD44DB747CB
:10119000465718AD26952F8F64B1641041046DC871
:1011A00018F5159E8DB73AFF00DD1DE99EEBFC9901
:1011B0009D5E28ECEE645788C32673F86F9520F780
:1011C00019E7143C20F8024B3B98DE671E689B83AE
:1011D000F627AD7B3292A3DE9644E044CD79688A4F
:1011E000F7968EA8D9C36DC03FDA8C80A5CDB93AE9
:1011F0007DDAC7E75768D8F21874FBFB8A4628C720
:10120000136BC3DFF0971A58EEBA67265D411EDEF6
:101210003B8B91B2E41DAC8339C70413EB5E3A7C7F
:101220002E54C4AFE1AA80EC4E403DCE7D29D8F9C2
:10123000FBAD7FB6BFE435294A54BA0F86F1ADAE97
:10124000A3B7FC19A2039790E36FA0CF7F614FA7CC
:101250002B2CAB6AEA362105B8E0B0E4D509B6C25A
:101260009A6D945E476D3DC189A48A29F0182B1CA4
:10127000641EFF00B52D611E9B72B23CE8A09F3238
:10128000AB06DE3B8C0ED5DC935B360FE34CA759E7
:1012900068AE1E38C2B5B59AE4ED6506599BB10B30
:1012A000FC2A3B127BD26D4EEA08A0892CE0F9475C
:1012B0002DD56562CE3FF2EDFB0A4B6D476255A816
:1012C000ECDBE910DBEA3A6DBDFC4AA1A68C24BB3D
:1012D0007A861C1FBE47E86AABBBAB9D2E540979CA
:1012E0002C7BCB065CEE04838CE0F4E0D136A4B614
:1012F00002F93A64AE0B5E8256EE39A458D9C2A107
:10130000F33103A038C0F4CF3E945DD4AE6EC5F681
:10131000F211D47948C638C6DC7AD7452B35522726
:10132000AB589D434B483C411B70E09C9058740760
:101330001DB935F3ED4B4E9EC6E8C5730952C37215
:10134000321CAB8F6340D3E57E02C52A60DE1CB63B
:10135000E4CCF130841C866E8C338E3D69DCE96A06
:101360002DB63B08423053281C1CE4F3F7CD6E2900
:10137000B577E064656C8497D631D90B2854C914CD
:101380006E5DA45E8FEDF6ACD5CCF2C6C1E3F2A1E2
:101390006247B034A9E552BA113CBDB40C564F991E
:1013A0001B492D9041ABA0692095884DFD860F000B
:1013B000D4D28F244EE0E49C9112DB4A2A659F9D93
:1013C000FC700FB56A3E1DD38410FCEB80F3C83F60
:1013D00005473B01FE2FAFA553823CBB2AF4E9C968
:1013E000AB1E496B23DBC8CA03DC6DFC38C73CF578
:1013F000FD7FA5549A427890BDE14DC172E81F70FF
:101400002DD97D3FAD5127F21D926F9522E8EF1E39
:101410004B978A53BD43617800003D876AD3388D6E
:1014200020529D589E7D411C7ED43D689F22AA4635
:101430004B531ADC1AE4D7167776CF6D2C853E5ABB
:1014400069000E3B823FC735669B601628D2411C5F
:101450002EA022209C3E71E9D0FDA821F176D9D1A1
:1014600074EC61240D08DCE0AED1F9979A156EA2F8
:1014700096E98236EF0D38E3924D3BC9B76C3224C2
:1014800012054C2A91C0562471FE68782E0CF74D37
:101490006F0A4A7C0DC48C80700F3F4FEB42DD1CFD
:1014A000D7D8C2550248AEE090B432B018C938CF90
:1014B0004AAB50F87E2D46685BE655486659622770
:1014C00092B92463D1BFE76A095388B6D553207E09
:1014D00013D1A66113C375037F324D9CFD739AF936
:1014E000DEB9A6BE9BF106A1690B334503305663F6
:1014F00093B71919F7C1151CB1C60B44B3828F44B9
:101500002DACC8D2567404B9249FA502D266911797
:10151000CA4FFA2A51DD8440871BDB393D051D2463
:10152000416D182F048E4FAD2E72D831DB6C5AE905
:10153000BCA469CE06E6A32C1D22B9579172A41053
:1015400078F5A772E2D30DBE338FE8730EA326960B
:10155000E14A2BC32104175240FB56823BF82F2D42
:101560001E49248658891B02A6D03EA3AE6BD54FD8
:1015700067A0E37B31D77AE5DC5AACC973234D14FD
:101580004EDE121030BCF048EFC7AD27BFB94BABF1
:10159000B79A385230DD5474A96726EE2C094D38BD
:1015A00070F363AF85FC4B7692F12EE089B694110F
:1015B000B2E7703D7E94DB4AF89BE775092D2482E3
:1015C00028B2A4232672C68A33704A863F8C63FBF6
:1015D00006D7918DCA9F0C88A155DCEA3F9BB7D6F0
:1015E000B346DE4371CA91B8F0051E57CA4A28DCDB
:1015F0008F935145D09962666491915782C0D4ED22
:10160000364F788F70CCD18396EE69591F08DB3244
:101610004D4504EA77C5EED54A004E3EC3B0A8302A
:101620009EE536C8EA011C05038A2C797924E42E4C
:1016300032B5B0AB5D3EDCDB2EC28D91E7666C1F30
:10164000D2A9B9431CCAD3B0F964036B75A7EB8E5A
:1016500083E903DF5EDA107C00667231B99381EFB3
:10166000CD378F5680DA04B12DB9154282B8A57BEB
:10167000AB95A5E0C538D96CF76258991B8665C053
:1016800003A668732496F6903C88732120A918C598
:1016900043997FDCC397544F9D2C91E4B4171025D8
:1016A0004315DA0D5E1CAF7CD78D2EE88368085D8C
:1016B000895C4D078D10238127057E87BD485FCC4F
:1016C000A49799E420E41662718FAD7B1EA3D4A782
:1016D000A87FE4F472648A5FB289F50925625DB976
:1016E000ED8143094B7539CF5CD494DED92B9B6EC9
:1016F000CAD6496D6F1248DDB0A411939C0A738855
:101700002E8995E3662C72189F2E6BD1F472DD0E34
:10171000F4D2B6D175D4D71242F08899D9633E1865
:10172000238F4A59A74B047149E24AB15CB0C3AC5C
:101730008082B8E38F6AADD296CA7498D9F65AF807
:10174000534EEBB88E405CE686D62680A19630EEEE
:1017500038EAB8E0FD695EA27182FF0022F234959A
:101760008AA4BA0537A452601C671C66B96D773924
:10177000BA569E1778DCFD335E72C7CDB6C921CA52
:10178000527A1E5BDB1BA95D5633000BBD72739151
:101790004758C3736B76EB644BC6CB962C318FF0F6
:1017A00069F0F46E335283E8A560A9AA0BB99ADAFE
:1017B0004575BD86293C0009CC624624FA03FE6BC0
:1017C000377BA6DB4CED711AA9466FCF18D983E899
:1017D00057B1FF009CD17A859AB947AFA0E71CD1D9
:1017E000DA156A315C5A0474965D8470241E53F7CE
:1017F000E86BB66613ABDB491C6B0BBB80CA8E195A
:101800004E7FA53612BA8CD7635CB95297FF00465B
:10181000B676B496286CAE6ED2D123512195D4B64B
:10182000D3D0818EE73FA50373A8DAD939B582E515
:101830002745505648C1C3F7FB1E9557B8BA43E039
:10184000FE5424B8B8633477440DEAE1BEB8ADB4B1
:1018500073DBB9376B2A347279C10724679E839C86
:10186000FB633469D7632525667EE99AEF54B9BCDA
:10187000BD71656DB02471480191D474F2F507BF54
:10188000DF149CF8724E82305199B018F00FD6B226
:101890003742E36D6CB659DA242E2204F46C93902F
:1018A0007FBD23BA9DA79FC5EFF969599BAA1799D8
:1018B000D2A351A0FC452E9B6A12DAD15D58E654A2
:1018C00024E09E99FAD5D36BC2EB5157BB3120640B
:1018D000C08F24ECCF3C9AE4DAA6CD514BE45B16E2
:1018E000B161624B4064B897765157CA01FAF5343A
:1018F0006D8CFA85E5EA8D4A2648AEDBCCE085C1E1
:10190000E8303B638A625BB0AAF6CD82C314612DD6
:10191000E36911F681927209E9FD694EA705A4D623
:101920007309258A44009C07019180EA01E41E3175
:101930008ACE5F62212A312F333C08971320B743A8
:10194000BC46DFC3CE01F719EB40EA0C2F26558CBD
:10195000B1B584E3C403891BBF353E69F18BAEC2C8
:10196000CF3A83E3D9A6D3746B297438A3954FCCAF
:101970003B78B2329DBB531C2E4F00523D6E316DF1
:10198000792C10D9E2D76068848D92CA7B83DF9C62
:10199000D2A5892C49B12F1A58D599FCA47CB2B391
:1019A0006005CF653E957C20088BB1C464F1EE697B
:1019B00098A9F61616AA8AE65C9122A9F6AD4E976A
:1019C000A36A373F0EADCDB5E49B5F79F97F32E472
:1019D0000EB83D39FB0CD14A2DDA46C93DD1A09550
:1019E0009EDDDE149628A624901980DABD3FBD57EF
:1019F000F21288BCCD1B93D8B727BD529C4A6725ED
:101A0000DA052C0DE7E2CA91BE087DED927F4EF417
:101A10004DC7C429A7D9E21984C23C6DFC3FCB9EB7
:101A20009C9ED592A6038DF6254F871AFB4C8267A4
:101A3000BD9629A6FC50A7CCA14F4F7CF7A0AEB411
:101A40008BC5BC6B08EE85E4E90870809473D7F20F
:101A500083F988EBEB8A9F2C6F685C9D3B5D1AEFE6
:101A60008305DEA9A7DC5EDE5DCB20926F09632CC7
:101A700076A0503271D89279A3D346B1B4984AC8AF
:101A8000497CE0FF002EE3C00051E39520612695DC
:101A900012786DA7899ACAEA09501C12B2AB01F7F5
:101AA000ED48AF25B97BAC68A1AE6EA44315CBC29F
:101AB000BB86D04632DD03763EC05339464838C92E
:101AC000496C33488AFE29922B8923846E08D033CF
:101AD0008CB01E8071F4AD6C50450131C9BC11C889
:101AE00066E4103DE826EBA033AA7A2BBF92EF0DF7
:101AF000FE9915A5C4C17291CB214FD38E7E9C5700
:101B0000CA3578EFD3E766D520921B99B25BC45CE7
:101B10001624F51EDFB549971B92B4FA2771BFF062
:101B20004AC5C2E9F6E83F9326967CA17B866560AC
:101B3000C85B2062A084B8CA4D889BD505AC4A9D7D
:101B4000719FE9545F484420007CCC2BA1F292069F
:101B50000B442D55584B391B43703E828DD2A3DD6B
:101B60003348A8088C0C64FEF5463DE5A7D0C8D4E0
:101B7000B36CB8DBC5793B20BD57979C8C9CFDBDF1
:101B8000AA36A67D2D27592212C2CD95C1C79877B6
:101B9000FA57B31719AB89EA7253A5115369D23CAE
:101BA000B72F70E77EC1274EA5B9142FCB2C73B287
:101BB000DD315C0E8BEB52CB1D7C842C6AF6F44637
:101BC000DE48E2982CB1EE4A7F69A725B16BBB4491
:101BD0003371C2907C87EBE95D8E2A5AF26C23CB7D
:101BE000AF057AF5C886CA181E60F7048770AD9CE9
:101BF0001F53EFD07B0A1E7B96F96558F199F1CF00
:101C0000F28EF8A9F34AB226844F27195A289FF179
:101C100015624180A72001D7EB54A2CAAEE0232869
:101C20001D4E3B5538D39C2E5E4745B953FB213A98
:101C3000ED01C862A7A9356A5D4E22CA152B8C7EBC
:101C40005EB42EA52D78374E5FC2B495D8FE0F072F
:101C50001CFAD1734E67D3901CE02ED00F5AD53B9F
:101C6000999C9375F6050D94E22F980A0AA9E94507
:101C700019E2D8860511B37E61E98AE845C5ECD83A
:101C8000C1C16FC8C74F7F132E203B83615C74CFE7
:101C9000B0AB22904B3A21CB2212E59892CCC7FAF6
:101CA000507AAB5864D0BCBA8BA0B794E324F155FA
:101CB000F8BE95E0289E63760FF2B332E77A67D3D9
:101CC000355C96571B72580AA2392361B652967238
:101CD000E325F7558B0856009FAD139DF465E82664
:101CE000448E68F638C63A11D454ADDA4B49E3F065
:101CF00090B40A72FCFE6FF15987238495B0B13716
:101D0000CB41B7BAC911C7F2D84E3CD9E7AF634847
:101D10005A40DA978B226F91FA8E8B8AF56191E5A2
:101D200096BC1E85AB0F7BD9EE1D2CE36C3236774B
:101D3000E3A01FED4CE6713E0C8A1B000391D71502
:101D40000FFD472BB505FD15EA64A29222A90F8667
:101D5000C823401FF300319C55725B031A88CFE4FF
:101D60001855635E72CB35A6C994D961496D625727
:101D7000721C107237636FD0D79F5C93E5A38ADF24
:101D80007190AE1B69C1C7D7D6BDEC4D4211A7D922
:101D9000E962A49590D25B6492DE5E32C30B8D8CB7
:101DA000ADD4FBFD2984B68046E5143C4EBCE395DA
:101DB000753E8475ABA2D745391D6C1272D2E97796
:101DC000904D2048DCA9C499D9919C7148AD1EDE84
:101DD0002BA849335C786EA77226D5400F603A9FD6
:101DE000AE2952C7173E5F425C53958E2E3487D47E
:101DF0002ED753BAB916B6981E1A36773E3BE07402
:101E000014A2EEEAC5EE961B542E8AD99A55525763
:101E10006F7217AD223294656BCF814B2494B5E479
:101E20008DD461E75006147E51ED472A5C461A4B6B
:101E3000593C8DF9971907ED56D68A9AF254B0A4F9
:101E4000CD858C46DCE540E1BFDEB96F0A485B71A9
:101E50000028EBE945D0760D791CB23C896FF8CFAC
:101E600070C551139249E7A0AA3FFA6F5511EE4889
:101E7000D5DD720C6922B303F407AD4D923C9E8907
:101E8000735CA5AF089E95673CB769137FDB19F1BA
:101E900011D58703AE7041F6C7AD6B2DF4F1048DFB
:101EA0002585B5BDB01D4784AE4FB12D9FED5B8E2E
:101EB0001AF91AA37B90884FA7D9DE5CC6FB23D9F9
:101EC0002B60953CF3D3E95A9B0D4ED6E2C5A48F07
:101ED0006F83B09603270E3FDBA56C649BA412DED4
:101EE00086EB3487C791CFE4E9EF9341DF4D15BC12
:101EF0007725ADE1335D4A6246283F211966FA9C99
:101F0000FEB44D5BA47285CB8A30BA8E9F3DB4E19E
:101F1000E7B3B9480C4019248982A9FAF4AD207BB3
:101F20005B9F86AD561C43194559DB390D96DA4E39
:101F30003D7A1FAD236E6E3E00E4F971F1FF00F2B1
:101F40002FD4F58B41771C70DB86B68E350B1EF3D4
:101F5000CE3B9C75341C9F2B7D7108858C25B2006F
:101F600091CB6DF5C7A0A6349C788F6BE0A257ADDE
:101F700068A34CB5F120B986E11D86F50A414CF401
:101F8000EBD7BD258B2D2AC05D76E370E3A1A56557
:101F9000F82B44F3F8924D3F539AD5AE62B2B97B19
:101FA00074241956362A3EF5F43B27974DF862CE35
:101FB000DA14904F3C2A2469320A679200EDD6B7B2
:101FC0001DC9990B94A98A67B3B4BF722E6E9E394E
:101FD000D63D9132B0208E7839EBD7D69F98FE56F9
:101FE000D4483860A22854F38C71FF003DE9B493C3
:101FF0006364FC09DAC3C59CB48A1811C37391CF1A
:10200000A8A0F50B1D9726DCC6DB2E06131CE4F7F3
:102010001F5CF3F7A65683BD51A285632D0C6F2A72
:10202000A6C40A33C2E40E99A4D65A0EB336A971D7
:10203000AAC86DADB2CC035C120803F8940EDC6044
:102040007B5266B4264E90CFE1C9FF00D060D4E247
:1020500096E3E6C33B5C288D0A938FCC467A9C605E
:10206000E3DBBD22D6BE2D8756BD5873716960A3D0
:10207000A2B61A43EAC47418E30295F8D262F8B51E
:10208000D83451E81059DD1B5B74BAB868CA465998
:10209000D89463C0201C0F7AD2E8A238743B4B1846
:1020A0002E638A79159A493AEC63DB8EF8C0A6C68E
:1020B000AB5D0E8C6BA5A124B6F2DA6A6CB73299CF
:1020C0000C72659D1B9603A63D2B6F1EBD1EAD6752
:1020D0003C76D137CC2A3308D8E09E31C1FA9A2C0D
:1020E000B1BA921FEAF1F38A9C7C0B2C7549214806
:1020F0002CAF6E164BC58F7C52852BE285383D7F09
:1021000088639F51CFAD17AADAC3AC697369733383
:1021100034857C48263D63279009EFCF07DA94E1A8
:102120007A2170F1F47CE85A5F5AC4915FDBC96F81
:1021300091950EA41603EBDAAE8942216C609E9550
:10214000E3E554DA20C9F99E29B95892320741557E
:10215000EC89802E031C6467B50A6D74143AD02D87
:10216000E4B1C030DC2FF0A0EF4A64B9791B7924C8
:102170001E800E80559861AB61423BB0FD0EE5615B
:10218000BB92495C2EE4C066E31C8AB6EB579DEE19
:10219000BC3B3931181B7CC0618FAF356C32547831
:1021A000AECAE1938C297761160C65FC16CB3B4ACD
:1021B00019E4249DD8ED4BEED8A6AEEEC3CBBF6993
:1021C000FA74A6CD35141CAD2FF24A4D399A63111D
:1021D000F2E06E463DD7DE990BEB8B1B68E18EEA91
:1021E000310C9E5059793EFF004A1AE372362FDBBC
:1021F000B667EEDD5E6F236E00633EB455B6E28ACD
:1022000058F00607B54999DEC873BF212A0E7CBC79
:1022100013DC550F79240AD1101C8380C7B577A72A
:102220009356D05E9724945BFA02C990E1DCE73DB7
:102230000D12EE010A5083E9DA9F074ECAA12EDB88
:10224000212010BEF1C1CF514C3C349ED96586543B
:10225000C11E642D9607FC51D47DCD9A9252A29F47
:1022600004AB002618230FCF19A3F4CB4B39D9BCEC
:102270004942FF00083D9A98B8A1B0A6E98CA3F0A6
:102280006CE169D593C240447B7B93E9EF4B52F1FB
:10229000376F640A718C2D47EAE771E11F243EAB6A
:1022A000228DC11D92FA36C000D792EA33C735E6B7
:1022B0007B4D220B2F121C54D272BD0D2DC4D4CBDA
:1022C00044A8DC151F51554C88BB64439FE6E2B21D
:1022D000369D04BB3D8EC05794B2F426B5A03A603B
:1022E00057162AFB9A0731331C9039527E9464505A
:1022F000C36F604C8A5DF6E3EA6ABC7EA5C6355BB7
:102300007AB29866496CA74FCACCC587247AD34065
:10231000722A5F533739DB3B34B934CE8F4AB92345
:102320002DC9385F5A965A1289489034463910BAE6
:102330009F53FE2AB8ED2C940DB6EA00F73FE6BA9B
:10234000397245527A1CB234B8A2DBCD1E368636BD
:10235000F99F0666E1232A24201E79CFE51DFB9A0A
:102360008D88B5B35F0ED5DDD83732163966F61DC8
:1023700000FF0099AFA8F4CE4E0B9F67A6A5294396
:102380006775BB291F4A595588DEE19F3D81E07E74
:10239000F41D9C96EBA6FCA436F248A1F2CDBC2914
:1023A0000D800F6E47D7A539C5F2D1B1B71D783D65
:1023B000AC4975742358D3F01C2C792388C74C631F
:1023C000FBD5567A4C16D15CF87E233C8985662372
:1023D0001C76C76AEE0BB078A2B69B4E0CCA64CBD3
:1023E0004580A71F9BE9EB553CF75A5BEF748D9234
:1023F00056CECC9DC3EBDAB26E55710DC98C9EEEF4
:1024000056B19268AD441315F2F88A09CFD297E914
:1024100056333C661BC8E440DFF96D27EF46949BBA
:10242000B313D8769F671693765A3B8291CD9492D8
:102430005E8EA08E87D3D723AFDA9A49A535A00246
:10244000351C0F2E3A1FB8AE8A4BA3751E801EF89E
:102450007CE88A552B72E42E58004FBFBD35BEB9BB
:10246000363A6C8F6D0BCD346BE50AA48DDEA7D8A0
:1024700075343CB4E8077E0C369E1EE2752855CBB9
:102480001FC58246FF00B9EFCF14E634D21A1D965D
:10249000D1CB6B70A4E76CC548F6C1C8E2831C744D
:1024A0001C22E9318E96BA8DC34092EAF1ADBAF999
:1024B0004B4D1EE0B8FEBD3B9ABC4CF7F2B5CB05C8
:1024C00058A35223C90BBC9EF8E83A0FA5363A7FB1
:1024D000C1B1A52B23757EA0A450C7E04D2700C530
:1024E00031D8DEB9524A91EB431D34DEC1358D9CA3
:1024F000CB1299FC448CB6037AAFD33D285AF20430
:1025000095762D11A69525F1860E44802C6C093DFB
:10251000395FD4D0BA608A1BB267823775CB3AC8AC
:10252000E76C23A738EA7DA911B4D2331B5A407A4D
:10253000A9739916691AD4BB784E508CFEB4AB7C43
:10254000AABBC6403C6EA0C8DDEC4659B523E99F46
:10255000066A924DF0BB58BC85A5B5943039E8A405
:10256000E47F7A2AEF51B59E49123D405BFCB025CD
:102570005867CD27B9E98A6E2FC4EC6B466B50F9CA
:10258000FBE556BA367712F406290061E9C8EB5626
:1025900095D634E2AB7045CA103722BEF6414D6B7A
:1025A000C1424AA98CF49D6AC2F59AD4C81265E06A
:1025B0002BE06F1EDEA7F7A3A69D103452076743DA
:1025C0009089805BDF9E9C57276B426DDE8AA196C7
:1025D000D25C249BA3E9E5931FD475FD05592DFB1F
:1025E000C9E2472C6628D08DA0E4647F435CF6F6F0
:1025F0006B5F6532B47040F7520C055CE3D3D2B226
:1026000052C26EEFD6E61B68E48E365223FF00F20C
:10261000E0F23E868670725A0A9B88C8D96860CFFD
:1026200009B098CD2BB378F1CD848493C055EEA337
:10263000A73C9A02D50DBBCAB6F361C0DA51FF00C0
:1026400087D48FFD56C214370C5C3B1CC3A729816D
:102650002513C0323CE6497073FDEA56B6C05D2BC7
:1026600078BB90118F0F237FF7C7AD3AD3D14CB20F
:10267000249A1EEADA6595DA594F752782D0B96433
:10268000218AB1240E98E7A8069BDB2C40ACCF85AD
:10269000500EE63D801D4FE952D494E52F07972D4B
:1026A00036CF9E5CDF1D6AFCCF82214CEC07D3390C
:1026B000C9F73555FDBBC50ACACC18393903A0AFD7
:1026C0000F364E5988A71B4D945B3051B40CBB7329
:1026D0008F414B6799A3BC716A44848C1FE55A3CB7
:1026E00071B93BE8E8AE3115CA24772D2B658D47CB
:1026F0007328C023F4ABD5551A9A65B6D772DB4C54
:102700009322A164391B972334CBFD664B89B730E4
:10271000DF2371831AFF005C51C1F16360D20B8724
:1027200059BEB58FC0B7911EDD3CDE198C151F73E5
:10273000CE6A475DB73D34F89C372E1E42327E8309
:102740001FBD50E4D14B4EC066D52592E1E4B711D0
:10275000C711E150F3B47A734AA79A49E62F2C8542
:10276000DBD49A54E4D89C8ECAD41269B4083628B3
:102770006651C74A9733D1265DD22D75646DA88501
:10278000FD4EEA0E7B66F11640E30DFB53304171BE
:10279000E4D94C31282D1D6809FF00B64B13438442
:1027A0002CE416E47AF345EEA9746ACB19BD1D40FA
:1027B000665C96518F5AEA810B0746C91DE9AB7BCF
:1027C000632AFE418B34D242D105122BFAA0C83EB7
:1027D000A2A76966BE222485B683E7E71814BCD297
:1027E0006923B2B71A6BC9DDA00DA1D8A027009C40
:1027F000E2B9E51DAA16DC99E4CE6E72B670B81D7A
:1028000000AF65CF201C575189071571DAB8030E48
:10281000D48B471DCB67BD759CAF0E40CFAD7523E4
:1028200053613686694048A332E0741DAAC2D0AC19
:10283000852563138EAADDAB38B41C96CBAD9F4DB6
:102840006B910B5C79BA9C027150BEB59A0B82AE4B
:1028500043AF5565E847F6AD9A8A48E716903A2E99
:10286000C903628B52334899D7A2D880272DD076DE
:10287000AB4BFBF14896D9C88B1AE6FED5946D9DFB
:102880000EED38779598608DA403C9181CD570F8A3
:1028900050C8635DC643CE00E9F7AF7FD27ACFF46C
:1028A0001B9F83D3C399CB1B6FC0E7559E21A345C4
:1028B000147B5D9913713D140C13FBD22B2B9115D6
:1028C000EA2BC022B794139E983D73EA7DEAF84F35
:1028D0009AE48642E4B435B85B764DD0CAAA48CFB4
:1028E0004383F7E94B637948915558B48FE144C469
:1028F0007032393F61934C5B3229DD15AD9DB24C8E
:10290000B12DB2858F959549DD91CF39E0FED8ABD9
:102910005A317B7B6935C11B94F9571EC5BF4E05E3
:102920006B1F38D30D43199017FC8877B93EDFED44
:102930005ED3AFED6EED76DD4891CC33C8CEC233B9
:1029400091CF6358DB4C5717D8B35CBDB3B581E367
:1029500059D6691C6D1B7F879CE49FB513F0FDF56C
:10296000DCCEAB1DF11688B978FAE49E00E471CF95
:10297000A76ACE49BAFA0AD354C7AD65653C82EA64
:10298000E514ED015656FE1E7FCD5F7561F2D1E56F
:10299000BA0E8E3822B7978129BB31BF10DB62583F
:1029A000A72F85E572AA3861FE45734C4F9A0D0D2D
:1029B000DDB896423C921383FAF7AD4B65901E4BFF
:1029C000A65BDA4282DDD959DB6619F8C9E99CF6C3
:1029D0003EBD8D4258206D2D67B77DA5010DBDB25E
:1029E000BC1C1E7B7F4AD525675AFF00903B7B2984
:1029F000595FE6E37319618D8D8FDC76C517A9CD1C
:102A0000269BA7B433488C6300C0C001F6C8E7B664
:102A10000FBD0E4D01EA1FCB43249ED6EA7D461C16
:102A2000A7837766ACF3291F98F0A78EE0D62FC452
:102A3000834CD49E0B3858C917964DE55F2E3AF358
:102A4000D3D7F5A4E93B131A52B05BB37FAF49B2B9
:102A5000D6DA4765F33C7102416FE6C741C52EBA2D
:102A6000D3EEADC98E5491193F3A38C153F4A9E55C
:102A70002727C844EE6DC879F02DC7CB6A12CCF277
:102A80007E080AB3464643465B04FDB35ACBA89E74
:102A90003448ECDCA5B264C6884852A7BFB9C63A30
:102AA000D51815A1D816B6062D2D45EDBDC88A241A
:102AB0007561E554001239CFB74FDA8D8C892E9DA0
:102AC000B6BE65627C561C2F7FCBE9F7A734C734AE
:102AD000D92B5B6B69599E18955D8E4B0405DBDC29
:102AE0009ED51974DB83A84372B72AC913ED6453CA
:102AF0009C7620935D492A14DA4E88CF2D99BD9299
:102B0000DA486713200CDF879500F7DDE9DBD7345F
:102B1000BAEF4EB89EED458CE7C24EA1CE173DB838
:102B2000FAD0BF9268E52DEC3758B5B4F1123BDD11
:102B300048C73AAE1A08BF1510FB8C633F7A5B6535
:102B400004A92CCD25D24EA00F0C8528547D0F4F03
:102B5000DEB237D850E557E094082553246A4A136B
:102B6000C1C75A2141B32669A25991583449220D4F
:102B7000BBC9EA7BF033C679E28E4AC649B92A203E
:102B8000F19B8BC8DE3860DEC4B11B70073D47A1E6
:102B9000A6524A9A6AC521B642F22E77B6491FE676
:102BA000B95F4636DFC6C32C49D5A1F13717921558
:102BB000D8C81791C939FDFAD4AFE798583DA9B7DD
:102BC0001B0AED60FBB2C0F51C7D68294BE24ED7B5
:102BD000CB8FD1F3DD5A73A35FDCD8C6985DAAC84A
:102BE0007EA01FD39A90D42D8D8C5E2CA42B1C9587
:102BF0001CE0FA578F9FD3B52B8FD92CE1727453F9
:102C000075F3372E521F0E285B19D87961EF45D81E
:102C1000259DAE8F716D3A6E9E56CEF1FC38E9421D
:102C2000A718C78AEC1952114CA379DA735495AAE4
:102C300022C526408E7153B791229B73C7BD718206
:102C4000338A6C5EC6C5D3B0A7BD0F1B322AC51828
:102C500038118392C7DCFA50934CAF8F0A3D9EBC6B
:102C6000E734C791CBB1EF2B68A054B14B12C9A286
:102C7000E39AB6085E647901E3A63D68652A566268
:102C8000ECADD6556C3E57DB3451B8536F1A1182F8
:102C900087031DC56A957412971630B50853084608
:102CA0004F53543C11C4CC54799B8193D2A38C9A3A
:102CB000934470C9287445ED5630A2460A8C71C001
:102CC000EF5400158A800ED3C7BD7A58A69C133DD9
:102CD0004C524D26191298991E26390793456A13AE
:102CE00016936C79C606E3EA6959B245C3407AB9CE
:102CF000AF6ED7F0086E66DA01C9A205A845DD29D6
:102D000038F6A8A5AE8F3541D59C696DE35FC35DEC
:102D1000C4D56AED239E405ED9AE49D5B0D34A23CF
:102D2000C9B4B9539491587E942B5B5C28FC80FD08
:102D300008A475D8A7160922DC29FF00B6C07D2A91
:102D4000A6919EE231203D71D29B149F4321A6356E
:102D5000809B3BB470A1411F94F7AAA6856E2EE418
:102D60009FA6EE71D714AF71D04DF44D1121CF86CF
:102D7000A013D4F735D32B7A9A5BF93B62E526D9B9
:102D8000EF18B70DC8AB948241142D51C99D32F98B
:102D9000B03B577C5C0C75341C4CB3BE2646735D4F
:102DA0000C48CE0E2B28D4CE89593255829208E891
:102DB0000E33FDEA316D4CEDC927AB1EA68F9CB8D2
:102DC00070F03565928700C709FE94F3B63114831D
:102DD0007FDCF1F6CD2CBB9239AFE182260D2B388A
:102DE000C9539D8BF5FA57D07A39AF66347A9E96DF
:102DF0004BDB43395A672CB6DB5769080EDCEC53C2
:102E0000D303A751CF19A2AD63B946413C8641EE29
:102E10000671EDEBFD6AE51556509478594DDC13BB
:102E2000462E8429BA609E51EEDC0EBFAD268B5033
:102E30009EDEE8477B188A68B9218719F5F6E28299
:102E400077DF83252BD825FEB3BBF0E28B11B9CBFE
:102E5000A96C9719E9ED47DA5C692F11FC711B81A8
:102E6000928C0EEFDBAD07B8AC5B9D1D7B486FE12C
:102E700041040CDE23790ED3B980383C0F5E7F4AC3
:102E800065A4DAC313DC5A8422642AE5318254E44F
:102E90007F5E28DBAD9CDD201D6F5C2D711DA40CB9
:102EA0000A2B80FB4E47D33DEA163F12DF59C0D0B4
:102EB000CC05CDAA7011CF2A3D8FF639A135413806
:102EC0009EF8875041142B0DBE177066F10823231E
:102ED0003C71F534AA0F14C8977BBC359599554FB2
:102EE0009B18C6783DB9AE76D9B06EC6CD6D7F79E8
:102EF000A64D758B758A0F36E72CA081E849C53A37
:102F0000D3658EEE16996E05C452FE6C9C95C8C1B1
:102F1000523B718ED8C5726AF61735CA8E59DEC318
:102F20006BA7EF96294A2AE238910BB328FA74FA74
:102F30009ACF6A17D6BAD0884F23A9DC4B2818DB62
:102F40009F5A19D3F88A8414E54CB16C8DA42B696F
:102F500060F24B0B3091E4C6371ED9C76155DBE9EF
:102F6000F24D772FCC69499525A493E60A2E719EE0
:102F7000BCE49F6A16B8F1541CE3C12545D16A33FD
:102F8000D916B6B0B2B8B453C9546F39EF9DD83919
:102F9000A0F507885F432DE90526DBE3AB4BB9B00D
:102FA00047527D71CD2B24D478A42272492A353022
:102FB000E9F15B5B96548E1B65C1548F9DDC6412F6
:102FC0007BD55A3DFCB2C6ED2AF896A58F86F90A44
:102FD000633DC64F0477F5AA74B4828BD689EA6D37
:102FE000E1B29B5FC43290AA98EA4F143C97FE1B53
:102FF000886D6179F9DB3CCBC2A0EE013C1346DE63
:103000008626E85DA9EB52DA59BC1A64C56423052B
:10301000D46580F63DBEBD6997C17AB4373A62D8AF
:103020004B285B98815D84E0BAE7208F53C9047513
:10303000E334993A9EC54EF95F80DD50BC77116E3E
:103040001E766271FDCFEF546A12ADBE9C50921A8B
:103050006E073838EA4D303ABA02B36B19498E77A9
:10306000F0E40031661E56CF7E3BE689974CB0BD3A
:10307000B4944729902F1B972003D7BF5AD52B41D3
:103080004A6E82E0D2E18228D6DA52405E509E98A3
:10309000EBF6E4545ED8AB6E40013D71F94FD4516C
:1030A0002A6741DBB136BD3476D22C112306C062CB
:1030B000DBFF00213DB039FD4D6835B489BE1EB738
:1030C000D872C5C08B9E4F1C8FD0505ED07E62C41C
:1030D0007633BC3A941186911A40369191904F3CC8
:1030E0008F7EB5B7D52E2480C2446B2C52B98CAFDD
:1030F0003B892B95C11DF208EFDA9339AE4EBC1314
:103100006669CF47C8B58964D5B55B9BCB88DED9E6
:10311000490A913F25401803B52E31ED2A08CA8F80
:10312000CD8EB8A91CEE4D12AC9F2683649842D078
:10313000C366C1F2A33E5E8C7B7BF147055F96338D
:103140003B1F2F0454B92354FCB13315BAE4EE1DD0
:103150000D5654D35316991DB5CD94761D91F0C6D6
:103160007A570C60678AD520948E04EF5DDB5B662E
:10317000B67641B63FDAA304B2C2D9438F5CF7AE4C
:10318000A4E3B362F45B248F2905F93DABCE983BF1
:1031900071D3AD0AD681B2F84B003068B8DB7C8AB7
:1031A000CFD45226BC93CBB0A971710B42BB31D4A2
:1031B000E7B52E78C1C853819EA3BD1E39B8428A97
:1031C00016578E1FD2E8DB60E3B0E3DABA18FAD202
:1031D000992CA6DAA2E85816F354E69D8AB2C6A442
:1031E000E2B2357B1F8B71D800B594A1761827A069
:1031F000AA8F8887041A6A9465D02E9B35BA55F732
:103200008D1F832F2EA3CA7D47A5172421B923150F
:103210003D0252D1AC6B9A15E45009007D71CD236B
:1032200023DD2353009DD8E2420ED56C66AD6902C2
:10323000F945171D2474BA2B2FCD7377ED5D428BA2
:10324000ADED6E2E4FE0C4CC3BB7403EE78A385A16
:1032500025B467C6B84321E8ABDBEF4BC924B4B64D
:1032600032317DB0111C8EE553CE40C90BCF15060F
:1032700072A7055B3EFC532ACC941A24266F403E6D
:10328000D521216EA4D0B88364C115357F5C50343C
:103290001261104C177A39C452AED7C9C71D73E9F1
:1032A000DA80BCBAD26DEF216B7CB46AC19D01E5B6
:1032B000B9CF515EBFA0C8BDA7167A9E89AE0ECB0E
:1032C000EC754B89EF36DBB9D9BF81E080CE3F94F6
:1032D0009E99FF00DD6BB69B7B232EAA20538CEDBD
:1032E00042463EE7BD7A719351B29AA54274D52CFD
:1032F000AD25F11C097C61C01316240F503A75A44A
:103300001AF486FDDE45B7857CA17707C0503EBD27
:10331000EB256D1D2BAA3364C900F0CB0C7D067F15
:103320005AA4B2821943039C8E6A495AD1249F87BA
:10333000E0DAE9139BBF8754C72BACAB98646524D4
:103340003003CDD7DF23F4ABEE2DE468A295E597EB
:10335000783E0C8DB8E648CF3B49EE322AC824E3CC
:103360006CAA293858A6F6386297C3981523CC92D0
:10337000228E39EE3EB57456EF2C0971022F85BCB2
:10338000F3FCEDE833DB9E6B6C24F5B2AD5C0173AE
:103390000DAB3606DFC47C1C027D7FE77A23E41E7A
:1033A0000B4B79249E36876B18D41E483CEE03D015
:1033B0009C0A1B56645A2DB96927D27C2755318E39
:1033C0005F6B83C8ED81D3B57BE0AB38C077B900C4
:1033D000B4A0C6A4310369EBF7EB58E3F2B0249D27
:1033E000DA1AEA896A676B7D3D8DBCF080635070A4
:1033F0001C1E9B4FAFA8EF486EF4E96EF54494266F
:103400005D63DF3A03B4B60F3F4E2B26AD1D1BA004
:10341000DB6786CB509E0B6DE4310559DF71019758
:10342000A67D33465B2B5CDC3A9560AA7F0F1CEED1
:10343000E01E9DF19C1FA50E27E0DC72756CBEE2BC
:1034400034894CB3C80BEC3120DA3C8ADDF02B2DEB
:10345000AA58492FC4603BAADAB80525238655002F
:10346000741DE832C3E56BF804B1DCAE3FC350B75E
:10347000A6F5E483911321DAE7B9CFA0E831D3D6DA
:10348000A88BC6B89C1008503C800FCABED54C55BE
:10349000EC7E38A49D8E6DCA476F72B18CC881597D
:1034A00089E704E4FF006ACAFC41E2DADFCB1E24AC
:1034B000955C8922507036B723DCFA7DAB1BF20491
:1034C00056C8E9F6F32C4D3CF6B6D313C081C1289B
:1034D000A08E4900FE6FE9546A1A5BDCAAAE9D100B
:1034E0008202448C9BB3E191EFD587A77F5A16AD3A
:1034F0001D28DA0D373A959E9A258623716F6EB88E
:1035000092575059476EFF00FA1555BDDFFABDBA04
:10351000CEE589FCA58F55207F4EFC56274F89911B
:10352000693A28173B66F96C28937ECDDEDD6B4344
:103530006EE2DB4F0A01190DD7D4D3150495E8AA22
:10354000F25F0EDA1982BB4825FC3DADB4E48F5121
:10355000CE381539B53BA0E409895DC011B4743F7C
:10356000BFBD73ECE94762C91AD9C99268D918641A
:103570009039E6AB5CDD4C8D03398107039C293E15
:10358000D5CD876E82A1B9806A36CCD26F4B7621B9
:10359000E5CE464F5C7AE2A7F19FC4D6E6D20B0D8A
:1035A0003AE5CC88C25334791861D003F72723BD9C
:1035B00079DEEA93947F679EF246527FD32335D417
:1035C000F76FF33797124F3B75321249FBD545DB46
:1035D000248E0FB525ED913DB2B883ACC0F4DB4429
:1035E000CB33942849C139359249B4164FC8844D1C
:1035F0009F29FB575939AC7A629E991D95C295B6A1
:103600006D9CD9C8AE6CC8ADB0ACE6CE6BC139AD5F
:10361000B36CA65F337B5782D1DE865E8BA000B38E
:1036200038C61066AD8D370DCD4B93173D22E5089A
:10363000A39A9C73C7BB1D292D362829CA780DB4BF
:103640008CB719A176003BD042E8C6EC92A8638300
:10365000572C01BB574A546245AB6CA7DAAD5840B2
:10366000185E94A726F41A7AA27E166A125B2B2E95
:103670001875AC5268E4CBF5296DCDEADDD8E53795
:10368000E19D3180ADEDED4EA0659E04949FCC335D
:103690008C53A2F613EC59A85C032B221F2AF14A83
:1036A000A7B900155C9C75C52A11E4ECC4ADD06DBA
:1036B000D4B17FA02A41861FF71DBD0FA5510C462E
:1036C00048CCEEC16250371FEC28A4F5631E372D9D
:1036D0007D1747A7CAF896564B789B905F39C7B0BD
:1036E000EA68A8FF00D3AD47E1A19E4FE794703E82
:1036F000D4A9CDBD445A4A2F6577177713F06EB021
:10370000BD94295028468A5FCD8DE3D54E6BA0A38A
:103710001064DB2DB2BBF96B8F142866DA57F5AA5B
:1037200027BFB858D9277430A36E456C6E39EC0D9D
:103730005981A771914E19292A903C933C73ECC290
:10374000B2E376E8DB23FF007574529922F122621E
:10375000509C67DE872E14B6BA032E1A5CA258B2AC
:10376000B6704FED5357CF38FDEA5684264F7E3D55
:103770007E955BC313C6EBB15778C12AA335D16ED2
:103780002ED0C84DC5DA0CD316F74989D227DB7283
:103790008C5937C78203000F07D855F6DAA35DAB03
:1037A000C1AB066671E46C6791EDE9FDEBDFF4D324
:1037B000F723CBCF47AF09738F2F225D46CE64B876
:1037C0004312BB8072015E540F7AEEB1A5DC5AC081
:1037D0002EDB6CB0700AE395AA657561F2FB1146A9
:1037E00023B8B80924CB0C582598A9EC3A63BFFB41
:1037F000D15A768973A9869A2290DB29DBBE46EFDF
:10380000E800E49A8D2E72D12D73748D0E9F672E71
:103810008B6372B2C81E162191B05724F0460F3E3A
:1038200086B450431CEA8B1C90B28C364F9B271EEB
:103830009DEAB82E31E250BE2A8F6A1A3C7729B62B
:1038400078A3980EACC9B0A8F5DDDBFA56434FD586
:103850003C091AD227125BDACAE6191C70431C0213
:103860007F6341369497ECE6F69164D0CA672D29C0
:10387000F3ABEE909E7A7B7714DB4F814BADD89300
:10388000C46326E0243DBEFD714741DD218CBA446E
:1038900057D1892DD8DB4A06DC100A7D0E3B7A1FF2
:1038A0007ACE497AFA521B3BAB77175033292186DF
:1038B000DC67BF7FF22B9CA8052F072DEF4DF2B9D7
:1038C0006B68CC3D59669B25CF7C1EC7BF18C55180
:1038D00070D0C06E24B37B86F1E32BB2561CFA8CF9
:1038E000F7E8697274B93F076D2B044BA82DE69277
:1038F000499CBC8EC0E41FC831DBDE8E4F88EF834D
:10390000AA5A2346DD888813FA9FF6A5C24A2BF6E9
:10391000CD8B8A55E46767A904BA8FC5923F164CD0
:1039200078C8CC0EEC9E7FCE2947C4BE133C2F6FC7
:103930002A960EE0C08A41524E33F7C56E59544064
:103940009BE3D7FEEC73198E1B5B773B11C44A1DBA
:1039500049C18C7BFD6AC1F3EDAEAD935D45122B81
:1039600006785010E540DDD7A6318E94C52B5A3528
:10397000CAD9D6D45ACB59686150FE2A00C09E0ECF
:1039800039FB1FEC697DF3DC6A1A819A51E188806A
:1039900040A0FE40BD28D0E85761564F142D2A891B
:1039A000E26490EF3E7C10682BDBE82DEEBC3653D2
:1039B0002C27962833B7FE1AE7A40BBB2C844F2480
:1039C000C160BFBB8D247C8440140CFAE739E29EB1
:1039D000476C040218A208B8E300671F41C64D6295
:1039E0008D3B05A4B60970D676DA8C3A618A132C21
:1039F000B1B330DA320F18E7D48CFED45031451011
:103A00008E742E8A7CA46322B632B66464DB13EA19
:103A10003792DC5EA240208ADE02308EE37BE792A2
:103A2000D81D3D28CF95DC8D3AC8AD1E7920E7150D
:103A3000CA56F61D81C8AAF36DDC3217273D8135C1
:103A4000E7B3F08C096E86356C9C77AE0AFC0AEF02
:103A5000A610CD2DAA109E17E738EFD690EF33CEE3
:103A6000657C903A579518719499E4CA34E4CBC6B2
:103A700009EB5091C2606D2DF4AC4B62A09B911884
:103A8000E601091D49A90F1A53E54639F4144E29D8
:103A90003B61B8DCACB046D19CCCCA9F7E6AF47462
:103AA000986E439C75A5CB7B4064C6D2B3C52B9B57
:103AB000282C49E2BEDDAA21715A99B678AD077566
:103AC0002F9B62F6EB4CC6AD8CC4AD9D1E7236FAD0
:103AD00055821E393CD13741374797246D8F254792
:103AE0005F7AB5771520F028240CD9E8D880437385
:103AF0005E58CB3E450F4074C3119080BBB38AB76C
:103B000062328D841A44AD304A5D0AF2339AB2397A
:103B10008818E6B5AB46790B8431505BBD1289C578
:103B200026B6116AA71C0AEEC046D615CD1C211771
:103B300004B63D38FAD38B3B8B9168A90B8C648516
:103B40001D589F4029CD504B6068B2DC5CF84C7624
:103B5000B1CEECF6C5148D05849872B238FF00C75B
:103B6000A52DB6B510DAE1B629D4EF5BC22BE50A74
:103B7000C78514DED6F58D9424C51AB2AF9001C066
:103B8000F7FAD6E4C758D7F43536A0552CAF2396AC
:103B9000762CC7A926AA2F4B4899B225CD78391C77
:103BA000838A2A303ADAE2DEE2236F76806E3E596B
:103BB0009400CA7DFD45516D6D14F70E2F0A1B5DF3
:103BC000A49DFC3281C7EB557A78C1E9F68AF0B43E
:103BD000D0AE4BE4B8B25B02842C2DF8528E1BEFB2
:103BE000EB4335C496C4DB9DFE167255877AA2510D
:103BF000754C74D52A0FD4757B46B98CC0842F863A
:103C0000BB80EC6AD827595731B02319A8F26269F2
:103C1000592E486ECB8367A8AB6329BD77E766460C
:103C200076F5C7F9A9EB62A3D8F2F6D5E79D644310
:103C300073796CD1911C8A409081FC2DFF0090FD1E
:103C400071544315A2DD24D1A858E35C2C6C0EE41A
:103C50003FF967927AF35F41871A8C9C9793D98AD0
:103C600049DA0BB69ECE31E35FB88F7B64315C8C52
:103C700063A1F4A51F126B36F7B62DA76941E46264
:103C8000FE797F842FD7D68B3E4E31D8391F1464EE
:103C90006F228ADB1146773A8F330CF26B73F0F5A3
:103CA000EE8CF65690A5DC503C71AA98E560A7779B
:103CB000F1104F1C9349C338A76642514ED0E6F22B
:103CC0002D0EF9E1B092E84D3CC4AA0864C91C6409
:103CD000F2381C0FBD766B7B8D3F4B3168AB0ACF42
:103CE000129DBBA3DDE211DBD8E3A76ED4FBE49BFE
:103CF00089BC9C95232B769F106A1A6BDD5FDD478C
:103D000025BAAEF68D650011FF00C4706965DD9DB2
:103D1000B69F22C0ACCC6450D2B272A0F651FDEB7B
:103D20009476AFB1DC145AB1924BF3303856F39815
:103D3000C29E7078E3AF6A959EA579A68D9E1C52AF
:103D40002272249010C39FCA71EE7F4AD9F24AE2D0
:103D500074E2DAF88F74ED705D31825B6489DC8E19
:103D6000109F3E78C0CF739E2AAD43E1CB2BCBC6CC
:103D7000BA9E7B98A79D8B36E4CEF27B1EC0FB508B
:103D8000C1B94537D888A69ECCDEA5676D6764218A
:103D9000BD6466473E1344C41707F8B07E9D3B558B
:103DA0005768D1685656F15BBBCD3BBB4636E5C084
:103DB00038C63152A53E5252E8C8F2B76536FF0008
:103DC0000DDEACFE15E3A593C8A5A1F18796423A96
:103DD0008C8E879EF4C22D22E5E0315C5F6D979D4D
:103DE000B14432081EA451C612F01C31CA991BAB53
:103DF00056492082C2DD18471032703AFF00302742
:103E0000A1ED52D3ECE5BB8448C0A32DC969276E50
:103E10000B6DE9F4E4FED44A3CB4FC0549F7E073C9
:103E200065A7C5797E3519F2CB19CA67A31EC4FAF6
:103E3000E3AFD6ABD7E1BB12C77289B2472078A0F7
:103E400065B663B11D463AD369256152B391DAD99B
:103E5000C31C650472DCE3E60DC632420EF9EBCFFB
:103E600041EF54EA3A85A5C5BC33080A4CEE166802
:103E7000C67CC0746FAE3FC5662BB7FD330F26DB23
:103E8000FD9646B63846CCA0B76F089C9F4CF4CD43
:103E90005B6EAB756EE1ADFC24DC42AB8C371EBEB5
:103EA000F9CD3DB6149B60BABDEDD58CB15CDADAC4
:103EB00009401BB72A9F26DEFC718C73474177A807
:103EC000CFA325F46C6CE3947124888377D0939FFF
:103ED000B814A72F95317DBE263EDACEE5F56925CB
:103EE000BD32EE4FC52E5F2CC73C1DD5A58759D4DA
:103EF00026531DD149205C9C786AA47D081598A1A1
:103F0000A6D9460F4EB8372EC49A8FCB5D5E179058
:103F1000EC902803C39030C7D475A6B670886C7631
:103F200058937E241BD1B3E1B293D55873D08ED56C
:103F3000CAAED0BAF2865A7986E44D71756E2216F1
:103F4000D128689300BBE781EBDE8EB5B7F16EA494
:103F50009D94B6E45091A91D0673D7EB449B05BA16
:103F6000B323F1668F34264BE5725249B12AB2ED84
:103F7000284F41E84714F6C3438EFBE05821840DD7
:103F8000E50CC847FF009413D7D723CBF4A9785486
:103F90009C59234949C4C3ED03AF04F63544B70423
:103FA0000644E7D4E2A68AB627145ADB3B0DD3C5F4
:103FB000185585091FC44575EEEE5C637EC5F45A3D
:103FC0002E11BB61F20723272C4B1F7A7BF0CE9674
:103FD000FA84EC146C8C10AD291E55CF4CD665BEFE
:103FE00034854DDA186B3A35CE8F79E05CAE54F2F9
:103FF000920FCAE3DBDFDA9715152C938BA64F25BA
:104000004E88B28A8ECCD7266303BA9C460AA72D67
:10401000FD297E09E4F4F5AAF1AA45589544B22792
:10402000656014E05141890706BA6959938AB2E87C
:1040300011922DCC38F53DEBCD9C90B83EF4A7D82D
:1040400099761B65A54F7237EE458FF999B0298C8B
:10405000B67A65BDAB2BDC6F971C6D3DEB2D3EC278
:104060008A4DDB15DE496D0DBDBA59B6676FFBA4ED
:104070008EC6840CC98D8DC8ADA55FD3A554905C48
:1040800037E0616503EB474724520C800D4B931BCF
:104090008ED0A6A8302AE011E9525383D2817469E8
:1040A0006AB0AB400C3B1A238CD6A166D6376F138F
:1040B0007201E0FA8AE89DE2B48E443821F8F6A74E
:1040C000C972A0BA6461D4658E6F10A871BB255BFC
:1040D000BD328DA1BF80165239E08392BEDEF4ACB2
:1040E000B1E1524136E5A601269D2ADDAB5C00F127
:1040F000E7CACBF968B66E6BA7353AA0672B64198F
:10410000BBF6A864939C50A42D9E279C54335A8ED2
:1041100024A71C517F852465A68C4855769E7B7A02
:10412000D1466E0ED0CC5370762F8ED19275759786
:10413000CA1B38029DDFCD657D12FCC890B8FE25F4
:1041400000535FA8E4F63A79B9332F75A55C49743A
:10415000DF268F3A9E46073FA538D0AF62B0B67BC8
:104160005D52CCC6F9C2492478DDEC49AA23253832
:10417000D8C5F28DA03BB99FFD5B7CD73B6061D673
:10418000139C63A0AB8DF4614BA2BC91AF0CE07F9C
:10419000CC50E4F4CA51D76873F48B86FB1FE83A1D
:1041A000887877ABBC71AB0C3938008EC7B8FAD7BA
:1041B0006F275175378838C82581CF1FDF9156FA90
:1041C000572E1F25D0EC49A5B12EA1336A12C6ACDB
:1041D0005A2B7518453D5BDCFD6809CC93CC96F6EF
:1041E00045615FE220F03D4E7AE2B72A59138B36E3
:1041F00070E69A0368659A4648E2244633D39C7A6F
:104200009F739A9FCAED8CA95C330E33D88A0C78C1
:10421000FBBF06431E9FE8334AD425D36F2D6EEEB5
:104220003CC21954920F3B7FBF7AFA3A3AC3135DEE
:1042300078AA6D70251267CA57AE7F4A3F4ED28D5D
:104240001D8E92A301A87867571169D7321824DA16
:10425000DE5C92849E4607A1ABF52BD81AE6478216
:10426000DE4F0108DC1863771863EC73CFEB4C8DDD
:10427000ED94CADA04BAD53C458E2B08BC08D8792F
:10428000D8E093ED8AD0E9D0CB2C78BA81E2F11155
:1042900059D9D4A8007D7FE62B31E46E6D0A8B9648
:1042A000D89AD94CFA9C8D13116B1B65770C820739
:1042B00041FDEB5475F8E6B4617AC5658F1B884CF7
:1042C000EEC7423D0D2D65B9CB5D0994F949FE8CD1
:1042D000CDE5CCB7718B636C05D5C1DA8EC9E540ED
:1042E0004E7A9E9D6A6D7EF6D7118DDB9A24281D2D
:1042F0005480DCF247D6BB03E5F2FF00C8FF004E56
:104300009C9DB2C324F70C2F754923448237F07764
:104310004DB5C1C70140CF7EB9156D8A95D2A0BEFB
:104320009EE06492FB86323B638E68DDA91B91712F
:10433000952F25B63748354164F19B985C8F0A5418
:104340003C9E33920F6C7E94E66B57226B578D9296
:104350001246DD8DE6909E4FB81EB4519A95FEB47C
:104360002DCB93A2B36D0E9364D08DF6F1B48186FC
:10437000F72DF5C679FDEA70C96134444B13CA4A7A
:1043800080048398D4761CF06B6B548C57E012F148
:10439000160B74B5B188780EC430C92E33CE7DF9B2
:1043A000A5D34189982F017193E947154360C61041
:1043B000C515CD8A4B030280F0AA7A11DBEB5D555F
:1043C0000AEC848065025404F5CF51FA83FAD718B9
:1043D000C45F15325B69F0DBCAA4C8EC580CE0A0DE
:1043E00000807F7AEE8CE353B38C336E9ADD020447
:1043F000273B40EE07A1A545A5942C134B2854F16B
:10440000FCBAC81A1943F86480A32B81DF3D855993
:104410001DA25C596C8E462B2A619930481E9CD394
:10442000ED36E28A9CB96BEC59FF00D3B3DB48C68A
:10443000D2766887246DF3AFD47F7A2443ABDA4613
:10444000D221DEB1F4F0C1DC47B2F5A4D7054C8E21
:1044500051505C5B1CE98FE358B391F897589A561A
:104460003D481C293FB9A07E23D42E74BDB716AB9E
:10447000246C54469260F3C673CF03AF1432D43425
:104480002A5A8B187C3BAB5A6BB17CB6A312B4B2E0
:10449000288AE118E410780EBE9CE3E868EF85D620
:1044A0004B2D36182E4041E24863DC7194DDC1C7C4
:1044B0006C91C5263F29264E9F26A4338743B7B566
:1044C000B3F0ECAD95A2392E8EA183E7AE49FCDDA9
:1044D0006BE71F16FC3E745BE59228C25ADCF28142
:1044E0005B7786C3F321FA76F6AEC8971D1991273C
:1044F0000D19E239A81353A108F0F402B69F0A6B14
:10450000F6FF000F68D75F31652CE677001DB84EC7
:1045100007426B9BAA326DEA8597BAE6B3AE3A289A
:1045200052D6F0B1291A8F2A8F4C9EBC5122C490CA
:1045300037C8031EA00CE3EF51FA89C62D56DF9051
:104540002515A2125890328C18FA6314AAF5AE23DE
:1045500005120978EADB0E2BB0CA337BD191826C4D
:1045600055EED9A8925BA0E2BD045283F46BD8EC5F
:10457000EEF74D12CB1B021948CD18441A8DEA2CC8
:10458000102DB891B6794FAFB52B25C6D812D4816E
:10459000EEAE5A48FE55E052F179379FE1C1E82866
:1045A000545600293C9EBCD6F4A8C7A541C92C8B03
:1045B00016CDD95F43DAA0480C3CD9C8A425B11662
:1045C0007B68DE18F6A96CDC3DAB9B31C8ACED50C6
:1045D000481565BBB039AD6AD6CE69B5B344BFF6F0
:1045E00097E82A1B883C8A8FC1C5B19C9EB53927A4
:1045F00048474CB7615A99C857AEC8D25E386EAAC0
:10460000C4506CB9B00076929D1E904FB60A540EFD
:10461000A78A274EB8292ED3C46DC0FAD1CE3CA2AA
:10462000CD4F563B8E4C0C7507A83554D6AB20DDCC
:1046300001DADFC87A1FA7A5429F166356801C3A8D
:10464000BED914A91D88E952EFC9C71543167323B3
:104650003902B87EB5C71E18ABA262AD9C66859CB8
:104660008B4DB303E5230791CD70C6E9D8D0724CCA
:104670002A270144995E4322A8EA633835E4F9EB1E
:10468000FD403CD228B4B66F13329CE40EC38E4D6D
:1046900053E9E9CE98EC2B9492257963632493DF58
:1046A000DC44446C32162185FAF1496E84B25BC752
:1046B0002AC9B226FC346200257B0623A8AF4A7AB9
:1046C000D247A53BDA5FD1AFC35078C82207CE8866
:1046D000C4A9C609240FE95A5B9B049B4F8BC224D3
:1046E000BE49639EBD41E7FA5371353C746E27CED7
:1046F000908268FF00E9A1B545227C9C9618DA33C8
:10470000DCFA62A69A3DBF8AB6B1B2C97024397C80
:10471000F0540CE7145915B511996D350409676DFE
:10472000B96467EA5F3B7D48E07F7A3ED74D3750FA
:10473000CC1E30A864509293F949E3A77193834D3E
:104740005D686C772A337A968B75A7DCBDBC8E8743
:104750009E3B7DE99FC3934AD686CDD4CAA5599581
:104760004AFE5F6A9E30719D132C6E3208B5170C9D
:10477000E56096089092411B55F1CF5279E86A3A6C
:104780009C96D1C02CADD9646DA59D97A74E0035E0
:104790004EAA83964E4C51651CB657D6B7170A558C
:1047A00063707045692FB5C69ED2681BC451246DD5
:1047B000B09CF9BDC7DE9106D3698EC114E2F97FC2
:1047C000EE8A205826B51656ECE1828DCB8F303F0D
:1047D000CDEE2BD32DB59065B795A59147E248E86E
:1047E00076A9FBD31A88995780BB3D68DBD82AEF9E
:1047F000DE5CEF7C9EA076FE83F5A02FADE49605EF
:10480000D5A57448EE1F6AC6AB83C6727DB9149FE6
:104810005137083711BEA5FB38B9441B47B792E0A2
:104820004C5D81DBC65B049CFA67A535B5B98AD4BB
:1048300018D546C8CE08201520FAFA527165D5C998
:1048400091C32B9AB931F369DA5E93026A2C5D6EDB
:104850001C6563CF081874145C170A96A6E62769CE
:104860005A5F30071C760BC76E2A88AD5874E4ACCB
:10487000CCEB705D5C5FDB6E9D84D36EDE1BA1F4C0
:10488000E0D556B729A7486D7575646EB1CC012A7D
:10489000C3FAFF00CE68E0DA1917AA1A5D322A7E41
:1048A0000C8416FCB819CFFB501A7C73DC2BFCCAA5
:1048B0009DF29DC88BCB7D703D68EF5662D6C82AAD
:1048C0004BA7C320562ABBC3AE0F5EC411404F7B1B
:1048D0007BA9DE476902079243B54019C9FAD0B7F0
:1048E0004EC3B5F901C166CD7770F76A1FC07285F6
:1048F000D8E4161907EB4108675BE596DA59102BE7
:1049000001BD320A0F5E3A0A5648B71B42E69B5673
:104910008FA2496B6F243147701A4488963BD89216
:10492000DF527AFBD722D8641188228D768DAC189D
:104930000E4F6C76AA5D415964BFD3562D4D4ADAAD
:10494000F988B5F10F9583BC984551D09393FA53EC
:104950000D3239BE56E2782F05CC2ADE1C6CA3CC72
:1049600058F73CF03FAD2E5252D9365C8A7B236516
:1049700065A846C638AE078AE0336C51B876EA7946
:104980000285D5BE1AD5A6B392DD36959DC179A70D
:10499000970B185E7249FB0C734391A517F62652CC
:1049A0005C58AB4A5D234AD62DEDED2E5EFEE99CA8
:1049B00024B74A088A1527CDB07563FF0091E075CA
:1049C000C57D227D2A2BA29732B3A14395006411A5
:1049D000E84753488FC158949C122BD51EF190DBA9
:1049E0004376F6AC7F2491A8E08EC41EA3E98359D8
:1049F0001F8AF27E1C960941698DDA8887525B9C7A
:104A0000E3B9E335AE2945B0B8AE0CC6EA5A2DFE7F
:104A1000996B69717D08896ED4B44A586EC0C751CC
:104A2000D47514B719A9BA25AA2D8D047E663CD673
:104A3000F3E0ABEB19AD458EA92131432789140270
:104A40003243B7A9C0E71E9417BB14DB6EC96B666F
:104A5000DCEAD3AD9C2B1421805554DBCE064E3DB1
:104A60007340104D799912736FF674DDB39B76FD28
:104A7000315CDA7B50A4002DD6976D77E674DAFFAF
:104A800000CCBD697BE80EBCACC0A75E5706ABC7C7
:104A90009DC5717D0C8CF54C4F2DB490BE5D197089
:104AA0007B8A6BA2DB48B7904CC0844CBB13E805F3
:104AB00053966B858C934D00BCA1E591C9E1D8B7A5
:104AC000EB55A6324E79ED455400543E652A4F34DD
:104AD0002CC3130E7A751430FC8186A4CB3C463D62
:104AE000735CDCDEA6BA91D49112D9183D289B37AD
:104AF0006599403E56054FDEB24B4125B34878409C
:104B00003D00AA4BF3CD43E04B2B92E44630B8DD99
:104B1000405CEA2911CB1DCFE82998F1B9BA3927B1
:104B20002748BE4944F2B4970BE66392578AE9449A
:104B3000F95970DE51835CDB4176C5C9199DF201DC
:104B4000F0C1FD6AF112E7F328C7DFFA53652F08B9
:104B5000E6BC0643291C139C77A25641EB524E3B00
:104B600038B1BC39976C8338E8DDC50B2DA3A79904
:104B70000EF4EE476FAD64255A6635655E1375C851
:104B8000AE18CFF37ED4DE40D1C2BEFF00B578644C
:104B90001ADB38B66B878ED95E34DE54E0FDE875DB
:104BA000D42E875B75C7D6BA38A3256D84BFA5D22E
:104BB0005F45B4158CB1232C3A60D5B6BA8409612F
:104BC0002BCD2EE666F25BAF183EA4D3FD3C7DB93B
:104BD0007263F04D427C8EC7A85FC76F0782B190A9
:104BE000C0911819207A9F406975FD9DD5CC8B27FF
:104BF000CB24313C810ED71B771F61D2BD26DCA1AF
:104C000067A7B70E5F65717CFDADDCED6E9378F143
:104C1000677ED1C2A9EFC53BB1D5F5196C3C18A28E
:104C200046911B6903A8EF9C743D4D761724AA8D0D
:104C3000C4E9551D0D736EEB34F2A472CB940A4E89
:104C4000E38EFB8F4EA7E94D52F74D8618A1988F42
:104C500014C277F93AB1239E3D8715426BB1E9DB67
:104C6000E4288A4B2F15A3859848D2709C907EFD2E
:104C70003357DEDFDCE9F1491AE10483CAAC08DD11
:104C80009F4F7AEE952177C65604B750DECCB3EA33
:104C90000ED76F1AFF00DB4520927D7DABD7BA811E
:104CA00082DCC36F6F1DAA49D4443048F73D6B9234
:104CB000F263F96C061C4F6FB3838008C9E847FBA9
:104CC00050D25ADC43708DBF0361E579EFD2B6490B
:104CD000B6A85E45D50C74AD56DED237DF1EF72D73
:104CE000825FA81475CEB8B75008DD143630A074B2
:104CF000FF006FA8C52FDD4D96E1E2E0994FC3ADEF
:104D000017CDDEA4D2CF1C7100F3B2707686C63AFE
:104D1000FA91D6B5763F125B5B18EDC36E85DB6604
:104D2000F2D923DC83F5AEB5244F8F1FB88CCDBDEF
:104D3000BC5AD6BB7322C5B2CE362CCA8700FF0040
:104D40002A8F4CFF004A3358824934A46956E6DE64
:104D5000DACDB6856B62A093C01B89C74E33D2975C
:104D6000931AC8BB033C3DCA8B7A16496BA7BD8B0F
:104D70004B6EF2453AAE70CD9DDFF3ED5EB0B4D42C
:104D80002EEC6E26B796DCAA9E6392401E42076107
:104D9000F7F6E6A5CDE9D2928C493360F6F2250309
:104DA00055AE42D7715A4E55950460804608271D6E
:104DB000BD7B52AFF595B04DB016628495DDCA86C5
:104DC000FA7AD5E9D476591FC362CBFBCB5D5E146A
:104DD00012CB2594EB27883C505E266FEABFD2A702
:104DE0006D017B29A0D4AE166964705184A1F0A333
:104DF000BAFA73FE281537CE3D0092E5C90DEC23B3
:104E00000D628A847E1C2232C7A2E3AE4F6F5FA57B
:104E1000087521713CF6705B848CA00B3E0F88E90D
:104E20009FD81FE94C94BA417948988EE56268EEA4
:104E300003DDDBBA6DE5B2E80FF2B1E9EDD450D68F
:104E40002EBA5CEDF240485860996321DD7D0F3940
:104E50005F4E0D1F14C3A4F45BA8BDB4774926D3DD
:104E600015BA2878E1400ED3E983C1E450FA36A49C
:104E7000D6372FBC299AE4867C9DB9C93C71F5E9E7
:104E800042D6816AD504E93ADDE4F6621DB0EE52FD
:104E900062593C3CB70383EFFED4BB56CC0F6F3D49
:104EA000CDC48C660C55D3F80823A8FB8FF7A5B9A1
:104EB000D414998F2F18F265168AA22BD8827E1BE4
:104EC00039DCFBBFEE10D9181DB14F3E0ED565B3CE
:104ED000BFF9431978DDB38071DBA9F6E2B60AE0C9
:104EE00062578E8BF5A9629AE8DE484AAA39752383
:104EF0003D3A71FB5676FEF2E2F6292DBC4BC861B5
:104F000062311C90E37B13D339E0743CF5A1CADD18
:104F100052066BE2915DC69D75A2CA85DE48B70157
:104F2000878670BF6DDDFF00A56D7409EDAD962914
:104F3000567D4E5DA4B079C2E1B70E40C72477A577
:104F4000420F96C178BC8DB50D5AC7646D34F1C05F
:104F5000DB4B2F8CE137A838E33DC1E08EB42ADD6E
:104F6000DC4F7A874F0A1D8ED0DB41600F5E7B7469
:104F7000E69CA9AAFA32295533DF11C96377A7CF76
:104F8000A4DE289043092B38E4C728048FF7AF9993
:104F9000D85AC13B7E34C2251D7D4D45EA1B82B2E5
:104FA0005CF1E357E43D743B295D1A2D43CCAC0919
:104FB000DF8229EDBC9696374B710DDC49229ECEDF
:104FC000306970CAA4ADE85B9C5AA3979722EEEEB5
:104FD0005B95656F15B7EE5E86ABC64D79D2FCDF8B
:104FE000F44BECE38E315EC71D2B68C2400DB91542
:104FF0003503BF7A2A3816EBC178F6B46AF83C6EEE
:1050000019C52FBE90C1A6DC3A9C33811AFDFAFE69
:10501000D451DC920E3B7B13C31DA49A44D2BBB285
:10502000DCC6C02807F367DA8CF876D215D451AE07
:10503000CA850BBC6EE86AE93D50D774D0C6FEDD68
:105040002EAEA49AD6355551CB01807DE94B4493C1
:105050002788A067BD21C9DD899DA765063C7435F9
:1050600006183D69899C995354A098C6E31EBCD18B
:10507000B56A86C4D478998958F7141CF701075E7D
:105080006BCF8AB74225DD0AA7BB919B0AA42FAF3D
:10509000AD5F6A2CD80DF0216EE4D5528B8C7E2C3E
:1050A000D7715688E8ED77A96A496E1D006E4EE10A
:1050B000C002AEBF748AE248165DD1AB63CBFC5828
:1050C000A29E35192A1D2824ED1D8878910C1F2FCA
:1050D000F28AB550E38A449EC4B64829152538EEB5
:1050E0003F5A5BD8258B3A838DC33F5A22398F5064
:1050F0006952804996148A41D36B7B74FD2A8920BA
:105100002BD471D88E86B2327D339A2BD83A60D7A1
:105110000AFB531304905CC4C80755A5334CF80B25
:1051200018E4F534DC4AFB396FB08D3B4ABABE7FD8
:10513000C178C3FA33E0D116D1C6977736F7968B8C
:1051400024B10C6E0F855F5CE3AD5504A524518638
:1051500029CD5F412AD6BD52740CABB4C639045276
:10516000CBCBCB88E396026395670090A305483CC0
:105170001E3ED575EBE3D1E9F3B8FC7A0B4F18CBA3
:1051800025CCA9B15E20B22824E48346416CB1420B
:1051900002160E5481EA33CFDA9A9683AA5B2B4823
:1051A00066D4E416B1A04703CBE33EDDDEBF7AB19F
:1051B000F4BB4B68A39750D4E242463C0406472315
:1051C0003E83A0A184D4955190CA9AE35B05D4EFA5
:1051D0006D7C046B112A489E5F14C610BFE87AD01C
:1051E000114D71728239EE4B239C06998908473D17
:1051F0007B513EC2ADD327F27756D72EDA74A6750F
:105200001D24879C8C7A751435EDDED556693C4992
:10521000F387475E36E01078E87AFED49E528C76AB
:105220002672718D822DE3210E0907272A09029C1F
:105230005A4D05D430979C46E596323B82C71903F8
:10524000E9CD0C24D49B6C5A9B93D9B13A27C3BFA8
:105250002BF28D6402953E15C2B7E2861D431F5E98
:10526000E3B11F4AC06A36EF6774F1789BF61CA35E
:1052700081C3AF63453852B2951941686BA0C8D35A
:10528000ACD7313C5E3244D1C91B1E26523F29FAAD
:10529000F4CF638A4E977B24712230DA0E149C106F
:1052A0007B66930728F62F166706FE99A5D0DA5B72
:1052B0005D3E3E1A3695B71273C93D3F6FEB5DD424
:1052C000DF58BB819265924B40DB4EC6DEA4E78C73
:1052D000E3A1FB53F3725897141677258D715B0A7F
:1052E000D0B4FD2A2859753B532CDCB10CE46DE792
:1052F00085E3DB39A32D2C6C12FEEEDED914199553
:105300006411124F9067201EA39C1F5C1F6A28C364
:10531000F194BB356377194C68D73269F1BCC70F7C
:105320000042C3772518741FE0D2D8F4E8353B4813
:10533000F51B9D3BC49CA6F903DD347E3607254052
:10534000EFC7B0A3C904D530E7857177F625B9D189
:10535000ADEDED7E74FF00A825ABB6D0DB55873DE3
:1053600007AFEA2903057BA4805995910951E1C84B
:10537000771C7720679A9DC230D226508E3F8C765C
:105380001B25BDEDB5A49F30E02CC466332125C993
:10539000EDC7534469B25EC37CC4CD6F23050B29AE
:1053A000C163F4E3BF5A34A5C824A4DF630B9D593D
:1053B000ACDA589101964C000FE58FFC9FF9CD15A2
:1053C000676F1BC0D3B79E50464FB7A73552D0D991
:1053D0002A56017B2BC5731C77320B9B29242D0485
:1053E0009B70636EEBEDD791F71518E3B257965BA0
:1053F000DB8F0417E22F00C8580FD80E3D6819DB69
:10540000F05FA668D7B69035EB88859B4A248676F0
:10541000758C38C9ECD823E9FA66AEBB58D6FB3395
:105420002C0F6A8BF82506E2E1B93E6EDE9C73C74D
:1054300051D696A370E3FB16A0E71E3F4CA219F4C9
:10544000E7BD884DA6388410A1609360519EBB7063
:105450007279EE79A2AC1A28AE24856366DB1B6DE7
:105460006006E65C9FDFA7EB4CA71EC6CB1B8F7DBB
:105470001384DC4E7C416E57072063F28A1EF2795A
:10548000C4C032BBA13C863BB3FAD152052D87EA9A
:105490003F29AC58DB230F1627C382BFF89C11ECC1
:1054A0007B533B7B562AA1A311C68060018C0A5A0C
:1054B000496C4BD3175DFC4B2DB4CB69A6C515DCED
:1054C00028DF8A5D372293D81FEB4D2D35E8F7484A
:1054D000059DB5A4E57CCD181C8FAD261536EBFFD8
:1054E00000B0611E76D7FF0060771ABFFAB5B5DE4F
:1054F0009661C5A4B1ED0F8C1C839DD9F5F6AC75F2
:10550000E7C3E72DE0DC301D830A8FD66658669529
:10551000589F54A309D09AE34BBC80E002E3FF00FC
:105520001E68222457D8C18377068F1E48E456850B
:10553000C64A4AD1ABD148FF004F58F396427F7F0D
:10554000F7A644E306BCBC9F9BFE934BB24C323D96
:10555000EA613C9F5A2461E5F7EF55C8FB41C77AE1
:105560002380998B371C93D294EBB3E5E3B74FCBF1
:1055700018C93EE68B0ABC81C3B1446515F2C7BFAA
:105580004A34DCACF7AB22F4DB80AA3A1FA55CD628
:10559000994C7A7637B192FB518A6B487C38C30CB0
:1055A000333761ED8AF49A34DA740D2C93C6E80E21
:1055B000081C52E4AE22F2C6D0BA541B88143BE455
:1055C00076A08B278943FB556325C01D49E29C8744
:1055D000C4D15CB1823543C10BCFB526B99D8E4095
:1055E00019A9B0C6DD80E3FEA3288E7318F31DDC75
:1055F000D308BC3780B77ED4DC91ADA33246B63138
:10560000815AD2297E500DEE9B4ED5E7E83DEA3A0D
:1056100086832DAE9D1DE312D275997F92831372FE
:105620004E4C64AEAC1D0F851221E38CD71A61EB92
:10563000FBD2EADD88640CB9EF51DC4D1240B67B39
:10564000049A2217913B9C7BD64A9AA3376131DD9D
:10565000AF7345477008E0823B8A9678DA18ACB79A
:105660006ABF29C1F426AB6888EA2862FC339A38FD
:10567000A9871C714AEE2030C9B0A90C3D69D89E9B
:10568000C168B6C94B5D45C1C0619C5192B69B1DB6
:10569000FF00CC5C5ACD219B719149C46483D40E28
:1056A000F5E8FA58276D977A3C4A49B60A6D639E29
:1056B000F4378096CA577210095FDA86BDB6F06675
:1056C000559652FC64EC39155AC6923D28E28C5628
:1056D000912B2D42F44EA4BE635FE0238357EA1A58
:1056E00083F8BBE2CC6072578393592CB28455F98E
:1056F00015964E2AFED8D6D76EA16A3FEA1209FD4A
:105700007DE96CD34DA6B234B1A49716F20273E6CC
:10571000574EDF6AE9E449D00F253715F4775382F5
:10572000DF51BB32E9EDB1080591BCAAAC7B2FB7C4
:10573000B5570D8954685EED10EF0761048E3BE6A6
:105740008632738725D8509B9E3E5E4B22B2FC6505
:1057500068D790721D495C01DFD450DA9E9CA6097F
:10576000675C167CCAD91CA36E3C03E98E6BB3B68A
:1057700095CB5B5FF21678BE2DB15E976CB732C8E1
:105780008FD42E471EF5A38746D3E38FC5F989D35F
:1057900070CA6C2A4A7D57A9E7D2A78A73C8E1E28A
:1057A00085FA7C4B2136D59634688BB1C9C963F92B
:1057B0005BEDD4527D4D5A6863950ABA9E8C3AA926
:1057C000F4355C9DC6BB3D0CA970E3E4053740771A
:1057D000A8645230F86C0639EDFB714E349D0D2FE4
:1057E00035777120B8B48955D9FA6E246769F707FF
:1057F000AD2A10B9104636D45FD9AEBB92D4DB4D7A
:105800002F80A270D95C0C6493819EDE9F4141C1C0
:10581000A44B111135E491C933F9CC83F0646EA423
:10582000065E7354BE5CBF43945F3BF024D6269D56
:105830006EA42AAD1B290B22E7A11C706B49F0FD59
:10584000DDA4BA742A5DA0BD8D892E4EE1213CFFF6
:10585000004E2B9CEA490EC936A90EAE6D92FEC2CF
:105860006889F2165DC13927073C7F4A5B716EB1CA
:10587000C9BCDA480818DC263903A74E98A725C901
:105880009D8DB7A04BE5DBA77CA40CD0DBB2E4E395
:105890008209EE71D79EBEA290C3A0CD6C435B0778
:1058A00092590FFDB8C067C1F7E94A9A576226D7E7
:1058B0002B6BA2D3A34B70D3BBCCB3DCDAA12903EF
:1058C00036027AE4F76E450FA3BD9590F067B811E4
:1058D000C9924BC83033F5FB52F5195B14924EC395
:1058E000A7FF004BB991C45790493803CE5B0ABE5D
:1058F000E4F427DAAEB3B9F9590ABE5E17F23F1CD9
:10590000F1D1BEB8A643273934BC06A7CF40DA93FD
:10591000D8A4372A2E54EF40CB1F39DE082BC76E90
:105920000919F4341BDDADE4622B82CCA872197125
:10593000BD723DFA8A26D586BB1A6A9BB5130CB791
:105940001294023020882E36A9EF83FB9A14471C4C
:1059500013883509A4C28C2B81E503AF228D2496D0
:105960008675A45B77711592288622ECFF00964716
:10597000202E3D463AD2DD01EEE4D5B74B3B24ACB8
:10598000C71C746C1C7D8D4D9539CB8F81399B94D0
:10599000A9F46A2E1E69A0B86DCAB2242591A3523B
:1059A000B875E41FEC7DA85B3BEBA993E666B66F88
:1059B000C31E74922C6C3EBD3914C6BC0BAA1CDBF2
:1059C0006990A5A29745493267765180848F6F6EA2
:1059D000B562F8FE3F82D297565CA1EDD3823FE6D6
:1059E0002B1550376EC4E9796684DB6A5146AA1FCD
:1059F0000D35930F0CB0F5038AB5AD6D04B7525A4F
:105A0000CAF742388CCCBB426E1E99FA7B50A8254F
:105A100025C7AEC6C235255D0169F7D24D71E1CE0D
:105A20003C185CF944631B7DCB1E7DA9C7C95BC8CC
:105A3000BB95411EA0D49EAFD3C253DF64FEB61106
:105A40008E4A3C60B5B78DA4654455192C7B56171A
:105A5000E20D42DAFAF03DBC4AAB1F1E26397A52FB
:105A60008460AA246DD2A4474B9FC30AFD403861CD
:105A7000ED4FF82BC73C7150E655312C9023839F96
:105A8000AD755C2B11C9F4AC89844BF35436F958CD
:105A9000851C0AE949246A560D79325940D23105EC
:105AA000B181F5F4ACBCB70F23317E4B1C9AA3D265
:105AB000C2D3931B188769EB6274CBDF9E859A472C
:105AC00003C0915B98D867B770697C70C85C6D53F0
:105AD000CF4AA94BBB1ADD20E963BAB388CB04B225
:105AE000229FCD838A5EF713487324AEC739E5B38E
