:020000042000DA
:10000000C81500206D110020710D0020750D002015
:10001000790D00207D0D0020810D002000000000E2
:10002000000000000000000000000000890D00201A
:10003000850D0020000000008D0D0020910D002096
:10004000950D0020990D00209D0D0020A10D002090
:10005000A50D0020A90D0020AD0D0020B10D002040
:10006000B50D0020B90D0020BD0D0020C10D0020F0
:10007000C50D0020C90D0020CD0D0020D10D0020A0
:10008000D50D0020D90D0020DD0D0020E10D002050
:10009000E50D0020E90D0020ED0D0020F10D002000
:1000A000F50D0020F90D0020010E0020050E0020A6
:1000B000090E00200D0E0020110E0020150E00204C
:1000C000190E00201D0E0020210E0020250E0020FC
:1000D000290E00202D0E0020310E0020350E0020AC
:0C00E000390E00203D0E0020410E0020D3
:1001800010B50400002C0AD0B4F5803F07D0B4F5B8
:10019000802F04D0AF21DFF8380400F037FDDFF8FE
:1001A0002C04006800687FF480310840DFF81C14DC
:1001B00009680860DFF81404006800687FF4802193
:1001C0000840DFF80814096808605FF48030241ADA
:1001D00004D05FF44030241A0BD014E0DFF8EC03B5
:1001E0000068006850F48030DFF8E01309680860A8
:1001F00009E0DFF8D8030068006850F4A020DFF8B9
:10020000CC130968086010BD10B50400E4B2002CDE
:1002100008D0E4B2012C05D04FF48871DFF8B003A8
:1002200000F0F4FC0148E4B2046010BD000042425A
:1002300038B504000D000020002C0BD0B4F5803F31
:1002400008D0B4F5403F05D040F22B11DFF8800311
:1002500000F0DCFC002D2FD0B5F5802F2CD0B5F5AB
:10026000002F29D0B5F5402F26D0B5F5801F23D01B
:10027000B5F5A01F20D0B5F5C01F1DD0B5F5E01F06
:100280001AD0B5F5001F17D0B5F5101F14D0B5F56D
:10029000201F11D0B5F5301F0ED0B5F5401F0BD083
:1002A000B5F5501F08D0B5F5601F05D04FF4967115
:1002B000DFF81C0300F0AAFCDFF8100300684068B8
:1002C0007FF47C11084055EA04010843DFF8FC1272
:1002D0000968486031BD000010B50400E4B2002C8C
:1002E00008D0E4B2012C05D04FF4A371DFF8E0028E
:1002F00000F08CFC0148E4B2046010BD6000424292
:1003000010B504000020002C09D0012C07D0022CCD
:1003100005D040F25B11DFF8B80200F077FCDFF89F
:10032000AC0200684068032188432043DFF89C1238
:100330000968486010BD000010B504000020002CC2
:1003400015D0802C13D0902C11D0A02C0FD0B02C15
:100350000DD0C02C0BD0D02C09D0E02C07D0F02C25
:1003600005D04FF4C871DFF8680200F04FFCDFF8E9
:100370005C0200684068F02188432043DFF84C129B
:100380000968486010BD000010B504000020002C72
:1003900011D0B4F5806F0ED0B4F5A06F0BD0B4F5CA
:1003A000C06F08D0B4F5E06F05D040F2B111DFF8AE
:1003B000200200F02BFCDFF81402006840687FF494
:1003C000E06108402043DFF804120968486010BD6E
:1003D00010B504000020002C11D0B4F5806F0ED0B1
:1003E000B4F5A06F0BD0B4F5C06F08D0B4F5E06FD2
:1003F00005D04FF4E971DFF8D80100F007FCDFF811
:10040000CC01006840687FF46051084050EAC400A5
:10041000DFF8B8110968486010BD000010B504008D
:10042000002C07D0012C05D040F21221DFF8A001EA
:1004300000F0ECFB0148046010BD00BFD800424250
:1004400010B504000020002C0ED0B4F5804F0BD066
:10045000B4F5004F08D0B4F5404F05D040F2292143
:10046000DFF86C0100F0D2FBDFF860010068406843
:100470007FF4404108402043DFF85011096848608C
:1004800010BD000038B504000D002A48204201D1FB
:10049000002C04D140F225314D4800F0B7FBEDB2FD
:1004A000002D07D0EDB2012D04D040F2263148488E
:1004B00000F0ACFBEDB2002D07D044480068806925
:1004C000204342490968886107E040480068806924
:1004D000E14308403D490968886131BD38B50400F1
:1004E0000D001448204201D1002C04D140F26331A8
:1004F000374800F08BFBEDB2002D07D0EDB2012D97
:1005000004D04FF45971324800F080FBEDB2002D59
:1005100007D02E480068C06820432C490968C8608D
:1005200007E02A480068C068E14308402749096895
:10053000C86031BD82A1FFFF10B504000021002278
:100540000020E4B2202C22D0E4B2312C1FD0E4B23F
:10055000392C1CD0E4B2412C19D0E4B2612C16D055
:10056000E4B27A2C13D0E4B27B2C10D0E4B27C2C11
:100570000DD0E4B27D2C0AD0E4B27E2C07D0E4B2D8
:100580007F2C04D040F2DF31114800F03FFBE4B291
:100590006109C9B2012903D10C480068026808E06A
:1005A000022903D109480068026A02E0074800688E
:1005B000426AE4B214F01F01012088401040401E3E
:1005C0008041C043C00FC0B210BD0000E81500203C
:1005D000C40F002010B50400B4F5E06F10D0B4F5DE
:1005E000C06F0DD0B4F5A06F0AD0B4F5806F07D0FE
:1005F000B4F5407F04D06421DFF8700200F006FB00
:10060000DFF86C02006802492143C16010BD0000A0
:100610000000FA0538B50400002000210022002364
:100620000F2594F803C0BCF1000F07D0E078012833
:1006300004D07A21DFF8340200F0E8FA20780028AC
:1006400000F084802078012800F080802078022843
:100650007CD02078032879D02078042876D02078A0
:10066000052873D02078062870D0207807286DD010
:10067000207808286AD02078092867D020780A28AE
:1006800064D020780B2861D020780C285ED02078A8
:100690000D285BD020780E2858D020780F2855D010
:1006A0002078102852D0207811284FD02078122896
:1006B0004CD02078132849D02078142846D02078B0
:1006C000152843D02078162840D0207817283DD010
:1006D000207818283AD02078192837D020781A287E
:1006E00034D020781B2831D020781C282ED02078B8
:1006F0001D282BD020781E2828D020781F2825D010
:100700002078202822D0207821281FD02078222865
:100710001CD02078232819D02078242816D02078BF
:10072000252813D02078262810D0207827280DD00F
:10073000207828280AD02078292807D020782A284D
:1007400004D07B21DFF8240100F060FA60781028E3
:1007500004D37C21DFF8140100F058FAA0781028A7
:1007600004D37D21DFF8040100F050FAE07800287E
:1007700041D0DFF8FC000068C06810F4E060D0F5FC
:10078000E060000AD0F10403C54060789840A17889
:10079000294008430001217811F00301C9B2C900C2
:1007A000884021788910DFF87C20126812EB8101E3
:1007B000D1F80013FF22237813F00303DBB2DB0030
:1007C0009A40D34319401040014320788010DFF84D
:1007D0005420126812EB8000C0F8001320784011FA
:1007E000DFF8401009680122237813F01F039A40B4
:1007F00041F820200DE020784011DFF8281009682A
:1008000011EB80000121227812F01F029140C0F804
:10081000801031BD80B500F072FC01BD80B500F0E4
:1008200070FC01BDEC15002038B504000D00B4F1DA
:10083000005F07D0B4F1006F04D040F28B110B4879
:1008400000F0E4F90748854204D34FF4C671074825
:1008500000F0DCF904482840204305490968886015
:1008600031BD00BFFFFF010080FFFF1F4C0F0020C4
:10087000F015002070B504000D00002600220020B5
:10088000002300215FF0000C95F803E0BEF1000F9B
:1008900019D0E878042816D0E878282813D0E8780A
:1008A000482810D0E87814280DD0E87810280AD00D
:1008B000E8781C2807D0E878182804D07521DFF8DC
:1008C000B80100F0A3F92888002804D17621DFF8C8
:1008D000A80100F09BF9E87810F00F06E87810F016
:1008E000100F0FD0A87801280AD0A878022807D0C6
:1008F000A878032804D07E21DFF87C0100F086F977
:10090000A87806432888000624D0216800201DE02E
:10091000012383402A881A409A4216D183005FF04F
:100920000F0C1CFA03FC7FEA0C02114016FA03F2CA
:100930001143EA78282A02D1012282406261EA78D2
:10094000482A02D1012282402261401C0828DFD3BC
:100950002160002128884FF4807188422AD3616881
:10096000002024E001220300083312FA03F32A884E
:100970001A409A421AD183005FF00F0C1CFA03FC54
:100980007FEA0C02114016FA03F21143EA78282A92
:1009900004D10122030008339A406261EA78482AB0
:1009A00004D10122030008339A402261401C082828
:1009B000D8D3616070BD000070B505000E00140052
:1009C000B6B2012E42D0B6B2022E3FD0B6B2042E3D
:1009D0003CD0B6B2082E39D0B6B2102E36D0B6B250
:1009E000202E33D0B6B2402E30D0B6B2802E2DD0CD
:1009F0004FF48070B6B2864228D04FF40070B6B281
:100A0000864223D04FF48060B6B286421ED04FF4A7
:100A10000060B6B2864219D04FF48050B6B286421A
:100A200014D04FF40050B6B286420FD04FF480403D
:100A3000B6B286420AD04FF40040B6B2864205D024
:100A400040F25D11DFF8300000F0E0F8E4B2002C75
:100A500008D0E4B2012C05D04FF4AF71DFF81800D4
:100A600000F0D4F8E4B2002C02D0B6B22E6101E05E
:100A7000B6B26E6170BD0000D40E002080B50120BA
:100A800000F05CF96048006840005F490860B0F51C
:100A9000004F03D85C480068002802D15A48012161
:100AA00001605948006800F039F801BD80B50120A7
:100AB000FFF7AAFB2020FFF73FFD0028FAD0002017
:100AC000FFF71EFC5FF48030FFF75AFB3120FFF781
:100AD00033FD0028FAD05FF4E0115FF48030FFF7B7
:100AE000A7FB0120FFF7F8FB3920FFF725FD0028C1
:100AF000FAD00020FFF792FC4FF44040FFF7A0FC33
:100B00000020FFF765FC4FF48060FFF73DFC0020FC
:100B1000FFF712FC0220FFF7F3FB01BD80B510F4D4
:100B20000040421E9241D20FD2B24FF4805135485C
:100B30000068FFF741FF01BD00B585B000F082F904
:100B4000FFF768FEFFF7B2FF00215FF00050FFF7EC
:100B50006BFE4FF44070FFF73DFD01211C20FFF7B5
:100B600091FC00211C20FFF7B9FC03208DF8060042
:100B700010208DF807004FF48050ADF8040001A953
:100B800020480068FFF776FE1F480068FFF7C6FFA1
:100B900001214FF40060FFF775FC00214FF4006065
:100BA000FFF79CFC4FF43470ADF808000020ADF85E
:100BB0000A0042F21070ADF80C000020ADF80E00F3
:100BC00000208DF8100002A800F022F8012000F0AB
:100BD000B5F80121012000F07FF819208DF8000000
:100BE00007208DF8010000208DF8020001208DF80B
:100BF000030000A8FFF70EFD012000F059F8FFF7F1
:100C00000DFEFEE7D8150020C8150020FEE7000005
:100C100010B504006088002811D0608810280ED01C
:100C2000608820280BD06088402808D06088602821
:100C300005D04FF49A71DFF80001FFF7E7FFE08875
:100C400000280FD0E0884FF4807188420AD0E088F5
:100C50004FF40071884205D040F23511DFF8D8001A
:100C6000FFF7D4FFDFF8CC000068A1888185DFF8AA
:100C7000C400006821880185DFF8B800006800889A
:100C800010F09F00DFF8AC1009680880DFF8A400BE
:100C900000680088E188628811430843DFF89410F7
:100CA00009680880DFF88C000068217A018610BD91
:100CB00010B50400E4B2002C08D0E4B2012C05D039
:100CC00040F21E31DFF87000FFF7A0FF0148E4B2E8
:100CD000046010BD0080254238B504000D0014F4F6
:100CE0007F4F02D1A4B2002C04D14FF453711248AB
:100CF000FFF78CFFEDB2002D07D0EDB2012D04D02F
:100D000040F24D310C48FFF781FFEDB2012D07D1C4
:100D1000084800688089204306490968888107E0FF
:100D2000044800688089E1430840024909688881D5
:100D300031BD0000DC1500203C10002010B504007F
:100D400014F47F4F02D1A4B2002C04D140F6182134
:100D50000548FFF75BFF05480068008AE14308404B
:100D600002490968088210BD3C100020DC150020F3
:100D700070470000FEE70000FEE70000FEE700000D
:100D8000FEE7000070470000704700007047000059
:100D90007047000070470000704700007047000077
:100DA0007047000070470000704700007047000067
:100DB0007047000070470000704700007047000057
:100DC0007047000070470000704700007047000047
:100DD0007047000070470000704700007047000037
:100DE0007047000070470000704700007047000027
:100DF000704700007047000080B5FFF73FFE01BD5F
:100E00007047000070470000704700007047000006
:100E100070470000704700007047000070470000F6
:100E200070470000704700007047000070470000E6
:100E300070470000704700007047000070470000D6
:100E4000704700000F4810490160104810490160C8
:100E500010481149016011481149016011481249B7
:100E60000160124812490160124813490160134899
:100E70001349016013481449016014481449016082
:100E8000704700BFE015002000200240E41500205C
:100E900000F8FF1FD015002000080140D4150020E5
:100EA000000C0140D815002000100140CC15002096
:100EB00000000140EC15002000E100E0F0150020EA
:100EC00000ED00E0E815002000100240DC150020D5
:100ED000002C0140433A5C446F63756D656E74731A
:100EE00020616E642053657474696E67735C62750B
:100EF0006C61746F765CD0E0E1EEF7E8E920F1F226
:100F0000EEEB5C45572D41524D3531312053544D58
:100F100033322D503130335C45572D41524D3531F0
:100F2000312053544D33322D503130335C6C696273
:100F3000726172795C7372635C73746D33326631A3
:100F400030785F6770696F2E63000000433A5C443D
:100F50006F63756D656E747320616E642053657484
:100F600074696E67735C62756C61746F765CD0E0F7
:100F7000E1EEF7E8E920F1F2EEEB5C45572D415246
:100F80004D3531312053544D33322D503130335C97
:100F900045572D41524D3531312053544D33322D6B
:100FA000503130335C6C6962726172795C73726368
:100FB0005C73746D3332663130785F6E7669632EA0
:100FC00063000000433A5C446F63756D656E747333
:100FD00020616E642053657474696E67735C62751A
:100FE0006C61746F765CD0E0E1EEF7E8E920F1F235
:100FF000EEEB5C45572D41524D3531312053544D68
:1010000033322D503130335C45572D41524D3531FF
:10101000312053544D33322D503130335C6C696282
:10102000726172795C7372635C73746D33326631B2
:1010300030785F7263632E6300000000433A5C44C3
:101040006F63756D656E747320616E642053657493
:1010500074696E67735C62756C61746F765CD0E006
:10106000E1EEF7E8E920F1F2EEEB5C45572D415255
:101070004D3531312053544D33322D503130335CA6
:1010800045572D41524D3531312053544D33322D7A
:10109000503130335C6C6962726172795C73726377
:1010A0005C73746D3332663130785F74696D312EE4
:1010B0006300000030BF704720BF704740BF7047DB
:1010C000BFF36F8F7047BFF34F8F7047BFF35F8FD2
:1010D000704701DF7047EFF31480704780F3148886
:1010E000BFF36F8F7047EFF30980704780F3098873
:1010F0007047EFF30880704780F30888704772B636
:10110000704762B6704771B6704761B6704780F33A
:1011100011887047EFF31280704740BA704700BAE9
:10112000704700005111002030000000C815002059
:101130000000000010B50448044C02E050F8041B05
:101140008847A042FAD110BD24110020341100209C
:10115000002305E050F8041B41F8043B121FFBD1AB
:1011600050F8042B002AF5D17047000000F026F853
:10117000002801D0FFF7DEFF0020FFF7DDFC00F0C4
:101180001FF8000080B504490868002803D0022039
:10119000ABBE0020086001BDF415002080B5FFF74C
:1011A000F1FF02491820ABBEFCE7C0462600020052
:1011B00007463846FFF7F2FFFBE7000001207047C3
:0411C000FFF7F6BF80
:040000052000116D59
:00000001FF
