:020000040800F2
:10000000A80400202D190008211700082317000854
:10001000251700082717000829170008000000000E
:100020000000000000000000000000002D17000884
:100030002B170008000000002F17000831170008D8
:10004000331700083517000837170008391700085C
:100050003B1700083D1700083F170008411700082C
:1000600043170008451700084717000849170008FC
:100070004B1700084D1700084F17000851170008CC
:10008000531700085517000857170008591700089C
:100090005B1700085D1700085F170008611700086C
:1000A00063170008651700086D1700086F17000830
:1000B00071170008731700087517000877170008F4
:1000C000791700087B1700087D1700087F170008C4
:1000D0008117000883170008851700088717000894
:0C00E000891700088B1700088D17000816
:1000EC0010B50400002C0AD0B4F5803F07D0B4F54D
:1000FC00802F04D0A021DFF8040500F0CFFBDFF83F
:10010C00F8040068006830F48030DFF8EC140968FB
:10011C000860DFF8E4040068006830F48020DFF841
:10012C00D81409680860B4F5803F03D0B4F5802F6B
:10013C000BD015E0DFF8C0040068006850F4803084
:10014C00DFF8B414096808600AE0DFF8AC04006852
:10015C00006850F4A020DFF8A01409680860FFE7DD
:10016C0010BD10B50400E4B2002C07D0E4B2012C91
:10017C0004D0FE21DFF8840400F090FBDFF880044B
:10018C00E4B2046010BD38B504000D000020002C52
:10019C000BD0B4F5803F08D0B4F5403F05D04FF4F8
:1001AC008C71DFF8580400F079FB002D2FD0B5F5D9
:1001BC00802F2CD0B5F5002F29D0B5F5402F26D0A7
:1001CC00B5F5801F23D0B5F5A01F20D0B5F5C01F05
:1001DC001DD0B5F5E01F1AD0B5F5001F17D0B5F539
:1001EC00101F14D0B5F5201F11D0B5F5301F0ED04F
:1001FC00B5F5401F0BD0B5F5501F08D0B5F5601FF5
:10020C0005D040F21911DFF8F40300F047FBDFF8DA
:10021C00E8030068406830F47C1055EA0401084398
:10022C00DFF8D4130968486031BD10B50400E4B29E
:10023C00002C08D0E4B2012C05D04FF49971DFF8F2
:10024C00BC0300F02BFBDFF8BC03E4B2046010BD70
:10025C0010B504000020002C09D0012C07D0022C72
:10026C0005D04FF4A371DFF8940300F017FBDFF80F
:10027C00880300684068800880002043DFF878130A
:10028C000968486010BD10B504000020002C15D082
:10029C00802C13D0902C11D0A02C0FD0B02C0DD0C2
:1002AC00C02C0BD0D02C09D0E02C07D0F02C05D0D2
:1002BC0040F27911DFF8440300F0F0FADFF838036C
:1002CC000068406830F0F0002043DFF82C13096818
:1002DC00486010BD10B504000020002C11D0B4F5FE
:1002EC00806F0ED0B4F5A06F0BD0B4F5C06F08D0F2
:1002FC00B4F5E06F05D040F29911DFF8000300F07F
:10030C00CDFADFF8F4020068406830F4E060204376
:10031C00DFF8E4120968486010BD10B50400002035
:10032C00002C11D0B4F5806F0ED0B4F5A06F0BD0AB
:10033C00B4F5C06F08D0B4F5E06F05D040F2B91138
:10034C00DFF8B80200F0AAFADFF8AC0200684068E7
:10035C0030F4605050EAC400DFF89C120968486021
:10036C0010BD10B50400002C07D0012C05D040F2B4
:10037C00F711DFF8880200F091FADFF88C020460C4
:10038C0010BD10B504000020002C0ED0B4F5804F29
:10039C000BD0B4F5004F08D0B4F5404F05D040F267
:1003AC000D21DFF8580200F079FADFF84C020068F2
:1003BC00406830F440402043DFF83C120968486044
:1003CC0010BD30B40022002100230024DFF8285295
:1003DC002D686D6815F00C052A00002A04D0042A3B
:1003EC0006D0082A08D02CE0DFF8201201602BE0A0
:1003FC00DFF81812016027E0DFF8FC110968496882
:10040C0011F47011890C891CDFF8EC211268526808
:10041C0012F48033002B04D1DFF8F4215143016036
:10042C000EE0DFF8D42112685268920304D5DFF88D
:10043C00E0215143016003E0DFF8D021514301601A
:10044C0002E0DFF8C8110160DFF8AC1109684968F7
:10045C0011F0F0021209DFF8BC11545C0168E140A4
:10046C004160DFF894110968496811F4E062120ADE
:10047C00DFF8A011545C4168E1408160DFF878112D
:10048C000968496811F46052D20ADFF88811545C8B
:10049C004168E140C160DFF860110968496811F4F6
:1004AC004042920BDFF87011545CC168B1FBF4F15F
:1004BC00016130BC704738B504000D00DFF85C01F9
:1004CC00044201D1002C04D140F202314B4800F01F
:1004DC00E5F9EDB2002D07D0EDB2012D04D040F2BC
:1004EC000331464800F0DAF9EDB2002D07D042484E
:1004FC0000688069204340490968886106E03E48ED
:10050C0000688069A0433C490968886131BD38B5F1
:10051C0004000D004148044201D1002C04D140F2EA
:10052C003E31364800F0BAF9EDB2002D07D0EDB2ED
:10053C00012D04D040F23F31304800F0AFF9EDB25C
:10054C00002D07D02C480068C06820432A49096850
:10055C00C86006E028480068C068A04326490968BE
:10056C00C86031BD10B50400002100220020E4B2A7
:10057C00202C22D0E4B2312C1FD0E4B2392C1CD068
:10058C00E4B2412C19D0E4B2612C16D0E4B27A2C2E
:10059C0013D0E4B27B2C10D0E4B27C2C0DD0E4B29E
:1005AC007D2C0AD0E4B27E2C07D0E4B27F2C04D090
:1005BC0040F2B531114800F071F9E4B26109C9B2E9
:1005CC00012903D10C480068026808E0022903D114
:1005DC0009480068026A02E007480068426AE4B20F
:1005EC0014F01F0101208840024201D0012000E0DC
:1005FC000020C0B210BD000094000020401600087E
:10060C000000424260004242D800424200127A008E
:10061C0000093D001C1900083819000882A1FFFFD1
:10062C0080B5012000F0E8F994480068002808D152
:10063C0092480121016020219048006800F04EF89A
:10064C0007E08E480021016020218C48006800F0F2
:10065C0045F88B4800F016FB01BD80B50120FFF773
:10066C0080FD2020FFF77EFF0028FAD00020FFF746
:10067C00EFFD5FF48030FFF733FD3120FFF772FFA1
:10068C000028FAD05FF4E0115FF48030FFF77BFDB7
:10069C000120FFF7CAFD3920FFF764FF0028FAD0CC
:1006AC000020FFF75EFE4FF44040FFF76AFE00208B
:1006BC00FFF733FE4FF48060FFF70CFE0020FFF7CE
:1006CC00E2FD022000F0EAFA002000F003FB10200B
:1006DC0000F01AFB0220FFF7BBFD01BD80B500281E
:1006EC0001D0012200E00022D2B289B26548006834
:1006FC0000F0C2FB01BD00B58BB000F017FC00F0A0
:10070C0049FEFFF7AAFF00215FF0006000F04AFEEF
:10071C004FF4407000F022FD01211C20FFF7CBFEAE
:10072C0000211C20FFF7F3FE03208DF8020010209F
:10073C008DF803007020ADF8000000A95148006846
:10074C0000F000FB10210120FFF7C8FF2021012041
:10075C00FFF7C4FF40210120FFF7C0FF01214FF438
:10076C008040FFF7A8FE00214FF48040FFF7CFFE3A
:10077C0018208DF803004FF40070ADF80000032032
:10078C008DF8020000A93F48006800F0DBFA042055
:10079C008DF803004FF48060ADF8000000A93948D3
:1007AC00006800F0CFFA5FF4E13005900020ADF85E
:1007BC0018000020ADF81A000020ADF81C00002035
:1007CC00ADF81E000C20ADF8200005A92E480068DD
:1007DC0000F02CF901212C48006800F0D9F92B48C5
:1007EC0000F050FA2A4800F04DFA2A4800F04AFA74
:1007FC00264800F047FA20A000F044FA264800F002
:10080C0041FA01214FF40060FFF755FE00214FF42F
:10081C000060FFF77CFE4FF43470ADF80800002048
:10082C00ADF80A004CF25030ADF80C000020ADF8D9
:10083C000E0000208DF8100002A800F041F80120F5
:10084C0000F0DAF80121012000F09DF819208DF854
:10085C00040007208DF8050000208DF8060001200B
:10086C008DF8070001A800F098FC012000F078F842
:10087C0000F094FDFEE700000D0A000000000020CF
:10088C00B0180008440000206800002090170008F1
:10089C00DC170008281800080C190008FEE750F8AF
:1008AC00041B61B150F8042BD30744BFA9F1010319
:1008BC009A18002342F8043B091FFAD1EFE770475E
:1008CC0010B504006088002811D0608810280ED064
:1008DC00608820280BD06088402808D06088602869
:1008EC0005D040F22511DFF80401FFF7D7FFE088AF
:1008FC0000280FD0E0884FF4807188420AD0E0883D
:10090C004FF40071884205D04FF49371DFF8DC008E
:10091C00FFF7C4FFDFF8D8000068A1888185DFF8F5
:10092C00D000006821880185DFF8C40000680088C9
:10093C0010F09F00DFF8B81009680880DFF8B000ED
:10094C0000680088E188628811430843DFF8A01032
:10095C0009680880DFF898000068217A018610BDCC
:10096C0010B50400E4B2002C08D0E4B2012C05D080
:10097C004FF44171DFF87400FFF790FFDFF874005B
:10098C00E4B2046010BD38B504000D004FF47F4094
:10099C00044202D1A4B2002C05D14FF44C71DFF803
:1009AC004C00FFF77BFFEDB2002D08D0EDB2012D0E
:1009BC0005D040F23131DFF83400FFF76FFFEDB2B4
:1009CC00012D09D1DFF82800006880892043DFF869
:1009DC0020100968888108E0DFF81400006880891D
:1009EC00A043DFF80C100968888131BDB0160008EF
:1009FC00600000200080254210B504004FF47F40B9
:100A0C00044202D1A4B2002C04D140F6B511064820
:100A1C00FFF744FF03480068008AA04301490968B6
:100A2C00088210BD60000020B016000870B586B0BA
:100A3C0004000D0000260020002100222B68002B52
:100A4C0004D02868DFF82C12884204D37221DFF816
:100A5C002802FFF723FFA888002808D0A888B0F543
:100A6C00805F04D07321DFF81002FFF717FFE888CE
:100A7C00002810D0E888B0F5805F0CD0E888B0F57D
:100A8C00005F08D0E888B0F5405F04D07421DFF82F
:100A9C00E801FFF703FF288900280CD02889B0F55E
:100AAC00806F08D02889B0F5C06F04D07521DFF8AD
:100ABC00C801FFF7F3FE6889002813D068894FF44A
:100ACC00807188420ED068894FF40071884209D039
:100ADC0068894FF44071884204D07621DFF8980180
:100AEC00FFF7DCFEA8894FF6F371084202D1A88902
:100AFC00002804D17721DFF88001FFF7CFFE268A8A
:100B0C004CF2FF000640E888E9890843298A08432B
:100B1C00698A0843A98A0843064326820026A089CD
:100B2C0006004EF6F3100640A88829890843A989C7
:100B3C0008430643A6810026A08A06004FF6FF4014
:100B4C00064068890643A682002600A8FFF739FCF8
:100B5C00DFF82801844201D1039800E002981921A2
:100B6C00484329688900B0FBF1F16420B1FBF0F037
:100B7C0006013009642202FB10121001323064218C
:100B8C00B0FBF1F010F00F000643268106B070BDEB
:100B9C0038B504000D00EDB2002D07D0EDB2012DDB
:100BAC0004D0E721DFF8D000FFF778FEEDB2002D7E
:100BBC0004D0A08950F40050A08104E0A0894DF627
:100BCC00FF710840A08131BD38B504000D004FF411
:100BDC000070ADB2854205D340F2CD11DFF898001C
:100BEC00FFF75CFEE805C00DA08031BD38B50400F0
:100BFC000D000020ADB2012D23D0ADB2802D20D040
:100C0C00ADB2402D1DD0ADB2202D1AD0ADB2102DED
:100C1C0017D04FF48070ADB2854212D04FF40070F3
:100C2C00ADB285420DD0ADB2082D0AD0ADB2042DB7
:100C3C0007D0ADB2022D04D040F2A2210E48FFF72E
:100C4C002DFE2088284201D0012000E00020C0B2F7
:100C5C0032BD80B5C0B2010089B209480068FFF707
:100C6C00B3FF802106480068FFF7C0FF0028F8D0CA
:100C7C0001BD000021AA4400EC140008003801401A
:100C8C006800002010B5040003E02078FFF7E1FFB6
:100C9C00641C20780028F8D110BD000010B50400A9
:100CAC00002C07D0012C05D0022C03D04B2123485B
:100CBC00FFF7F4FD22480068006810F03800204966
:100CCC00096808601E480068006820431C490968D0
:100CDC00086010BD10B50400082C05D0002C03D002
:100CEC005E211648FFF7DAFD15480068006830F001
:100CFC00080013490968086011480068006820431F
:100D0C000F490968086010BD10B50400102C05D0FF
:100D1C00002C03D071210948FFF7C0FD084800687A
:100D2C00006830F010000649096808600448006843
:100D3C000068204302490968086010BD7814000857
:100D4C008C000020F8B504000D00002600220020C5
:100D5C0000230021002795F803C0BCF1000F19D027
:100D6C00E878042816D0E878282813D0E8784828A2
:100D7C0010D0E87814280DD0E87810280AD0E8783C
:100D8C001C2807D0E878182804D06521DFF89801D2
:100D9C00FFF784FD2888002804D16621DFF888013C
:100DAC00FFF77CFDE87810F00F06E878C0060FD549
:100DBC00A87801280AD0A878022807D0A878032898
:100DCC0004D06E21DFF86001FFF768FDA8780643B8
:100DDC002878000622D0216800201BE0012212FA9C
:100DEC0000F32A881A409A4213D183000F2212FA78
:100DFC0003F7B94316FA03F21143EA78282A02D111
:100E0C00012282406261EA78482A02D101228240A2
:100E1C002261401C0828E1D32160002128884FF46E
:100E2C008071884227D36168002021E0012210F1F3
:100E3C00080312FA03F32A881A409A4217D1830046
:100E4C000F2212FA03F7B94316FA03F21143EA78A8
:100E5C00282A04D1012210F108039A406261EA7831
:100E6C00482A04D1012210F108039A402261401C47
:100E7C000828DBD36160F1BD70B504000D001600CD
:100E8C00ADB2012D3CD0ADB2022D39D0ADB2042D96
:100E9C0036D0ADB2082D33D0ADB2102D30D0ADB2AE
:100EAC00202D2DD0ADB2402D2AD0ADB2802D27D023
:100EBC004FF48070ADB2854222D04FF40070ADB2C9
:100ECC0085421DD0ADB2B5F5806F19D0ADB2B5F578
:100EDC00006F15D0ADB2B5F5805F11D0ADB2B5F5E0
:100EEC00005F0DD0ADB2B5F5804F09D0ADB2B5F500
:100EFC00004F05D040F24511DFF82C00FFF7CEFC77
:100F0C00F6B2002E07D0F6B2012E04D04FF4A37126
:100F1C000548FFF7C3FCF6B2002E02D0ADB2256136
:100F2C0001E0ADB2656170BD601500083C483D49FB
:100F3C0001603D483D4901603D483E4901603E48E5
:100F4C003E4901603E483F4901603F483F490160CE
:100F5C003F48404901604048404901604048414990
:100F6C0001604148414901604148424901604248A1
:100F7C00424901604248434901604348434901608A
:100F8C004348444901604448444901604448454948
:100F9C00016045484549016045484649016046485D
:100FAC004649016046484749016047484749016046
:100FBC004748484901604848484901604848494900
:100FCC00016049484949016049484A4901604A4819
:100FDC004A4901604A484B4901604B484B49016002
:100FEC004B484C4901604C484C4901604C484D49B8
:100FFC0001604D485FF0804101604C484C490160F4
:10100C004C484D4901604D484D4901604D484E4991
:10101C0001604E484E4901604E484F49016070478F
:10102C0058000020002401405C00002000280140F2
:10103C0034000020006C00403000002000640040B0
:10104C006C000020000002407000002008000240EC
:10105C00740000201C000240780000203000024088
:10106C007C00002044000240800000205800024018
:10107C00840000206C0002408800002080000240A8
:10108C0040000020000401408C00002000200240A1
:10109C009000002000F8FF1F4400002000080140D1
:1010AC0048000020000C01404C00002000100140C2
:1010BC005000002000140140540000200018014092
:1010CC003C0000200000014028000020005400409B
:1010DC002C00002000580040180000200030004078
:1010EC009C00002000E100E0A000002000ED00E0EA
:1010FC0038000020007000409400002000100240D6
:10110C001000002000280040640000200030014046
:10111C001C000020003800409800002010E000E087
:10112C0060000020002C014004000020080000207A
:10113C00000400400C000020000800406800002063
:10114C000038014020000020004400402400002012
:10115C000048004014000020002C004010B5040092
:10116C00B4F5E06F11D0B4F5C06F0ED0B4F5A06F2C
:10117C000BD0B4F5806F08D04FF44070844204D08B
:10118C005421DFF86802FFF789FBDFF85C02006886
:10119C00DFF850122143C16010BD70B5040000206F
:1011AC000021002200230F25E678002E07D0E078DE
:1011BC00012804D06921DFF83402FFF76FFB207897
:1011CC00002800F084802078012800F080802078AE
:1011DC0002287CD02078032879D02078042876D077
:1011EC002078052873D02078062870D0207807281E
:1011FC006DD0207808286AD02078092867D020780C
:10120C000A2864D020780B2861D020780C285ED076
:10121C0020780D285BD020780E2858D020780F2805
:10122C0055D02078102852D0207811284FD0207813
:10123C0012284CD02078132849D02078142846D076
:10124C002078152843D02078162840D020781728ED
:10125C003DD0207818283AD02078192837D020781B
:10126C001A2834D020781B2831D020781C282ED076
:10127C0020781D282BD020781E2828D020781F28D5
:10128C0025D02078202822D0207821281FD0207823
:10129C0022281CD02078232819D02078242816D076
:1012AC002078252813D02078262810D020782728BD
:1012BC000DD0207828280AD02078292807D020782B
:1012CC002A2804D06A21DFF82401FFF7E7FA6078B6
:1012DC00102804D36B21DFF81401FFF7DFFAA07894
:1012EC00102804D36C21DFF80401FFF7D7FAE0785B
:1012FC00002840D0DFF8F0000068C06810F4E0600F
:10130C00D0F5E060000AD0F10403C5406078984045
:10131C00A178294008430001217811F00301C9B2DA
:10132C00C900884021788910DFF8C420126812EBBC
:10133C008101D1F80013FF22237813F00303DBB2F1
:10134C00DB009A4091431040014320788010DFF875
:10135C00A020126812EB8000C0F800132078401116
:10136C00DFF88C1009680122237813F01F039A40D0
:10137C0041F820200DE020784011DFF87410096846
:10138C0011EB80000121227812F01F029140C0F86D
:10139C00801070BD80B500F056F801BD80B500F02E
:1013AC0054F801BD38B504000D00B4F1005F07D04E
:1013BC00B4F1006F04D040F26B110C48FFF76EFAD9
:1013CC00DFF83000854204D34FF4B6710748FFF7BD
:1013DC0065FADFF824002840204303490968886037
:1013EC0031BD00000000FA05A0000020D015000857
:1013FC009C000020FFFF010080FFFF1F30BF7047E3
:10140C0020BF704740BF7047BFF36F8F7047BFF36B
:10141C004F8F7047BFF35F8F704701DF7047EFF35B
:10142C001480704780F31488BFF36F8F7047EFF30D
:10143C000980704780F309887047EFF30880704784
:10144C0080F30888704772B6704762B6704771B601
:10145C00704761B6704780F311887047EFF31280C4
:10146C00704740BA704700BA70470000443A5C536A
:10147C006F66745F54455C4469736B5F54452D53C0
:10148C00544D3332463130335C44656D6F2070728D
:10149C006F6772616D5C54452D4952353230205363
:1014AC00544D333246313033524554476574746968
:1014BC006E67537461727465645F503130305C4C8C
:1014CC006962726172795C7372635C73746D3332CE
:1014DC00663130785F666C6173682E6300000000C3
:1014EC00443A5C536F66745F54455C4469736B5F3C
:1014FC0054452D53544D3332463130335C44656D75
:10150C006F2070726F6772616D5C54452D49523556
:10151C0032302053544D33324631303352455447D8
:10152C00657474696E67537461727465645F50316D
:10153C0030305C4C6962726172795C7372635C739B
:10154C00746D3332663130785F75736172742E63EB
:10155C0000000000443A5C536F66745F54455C4471
:10156C0069736B5F54452D53544D333246313033D0
:10157C005C44656D6F2070726F6772616D5C544571
:10158C002D49523532302053544D3332463130339D
:10159C0052455447657474696E675374617274650F
:1015AC00645F503130305C4C6962726172795C738B
:1015BC0072635C73746D3332663130785F67706957
:1015CC006F2E6300443A5C536F66745F54455C4401
:1015DC0069736B5F54452D53544D33324631303360
:1015EC005C44656D6F2070726F6772616D5C544501
:1015FC002D49523532302053544D3332463130332D
:10160C0052455447657474696E675374617274659E
:10161C00645F503130305C4C6962726172795C731A
:10162C0072635C73746D3332663130785F6E7669D9
:10163C00632E6300443A5C536F66745F54455C449C
:10164C0069736B5F54452D53544D333246313033EF
:10165C005C44656D6F2070726F6772616D5C544590
:10166C002D49523532302053544D333246313033BC
:10167C0052455447657474696E675374617274652E
:10168C00645F503130305C4C6962726172795C73AA
:10169C0072635C73746D3332663130785F7263637E
:1016AC002E630000443A5C536F66745F54455C448F
:1016BC0069736B5F54452D53544D3332463130337F
:1016CC005C44656D6F2070726F6772616D5C544520
:1016DC002D49523532302053544D3332463130334C
:1016EC0052455447657474696E67537461727465BE
:1016FC00645F503130305C4C6962726172795C733A
:10170C0072635C73746D3332663130785F74696DFB
:10171C00312E63007047FEE7FEE7FEE7FEE77047F9
:10172C0070477047704770477047704770477047F5
:10173C0070477047704770477047704770477047E5
:10174C0070477047704770477047704770477047D5
:10175C00704770477047704780B5FEF761FF01BD59
:10176C0070477047704770477047704770477047B5
:10177C0070477047704770477047704770477047A5
:10178C00704700000D0A3D3D3D3D3D3D3D3D3D3D1D
:10179C003D3D3D3D3D3D3D3D3D3D3D3D3D3D3D3D6D
:1017AC003D3D3D3D3D3D3D3D3D3D3D3D3D3D3D3D5D
:1017BC003D3D3D3D3D3D3D3D3D3D3D3D3D3D3D3D4D
:1017CC003D3D3D3D3D3D3D3D3D3D3D3D0000000031
:1017DC000D0A3D2020202020202020202020202009
:1017EC00202020202020202020284329205445522E
:1017FC005241454C454354524F4E494341202020C1
:10180C0020202020202020202020202020202020CC
:10181C00202020202020203D000000000D0A3D202B
:10182C0020202020496E2D4170706C6963617469B1
:10183C006F6E2050726F6772616D6D696E672041BB
:10184C0070706C69636174696F6E202028566572C4
:10185C0073696F6E20312E302E30292020202020ED
:10186C002020203D0000000010B5084979441C31AF
:10187C00074C7C441A34A14206D0081D0A68511842
:10188C0088470146A142F8D110BD00BF08000000F6
:10189C00140000000BF0FFFFA4000000000000206B
:1018AC00000000000D0A205465737420696E746585
:1018BC007272757074204F4B2100000000F009F813
:1018CC00002801D0FFF7D0FF0020FEF714FF00F036
:1018DC0002F80120704780B500F002F800BF00004C
:1018EC000746384600F002F8FBE7000080B5C0461A
:1018FC00C046024A11001820ABBEFBE726000200CE
:10190C0053797374656D20746573743A000000002C
:10191C000000000001020304010203040607080989
:10192C00C046C046C046C046FFF7C8FF02040608C2
:040000050800192DA9
:00000001FF
